:020000000C945E
:100002001F010C9400000C9400000C9400000C944E
:1000120000000C9400000C9400000C9400000C945E
:1000220000000C9400000C9400000C9400000C944E
:1000320000000C9400000C9400000C9400000C943E
:1000420000000C9400000C9400000C9400000C942E
:1000520000000C94AD1D0C946C1D0C9400000C94CB
:1000620085020C9400000C9400000C9400000C9487
:1000720000000C9400000C9460020C9400000C949C
:1000820000000C9400000C9400000C9400000C94EE
:1000920000000C9400000C9400000C9400000C94DE
:1000A20000000C9400000C9400000C9400000C94CE
:1000B20000000C9400000C9491030C9487040C949F
:1000C20000000C9400000C9400000C9400000C94AE
:1000D20000000C9400000C9400000C9400000C949E
:1000E20000000C9400000C9400000C9400000C948E
:1000F20000000C9400000C9400000C9400000C947E
:100102000000005EBCE2613FDD83C29C7E20A3FD55
:100112001F419DC3217FFCA2401E5F01E3BD3E60E3
:1001220082DC237D9FC1421CFEA0E1BF5D0380DE15
:100132003C62BEE0025CDF81633D7C22C09E1D43C7
:10014200A1FF4618FAA427799BC584DA3866E5BB75
:100152005907DB856739BAE406581947A5FB7826A3
:10016200C49A653BD987045AB8E6A7F91B45C698D5
:100172007A24F8A6441A99C7257B3A6486D85B0587
:10018200E7B98CD2306EEDB3510F4E10F2AC2F7135
:1001920093CD114FADF3702ECC92D38D6F31B2EC63
:1001A2000E50AFF1134DCE90722C6D33D18F0C5295
:1001B200B0EE326C8ED0530DEFB1F0AE4C1291CF47
:1001C2002D73CA947628ABF517490856B4EA6937F5
:1001D200D58B5709EBB536688AD495CB2977F4AA23
:1001E2004816E9B7550B88D6346A2B7597C94A1455
:1001F200F6A8742AC896154BA9F7B6E80A54D78907
:100202006B35AE8CB6B5F349DD3ACC41D0BC2DE5A9
:100212000AB66E74843B204387BD0DE02140A430B2
:1002220075C32D4E414E000001002D4E414E004936
:100232004E4600000100056C2A020000F894EE27E9
:10024200F8EDA0E4F4BFA093100180E090E2A0E0FA
:10025200B0E6ED930197E9F7E6E3F2E08591959137
:10026200009761F0A591B59105901590BF01F0013D
:1002720005900D920197E1F7FB01F0CFE0E0ECBBB6
:10028200EDBBEEBBEFBBEFEFEDBFEFE7EEBFC0E0C4
:10029200D8E60C944C01F89410E0E8EDE4BF10931A
:1002A2001001E0E0E0931201E09313010E94940137
:1002B2000E94B9010E9437040E9466040E944E0502
:1002C2000E9467050E9485050E9440060E940E3129
:1002D200E4E0EA93A1E00E946F060E944B1DE8E071
:1002E200E0934604A0E00E947A30E4E0EA93A0E0C2
:1002F2000E946F060E94F62EA895E0919569A09142
:100302009469EA1710F00C9490010E947F1C3097B8
:1003120011F40C9490010E943C1C0E94DB1B0E9471
:100322003E0BEACFFFCF1A930A930FB7F89410E06F
:10033200E8EDE4BF1093800012E0E4BF1093800068
:100342001160E4BF1093800013E0E4BF10936000DB
:1003520010E0E4BF1093610010E0E4BF109363006B
:1003620011E0E4BF109362000FBF09911991089543
:10037200E0E1E0930404E4E9E0930004E0E0E093C8
:100382001004E0931104E0931204E8E0E0931304F4
:10039200E0E0E0931404E8E0E0931504E09316042F
:1003A200E0E0E0931704E0932404EFEFE0932004ED
:1003B200E0E0E0933004E0933104E0933204E09310
:1003C2003304E0933404E0933504E8E0E093360428
:1003D200E0933704E0934404EDEEE0934004E0E060
:1003E200E0935004E8E0E0935104E0E0E09352042B
:1003F200E0935304EBE0E0935404E0E0E09355040F
:10040200E0935604E0935704E0936404E09360049D
:10041200E8E0E0937004E0937104EBE0E09372048F
:10042200E0937304E0937404E0937504E09376041C
:10043200E0937704E0E0E0938404E0938004EBE04F
:10044200E0939004E0939104E0939204E8E0E09357
:100452009304EBE0E0939404E0939504E093960414
:10046200E0939704E0E0E093A404EEE3E093A004B9
:10047200E8E0E093B004E0E0E093B104E093B2047A
:10048200E093B304E093B404E093B504E093B604BC
:10049200E093C404EFEFE093C004E0E0E093D00403
:1004A200E093D104E093D204E093D304E093D40424
:1004B200E093D504E093D604E093D7040895EA9339
:1004C200EFB7EA931A9310914904E0914904E0933B
:1004D2004904E12FE071E03111F00C948002E091C7
:1004E200CB6BE07211F40C948002E091CA6BEF5F67
:1004F200E093CA6BE091CB6BEF7DE093CB6B1991EC
:10050200E991EFBFE99118958A93AA93EA93FA9336
:10051200EFB7EA93E0916904E0936904E09168041B
:10052200E078A0E0EA17E1E009F4EE27A1E0EA179B
:10053200E1E009F0EE27AE2FE0916A6BE170EA2765
:1005420011F40C94BC0287E08A95F1F7E0916804FB
:10055200E078A0E0EA17E1E009F4EE27E13011F0DB
:100562000C94BC02E091626BF091636B3196E09364
:10057200626BF093636BE0916804E074A0E0EA17A9
:10058200E1E009F4EE27A1E0EA17E1E009F0EE2745
:10059200AE2FE0916A6BE270EA2711F40C94E90243
:1005A20087E08A95F1F7E0916804E074A0E0EA1729
:1005B200E1E009F4EE27E13011F00C94E902E09158
:1005C200646BF091656B3196E093646BF093656BAD
:1005D200E0916804E072A0E0EA17E1E009F4EE2796
:1005E200A1E0EA17E1E009F0EE27AE2FE0916A6B95
:1005F200E470EA2711F40C94160387E08A95F1F768
:10060200E0916804E072A0E0EA17E1E009F4EE2765
:10061200E13011F00C941603E091666BF091676B78
:100622003196E093666BF093676BE0916804E0713A
:10063200A0E0EA17E1E009F4EE27A1E0EA17E1E021
:1006420009F0EE27AE2FE0916A6BE870EA2711F409
:100652000C94430387E08A95F1F7E0916804E07116
:10066200A0E0EA17E1E009F4EE27E13011F00C9482
:100672004303E091686BF091696B3196E093686B8C
:10068200F093696BE0E0E0936A6BE0916804E078D4
:10069200A0E0EA17E1E009F4EE27E13011F00C9452
:1006A2005703E0916A6BE160E0936A6BE091680442
:1006B200E074A0E0EA17E1E009F4EE27E13011F07E
:1006C2000C946803E0916A6BE260E0936A6BE091DC
:1006D2006804E072A0E0EA17E1E009F4EE27E130F5
:1006E20011F00C947903E0916A6BE460E0936A6B19
:1006F200E0916804E071A0E0EA17E1E009F4EE2776
:10070200E13011F00C948A03E0916A6BE860E093A7
:100712006A6BE991EFBFF991E991A99189911895D5
:10072200AA93EA93EFB7EA93E0918904E0938904EC
:10073200E0E0E093616BE0918804E078A0E0EA17E2
:10074200E1E009F4EE27E13011F00C94AD03E09101
:10075200616BE160E093616BE0918804E074A0E07A
:10076200EA17E1E009F4EE27E13011F00C94BE0340
:10077200E091616BE260E093616BE0918804E0726A
:10078200A0E0EA17E1E009F4EE27E13011F00C9461
:10079200CF03E091616BE460E093616BE0918804C8
:1007A200E071A0E0EA17E1E009F4EE27E13011F090
:1007B2000C94E003E091616BE860E093616BE0917F
:1007C2008804E870A0E0EA17E1E009F4EE27E130DE
:1007D20011F00C94F103E091616BE061E093616BC5
:1007E200E0918804E470A0E0EA17E1E009F4EE2762
:1007F200E13011F00C940204E091616BE062E0934D
:10080200616BE0918804E270A0E0EA17E1E009F48C
:10081200EE27E13011F00C941304E091616BE06477
:10082200E093616BE0918804E170A0E0EA17E1E0F7
:1008320009F4EE27E13011F00C942404E091616B8D
:10084200E068E093616BE991EFBFE991A991189596
:100852001A930A938D01E0E0EC931396EC93D8017E
:100862001496ECE0EC93099119910895A0E0BAE096
:100872000E942904E0E0E093000AE1E4E093010A27
:10088200E091E605E87FE093E605E0E0F0E0E09342
:10089200200AF093210AE1E0F0E0E093280AF093C5
:1008A200290AE0E0F0E0E0932A0AF0932B0AE093B1
:1008B2002C0AF0932D0AE093090AE0930A0AE091C8
:1008C200000AE160E093000A0895A0E4BAE00E9401
:1008D2002904E0E0E093400AE093410AE0E0F0E01E
:1008E200E093600AF093610AE0EAFFE0E093660AAF
:1008F200F093670AE0E0E093490AE1E0E0934A0AF4
:10090200E091400AE160E093400A08950A921A9247
:10091200FA926A937A938A939A93AA93BA93EA93EE
:10092200FA93EFB7EA93E1E0E0934B0AE091ED6AC4
:10093200F091EE6A3196E093ED6AF093EE6AE091FF
:10094200CC6BF091CD6B309711F40C94AD043197D0
:10095200E093CC6BF093CD6BE091EB6AF091EC6A93
:100962003197E093EB6AF093EC6A309711F00C94B4
:10097200D204E8EEF3E0E093EB6AF093EC6AE091E4
:10098200E76AE03011F40C94C904E150E093E76A9D
:10099200E091E86AE03011F40C94D204E150E09363
:1009A200E86AE091CE6BF091CF6B309711F40C9422
:1009B200E8043197E093CE6BF093CF6B309711F050
:1009C2000C94E804E091CB6BE062E093CB6BE09196
:1009D200E96AF091EA6A309711F40C94FE043197B7
:1009E200E093E96AF093EA6A309711F00C94FE04FE
:1009F200E7E0E093CA6B0E944B1DE0919969E030F9
:100A020011F40C940D05E150E0939969E03011F076
:100A12000C940D050E94DB1BE0919269E03011F409
:100A22000C942705E150E0939269E03011F00C94A8
:100A32002705A0E00E94ED06E1E0E093EC6B0E9446
:100A4200DB1BE1E0EA93A0E00E946F06E09193696C
:100A5200E03011F40C944005E091CB6BE160E0933F
:100A6200CB6BE0919369E150E0939369E03011F030
:100A72000C944005E1E0EA93A1E00E946F06E9913F
:100A8200EFBFF991E991B991A991999189917991E0
:100A92006991F990199009901895E091E205EC7F1F
:100AA200E160E093E205E0E1E0930504E3E0E09336
:100AB2000708E1E8E0930508E3E8F6E0E0930808B8
:100AC200F0930908E0ECE09306080895E091E4054C
:100AD200E37FE093E405E7E2E0936009E3E0E0937B
:100AE2006109E0E0E093620908951A931A2F1093C6
:100AF2006409E0916309E07811F00C948105F9CF63
:100B0200E0916409199108951A930A93E0E0E09341
:100B12009069E1E0E093EC6BE0E0E0939169E093AF
:100B22009269E0939369E1E0E0939469E0939569B7
:100B3200E0E0E0939669E093C868E0939769E093F8
:100B4200EB6BE093996900E010E00E30E0E01E07E5
:100B520010F00C94B505A1EDBBE6A00FB11FECE0BF
:100B6200EC930E5F1F4FF1CF01E010E00E30E0E09A
:100B72001E0710F00C94C605A1EDBBE6A00FB11F35
:100B8200E4E0EC930E5F1F4FF1CF00E010E008307D
:100B9200E0E01E0710F00C94D705AFEDBBE6A00F06
:100BA200B11FE0E0EC930F5F1F4FF1CF00E010E0C8
:100BB2000E30E0E01E0710F00C94FC05F801A3EAE9
:100BC200BBE6EE0FFF1FAE0FBF1FE0E0F0E0ED93BC
:100BD200FC93F801ABE6BBE60E94D931AE0FBF1F12
:100BE200E0E0F0E060E87FE3ED93FD936D937C93AA
:100BF2000F5F1F4FDDCFE0E0F0E060E87FE3E093BE
:100C0200BF6BF093C06B6093C16B7093C26BE09348
:100C1200C36BE093C46BE5E0E093E76BE4E0E09341
:100C2200E86BE2E0E093E96BE8EEF3E0E093EB6A75
:100C3200F093EC6AE0E0E093ED6AE093EE6AE7E0BD
:100C4200E093CA6BEEE0E093C86BE8E8E093CB6B0D
:100C5200E061E093CB6BE0E0E093D06BEFE0E093F8
:100C6200E66AE093E76AE093E86AE0E0E093C56B46
:100C7200E093C66BE093C76B0991199108950E94A6
:100C8200581DE4E0E0934504E1E0EA93A0E00E940D
:100C92006F06E2E0EA93A0E00E946F06E3E0EA93C7
:100CA200A0E00E946F06E4E0EA93A0E00E946F06D3
:100CB200A0E00E94ED06A9E00E940A07A0E10E94BE
:100CC200C309A0E10E94A807A9E00E942709A1E0A8
:100CD2000E94090BEBE0E093EA6B08951A930A93E2
:100CE2001A2F0A81E02FF0E0E130A0E0FA0711F0BC
:100CF2000C948F06E12FF0E0E130A0E0FA0711F04A
:100D02000C948706E0E1E093260407C0309711F0C7
:100D12000C948B06E0E1E09325045AC0E230A0E097
:100D2200FA0711F00C94A906E12FF0E0E130A0E0FF
:100D3200FA0711F00C94A106E0E2E093260407C042
:100D4200309711F00C94A506E0E2E093250440C030
:100D5200E330A0E0FA0711F00C94C306E12FF0E0B3
:100D6200E130A0E0FA0711F00C94BB06E0E4E09356
:100D7200260407C0309711F00C94BF06E0E4E0931C
:100D8200250426C0E430A0E0FA0711F00C94DD0639
:100D9200E12FF0E0E130A0E0FA0711F00C94D50663
:100DA200E0E8E093260407C0309711F00C94D906CE
:100DB200E0E8E09325040CC0E0E1E0932504E0E2E2
:100DC200E0932504E0E4E0932504E0E8E0932504C1
:100DD20019810881239608951A931A2FE12FF0E0C2
:100DE200E130A0E0FA0711F00C940007E0E8E0938C
:100DF2000504E0910508E062E093050808C0309719
:100E020011F00C940807E0E8E093060400C0199181
:100E120008951A931A2F0E942709193011F00C9481
:100E22001F07E1E0E093C604E2E0E093C604E4E0D9
:100E3200E093C604E8E0E093C60487C0E8E0E093EC
:100E4200C604E12FF0E001C004C0309711F00C9409
:100E52003407E1E0E093C604E2E0E093C604E4E094
:100E6200E093C6046FC0E130A0E0FA0711F00C94E1
:100E72004407E1E0E093C504E2E0E093C604E4E065
:100E8200E093C6045FC0E230A0E0FA0711F00C94D0
:100E92005407E1E0E093C604E2E0E093C504E4E035
:100EA200E093C6044FC0E330A0E0FA0711F00C94BF
:100EB2006407E1E0E093C504E2E0E093C504E4E006
:100EC200E093C6043FC0E430A0E0FA0711F00C94AE
:100ED2007407E1E0E093C604E2E0E093C604E4E0D4
:100EE200E093C5042FC0E530A0E0FA0711F00C949E
:100EF2008407E1E0E093C504E2E0E093C604E4E0A5
:100F0200E093C5041FC0E630A0E0FA0711F00C948C
:100F12009407E1E0E093C604E2E0E093C504E4E074
:100F2200E093C5040FC0E730A0E0FA0711F00C947B
:100F32002507E1E0E093C504E2E0E093C504E4E0C4
:100F4200E093C504E8E0E093C504199108951A936B
:100F52001A2F103111F00C94BE07E8E0E09326043A
:100F6200E4E0E0932604E2E0E0932604E1E0E0938B
:100F72002604E0E8E093460467C1E0E8E093460413
:100F8200E12FF0E001C004C0309711F00C94D907B2
:100F9200E8E0E0932604E4E0E0932604E2E0E09354
:100FA2002604E1E0E0932604A0E00E94270949C15B
:100FB200E130A0E0FA0711F00C94EF07E8E0E093CB
:100FC2002504E4E0E0932604E2E0E0932604E1E075
:100FD200E0932604A0E00E94270933C1E230A0E09A
:100FE200FA0711F00C940508E8E0E0932604E4E027
:100FF200E0932504E2E0E0932604E1E0E093260496
:10100200A1E00E9427091DC1E330A0E0FA0711F018
:101012000C941B08E8E0E0932504E4E0E093250447
:10102200E2E0E0932604E1E0E0932604A1E00E94DE
:10103200270907C1E430A0E0FA0711F00C94310847
:10104200E8E0E0932604E4E0E0932604E2E0E093A3
:101052002504E1E0E0932604A2E00E942709F1C002
:10106200E530A0E0FA0711F00C944708E8E0E093BD
:101072002504E4E0E0932604E2E0E0932504E1E0C5
:10108200E0932604A2E00E942709DBC0E630A0E03C
:10109200FA0711F00C945D08E8E0E0932604E4E01E
:1010A200E0932504E2E0E0932504E1E0E0932604E6
:1010B200A3E00E942709C5C0E730A0E0FA0711F0BB
:1010C2000C947308E8E0E0932504E4E0E09325043F
:1010D200E2E0E0932504E1E0E0932604A3E00E942D
:1010E2002709AFC0E830A0E0FA0711F00C94890894
:1010F200E8E0E0932604E4E0E0932604E2E0E093F3
:101102002604E1E0E0932504A4E00E94270999C0A7
:10111200E930A0E0FA0711F00C949F08E8E0E093B0
:101122002504E4E0E0932604E2E0E0932604E1E013
:10113200E0932504A4E00E94270983C0EA30A0E0DE
:10114200FA0711F00C94B508E8E0E0932604E4E015
:10115200E0932504E2E0E0932604E1E0E093250435
:10116200A5E00E9427096DC0EB30A0E0FA0711F05C
:101172000C94CB08E8E0E0932504E4E0E093250436
:10118200E2E0E0932604E1E0E0932504A5E00E947A
:10119200270957C0EC30A0E0FA0711F00C94E108DF
:1011A200E8E0E0932604E4E0E0932604E2E0E09342
:1011B2002504E1E0E0932504A6E00E94270941C04E
:1011C200ED30A0E0FA0711F00C94F708E8E0E093A4
:1011D2002504E4E0E0932604E2E0E0932504E1E064
:1011E200E0932504A6E00E9427092BC0EE30A0E080
:1011F200FA0711F00C940D09E8E0E0932604E4E00C
:10120200E0932504E2E0E0932504E1E0E093250485
:10121200A7E00E94270915C0EF30A0E0FA0711F0FD
:101222000C94C407E8E0E0932504E4E0E09325048D
:10123200E2E0E0932504E1E0E0932504A7E00E94C8
:101242002709E0E8E0934504199108951A931A2FAB
:10125200193011F00C943A09E1E0E093C604E2E09F
:10126200E093C604E4E0E093C604E0E1E093C60440
:1012720087C0E0E1E093C604E12FF0E001C004C0C2
:10128200309711F00C944F09E1E0E093C604E2E0DC
:10129200E093C604E4E0E093C6046FC0E130A0E04E
:1012A200FA0711F00C945F09E1E0E093C504E2E073
:1012B200E093C604E4E0E093C6045FC0E230A0E03D
:1012C200FA0711F00C946F09E1E0E093C604E2E042
:1012D200E093C504E4E0E093C6044FC0E330A0E02D
:1012E200FA0711F00C947F09E1E0E093C504E2E013
:1012F200E093C504E4E0E093C6043FC0E430A0E01C
:10130200FA0711F00C948F09E1E0E093C604E2E0E1
:10131200E093C604E4E0E093C5042FC0E530A0E00A
:10132200FA0711F00C949F09E1E0E093C504E2E0B2
:10133200E093C604E4E0E093C5041FC0E630A0E0F9
:10134200FA0711F00C94AF09E1E0E093C604E2E081
:10135200E093C504E4E0E093C5040FC0E730A0E0E9
:10136200FA0711F00C944009E1E0E093C504E2E0D1
:10137200E093C504E4E0E093C504E0E1E093C50432
:10138200199108951A931A2F103111F00C94D00963
:10139200E0E2E0934604E0E4E093460437C1E0E291
:1013A200E0934604E0E4E0934604E12FF0E001C05C
:1013B20004C0309711F00C94EB09E0E2E093C6040C
:1013C200E0E4E093C604E0E8E093C604E0E2E093E0
:1013D20045041CC1E130A0E0FA0711F00C94FE09AB
:1013E200E0E2E093C504E0E4E093C604E0E8E093C1
:1013F200C604E0E2E093450409C1E230A0E0FA0746
:1014020011F00C94110AE0E2E093C604E0E4E093E8
:10141200C504E0E8E093C604E0E2E0934504F6C0C8
:10142200E330A0E0FA0711F00C94240AE0E2E09322
:10143200C504E0E4E093C504E0E8E093C604E0E21A
:10144200E0934504E3C0E430A0E0FA0711F00C9405
:10145200370AE0E2E093C604E0E4E093C604E0E881
:10146200E093C504E0E2E0934504D0C0E530A0E09B
:10147200FA0711F00C944A0AE0E2E093C504E0E4B2
:10148200E093C604E0E8E093C504E0E2E09345049B
:10149200BDC0E630A0E0FA0711F00C945D0AE0E26C
:1014A200E093C604E0E4E093C504E0E8E093C504F9
:1014B200E0E2E0934504AAC0E730A0E0FA0711F0A9
:1014C2000C94700AE0E2E093C504E0E4E093C50402
:1014D200E0E8E093C504E0E2E093450497C0E83019
:1014E200A0E0FA0711F00C94830AE0E2E093C6044C
:1014F200E0E4E093C604E0E8E093C604E0E4E093AD
:10150200450484C0E930A0E0FA0711F00C94960A71
:10151200E0E2E093C504E0E4E093C604E0E8E0938F
:10152200C604E0E4E093450471C0EA30A0E0FA07A3
:1015320011F00C94A90AE0E2E093C604E0E4E0931F
:10154200C504E0E8E093C604E0E4E09345045EC02D
:10155200EB30A0E0FA0711F00C94BC0AE0E2E09351
:10156200C504E0E4E093C504E0E8E093C604E0E4E7
:10157200E09345044BC0EC30A0E0FA0711F00C9464
:10158200CF0AE0E2E093C604E0E4E093C604E0E8B8
:10159200E093C504E0E4E093450438C0ED30A0E0F8
:1015A200FA0711F00C94E20AE0E2E093C504E0E4E9
:1015B200E093C604E0E8E093C504E0E4E093450468
:1015C20025C0EE30A0E0FA0711F00C94F50AE0E233
:1015D200E093C604E0E4E093C504E0E8E093C504C8
:1015E200E0E4E093450412C0EF30A0E0FA0711F006
:1015F2000C94D909E0E2E093C504E0E4E093C50469
:10160200E0E8E093C504E0E4E0934504199108950D
:101612001A931A2F1A3011F00C94130BE4E0E09392
:10162200A60403C0E4E0E093A504199108951A9377
:101632001A2FE12FF0E0E034A0E0FA0711F00C9449
:10164200290BE0E1E093A504E8E0E093A60413C0CF
:10165200E038A0E0FA0711F00C94360BE8E0E093D2
:10166200A504E0E1E093A60406C0E0E1E093A6044D
:10167200E8E0E093A60419910895A091CA6BA730FF
:1016820011F00C94160CE1E0E093CA6BA091C86BC8
:10169200AD3014F00C94570BE091C86BE093C96B1A
:1016A200E091C86BEF5FE093C86BBFC0E0E0E093EE
:1016B200C86BE091E86AE03011F00C94700BE09195
:1016C200CB6BE07811F40C946B0BE091CB6BEF7762
:1016D200E093CB6B0E94F62EEFE0E093E86AE09194
:1016E200C56BE03011F40C947D0BE091CB6BE27092
:1016F20011F40C947D0B01C013C00E941A240E94A5
:1017020062240E94F4240E948625E0E0EA93A0E08D
:101712000E94272AE091C56BE150E093C56B3DC062
:10172200E091C66BE03011F40C949E0BE091CB6B10
:10173200E27011F40C949E0B01C013C00E941A2493
:101742000E94BC260E943D270E94BE27E0E0EA9349
:10175200A0E00E94272AE091C66BE150E093C66B9D
:101762001CC0E091C76BE03011F40C94BF0BE09108
:10177200CB6BE27011F40C94BF0B01C00EC00E943F
:101782001A240E943F28E0E0EA93A0E00E94272A60
:10179200E091C76BE150E093C76BE091CB6BE870CF
:1017A20011F40C94E00BE091CB6BE17FE093CB6BF7
:1017B200E260E093CB6BE4E0E093CA6B36C0E09169
:1017C200CB6BE47011F40C94F20BE091CB6BE17FE4
:1017D200E093CB6BE860E093CB6BE4E0E093CA6B01
:1017E20024C0E091CB6BE27011F40C940E0CE091EA
:1017F200E76AE03011F00C940D0CE091CB6BE17FC5
:10180200E093CB6BE460E093CB6BE4E0E093CA6BD4
:10181200E091E66AE093E76A08C0E091CB6BE17F72
:10182200E093CB6BE460E093CB6BE091EC6BE03048
:1018320011F40C941E0C0E941F0C089528970E940C
:101842009431E091CA6BF0E0E130A0E0FA0711F0C8
:101852000C94DB0CE091CB6BEE7FE093CB6BE0ED75
:10186200F7E0E093E96AF093EA6AE091C86BF0E08E
:10187200EF52F449E081E695E695E3703E2FF0E001
:10188200E330A0E0FA0711F00C94730CE091CB6BFB
:10189200E27011F40C946F0CA0E40E94180BA0915A
:1018A200C86B0E94A807AAE00E94090BA091C86B0E
:1018B2000E94C309E3E0E093D06BE061AE2F0E9487
:1018C2007605AAE10E947605E3E4F0E0E093CE6BB0
:1018D200F093CF6BE2E0E093CA6B03C0E7E0E093E2
:1018E200CA6B67C0E230A0E0FA0711F00C94A50CB5
:1018F200E091CB6BE47011F40C94A10CA0E80E946F
:10190200180BA091C86B0E94A807A1E00E94090BC6
:10191200A091C86B0E94C309E0E0E093D06BE06144
:10192200AE2F0E947605A8E10E947605E3E4F0E07E
:10193200E093CE6BF093CF6BE2E0E093CA6B03C00F
:10194200E7E0E093CA6B35C0E130A0E0FA0711F09E
:101952000C94D70CE091CB6BE87011F40C94D30C7F
:10196200A0E80E94180BA091C86B0E94A807A1E0F2
:101972000E94090BA091C86B0E94C309E0E0E093AA
:10198200D06BE061AE2F0E947605A8E10E94760539
:10199200E3E4F0E0E093CE6BF093CF6BE2E0E09310
:1019A200CA6B03C0E7E0E093CA6B03C0E7E0E093D1
:1019B200CA6B54C3E230A0E0FA0711F00C94E20CB7
:1019C2004DC3E330A0E0FA0711F00C94C40FE0918C
:1019D200D06BE863AE2F0E947605AFEF0E947605CA
:1019E200FE2FE0E08F01AFEF0E947605F0E00E0FD0
:1019F2001F1FE091CB6BE07411F40C94290FE0915E
:101A0200CB6BEF7BE093CB6BA1E00E94090BA0E1D3
:101A12000E94C309A0E10E94A807A0E00E94180B3F
:101A2200E7E0E093CA6BE0E0E093E96AE093EA6AF8
:101A3200E091CB6BE17011F00C94230FF801EF5F92
:101A4200FF47AF01E091C86BA1EFBAE6F0E0EE0FFD
:101A5200FF1FEA0FFB1F40835183E091C86BF0E048
:101A6200EF52F449E081E695E695E3703E2FF0E00F
:101A7200E330A0E0FA0711F00C94400EE091BF6B46
:101A8200F091C06B6091C16B7091C26BDA018827D3
:101A920099270E9471320E94A533EE83FF836887E3
:101AA2007987E091C86BA1EFBAE6F0E0EE0FFF1F75
:101AB200AE0FBF1FEE81FF81688579850E94E332F8
:101AC200ED93FC93493BE8E85E0710F00C94700D2F
:101AD200443DE0E35E0710F40C94700D09C0A09140
:101AE200C86BB0E0AF52B449EC91E260EC9308C02D
:101AF200A091C86BB0E0AF52B449EC91ED7FEC938A
:101B0200493DE6ED5E0710F00C948E0D4C34EDE18C
:101B12005E0710F40C948E0D42C0A091C86BB0E029
:101B2200AF52B449EC91E160EC93E091C86BF0E004
:101B3200E7FDFFEFF595E795E152F449A0E0A083B8
:101B4200E091C86BA9E2BBE6F0E00E94D931AE0F8A
:101B5200BF1FE0E0F0E060E070E0ED93FD936D9375
:101B62007C93E091C86BADE0BBE6F0E0EE0FFF1FA7
:101B7200EA0FFB1FA091EF6AB091F06AA083B183D4
:101B8200E091CB6BE07811F40C94CF0DA091C86B6F
:101B9200B0E0AF52B449EC91EF79EC936FC0E091B1
:101BA200CB6BE07811F40C94DE0DA091C86BB0E021
:101BB200AF52B449EC91EC66EC93A091C86BB0E0E3
:101BC200AF52B449EC91EE7FEC93A091C36BB0910C
:101BD200C46BE091EF6AF091F06AEA1BFB0B662797
:101BE2007727EA87FB876C877D87A0E2BEE480E0E7
:101BF20090E00E94F531EA87FB876C877D87E09150
:101C0200C86BA1EFBAE6F0E0EE0FFF1FAE0FBF1FE9
:101C1200ED91FD91AA85BB858C859D8566277727E9
:101C22000E943832EA87FB876C877D87AA85BB854D
:101C3200109711F00C94240EA091EF6BA33010F0CA
:101C42000C94240E01C006C0E091EF6BEF5FE093AD
:101C5200EF6B14C0E0E0E093EF6BE091C86BADE096
:101C6200BBE6F0E0EE0FFF1FEA0FFB1FAA85BB8564
:101C7200A083B183A091C86B0E943310E2C0E2300E
:101C8200A0E0FA0711F00C94470EDBC0E130A0E0AF
:101C9200FA0711F00C94220F4D39E3E65E0710F0BB
:101CA2000C945A0E4031E7E25E0710F40C945A0E7F
:101CB20009C0A091C86BB0E0AF52B449EC91E260A8
:101CC200EC9308C0A091C86BB0E0AF52B449EC915C
:101CD200ED7FEC934D36EBE65E0710F00C94780E38
:101CE2004838E3E15E0710F40C94780E37C0A091F7
:101CF200C86BB0E0AF52B449EC91E160EC93E09173
:101D0200C86BA9E2BBE6F0E00E94D931AE0FBF1F5B
:101D1200E0E0F0E060E070E0ED93FD936D937C9382
:101D2200E091C86BADE0BBE6F0E0EE0FFF1FEA0FFB
:101D3200FB1FA091EF6AB091F06AA083B183E0919A
:101D4200CB6BE07811F40C94AE0EA091C86BB0E0AE
:101D5200AF52B449EC91EF79EC9372C0E091CB6B46
:101D6200E07811F40C94BD0EA091C86BB0E0AF52B4
:101D7200B449EC91E462EC93A091C86BB0E0AF522D
:101D8200B449EC91EE7FEC93E091EF6AF091F06A46
:101D9200662777270E941C33A0E0B0E48CE196E42A
:101DA2000E94A5337F936F93FF93EF93E091C86BEB
:101DB200A1EFBAE6F0E0EE0FFF1FAE0FBF1FED91ED
:101DC200FD91662777270E941C33AF91BF918F91B7
:101DD2009F910E94F3330E94E3326627772766279A
:101DE2007727EA87FB876C877D87AA85BB858C85E9
:101DF2009D850E94B03211F00C94060FA091EE6BFB
:101E0200A33010F00C94060F01C006C0E091EE6BF7
:101E1200EF5FE093EE6B14C0E091C86BADE0BBE600
:101E2200F0E0EE0FFF1FEA0FFB1FAA85BB85A08320
:101E3200B183A091C86B0E945814E0E0E093EE6B6E
:101E420000C005C0E091C86BE150E093C86B9AC036
:101E5200F801EF5FFF47E093EF6AF093F06AE091D9
:101E6200C86BF0E0EF52F449E081E695E695E37045
:101E72003E2FF0E0E330A0E0FA0711F00C94570F88
:101E8200AFE00E94C309E091CB6BE064E093CB6BBF
:101E9200E3E4F0E0E093CE6BF093CF6BE2E0E0930B
:101EA200CA6BA091C86B0E94EF156CC0E230A0E033
:101EB200FA0711F00C94A80FA1E00E94090BA0E10F
:101EC2000E94C309A0E10E94A807A0E00E94180B8B
:101ED200E7E0E093CA6BE091C86BADE0BBE6F0E0EF
:101EE200EE0FFF1FEA0FFB1FA091EF6AB091F06A9D
:101EF200A083B183E091C86BA1EFBAE6F0E0EE0FE8
:101F0200FF1FAE0FBF1FE0E0F0E0ED93FC93A09146
:101F1200C86BB0E0AF52B449EC91EC7FEC93E0E0D7
:101F2200E093E96AE093EA6AE091CB6BE07811F41E
:101F32000C94A30FA091C86BB0E0AF52B449EC91DE
:101F4200E864EC93A091C86B0E9447151BC0E13076
:101F5200A0E0FA0711F00C94C00FAEE00E94C30992
:101F6200E091CB6BE064E093CB6BE3E4F0E0E093D1
:101F7200CE6BF093CF6BE2E0E093CA6B03C0E7E075
:101F8200E093CA6B6BC0E430A0E0FA0711F00C9446
:101F92000510E2E0EA93A1E00E946F06E0EDF7E0AF
:101FA200E093E96AF093EA6AE4E1F0E0E093CE6B51
:101FB200F093CF6BA091EC6BA13011F00C94041054
:101FC200E091CB6BE27011F40C94EB0FE3E0E09341
:101FD200D06B03C0E0E0E093D06BE5E0E093CA6B26
:101FE200E091D06BE061AE2F0E947605A091D06B9C
:101FF200A33011F00C940110AAE50E94760503C0EB
:10200200A8E50E9476052AC0E530A0E0FA0711F0A3
:102012000C940C1023C0E630A0E0FA0711F00C94E7
:102022002510E0E0E093E96AE093EA6AE091C86B88
:10203200E150E093C86BE7E0E093CA6BE2E0EA9319
:10204200A0E00E946F060AC0E730A0E0FA0711F094
:102052000C942C1003C0E7E0E093CA6B0E949B3102
:102062002E96089560971A931A2FE2E0EA93A1E060
:102072000E946F06A0919B69B0919C6900240A1688
:102082000B0610F00C945A10E12FADE0BBE6F0E025
:10209200EE0FFF1FAE0FBF1FED91FD91DF01E0912B
:1020A2009B69F0919C69AE17BF0710F00C945A100F
:1020B20001C033C0A0919D69B0919E69E0919B6976
:1020C200F0919C69AE1BBF0BBA93AA93FA93EA9361
:1020D200E12FADE0BBE6F0E0EE0FFF1FAE0FBF1F3A
:1020E200ED91FD91FA93EA93A0E0B0E080E090E0F8
:1020F2000E944513E983FA836B837C83A981BA81A9
:102102008B819C81E0E0F0E060E272E40E94A53302
:10211200E983FA836B837C832EC1E12FADE0BBE6BA
:10212200F0E0EE0FFF1FAE0FBF1FED91FD91DF013B
:10213200E0919D69F0919E69AE17BF0710F00C9473
:10214200D910A0919D69B0919E69E0919B69F0912F
:102152009C69AE1BBF0BBA93AA93FA93EA93E12F41
:10216200ADE0BBE6F0E0EE0FFF1FAE0FBF1FED913B
:10217200FD91FA93EA93E091A3690E94E7310E94EC
:102182001C33DF01CB010E944513E983FA836B8381
:102192007C83A981BA818B819C81E0E0F0E060E2DE
:1021A20072E40E94A533E983FA836B837C83E3C0E4
:1021B200E12FADE0BBE6F0E0EE0FFF1FAE0FBF1F59
:1021C200ED91FD91DF01E0919F69F091A069AE1759
:1021D200BF0710F00C943311A0919F69B091A069D0
:1021E200E0919D69F0919E69AE1BBF0BBA93AA93D1
:1021F200FA93EA93E12FADE0BBE6F0E0EE0FFF1FAA
:10220200AE0FBF1FED91FD91FA93EA93A091A469DD
:10221200B0E0A7FDBFEFE3E0F0E00E9433326F2FA2
:10222200660F660B762F0E941C33DF01CB010E94E2
:102232004513E983FA836B837C83A981BA818B81FD
:102242009C81E0E0F0E060EA71E40E94A533A0E046
:10225200B0E080E292E40E945633E983FA836B8312
:102262007C8389C0E12FADE0BBE6F0E0EE0FFF1FFB
:10227200AE0FBF1FED91FD91DF01E091A169F091D9
:10228200A269AE17BF0710F00C948411A091A16946
:10229200B091A269E0919F69F091A069AE1BBF0B5A
:1022A200BA93AA93FA93EA93E12FADE0BBE6F0E08A
:1022B200EE0FFF1FAE0FBF1FED91FD91FA93EA9350
:1022C200E091A4690E94E7310E941C33DF01CB0137
:1022D2000E944513E983FA836B837C83A981BA81C7
:1022E2008B819C81E0E0F0E060E272E40E94A53321
:1022F200A0E0B0E080E792E40E945633E983FA83DB
:102302006B837C8338C0A091A169B091A269E091EE
:102312009F69F091A069AE1BBF0BBA93AA93FA937F
:10232200EA93E12FADE0BBE6F0E0EE0FFF1FAE0F48
:10233200BF1FED91FD91FA93EA93A0E0B0E080E037
:1023420090E00E944513E983FA836B837C83A98121
:10235200BA818B819C81E0E0F0E060E272E40E944D
:10236200A533A0E0B0E080E792E40E945633E9830F
:10237200FA836B837C83E12FF0E0E7FDFFEFF595B5
:10238200E795A8E2B0E00E94ED31E555F649E0811B
:10239200FF27662777270E941C33DF01CB01E0E08D
:1023A200F0E060E271E40E94F3337F936F93FF9356
:1023B200EF93E12FF0E0E7FDFFEFF595E795A8E257
:1023C200B0E00E94ED31E655F649E081FF2766272D
:1023D20077270E941C33DF01CB01E0E0F0E068ECDC
:1023E20072E40E94F333AF91BF918F919F910E944B
:1023F20074320E944F33DF01CB01E0E0F0E068EC81
:1024020072E40E94F333ED87FE876F87788BE12FAA
:10241200F0E0E7FDFFEFF595E795A8E2B0E00E9456
:10242200ED31E555F649E081F0E06F2F660F660B5E
:10243200762F0E941C33DF01CB01E0E0F0E060E286
:1024420071E40E94F333E987FA876B877C87E12F77
:10245200F0E0E7FDFFEFF595E795A8E2B0E00E9416
:10246200ED31E655F649E081F0E06F2F660F660B1D
:10247200762F0E941C33DF01CB01E0E0F0E068EC34
:1024820072E40E94F333ED83FE836F837887AD811C
:10249200BE818F819885E985FA856B857C850E944E
:1024A2004F33DF01CB01E0E0F0E068EC72E40E9420
:1024B200F333ED87FE876F87788BA981BA818B8191
:1024C2009C810E94A533E983FA836B837C83A98173
:1024D200BA818B819C81E3E9F7E263E271E40E94B5
:1024E200A533E983FA836B837C83E12FA3EABBE6FE
:1024F200F0E0EE0FFF1FAE0FBF1FED91FD916627BB
:1025020077270E941C33DF01CB01E0E0F0E06AE7AD
:1025120074E40E94F333A981BA818B819C810E9469
:1025220074320E944F33E983FA836B837C83E12FF9
:10253200ABE6BBE6F0E00E94D931AE0FBF1FED91D2
:10254200FD916D917D91A981BA818B819C810E94BF
:10255200A533E983FA836B837C83E12FF0E0E7FD07
:10256200FFEFF595E795A8E2B0E00E94ED31E65560
:10257200F649E081FF27662777270E941C33DF0197
:10258200CB01E0E0F0E068EC72E40E94F333A3E9EF
:10259200B7E283E291E40E94A533ED87FE876F875D
:1025A200788BA981BA818B819C810E945633E98301
:1025B200FA836B837C83E12FA9E2BBE6F0E00E9401
:1025C200D931AE0FBF1FED91FD916D917D91A98122
:1025D200BA818B819C810E9474320E944F337F9317
:1025E2006F93FF93EF93E091E76BFF2766277727BF
:1025F2000E941C33A0E0B0E080E89FE30E945633C3
:10260200AF91BF918F919F910E94F333ED87FE8727
:102612006F87788BE12FA9E2BBE6F0E00E94D93107
:10262200EA0FFB1FFF93EF93E12FA9E2BBE6F0E075
:102632000E94D931AE0FBF1FED91FD916D917D9139
:10264200AD85BE858F8598890E945633AF91BF9123
:10265200ED93FD936D937C93E12FA9E2BBE6F0E04D
:102662000E94D931EA0FFB1FA981BA818B819C811B
:10267200A083B18382839383E2E0EA93A0E00E9485
:102682006F061881619608950E946A3264970E94CB
:1026920094310E8D1F8D28A139A14AA15BA1F801A9
:1026A200E21BF30B662777270E941C33EA87FB871E
:1026B2006C877D87FA01662777270E941C33EE8795
:1026C200FF87688B798BAA85BB858C859D850E9447
:1026D200F333EE8BFF8B688F798FAE85BF85888948
:1026E20099890E94A533AE85BF85888999890E9400
:1026F20074320E944F33AE85BF85888999890E94C2
:10270200A533AE89BF89888D998D0E94A533AA8D84
:10271200BB8D8C8D9D8D0E94A5337F936F93FF930C
:10272200EF93EE85FF8568897989AE85BF858889B3
:1027320099890E94A533DF01CB01E0E0F0E060E877
:1027420070E40E94F333AF91BF918F919F910E94E9
:10275200F333EA8BFB8B6C8B7D8BAE89BF89888DC3
:10276200998DE0E0F0E060E87FE30E944F33AA8DAC
:10277200BB8D8C8D9D8D0E94A533A0E0B0E080E8DA
:1027820090E40E94A533EE83FF8368877987EA8B02
:10279200FB8B6C8B7D8BAA89BB898C899D89EA8591
:1027A200FB856C857D850E944F33DF01CB01EE8571
:1027B200FF85688979890E94F3330E949B31A49630
:1027C20008950E946A32A49780E260E070E0E4E03B
:1027D200F2E00E94A231ECA1FDA16EA17FA1ADE2C7
:1027E200B5EE8AE096EB0E94A533AEE6B4E784E844
:1027F2009BE30E945633ACA1BDA18EA19FA10E9472
:10280200A533A0E2B3E487E89DEB0E945633ACA166
:10281200BDA18EA19FA10E94A533ADE0B0EE81E2E1
:1028220090E40E945633ACA1BDA18EA19FA10E944B
:10283200A5337F936F93FF93EF93ECA1FDA16EA15C
:102842007FA1AEEABCE886EB95EB0E94A533A3EF2D
:10285200B9E48DED9AE30E945633ACA1BDA18EA1DD
:102862009FA10E94A533ACECB1E480ED9CEB0E94E9
:102872005633ACA1BDA18EA19FA10E94A533A0E0B9
:10288200B0E080E89FE30E945633AF91BF918F91F1
:102892009F910E94F333A4EAB0E385E793EC0E9490
:1028A2005633E8A3F9A36AA37BA3A8960895AA9333
:1028B2002897E885ADE0BBE6F0E0EE0FFF1FAE0F14
:1028C200BF1FED91FD91662777270E941C33E88395
:1028D200F9836A837B83A881B9818A819B81E0E045
:1028E200F0E060E271E40E94F333E883F9836A83E3
:1028F2007B83A881B9818A819B81E0E0F0E06AEF65
:1029020073E40E94373409F010F40C949214E0E05E
:10291200F0E06FEA74E40E94373410F00C949214E1
:1029220001C00EC0A881B9818A819B81E0E0F0E0FC
:1029320060E271E40E94F333E883F9836A837B8364
:10294200A881B9818A819B81E0E0F0E86BEB74E4B5
:102952000E94373409F010F40C94B914E0E0F0E06E
:1029620060EA71E40E94F333E883F9836A837B832C
:10297200A881B9818A819B810E94E213EC83FD8345
:102982006E837F83E885A3EABBE6F0E0EE0FFF1FCC
:10299200AE0FBF1FED91FD91662777270E941C3372
:1029A200DF01CB01E0E0F0E060E271E40E94F3338A
:1029B200AC81BD818E819F810E9474320E944F330F
:1029C200EC83FD836E837F83E885ABE6BBE6F0E0B4
:1029D2000E94D931AE0FBF1FED91FD916D917D9196
:1029E200AC81BD818E819F810E94A533EC83FD83E2
:1029F2006E837F83E885A9E2BBE6F0E00E94D931CD
:102A0200EA0FFB1FFF93EF93DF01ED91FD916D91B3
:102A12007D917F936F93FF93EF93E885A9E2BBE6E5
:102A2200F0E00E94D931AE0FBF1FED91FD916D9183
:102A32007D91AC81BD818E819F810E9474320E9402
:102A42004F337F936F93FF93EF93E091E86BFF27F0
:102A5200662777270E941C33A0E0B0E080E89FE35E
:102A62000E945633AF91BF918F919F910E94F33391
:102A7200AF91BF918F919F910E945633AF91BF91B9
:102A8200ED93FD936D937C932996089524971A9361
:102A92001A2FE12FADE0BBE6F0E0EE0FFF1FAE0F05
:102AA200BF1FED91FD91662777270E941C33A0E09E
:102AB200B0E080E290E40E94A533DF01CB01E0E0C8
:102AC200FEEF6FEF76E40E94F333E983FA836B83C0
:102AD2007C83E12FA3EABBE6F0E0EE0FFF1FAE0F0F
:102AE200BF1FED91FD91662777270E941C33DF01FE
:102AF200CB01E0E0F0E46CE176E40E94F333A981DB
:102B0200BA818B819C810E9474320E944F33E98387
:102B1200FA836B837C83E12FABE6BBE6F0E00E9495
:102B2200D931AE0FBF1FED91FD916D917D91A981BC
:102B3200BA818B819C810E94A533E983FA836B83DE
:102B42007C83E12FA9E2BBE6F0E00E94D931EA0FD3
:102B5200FB1FFF93EF93DF01ED91FD916D917D914D
:102B62007F936F93FF93EF93E12FA9E2BBE6F0E02F
:102B72000E94D931AE0FBF1FED91FD916D917D91F4
:102B8200A981BA818B819C810E9474320E944F3349
:102B92007F936F93FF93EF93E091E96BFF27662793
:102BA20077270E941C33A0E0B0E080E89FE30E94F8
:102BB2005633AF91BF918F919F910E94F333AF91A2
:102BC200BF918F919F910E945633AF91BF91ED9328
:102BD200FD936D937C93188125960895AA932E9761
:102BE2000E949431AC890E94361BEF83AF81AE30D4
:102BF20010F40C940216E0E0E887E987EA87EB8795
:102C02001AC0EF81A9E2BBE6F0E00E94D931AE0F13
:102C1200BF1FED91FD916D917D91DF01CB01E0E050
:102C2200F0E068EC71E40E9474320E944F33E8874E
:102C3200F9876A877B87A885B9858A859B85E0E0C5
:102C4200F0E068EC72E40E94F333E887F9876A8760
:102C52007B87EC89E595EE83F0E0E152F449E0816F
:102C6200E17011F00C943F16EE81F0E0E152F4496C
:102C7200E081E07111F00C943F162CC4EE81A8E2C1
:102C8200EA9FF001E355F64960817727EE81EA9FDA
:102C9200F001E255F649A081B0E0E0E0F1E00E94E7
:102CA2001B32DB01AE0FBF1FEFEFFFE1EA23FB2375
:102CB200AF0154FF01C0506EEE81A8E2EA9FF0011D
:102CC200E255F649A081B0E0E5E00E94C231E7702A
:102CD200F070BF01EE81A8E2EA9FF001E155F649EA
:102CE200A081E8E0EA9FF0016E0F7F1FEE81A8E26B
:102CF200EA9FF001E055F649E081F0E0E370F07000
:102D0200EE0FEE0FEE0FFE2FE0E0DB01AE0FBF1F66
:102D1200EFEFFFE1EA23FB23E88BF98BE989E0710E
:102D220011F40C949716E989E06EE98BEE81A8E222
:102D3200EA9FF001E055F649E081F0E00E94E231BD
:102D4200EF73F070BF01EE81EA9FF001EF54F64994
:102D5200E081F0E0EF77F0700E94D9310E94D53126
:102D6200DB01AE0FBF1FEFEFFFE1EA23FB23EE878C
:102D7200FF87EF85E07111F40C94C216EF85E06EC7
:102D8200EF87EE81A8E2EA9FF001EF54F649A081B5
:102D9200B0E0E7E00E94C231E170F070BF01EE8165
:102DA200A8E2EA9FF001EE54F649A081E2E0EA9F30
:102DB200F0016E0F7F1FEE81A8E2EA9FF001ED5451
:102DC200F649E081F0E0EF70F070EE0FFE2FE0E0E8
:102DD200DB01AE0FBF1FEFEFFFE1EA23FB23EC871E
:102DE200FD87ED85E07111F40C94FA16ED85E06E25
:102DF200ED87A2E0A49FF001A59FF00DFA93EA935C
:102E0200AA89BB89E2E00E941532FA93EA93AA8961
:102E1200BB89E2E00E941532FA93EA93AA89BB8940
:102E2200E2E00E941532FA93EA93A889B9898A8965
:102E32009B890E94D71AE0939B69F0939C69EE816B
:102E4200A8E2EA9FF001ED54F649E081F0E00E9429
:102E5200DE31EF70F070BF01EE81EA9FF001EC54B9
:102E6200F649A081E0E1EA9FF0016E0F7F1FEE813B
:102E7200A8E2EA9FF001EB54F649E081F0E0E1704C
:102E8200F070E295E07FFE2FE0E0DB01AE0FBF1FA6
:102E9200EFEFFFE1EA23FB23EA8BFB8BEE81A8E253
:102EA200EA9FF001EB54F649E081F0E0F595E795F1
:102EB200EF77F070BF01EE81EA9FF001EA54F64924
:102EC200E081F0E0EF73F0700E94D7310E94D531BB
:102ED200DB01AE0FBF1FEFEFFFE1EA23FB23E88B1D
:102EE200F98BE989E07111F40C947A17E989E06EA3
:102EF200E98BEE81A8E2EA9FF001EA54F649A0814B
:102F0200B0E0E6E00E94C231E370F070BF01EE81F2
:102F1200A8E2EA9FF001E954F649A081E4E0EA9FC1
:102F2200F0016E0F7F1FEE81A8E2EA9FF001E854E4
:102F3200F649E081F0E0E770F070EE0FEE0FFE2F41
:102F4200E0E0DB01AE0FBF1FEFEFFFE1EA23FB235F
:102F5200EE87FF87EF85E07111F40C94B317EF85CC
:102F6200E06EEF87EE81A8E2EA9FF001E854F649AD
:102F7200E081F0E00E94E031EF71F070BF01EE817C
:102F8200EA9FF001E754F649A081E0E2EA9FF001EE
:102F9200DB01AE0FBF1FEFEFFFE1EA23FB23EC875C
:102FA200FD87ED85E07111F40C94DA17ED85E06E82
:102FB200ED87EA89FB894E0F5F1FA2E0A49FF00113
:102FC200A59FF00DFA93EA93AA89BB89E2E00E94D9
:102FD2001532FA93EA93AA89BB89E2E00E9415327C
:102FE200FA93EA93AA89BB89E2E00E941532FA9326
:102FF200EA93A889B9898A899B890E94D71AE093A2
:103002009D69F0939E69EE81A8E2EA9FF001E65481
:10301200F64960817727EE81EA9FF001E554F6498F
:10302200A081B0E0E0E0F1E00E941B32DB01AE0FD4
:10303200BF1FEFEFFFE1EA23FB23EA8BFB8BEE815D
:10304200A8E2EA9FF001E554F649A081B0E0E5E08C
:103052000E94C231E770F070BF01EE81A8E2EA9FE0
:10306200F001E454F649A081E8E0EA9FF0016E0F16
:103072007F1FEE81A8E2EA9FF001E354F649E08166
:10308200F0E0E370F070EE0FEE0FEE0FFE2FE0E0D7
:10309200DB01AE0FBF1FEFEFFFE1EA23FB23E88B5B
:1030A200F98BE989E07111F40C945A18E989E06E00
:1030B200E98BEE81A8E2EA9FF001E354F649E08150
:1030C200F0E00E94E231EF73F070BF01EE81EA9FFF
:1030D200F001E254F649E081F0E0EF77F0700E94EF
:1030E200D9310E94D531DB01AE0FBF1FEFEFFFE1F7
:1030F200EA23FB23EE87FF87EF85E07111F40C943E
:103102008518EF85E06EEF87EE81A8E2EA9FF00175
:10311200E254F649A081B0E0E7E00E94C231E170DA
:10312200F070BF01EE81A8E2EA9FF001E154F64996
:10313200A081E2E0EA9FF0016E0F7F1FEE81A8E21C
:10314200EA9FF001E054F649E081F0E0EF70F070A0
:10315200EE0FFE2FE0E0DB01AE0FBF1FEFEFFFE14E
:10316200EA23FB23EC87FD87ED85E07111F40C94D3
:10317200BD18ED85E06EED87EA89FB894E0F5F1F72
:10318200A2E0A49FF001A59FF00DFA93EA93AA8909
:10319200BB89E2E00E941532FA93EA93AA89BB89BD
:1031A200E2E00E941532FA93EA93AA89BB89E2E02F
:1031B2000E941532FA93EA93A889B9898A899B8970
:1031C2000E94D71AE0939F69F093A069EE81A8E26A
:1031D200EA9FF001E054F649E081F0E00E94DE311E
:1031E200EF70F070BF01EE81EA9FF001EF53F649F4
:1031F200A081E0E1EA9FF0016E0F7F1FEE81A8E25D
:10320200EA9FF001EE53F649E081F0E0E170F070E0
:10321200E295E07FFE2FE0E0DB01AE0FBF1FEFEF94
:10322200FFE1EA23FB23EA8BFB8BEE81A8E2EA9F14
:10323200F001EE53F649E081F0E0F595E795EF777E
:10324200F070BF01EE81EA9FF001ED53F649E08193
:10325200F0E0EF73F0700E94D7310E94D531DB01AC
:10326200AE0FBF1FEFEFFFE1EA23FB23E88BF98BE1
:10327200E989E07111F40C944119E989E06EE98B56
:10328200EE81A8E2EA9FF001ED53F649A081B0E099
:10329200E6E00E94C231E370F070BF01EE81A8E265
:1032A200EA9FF001EC53F649A081E4E0EA9FF001C5
:1032B2006E0F7F1FEE81A8E2EA9FF001EB53F64901
:1032C200E081F0E0E770F070EE0FEE0FFE2FE0E02D
:1032D200DB01AE0FBF1FEFEFFFE1EA23FB23EE8717
:1032E200FF87EF85E07111F40C947A19EF85E06E97
:1032F200EF87EE81A8E2EA9FF001EB53F649E08105
:10330200F0E00E94E031EF71F070BF01EE81EA9FC0
:10331200F001EA53F649A081E0E2EA9FF001DB0105
:10332200AE0FBF1FEFEFFFE1EA23FB23EC87FD8720
:10333200ED85E07111F40C94A119ED85E06EED8735
:10334200EA89FB894E0F5F1FA2E0A49FF001A59FAF
:10335200F00DFA93EA93AA89BB89E2E00E94153242
:10336200FA93EA93AA89BB89E2E00E941532FA93A2
:10337200EA93AA89BB89E2E00E941532FA93EA93A2
:10338200A889B9898A899B890E94D71AE093A16981
:10339200F093A269EE81A8E2EA9FF001E953F649AF
:1033A200E081E695E695E695EF70E093A369EE81FC
:1033B200EA9FF001E953F649E081E07811F40C94B8
:1033C200E719E091A369E06FE093A369E091A36933
:1033D200A3E0EA02F001E093A369EE81A8E2EA9F8A
:1033E200F001E953F649E081E770E093A469EE81C8
:1033F200EA9FF001E953F649E081E47011F40C947C
:10340200071AE091A469E86FE093A469E091A469C6
:10341200A3E0EA02F001E093A469EC89A3EABBE627
:10342200F0E0EE0FFF1FEA0FFB1FCF01EE81A8E2D3
:10343200EA9FF001E853F64960817727EE81EA9F1F
:10344200F001E753F649A081B0E0E0E0F1E00E942C
:103452001B32E60FF71FDC01ED93FC93EE81A8E22D
:10346200EA9FF001E653F64900811127EE81EA9FB7
:10347200F001E553F649A081B0E0E0E0F1E00E94FE
:103482001B329F01EC89ABE6BBE6F0E00E94D9312A
:10349200EA0FFB1FFF93EF93F901E00FF11F6F2F6C
:1034A200660F660B762F0E941C33DF01CB01E0E032
:1034B200F0E563EC77E40E94F333A0E0B0E080E84B
:1034C2009FE30E945633AF91BF91ED93FD936D93AD
:1034D2007C9338C0E0E0E0939B69E0939C69EDE95E
:1034E200F9E6A0EABFE0A083B183EFE9F9E6A0E440
:1034F200BFE1A083B183E1EAF9E6A0EEBEE2A083D8
:10350200B183E0E0E093A369E093A469EC89A3EAC4
:10351200BBE6F0E0EE0FFF1FAE0FBF1FE0E0F0E0F2
:10352200ED93FC93EC89ABE6BBE6F0E00E94D93167
:10353200AE0FBF1FE0E0F0E060E87FE3ED93FD93A4
:103542006D937C93E091E66BE17011F00C94B01AEC
:10355200E091E66BE07111F00C94B01A12C0E0E059
:10356200E093C36BE093C46BE0E0F0E060E87FE3DC
:10357200E093BF6BF093C06B6093C16B7093C26BAF
:1035820011C0E0E0E093C36BE093C46BE0E0F0E0D5
:1035920060E87FE3E093BF6BF093C06B6093C16B15
:1035A2007093C26B0E949B31659608950E946A32A5
:1035B2000E9494310A851B852C853D854E855F8549
:1035C200EE81FF8168857985DA01882799270E9433
:1035D20071320E94A533A889B989882799270E9448
:1035E20071320E9456337F936F93FF93EF93EE8174
:1035F200FF8168857985D901882799270E947132D0
:103602000E94A533AE81BF81888599850E94A5332A
:10361200AF91BF918F919F910E9456337F936F9389
:10362200FF93EF93EE81FF8168857985D801882722
:1036320099270E9471320E94A533AE81BF8188858D
:1036420099850E94A533AE81BF81888599850E94A4
:10365200A533AF91BF918F919F910E9456330E94E3
:10366200E3320E949B31629608950E9494315A2F50
:10367200E52FF0E0E7FDFFEF31968F01A1EDBBE60C
:10368200A00FB11FEC91EC70E43011F00C94801B90
:10369200F801A9E2BBE60E94D931AE0FBF1FED913E
:1036A200FD916D917D91DF01CB01E0E0F0E066E1FB
:1036B20073E40E94373410F00C94801BF801A9E2E5
:1036C200BBE60E94D931AE0FBF1FED91FD916D9106
:1036D2007D91DF01CB01E0E0F0E060EA72EC0E9454
:1036E200373409F010F40C94801BA1EDBBE6A00F57
:1036F200B11FEC91E17011F00C94801B01C005C068
:10370200F8010E949B312696089520E030E02E3089
:10371200E0E03E0710F00C94D61BA1EDBBE6A20F31
:10372200B31FEC91EC70E43011F00C94D31BF9014F
:10373200A9E2BBE60E94D931AE0FBF1FED91FD9108
:103742006D917D91DF01CB01E0E0F0E066E173E491
:103752000E94373410F00C94CF1BF901A9E2BBE6AA
:103762000E94D931AE0FBF1FED91FD916D917D91F8
:10377200DF01CB01E0E0F0E060EA72EC0E94373456
:1037820009F010F40C94CF1BA1EDBBE6A20FB31FFE
:10379200EC91E17011F00C94CF1B01C003C08901C0
:1037A2002EE030E02F5F3F4FB2CFF8010E949B31F5
:1037B20026960895E1E0E0939469E0E0E09395694C
:1037C200E0939669E093C868E093C968E093CA6899
:1037D200E093EB6BE093996908950E94963130E093
:1037E200009196691127A0919669BB27E09198698B
:1037F200F0E0AE0FBF1FE2E0F0E00E947A32EA1B77
:10380200FB0B0E171F0714F00C94171C032E112428
:10381200A8ECB8E6A00FB11FEC91F0E0E025F1258D
:10382200EC5FFE4F34910F5F1F4FDDCFA091966981
:10383200BB27E0919869F0E0AE0FBF1FE2E0F0E035
:103842000E947A32EA1BFB0BE853F749E081E31747
:1038520011F00C94321CE1E0F0E00E949D312496BC
:103862000895E0E0F0E00E949D31249608950E94C0
:103872009D31249608950E949431E1E0EA93A1E0FB
:103882000E946F06E0E0E093ED6B41E050E000E063
:1038920010E022E030E0009196691127042E052AFB
:1038A20011F40C94621CA0919869BB27E09196696F
:1038B200F0E0EA0FFB1F0E171F0710F00C94621CBA
:1038C20001C013C0F901E00FF11F32968F01E753D7
:1038D200F74920813327D8010E94201E309711F02A
:1038E2000C94751C40E050E0D9CFE1E0EA93A0E0EF
:1038F2000E946F060E949B31269608951A930A939E
:1039020000E010E0E8EEE0939969E0919569A091FA
:103912009469EA1710F00C94471DE091EB6BF0E00C
:10392200309711F00C94961CA5C0E130A0E0FA0784
:1039320011F00C94E81CA0919569BB27E09196695F
:10394200F0E0AE1BBF0B139714F40C94E71CE0914C
:103952009669F0E0E653F749E081E0919669F0E07C
:10396200E553F749E081E0939869E0919569F0E0C9
:10397200A8ECB0E00E947A32EA1BFB0BA091986996
:10398200B0E0AE17BF0714F00C94D81CA091986950
:10399200A53010F40C94D81CE0919669F0E0E7533E
:1039A200F749A081AF3F11F40C94D81C01C00CC0A0
:1039B200E2E0E093EB6BA0919669E0919569EA1BD6
:1039C200EF5FE093976902C00E94DB1B53C0E230B5
:1039D200A0E0FA0711F00C94391DA0919769AF5F2E
:1039E200A0939769E0919869AE1710F40C94381D72
:1039F200A0919869BB27E0919669F0E0AE0FBF1FD6
:103A0200E1E0F0E00E947A32EA1BFB0BE853F7494F
:103A1200A081A33011F00C94381D0E94EE1B309748
:103A220011F40C94361DE0919669F0E0E753F749E2
:103A3200A081A03F10F00C941E1DE0919669F0E069
:103A4200E853F749A081AB3011F40C94331DE09197
:103A52009669F0E0E853F749A081A03011F40C9484
:103A6200331D02C001E010E002C00E94DB1B02C055
:103A72000E94DB1BA0919569AF5FA0939569A83C5A
:103A820010F40C94461D0E94DB1B3FCFF8010991F4
:103A920019910895AFEF0E947605AFEF0E94760567
:103AA200AFEF0E947605AFEF0E9476050895E8E039
:103AB200E093460483E48A95F1F7E0E2E093A604FA
:103AC200AAE0B0E00E945734E0E2E093A50483E468
:103AD2008A95F1F708950A921A92FA926A937A9362
:103AE2008A939A93AA93BA93EA93FA93EFB7EA93D3
:103AF200E0919169A0919069AE1710F00C94931D1A
:103B0200E0919069EF5FE0939069E150F0E0E0505E
:103B1200F849E081E0930208E091CB6BE160E09329
:103B2200CB6B0CC0A2E0B0E00E945734E0910508D4
:103B3200EF7DE0930508E2E0E0939269E991EFBF3F
:103B4200F991E991B991A9919991899179916991A3
:103B5200F9901990099018950A921A92FA926A931A
:103B62007A938A939A93AA93BA93EA93FA93EFB7C2
:103B7200EA931A930A931091010800910008E12F29
:103B8200E67411F00C94101EE091EC6BE03011F42D
:103B92000C94101EE091EB6BF0E0309711F00C9456
:103BA200FE1D023011F00C94DC1DE0919A69EF5F6A
:103BB200E0939A6921C0A0919A69A23010F40C9402
:103BC200FA1DE0E0E0939A69E1E0E093EB6BE0E05C
:103BD200E0939469E0939569E0939669E091946922
:103BE200EF5FE0939469E150F0E0E853F749008316
:103BF20003C0E0E0E0939A690AC0E0919469EF5F44
:103C0200E0939469E150F0E0E853F7490083A09112
:103C12009469A83C10F40C94101E0E94DB1B0991BD
:103C22001991E991EFBFF991E991B991A99199910E
:103C3200899179916991F990199009901895BA939F
:103C4200AA93AA970E94943141E050E0E8A9F9A909
:103C5200EE83FF83E853F749E081F0E0EA30A0E029
:103C6200FA0711F00C94C01EEE81FF81E653F7496A
:103C7200E081E093C56BE0E0E093C66BE093C76B35
:103C8200E091C56BE03011F40C944A1EE150E093D0
:103C9200C56BE091ED6BE03011F00C94571E0E9461
:103CA2001A24E091ED6BE160E093ED6BE091ED6B36
:103CB200E27011F00C94691EE0919069F0E0A8ECBA
:103CC200B0E0AE1BBF0B1A9714F40C94691E06C029
:103CD200E091ED6BE260E093ED6B02C00E94F42490
:103CE200E091ED6BE27011F00C94831EE09190690B
:103CF200F0E0A8ECB0E0AE1BBF0B1A9714F40C94E2
:103D0200831E06C0E091ED6BE260E093ED6B02C0B2
:103D12000E946224E091ED6BE27011F00C949D1E02
:103D2200E0919069F0E0A8ECB0E0AE1BBF0B1A97EF
:103D320014F40C949D1E06C0E091ED6BE260E093DA
:103D4200ED6B02C00E948625E091ED6BE27011F0EE
:103D52000C94B71EE0919069F0E0A8ECB0E0AE1BC5
:103D6200BF0B1A9714F40C94B71E06C0E091ED6BCA
:103D7200E260E093ED6B02C00E94182655C5ED305B
:103D8200A0E0FA0711F00C943A1FEE81FF81E6538E
:103D9200F749E081E093C66BE4E0E093C66BE0E0B4
:103DA200E093C56BE093C76BE091C66BE03011F412
:103DB2000C94DE1EE150E093C66BE091ED6BE030B7
:103DC20011F00C94EB1E0E941A24E091ED6BE1605D
:103DD200E093ED6BE091ED6BE27011F00C94FD1E3F
:103DE200E0919069F0E0A8ECB0E0AE1BBF0BD89771
:103DF20014F40C94FD1E06C0E091ED6BE260E093BA
:103E0200ED6B02C00E943D27E091ED6BE27011F074
:103E12000C94171FE0919069F0E0A8ECB0E0AE1BA3
:103E2200BF0B5C9714F40C94171F06C0E091ED6B66
:103E3200E260E093ED6B02C00E94BC26E091ED6B64
:103E4200E27011F00C94311FE0919069F0E0A8EC5F
:103E5200B0E0AE1BBF0B5C9714F40C94311F06C08C
:103E6200E091ED6BE260E093ED6B02C00E94BE2731
:103E7200DBC4E031A0E0FA0711F00C947D1FEE8163
:103E8200FF81E653F749E081E093C76BE0E0E093FE
:103E9200C66BE093C56BE091C76BE03011F40C94F4
:103EA200551FE150E093C76BE091ED6BE03011F0EC
:103EB2000C94621F0E941A24E091ED6BE160E09382
:103EC200ED6BE091ED6BE27011F00C94741FE091D8
:103ED2009069F0E0A8ECB0E0AE1BBF0BD89714F4E9
:103EE2000C94741F06C0E091ED6BE260E093ED6B01
:103EF20002C00E943F2898C4E131A0E0FA0711F005
:103F02000C94AB1FE091ED6BE03011F00C94901F1C
:103F12000E941A24E091ED6BE160E093ED6BE09179
:103F2200ED6BE27011F00C94A21FE0919069F0E049
:103F3200A8ECB0E0AE1BBF0B9A9714F40C94A21F2E
:103F420006C0E091ED6BE260E093ED6B02C00E946F
:103F5200B6286AC4E231A0E0FA0711F00C94B71F48
:103F6200AE81BF8112960E947B2A5EC4E331A0E03B
:103F7200FA0711F00C94C11FAE810E94EE2A54C4BC
:103F8200E431A0E0FA0711F00C94CC1FAE81AE5FD1
:103F92000E94902B49C4E531A0E0FA0711F00C947D
:103FA200DC1FEE81FF81E653F749E081E093E66A88
:103FB200E093E76A39C4E631A0E0FA0711F00C9405
:103FC200B22021E030E0EE81FF81E653F749E08143
:103FD200F0E0F595E795E152F449E081E97011F4DA
:103FE2000C945F2000E010E00832E0E01E0710F0C1
:103FF2000C941720F801DE011896EA0FFB1FBF018F
:10400200EE81FF81E653F749E081F0E0F595E7950F
:10401200A8E2B0E00E94ED31EB55F649E00FF11F46
:10402200E081DB01EC930F5F1F4FDECFEE81FF815A
:10403200E653F749E081E695EA93AFE00E945F2CF0
:10404200309711F00C94272020E030E0EE81FF81C0
:10405200E653F749E081E695EA93AAEA0E945F2CCB
:10406200309711F00C94372020E030E000E010E0AF
:104072000832E0E01E0710F00C945E20DE01189674
:10408200A00FB11F6C91EE81FF81E653F749E081E9
:10409200F0E0F595E795A8E2B0E00E94ED31EB552E
:1040A200F649E00FF11FE081E61711F40C945B2052
:1040B20020E030E00F5F1F4FDBCF02C020E030E096
:1040C200E091ED6BE03011F00C946E200E941A2406
:1040D200E091ED6BE160E093ED6BE091ED6BE270EE
:1040E20011F00C94B120E0919069EF5FE093906938
:1040F200E150F0E0E050F849AAE2A083E091906933
:10410200EF5FE0939069E150F0E0E050F849A1E000
:10411200A083E0919069F0E0E050F849A083E1E0EB
:10412200F0E0E217F30711F00C94AC20EE81FF816E
:10413200E653F749E081E695EA93A5E50E945F2CF4
:10414200309711F40C94AC20E0919069F0E0E050CB
:10415200F849A0E0A083E0919069EF5FE093906955
:1041620063C3E731A0E0FA0711F00C94572221E073
:1041720030E0EE81FF81E653F749E081F0E0F5950A
:10418200E795E152F449E081E97011F40C9435218C
:1041920000E010E00832E0E01E0710F00C94ED2081
:1041A200F801DE011896EA0FFB1FBF01EE81FF81C5
:1041B200E653F749E081F0E0F595E795A8E2B0E033
:1041C2000E94ED31EB55F649E00FF11FE081DB0172
:1041D200EC930F5F1F4FDECFEE81FF81E653F7496D
:1041E200E081E695EA93A9E90E945F2C309711F0ED
:1041F2000C94FD2020E030E0EE81FF81E653F74988
:10420200E081E695EA93A3EC0E945F2C309711F0CF
:104212000C940D2120E030E000E010E00832E0E0F4
:104222001E0710F00C943421DE011896A00FB11F66
:104232006C91EE81FF81E653F749E081F0E0F5955C
:10424200E795A8E2B0E00E94ED31EB55F649E00FA8
:10425200F11FE081E61711F40C94312120E030E0E7
:104262000F5F1F4FDBCF02C020E030E0E091ED6B2B
:10427200E03011F00C9444210E941A24E091ED6B7D
:10428200E160E093ED6BE091ED6BE27011F00C9464
:104292005622E0919069EF5FE0939069E150F0E07F
:1042A200E050F849ABE2A083E0919069EF5FE093C0
:1042B2009069E150F0E0E050F849A1E0A083E1E02C
:1042C200F0E0E217F30711F00C944B22EE81FF812C
:1042D200E553F749A081AC3411F00C948C21EE81A6
:1042E200FF81E453F749A081AF3411F00C948C2183
:1042F200EE81FF81E353F749A081A33411F00C94BE
:104302008C21EE81FF81E253F749A081AB3411F099
:104312000C948C2101C031C020E030E0EE81FF819D
:10432200E653F749E081E695EA93AAE50E945F2CFD
:10433200309711F40C949F2121E030E0E1E0F0E0AD
:10434200E217F30711F00C94B221E0919069EF5F4C
:10435200E0939069E150F0E0E050F849A0E0A083DA
:104362000BC0E0919069EF5FE0939069E150F0E05B
:10437200E050F849A1E0A0836EC0EE81FF81E553D1
:10438200F749A081A53511F00C94F521EE81FF814A
:10439200E453F749A081AE3411F00C94F521EE817B
:1043A200FF81E353F749A081AC3411F00C94F5215D
:1043B200EE81FF81E253F749A081AF3411F00C94F2
:1043C200F521EE81FF81E153F749A081A33411F079
:1043D2000C94F521EE81FF81E053F749A081AB34C3
:1043E20011F00C94F52101C02BC021E030E0A2E0D5
:1043F200B0E0EAEA0E948A32ACE2B0E0EFEF0E945B
:104402008A32E1E0F0E0E217F30711F00C94152292
:10441200E0919069EF5FE0939069E150F0E0E05045
:10442200F849A0E0A0830BC0E0919069EF5FE093B0
:104432009069E150F0E0E050F849A1E0A0830BC0A0
:10444200E0919069EF5FE0939069E150F0E0E05015
:10445200F849A1E0A083E1E0F0E0E217F30711F0F0
:104462000C943F22E0919069EF5FE0939069E150F4
:10447200F0E0E050F849A0E0A0830BC0E091906921
:10448200EF5FE0939069E150F0E0E050F849A1E07D
:10449200A0830BC0E0919069EF5FE0939069E150D7
:1044A200F0E0E050F849A1E0A083BEC1E831A0E00D
:1044B200FA0711F00C948A22E091ED6BE03011F0D2
:1044C2000C946A220E941A24E091ED6BE160E09361
:1044D200ED6BE091ED6BE27011F00C947C22E091B7
:1044E2009069F0E0A8ECB0E0AE1BBF0B989714F413
:1044F2000C947C2206C0E091ED6BE260E093ED6BE0
:1045020007C0EE81FF81E653F749A0810E9413297B
:104512008BC1E931A0E0FA0711F00C941F23EE8160
:10452200FF81E653F749E081F0E0F595E795E15226
:10453200F449DF01EC91E062EC93EE81FF81E653F6
:10454200F749E081F0E0F595E795E152F449DF01A2
:10455200EC91EF7EEC93EE81FF81E653F749E08127
:10456200E695EA93A0EF0E945F2C309711F40C9429
:104572001E23EE81FF81E653F749E081E695EA9337
:10458200AAEA0E945F2C309711F40C941E23EE814C
:10459200FF81E653F749E081E695EA93A3EC0E9496
:1045A2005F2C309711F40C941E23EE81FF81E653A9
:1045B200F749E081F0E0F595E795A8E2B0E00E94C6
:1045C200ED31EB55F649DF010E94EC2FE03011F49A
:1045D2000C940123EE81FF81E653F749E081F0E07C
:1045E200F595E795A8E2B0E00E94ED31E355F64972
:1045F200DF010E942930E03011F40C94012301C044
:104602001CC0EE81FF81E653F749E081F0E0F595A9
:10461200E795E152F449DF01EC91E061EC93EE8120
:10462200FF81E653F749E081F0E0F595E795E15225
:10463200F449DF01EC91EF7DEC93F6C0EA31A0E0A2
:10464200FA0711F00C943B23EE81FF81E653F74900
:10465200E081E093E76BEE81FF81E553F749E0816A
:10466200E093E86BEE81FF81E453F749E081E09348
:10467200E96BDAC0EB31A0E0FA0711F00C94572392
:10468200E091ED6BE03011F00C944E230E941A245D
:10469200E091ED6BE160E093ED6BE091ED6BE27028
:1046A20011F00C9456230E946E29BEC0EC31A0E09A
:1046B200FA0711F00C94E723E091ED6BE03011F072
:1046C2000C946A230E941A24E091ED6BE160E0935E
:1046D200ED6BE091ED6BE27011F00C94E623E0914A
:1046E2009069EF5FE0939069E150F0E0E050F849A3
:1046F200A0E3A083E0919069EF5FE0939069E150BD
:10470200F0E0E050F849AAE0A083E0919069EF5F01
:10471200E0939069E150F0E0E050F849DF01EE816A
:10472200FF81E653F749E081EC93EE81FF81E65386
:10473200F749E081E695EA93A3E30E945F2C309764
:1047420011F40C94D023E0919069E85FE0939069B2
:10475200EE81FF81E653F749E081E695EA93A6E60A
:104762000E945F2C309711F40C94C423E09190695D
:10477200EF5FE0939069E150F0E0E050F849A091DA
:10478200E56AA0830BC0E0919069EF5FE0939069C6
:10479200E150F0E0E050F849AFE0A08316C000E03D
:1047A20010E00930E0E01E0710F00C94E623E091DF
:1047B2009069EF5FE0939069E150F0E0E050F849D2
:1047C200A0E0A0830F5F1F4FECCF2EC0E130A0E02E
:1047D200FA0711F00C94EE2304C0309711F00C94F8
:1047E2001524E091ED6BE03011F40C941224EE816B
:1047F200FF81E853F749A081A13011F00C940A24FB
:10480200E5E0EA93E091ED6BE270AE2F0E94272A79
:1048120008C0E0E0EA93E091ED6BE270AE2F0E94F7
:10482200272A40E050E000C0FA010E949B31E29644
:104832000895E0E0E0939069EF5FE0939069E150C2
:10484200F0E0E050F849A2E0A083E0919069EF5FC8
:10485200E0939069E150F0E0E050F849A083E091E4
:104862009069EF5FE0939069E150F0E0E050F84921
:10487200DF01E0919669F0E0E753F749E081EC93BC
:10488200E0919069EF5FE0939069E150F0E0E050D1
:10489200F849ABE0A083E0919069EF5FE093906903
:1048A200E150F0E0E050F849A0E0A083E091906987
:1048B200EF5FE0939069E150F0E0E050F849A083A7
:1048C200089524970E949631E0919069EF5FE093FA
:1048D2009069E150F0E0E050F849AEE1A083E09148
:1048E2009069EF5FE0939069E1502E2F332700E04B
:1048F20010E00E30E0E01E0710F00C94E324A1ED6E
:10490200BBE6A00FB11FEC91EC70EC3011F00C94EF
:10491200E024F801A9E2BBE60E94D931AE0FBF1F25
:10492200ED91FD916D917D91EC83FD836E837F838B
:10493200E0919069EF5FE0939069E150F0E0E05020
:10494200F8490083E0919069EF5FE0939069E1504C
:10495200F0E0E050F8490F01A1EDBBE6A00FB11F56
:10496200EC91D001EC93E0919069EF5FE093906954
:10497200E150F0E0E050F849AC81A083E091906909
:10498200EF5FE0939069E150F0E0E050F849AD81CB
:10499200A083E0919069EF5FE0939069E150F0E0CD
:1049A200E050F849AE81A083E0919069EF5FE09317
:1049B2009069E150F0E0E050F849AF81A0830F5FC9
:1049C2001F4F97CFF901E050F849BF01A0919069BC
:1049D200A21BE1E00E947D32EA1BDB01EC930E9404
:1049E2009D312896089524970E949631E09190690E
:1049F200EF5FE0939069E150F0E0E050F849AFE1F9
:104A0200A083E0919069EF5FE0939069E1502E2FCF
:104A1200332700E010E00E30E0E01E0710F00C94A7
:104A22007525A1EDBBE6A00FB11FEC91EC70E4304F
:104A320011F00C947225F801A9E2BBE60E94D9316B
:104A4200AE0FBF1FED91FD916D917D91EC83FD83C2
:104A52006E837F83E0919069EF5FE0939069E1500C
:104A6200F0E0E050F8490083E0919069EF5FE09355
:104A72009069E150F0E0E050F8490F01A1EDBBE68A
:104A8200A00FB11FEC91D001EC93E0919069EF5F20
:104A9200E0939069E150F0E0E050F849AC81A083E6
:104AA200E0919069EF5FE0939069E150F0E0E050AF
:104AB200F849AD81A083E0919069EF5FE09390693E
:104AC200E150F0E0E050F849AE81A083E0919069B6
:104AD200EF5FE0939069E150F0E0E050F849AF8178
:104AE200A0830F5F1F4F97CFF901E050F849BF0134
:104AF200A0919069A21BE1E00E947D32EA1BDB01DA
:104B0200EC930E949D312896089524970E94963135
:104B1200E0919069EF5FE0939069E150F0E0E0503E
:104B2200F849A0E2A083E0919069EF5FE093906979
:104B3200E1502E2F332700E010E00E30E0E01E0798
:104B420010F00C940726A1EDBBE6A00FB11FEC916B
:104B5200EC70E83011F00C940426F801A9E2BBE6EF
:104B62000E94D931AE0FBF1FED91FD916D917D91E4
:104B7200EC83FD836E837F83E0919069EF5FE09326
:104B82009069E150F0E0E050F8490083E0919069CB
:104B9200EF5FE0939069E150F0E0E050F8490F01D7
:104BA200A1EDBBE6A00FB11FEC91D001EC93E09117
:104BB2009069EF5FE0939069E150F0E0E050F849CE
:104BC200AC81A083E0919069EF5FE0939069E1503E
:104BD200F0E0E050F849AD81A083E0919069EF5F89
:104BE200E0939069E150F0E0E050F849AE81A08393
:104BF200E0919069EF5FE0939069E150F0E0E0505E
:104C0200F849AF81A0830F5F1F4F97CFF901E050A2
:104C1200F849BF01A0919069A21BE1E00E947D3298
:104C2200EA1BDB01EC930E949D31289608950E94B5
:104C32009631E0916804E170A0E0EA17E1E009F43E
:104C4200EE27E13011F00C942A260E949D31249621
:104C52000895E0919069EF5FE0939069E150F0E090
:104C6200E050F849A1E3A083E0919069EF5FE093FF
:104C72009069E1500E2F112720E030E02430E0E06F
:104C82003E0710F00C9479262297F901A2E6BBE6C2
:104C9200EE0FFF1FAE0FBF1FED91FD91E883F98369
:104CA200F901A2E6BBE6EE0FFF1FAE0FBF1FE0E069
:104CB200F0E0ED93FC93E0919069EF5FE0939069EF
:104CC200E150F0E0E050F849DF01E881EC93E09137
:104CD2009069EF5FE0939069E150F0E0E050F849AD
:104CE200DF01E981F070EC9322962F5F3F4FC6CF30
:104CF200E0919069EF5FE0939069E150F0E0E0505D
:104D0200F849A091616BA0832297E091ED6AF0913E
:104D1200EE6AE883F983E0E0E093ED6AE093EE6AFD
:104D2200E0919069EF5FE0939069E150F0E0E0502C
:104D3200F849DF01E881EC93E0919069EF5FE0933D
:104D42009069E150F0E0E050F849DF01E981F0704C
:104D5200EC932296F801E050F849BF01A0919069C6
:104D6200A01BE1E00E947D32EA1BDB01EC930E9472
:104D72009D31249608950E949631E0919069EF5FEB
:104D8200E0939069E150F0E0E050F849A1E2A0839D
:104D9200E0919069EF5FE0939069E1502E2F332705
:104DA20000E010E00E30E0E01E0710F00C942C271B
:104DB200A1EDBBE6A00FB11FEC91EC70EC3011F04D
:104DC2000C942927E0919069EF5FE0939069E1509C
:104DD200F0E0E050F8490083E0919069EF5FE093E2
:104DE2009069E150F0E0E050F8490F01A1EDBBE617
:104DF200A00FB11FEC91D001EC93E0919069EF5FAD
:104E0200E0939069E150F0E0E050F8490F01F801B9
:104E1200ADE0BBE6EE0FFF1FAE0FBF1FEC91D0015E
:104E2200EC93E0919069EF5FE0939069E150F0E0DC
:104E3200E050F8490F01F801ADE0BBE6EE0FFF1FAD
:104E4200AE0FBF1FED91FD91EF2FF0E0D001EC937B
:104E52000F5F1F4FA7CFF901E050F849BF01A091A2
:104E62009069A21BE1E00E947D32EA1BDB01EC9318
:104E72000E949D31249608950E949631E091906996
:104E8200EF5FE0939069E150F0E0E050F849A2E270
:104E9200A083E0919069EF5FE0939069E1502E2F3B
:104EA200332700E010E00E30E0E01E0710F00C9413
:104EB200AD27A1EDBBE6A00FB11FEC91EC70E43081
:104EC20011F00C94AA27E0919069EF5FE09390694A
:104ED200E150F0E0E050F8490083E0919069EF5F23
:104EE200E0939069E150F0E0E050F8490F01A1ED44
:104EF200BBE6A00FB11FEC91D001EC93E091906959
:104F0200EF5FE0939069E150F0E0E050F8490F0163
:104F1200F801ADE0BBE6EE0FFF1FAE0FBF1FEC9135
:104F2200D001EC93E0919069EF5FE0939069E150DA
:104F3200F0E0E050F8490F01F801ADE0BBE6EE0FFA
:104F4200FF1FAE0FBF1FED91FD91EF2FF0E0D001DB
:104F5200EC930F5F1F4FA7CFF901E050F849BF0153
:104F6200A0919069A21BE1E00E947D32EA1BDB0165
:104F7200EC930E949D31249608950E949631E0910F
:104F82009069EF5FE0939069E150F0E0E050F849FA
:104F9200A3E2A083E0919069EF5FE0939069E15012
:104FA2002E2F332700E010E00E30E0E01E0710F055
:104FB2000C942E28A1EDBBE6A00FB11FEC91EC7072
:104FC200E83011F00C942B28E0919069EF5FE093A8
:104FD2009069E150F0E0E050F8490083E091906977
:104FE200EF5FE0939069E150F0E0E050F8490F0183
:104FF200A1EDBBE6A00FB11FEC91D001EC93E091C3
:105002009069EF5FE0939069E150F0E0E050F84979
:105012000F01F801ADE0BBE6EE0FFF1FAE0FBF1FA1
:10502200EC91D001EC93E0919069EF5FE09390698D
:10503200E150F0E0E050F8490F01F801ADE0BBE6C5
:10504200EE0FFF1FAE0FBF1FED91FD91EF2FF0E0AE
:10505200D001EC930F5F1F4FA7CFF901E050F84941
:10506200BF01A0919069A21BE1E00E947D32EA1B80
:10507200DB01EC930E949D31249608950E949631A3
:10508200E0919069EF5FE0939069E150F0E0E050C9
:10509200F849A4E2A083E0919069EF5FE093906900
:1050A200E1502E2F332700E010E00E30E0E01E0723
:1050B20010F00C94A528E0919069EF5FE09390695D
:1050C200E150F0E0E050F8490083E0919069EF5F31
:1050D200E0939069E150F0E0E050F8490F01A1ED52
:1050E200BBE6A00FB11FEC91D001EC93E091906967
:1050F200EF5FE0939069E150F0E0E050F8490F0172
:10510200F801A1EFBAE6EE0FFF1FAE0FBF1FEC9141
:10511200D001EC93E0919069EF5FE0939069E150E8
:10512200F0E0E050F8490F01F801A1EFBAE6EE0F06
:10513200FF1FAE0FBF1FED91FD91EF2FF0E0D001E9
:10514200EC930F5F1F4FB1CFF901E050F849BF0157
:10515200A0919069A21BE1E00E947D32EA1BDB0173
:10516200EC930E949D31249608950E949631E0911D
:105172009069EF5FE0939069E150F0E0E050F84908
:10518200A5E2A083E0919069EF5FE0939069E1501E
:105192002E2F332700E010E00E30E0E01E0710F063
:1051A2000C940229E0919069EF5FE0939069E150DD
:1051B200F0E0E050F8490083E0919069EF5FE093FE
:1051C2009069E150F0E0E050F8490F01A1EDBBE633
:1051D200A00FB11FEC91D001EC93E0919069EF5FC9
:1051E200E0939069E150F0E0E050F849DF01F80106
:1051F200F695E795E152F449E081EC930F5F1F4F7A
:10520200CBCFF901E050F849BF01A0919069A21BF0
:10521200E1E00E947D32EA1BDB01EC930E949D31AA
:10522200249608950E9494315A2FE0919069EF5F7D
:10523200E0939069E150F0E0E050F849ACE2A083DD
:10524200E0919069EF5FE0939069E1502E2F332750
:10525200E0919069EF5FE0939069E150F0E0E050F7
:10526200F8495083569500E010E00832E0E01E074E
:1052720010F00C945329E0919069EF5FE0939069EC
:10528200E150F0E0E050F849BF01A8E25A9FF00176
:10529200EB55F649E00FF11FE081DB01EC930F5F64
:1052A2001F4FE3CFF901E050F849BF01A091906987
:1052B200A21BE1E00E947D32EA1BDB01EC93E52FA9
:1052C200F0E0EE0FFF1FEF52F449DF01EC91EF77B0
:1052D200EC930E949B312696089524971A930A9381
:1052E200E0919069EF5FE0939069E150F0E0E05067
:1052F200F849AFE2A083E0919069EF5FE093906993
:10530200E1500E2F1127E0919069EF5FE0939069D1
:10531200E150F0E0E050F849AEE0A083E0919069FE
:10532200F0E0E050F849ABE0A083E091CB6BE07194
:1053320011F40C94A429A0919069B0E0A050B8494E
:10534200EC91E068EC93E0919069EF5FE0939069F3
:10535200E091CB6BEF7EE093CB6BE0919069EF5FD6
:10536200E0939069E150F0E0E050F849A8ECA083A6
:10537200E0919069EF5FE0939069E150F0E0E050D6
:10538200F849A083E0919069EF5FE0939069E15062
:10539200F0E0E050F849A091C36BA083E0919069DE
:1053A200EF5FE0939069E150F0E0E050F849BF010F
:1053B200E8E00E94BA31DB01EC93E091BF6BF0911F
:1053C200C06B6091C16B7091C26BEA83FB836C838B
:1053D2007D83E0919069EF5FE0939069E150F0E0A6
:1053E200E050F849AA81A083E0919069EF5FE093D1
:1053F2009069E150F0E0E050F849AB81A083E09180
:105402009069EF5FE0939069E150F0E0E050F84975
:10541200AC81A083E0919069EF5FE0939069E150E5
:10542200F0E0E050F849AD81A083F801E050F8497E
:10543200BF01A0919069A01BE1E00E947D32EA1BAE
:10544200DB01EC9319810881269608950E9496311A
:105452000A2F3C81E0919069EF5FE0939069E150FF
:10546200F0E0E050F8493083E0919069EF5FE0931B
:105472009069E150F0E0E050F8490083A091906912
:10548200E8E00E94BA31E0930468E0919069E09309
:105492000568BB270E943F2C1E2FE0919069EF5FA9
:1054A200E0939069E150F0E0E050F8491083E09118
:1054B2009069EF5FE0939069E150F0E0E050F849C5
:1054C200A3E0A083E0919069E0939169E0E0E0932A
:1054D2009069E093EC6BE4E1E0939369A1E00E94B0
:1054E200ED06E1E0EA93A1E00E946F060E949D3181
:1054F20025960895BA93AA9322970E949431E8853B
:10550200F9853196E887F9873197E853F749E081C1
:10551200F0E0F595E7959F01E885F985E853F749AD
:10552200EE83FF83E885F985E053F749AF01DA019D
:105532000E942930E03011F40C94B12AAE81BF816F
:105542000E94EC2FE03011F40C94B12AE885F98521
:10555200E051F749E081E17011F40C94B12A01C0E5
:105562002CC000E010E00832E0E01E0710F00C94BE
:10557200D12AA8E2A29FF001A39FF00DEB55F649B4
:10558200E00FF11FDF01E885F9853196E887F98799
:105592003197E853F749E081EC930F5F1F4FE3CF58
:1055A200D901A152B449EC91E07FEC93D901A15207
:1055B200B449EC91E960EC930CC0D901A152B44911
:1055C200EC91E07FEC93D901A152B449EC91E260F5
:1055D200EC930E949B312A960895AA9324970E94E5
:1055E2009431EA85EF5FEA87F0E0E853F749A0815A
:1055F200B0E0E5E0F0E00E9433329F0100E010E00D
:105602000217130710F00C948C2BEA85EF5FEA87E0
:10561200F0E0E853F74940815527FA01A3EABBE6D7
:10562200EE0FFF1FEA0FFB1FBF01EA85EF5FEA875C
:10563200F0E0E853F749A081B0E0E0E0F1E00E9439
:105642001B32DB01ED93FC93FA01A3EABBE6EE0FFA
:10565200FF1FEA0FFB1F0F01DF01ED91FD91DF013B
:10566200EA85EF5FEA87F0E0E853F749E081F0E08E
:10567200EA0FFB1FD001ED93FC93EA85EF5FEA8707
:10568200F0E0E853F749E081FF27662777270E9479
:105692001C33A0E0B0E080E893E40E94A533EE83DF
:1056A200FF8368877987EA85EF5FEA87F0E0E8534E
:1056B200F749E081FF27662777270E941C33AE81D6
:1056C200BF81888599850E945633EE83FF83688760
:1056D2007987FA01ABE6BBE60E94D931EA0FFB1FDC
:1056E200FF93EF93AE81BF8188859985E0E0F0E575
:1056F20063EC77E40E94F333A0E0B0E080E89FE33C
:105702000E945633AF91BF91ED93FD936D937C93BD
:105712000F5F1F4F75CF0E949B312B960895A8975C
:105722000E9494310A2F20E030E02E30E0E03E0764
:1057320010F00C94B32BD901AF52B449EC91E37E33
:10574200EC93E02FF0E0E853F749E081EC711E2F73
:10575200D901AF52B449EC91E12BEC930F5F2F5F6B
:105762003F4FE3CFE02FF0E0E853F749E081E0302C
:1057720011F40C94322C20E030E02E30E0E03E07B1
:1057820010F00C94D62BADEBBAE6F9013896EA0F7D
:10579200FB1F0F01A1EDBBE6A20FB31FEC91EC7052
:1057A200D001EC932F5F3F4FE8CFA5ECBAE60E9401
:1057B200583020E030E02832E0E03E0710F00C9450
:1057C200EF2BDE011696A20FB31FEDEBFAE6E20F06
:1057D200F31FE081EC932F5F3F4FEDCF41E050E0AC
:1057E200E7E0EA93AFE00E945F2C309711F00C944F
:1057F200FC2B40E050E0E7E0EA93AAEA0E945F2C2B
:10580200309711F00C94072C40E050E020E030E09B
:105812002832E0E03E0710F00C94222CDE011696AE
:10582200A20FB31FAC91EDEBFAE6E20FF31FE0819A
:10583200EA1711F40C941F2C40E050E02F5F3F4F09
:10584200E7CFE1E0F0E0E417F50711F00C94322C19
:10585200E7E0EA93A5E50E945F2C309711F40C94DF
:10586200322CE7E0E093CA6BEEE0E093C86BE4E031
:10587200E093CB6B0E949B31AE9608950E949431C7
:10588200AD0130E002E010E00417150710F00C94AF
:105892005A2C032E1124A0E0B8E6A00FB11FEC9100
:1058A200F0E0E025F125EC5FFE4F34910F5F1F4FD2
:1058B200EBCFE32F0E949B31269608950E949431EC
:1058C2004A2F10E0AE81A73011F00C946B2DA0E4AA
:1058D2000E94180BA9E00E940A07A0E10E94C309D6
:1058E200A0E10E94A807A1E00E94090BA5E0B0E098
:1058F2000E945734A1E00E947A30A895E42FF0E08C
:10590200EA3AA0E0FA0711F00C94A42CEE81A8E286
:10591200EA9FF001E355F6499F0100E0003210F0E2
:105922000C94A22C3F932F932F5F3F4FA02FB0E0F8
:10593200AD5FBF4F0E948132AF91BF91EC930F5F79
:10594200EDCF11E0C6C0EF30A0E0FA0711F00C94E1
:10595200C52CEE81A8E2EA9FF001E355F6499F01CA
:1059620000E0003210F00C94C32CD9012F5F3F4F9E
:105972005C91A02FB0E0AD5FBF4FE52F0E948A324D
:105982000F5FEFCF11E0A5C0E636A0E0FA0711F0F5
:105992000C94D52C25EE3AE6ACE2B0E00E948132BE
:1059A200D901EC9311E095C0E535A0E0FA0711F0BA
:1059B2000C94DD2C11E08DC0E03FA0E0FA0711F05D
:1059C2000C94E52C11E085C0E33CA0E0FA0711F04D
:1059D2000C94092DEE81A8E2EA9FF001EB55F649FD
:1059E2009F0100E0083010F00C94072DA02FB0E0CA
:1059F200AD5DBF4F0E9481325E2F3F932F932F5F89
:105A02003F4FAF91BF91EC930F5FECCF11E061C0BC
:105A1200E939A0E0FA0711F00C94352DA2E0B0E0CC
:105A22000E9481325E2F553511F00C941A2D10E030
:105A32001AC0EE81A8E2EA9FF001EB55F6499F01F8
:105A420000E0083010F00C94332DD9012F5F3F4F46
:105A52005C91A02FB0E0AD5DBF4FE52F0E948A326E
:105A62000F5FEFCF11E035C0EA35A0E0FA0711F081
:105A72000C94472DA2E0B0E0E5E50E948A32ACE248
:105A8200B0E0EFE00E948A3211E023C0E333A0E0ED
:105A9200FA0711F00C946A2DE0919069F0E0E05061
:105AA200F8499F0100E0083010F00C94682DA02FF7
:105AB200B0E0A35DBF4F0E9481325E2F3F932F93D0
:105AC2002F5F3F4FAF91BF91EC930F5FECCF11E08F
:105AD20000C00BC1A0E40E94180BAE810E940A070D
