:020000021000EC
:10E000000C94B7F0005EBCE2613FDD83C29C7E20D1
:10E01000A3FD1F419DC3217FFCA2401E5F01E3BD04
:10E020003E6082DC237D9FC1421CFEA0E1BF5D03F8
:10E0300080DE3C62BEE0025CDF81633D7C22C09EEC
:10E040001D43A1FF4618FAA427799BC584DA3866D8
:10E05000E5BB5907DB856739BAE406581947A5FBC4
:10E060007826C49A653BD987045AB8E6A7F91B45B8
:10E07000C6987A24F8A6441A99C7257B3A6486D8AC
:10E080005B05E7B98CD2306EEDB3510F4E10F2AC98
:10E090002F7193CD114FADF3702ECC92D38D6F3184
:10E0A000B2EC0E50AFF1134DCE90722C6D33D18F78
:10E0B0000C52B0EE326C8ED0530DEFB1F0AE4C126C
:10E0C00091CF2D73CA947628ABF517490856B4EA58
:10E0D0006937D58B5709EBB536688AD495CB297744
:10E0E000F4AA4816E9B7550B88D6346A2B7597C938
:10E0F0004A14F6A8742AC896154BA9F7B6E80A542C
:0BE10000D7896B35B705000100000057
:10E10C0029D0F12FE02F20936800E895FFFF000045
:10E11C0021C020D0F32FE22F112E002E21E02093CE
:10E12C006800E895FFFF000015C014D0F12FE02F18
:10E13C0020FD20936800D895002DE395D895102DDF
:10E14C00089508D0002E29E020936800E895FFFF81
:10E15C00000000C0022E2091680020FDFBCF202D76
:10E16C00089507EF03500DBF06E000400EBFC7EF48
:10E17C00D8E00E94F3F9002311F00E9405FA0E94E6
:10E18C0096F10E9428FA0C9428FA00E007BB06B31B
:10E19C000C7005950595009302010ED020D036D059
:10E1AC0040E056E960E070E000E04FD040E056E916
:10E1BC0060E070E001E049C0F89400E009BF009312
:10E1CC006A000ABF09BF05BF00936D0000936C0085
:10E1DC000FBF04B70093030100E004BF089500E0F3
:10E1EC000ABB0BBB07BB08BB04BB05BB01BB00EFE9
:10E1FC0002BB0EEF02B900E003B90093610000937B
:10E20C0062000093640000936500089500E003BF72
:10E21C0009E301BF00E00FBD0EBD00937A0000E2E0
:10E22C0011E01BBD0ABD00E005BD03BD00938B00D2
:10E23C0000938A0000938C00009387000093860063
:10E24C0000BF07BF00937D0008957A926A925A929C
:10E25C004A92402E04E011E055242DE130E0349D2B
:10E26C00302D259D300D249D310D3801600C731E11
:10E27C00F3015282538254825582568257825686BB
:10E28C005786508A518A528A538A548A558A5286A2
:10E29C0000E412E42FE030E00E94CDF9A8014150D7
:10E2AC005040452F0A95142D105019F01A95C9F0AD
:10E2BC0032C02AEF30E0E62D268B378B2EE331E08F
:10E2CC00208331832CE932E02487358710E01BB999
:10E2DC0009B94093900008E10AB906E00093950053
:10E2EC001AC02AEF30E0E62D268B378B2AEF33E06D
:10E2FC002083318328E535E02487358710E010939F
:10E30C009B00009399004093980008E100939A00B9
:10E31C0006E000939D00499059906990799008957A
:10E32C00E199FECF0FEF0EBB0FE00FBBE09A0DB3E0
:10E33C000A3A81F00E94CBF000E00E94B5F90CB1D2
:10E34C000E94C0F1009118010A30D1F700E00E9440
:10E35C000DF2F6CFA0E0B1E0ED91FC91099400B381
:10E36C0002950F7000950F7008950CB95E9BFECF4F
:10E37C005E9A0895BA93AA935F9902C05C9BFCCFF6
:10E38C00E4E0F1E02CB1A485B58506851785A00FD6
:10E39C00B11F2C9304890A30B9F10489005021F57E
:10E3AC00A485B58506851785A00FB11F0C91063184
:10E3BC0039F405890395058B00E00687078724C08F
:10E3CC001589123070F0013061F400E0058B01E02A
:10E3DC00048B00E010E0008B018B0AEF068B178B8F
:10E3EC0013C000E0058B10C0068517850F5F1F4F0B
:10E3FC000687178798012F35314000E018F00E94EE
:10E40C00B5F902C00E948CF8A991B99108957A923D
:10E41C006A925A924A92BA93AA939A938A93602ECA
:10E42C0084E091E077240DE110E0169D102D079DFE
:10E43C00100D069D110D800D911FFC01748E0BE0CB
:10E44C000283738207E0402E5524DC011C96920156
:10E45C00062D34D0202F0D911C911197A2014E5FE7
:10E46C005F4FF801E40FF51F408150E0F201339645
:10E47C000E0F1F1FF8010081F02FE0E0E40FF51FD5
:10E48C0034964E0E5F1E222341F0FC01008D118D3F
:10E49C000450104040165106D0F2FC01048D0023AC
:10E4AC0011F0062DA8D0062D5AD789919991A991D2
:10E4BC00B99149905990699079900895AA939A933B
:10E4CC008A93C901A1E010E02DE130E0309F302D9E
:10E4DC00219F300D209F202D310DF901EC5FFE4F57
:10E4EC0024853585F901E80FF91F4081FC0131962F
:10E4FC002E0F3F1FF90150819C012C5F3F4FFA01F9
:10E50C00E85EF34061F0EC5AF34059F03A9759F059
:10E51C003A9759F03A9759F0749759F00CC01AD1B0
:10E52C000EC022D20CC08DD20AC021D308C08AD40E
:10E53C0006C089D504C04436504008F4A0E00A2F28
:10E54C0089919991A9910895BA93AA93A4E0B1E005
:10E55C00202F30E00DE110E0129F102D039F100DC5
:10E56C00029F110DA00DB11FFD0136873787308B2F
:10E57C00318B3483358306E1ED91FC911197008347
:10E58C00ED91FC9111970183ED91FC911197028310
:10E59C0001E0ED91FC91119703831C96ED91FC9198
:10E5AC001D970281ED91FC91119704831C96ED91BE
:10E5BC00FC911D970381ED91FC91119705830091BE
:10E5CC000201005FED91FC91119706830E94B5F159
:10E5DC00ED91FC911197078300E0ED91FC9111975F
:10E5EC000087ED91FC9111970187ED91FC910287C9
:10E5FC00A991B9910895BA93AA939A938A93802F6B
:10E60C00A3DFA4E0B1E090E00DE110E0189F102D25
:10E61C00099F100D089F110DA00DB11F0D911C919C
:10E62C001197FD0142815381040F151FF80190834E
:10E63C00FD01028113810F5F1F4F02831383ED9144
:10E64C00FC911197E00FF11F9083FD010281138162
:10E65C000F5F1F4F02831383ED91FC911197E00F15
:10E66C00F11F9083FD01028113810F5F1F4F028305
:10E67C0013832385ED91FC911197E00FF11F2083FB
:10E68C00FD01038503950387028113810F5F1F4FE3
:10E69C00028313830250ED91FC9111970087FD01C9
:10E6AC000281138102501040ED91FC91119711875A
:10E6BC002AE030E0082FDBD5ED91FC911197028711
:10E6CC00FD0122813381082FD2D52D913C911197D8
:10E6DC00FD0142815381240F351FF9010083FD0197
:10E6EC00028113810F5F1F4F0283138324E0ED918E
:10E6FC00FC911197E00FF11F2083FD010281138122
:10E70C000F5F1F4F02831383ED91FC911197E00F64
:10E71C00F11F9083FD01028113810F5F1F4F028354
:10E72C0013830683178394839583008511850F5F6C
:10E73C001F4F00871187882319F41A9A00E004C030
:10E74C00813019F41B9A01E08DD489919991A9918A
:10E75C00B99108955A924A92BA93AA939A938A932A
:10E76C00A4E0B1E010E02DE130E0309F302D219F8E
:10E77C00300D209F310DA00DB31F11E0FD01148F42
:10E78C0019EE2D913C911197FD0142815381240F7B
:10E79C00351FF90110831296ED91FC911397319668
:10E7AC001296ED93FC93139713E02D913C911197D6
:10E7BC002E0F3F1FF9011083FD01228133812F5F42
:10E7CC003F4F22833383C9012E5F3F4F2283338314
:10E7DC00ED91FC911197E20FF31F0083FD01028173
:10E7EC0013810F5F1F4F0283138320910201205F5F
:10E7FC00ED91FC911197E00FF11F2083FD014280F8
:10E80C00538001E0400E00E0501E42825382820190
:10E81C000F5F1F4F028313830E94B5F1ED91FC91A2
:10E82C001197E40DF51D008323E00D911C911197B8
:10E83C00FD0142815381040F151FF8012083FD0156
:10E84C00028113810F5F1F4F0283138321E0ED912F
:10E85C00FC911197E00FF11F2083FD0102811381C0
:10E86C000F5F1F4F02831383ED91FC911197E00F03
:10E87C00F11F2083FD01028113810F5F1F4F028363
:10E88C0013832EE5ED91FC911197E00FF11F20837E
:10E89C00FD01028113810F5F1F4F0283138321E05F
:10E8AC00ED91FC911197E00FF11F2083FD01028186
:10E8BC0013810F5F1F4F028313832EE5ED91FC91A3
:10E8CC001197E00FF11F2083FD01028113810F5F6F
:10E8DC001F4F0283138321E0ED91FC911197E00F00
:10E8EC00F11F2083FD01028113810F5F1F4F0283F3
:10E8FC00138320910301ED91FC911197E00FF11F0F
:10E90C002083FD01028113810F5F1F4F028313834C
:10E91C0020E0ED91FC911197E00FF11F2083FD0198
:10E92C00028113810F5F1F4F02831383081B025058
:10E93C00ED91FC911197E80FF91F0083FD01028105
:10E94C001381081B190B02501040ED91FC9101969C
:10E95C00E80FF91F10832093030189919991A991D4
:10E96C00B9914990599008957B2F2A2E592F682FD1
:10E97C00E4E0F1E0202F30E00DE110E0129F102DCB
:10E98C00039F100D029F110DE00DF11F01E0048F8C
:10E99C0005E9A081B18122813381A20FB31F0C93B1
:10E9AC008281938101968283938307E0A081B18158
:10E9BC00A80FB91F0C930196828393838C01029646
:10E9CC008283938324E4A081B181A80FB91F2C9377
:10E9DC000196828393832EE1A081B181A80FB91F88
:10E9EC002C9301968283938327E9A081B181A80F90
:10E9FC00B91F2C9301968283938322E0A081B1816D
:10EA0C00A80FB91F2C93019682839383801B82508D
:10EA1C00A081B181A00FB11F8C932281392F201BB3
:10EA2C00310B22503040432F208131810F5F1F4F1B
:10EA3C00200F311FF9014083862F952FA22DB72F60
:10EA4C0008957A926A925A924A92BA93AA939A9396
:10EA5C008A93402EA4E0B1E055240DE110E0149D02
:10EA6C00102D059D100D049D110DA00DB11F01E081
:10EA7C00FD01048F2FE90D911C911197FD0142812D
:10EA8C005381040F151FF8012083FD0182819381AE
:10EA9C0001968283938307E0ED91FC911197E80F27
:10EAAC00F91F0083FD01028113810F5F1F4F028349
:10EABC001383C8010E5F1F4F028313835BBE662452
:10EACC00772413C023E083010E9486F021E18301A7
:10EADC000E9486F00FEF60160EEF700610F001E04A
:10EAEC000BBF00E0600E01E0701E00EE701610F41B
:10EAFC0021E001C020E030E00BB7002311F401E06D
:10EB0C0001C000E0022B032BE9F600E00BBF20E074
:10EB1C000D911C911197FD0142815381040F151F1A
:10EB2C00F8012083FD01028113810F5F1F4F0283C7
:10EB3C001383081B0250ED91FC911197E80FF91FFC
:10EB4C000083FD0102811381081B190B0250104038
:10EB5C00ED91FC910196E80FF91F10838991999121
:10EB6C00A991B99149905990699079900895FA9228
:10EB7C00EA92DA92CA92BA92AA929A928A927A9269
:10EB8C006A925A924A92BA93AA939A938A930A9344
:10EB9C002901A4E0B1E0202F30E00DE110E0129F3C
:10EBAC00102D039F100D029F110DA00DB11F01E040
:10EBBC00FD01048F29EA0D911C911197FD014281F1
:10EBCC005381040F151FF8012083FD01828193816D
:10EBDC0001968283938307E0ED91FC911197E80FE6
:10EBEC00F91F0083FD01228133812F5F3F4F228368
:10EBFC00338359012E5F3F4F228333830485158560
:10EC0C00F801E40DF51D408150E0C2010196F801B8
:10EC1C00E80FF91F908180E0840F951F42E0440EAD
:10EC2C00551EF801E40DF51D4081F20131960E0FD1
:10EC3C001F1FF801D080CC24C40ED51E02E0400E5C
:10EC4C00551E320101E0C016D00670F0ED91FC911A
:10EC5C001197E20FF31F0083FD01028113810F5FF7
:10EC6C001F4F02831383C2C08F3F0FE7900710F032
:10EC7C0001E001C000E00BBF880F991F7C018824C4
:10EC8C0099241EC0FD01448555859C01FA01E40DB3
:10EC9C00F51D608170E082010F5F1F4F400F511F07
:10ECAC00FA01108100E0060F171F0E948FF002E09E
:10ECBC00800E00E0901E029602E0400E00E0501E16
:10ECCC008C149D04F8F225E087010E9486F021E166
:10ECDC0087010E9486F020E00D911C911197FD0197
:10ECEC0042815381040F151FF8012083FD0102811D
:10ECFC0013810F5F1F4F028313838824992472C0E2
:10ED0C0020E087010E949BF0A30121E0620E20E02D
:10ED1C00721EFD0124853585240F351FF9013081C4
:10ED2C00301729F132E0688170E04DE150E0569FD8
:10ED3C00502D479F500D469F402D510DFA01EC5F11
:10ED4C00FE4F40815181262E33246DE1729D702D32
:10ED5C00639D700D629D602D710DFB01EC5FFE4F8C
:10ED6C00828193810197480F591FFA013083A301C7
:10ED7C0021E0620E20E0721EFD0124853585240FF2
:10ED8C00351FF9012081211729F112E0488150E04B
:10ED9C002DE130E0349F302D259F300D249F202D08
:10EDAC00310DF901EC5FFE4F20813181642F70E051
:10EDBC004DE1569F502D479F500D469F402D510DB4
:10EDCC00FA01EC5FFE4F828193810197280F391F66
:10EDDC00F901108302E0800E00E0901E02E0E00ECC
:10EDEC0000E0F01E8C149D0408F48ACFFD01028112
:10EDFC000A190250ED91FC911197EA0DFB1D00834D
:10EE0C00FD01028113810A191B0902501040ED917A
:10EE1C00FC9101E0A00E00E0B01EEA0DFB1D10837A
:10EE2C00219689919991A991B9914990599069909C
:10EE3C00799089909990A990B990C990D990E990BE
:10EE4C00F9900895BA92AA929A928A927A926A92B8
:10EE5C005A924A92BA93AA939A938A93A02EA4E0B8
:10EE6C00B1E0BB240DE110E01A9D102D0B9D100D8F
:10EE7C000A9D110DA00DB11F01E0FD01048F49EA9F
:10EE8C000D911C911197FD0162817381060F171F63
:10EE9C00F8014083FD0182819381019682839383E3
:10EEAC0007E0ED91FC911197E80FF91F0083FD012C
:10EEBC00828193810196828393833C0102968283A3
:10EECC009383090184E08D01045F1F4FAD011D0187
:10EEDC0062E0260E3B1CF80160817181600D711D92
:10EEEC00FB019081FA0160817181F10140805180B8
:10EEFC00640D751DFB019083F101608171816F5F61
:10EF0C007F4F6083718361E0060E60E0161E8A9568
:10EF1C0011F7FD0104851585F801E20FF31F4081FF
:10EF2C00C9010196F801E80FF91F9081842F2E5F1B
:10EF3C003F4FF801E20FF31F40812F5F3F4F020F4D
:10EF4C00131FF8015080442E01E041305006F0F0C0
:10EF5C0041E00D911C9111972DE130E03A9D302D3F
:10EF6C002B9D300D2A9D202D310DF901EC5FFE4FAC
:10EF7C0022813381020F131FF8014083FD010281AE
:10EF8C0013810F5F1F4F0283138337C08F3F0FE72F
:10EF9C00900710F001E001C000E00BBF880F991F33
:10EFAC008824992427C020E08C010E949BF02D918D
:10EFBC003C911197FD0142815381240F351FF901BA
:10EFCC000083FD01228133812F5F3F4F22833383E6
:10EFDC00ED91FC911197E20FF31F1083FD0102815B
:10EFEC0013810F5F1F4F0283138302E0800E00E03A
:10EFFC00901E029684149504B0F2FD01028106194C
:10F00C000250ED91FC911197E60DF71D0083FD0167
:10F01C0082819381861997090297ED91FC9101E009
:10F02C00600E00E0701EE60DF71D9083899199919A
:10F03C00A991B9914990599069907990899099903A
:10F04C00A990B9900895E199FECF0FEF0EBB0FE098
:10F05C000FBB0AEA0DBBE29AE19AE199FECF08E0F8
:10F06C0001BD0895BA93AA939A938A93802FEFEFD8
:10F07C00FFEF31970E2F0F2BE1F7A4E0B1E090E0FA
:10F08C000DE110E0189F102D099F100D089F110D18
:10F09C00A00DB11FFD0106811781012B59F10D91B6
:10F0AC001C911197FD0124813581020F131FF8016A
:10F0BC0000810E94BBF10DE110E0189F102D099FFB
:10F0CC00100D089F002D110DF801EC5FFE4F04810F
:10F0DC0015810F5F1F4FFD01048315830F35114000
:10F0EC0010F094839583068117810150104006839C
:10F0FC001783C3CF882311F41A9803C0813009F405
:10F10C001B9889919991A991B99108955A924A9213
:10F11C00BA93AA939A938A93802FA4E0B1E090E0DB
:10F12C000DE110E0189F102D099F100D089F110D77
:10F13C00A00DB11FFD010489005009F478C00A9597
:10F14C0039F00A9509F440C0085009F470C06DC03C
:10F15C00008911890630104008F469C004851585B2
:10F16C00F801248130E0158100E0020F131FFD012E
:10F17C00008F118F26E0082FACD0012B21F1FD015F
:10F18C0004851585F801208130E00091020110E022
:10F19C00005F1F4F20173107B1F4FD01208D318D19
:10F1AC00008911894EE551E0401B510B241735079E
:10F1BC00E0F527303040C8F122E0248B0F5F1F4F61
:10F1CC00028B138B34C031C0028913890F5F1F4F20
:10F1DC00028B138B208D318D0217130740F10485A0
:10F1EC00158521503040020F131FF80100810430A7
:10F1FC00E1F4FD01208D318D22503040082F69D073
:10F20C00012B99F0FD0144845584F20191810E94F7
:10F21C00B5F1901711F09F3F41F4F2010381009377
:10F22C00B6060AE0FD01048B02C0082F98D090E0CE
:10F23C000DE110E0189F102D099F100D089F002D57
:10F24C00110DF801EC5FFE4F008911890F5F1F4F04
:10F25C00FD01008B118B0E35114010F0908B918BB2
:10F26C0089919991A991B991499059900895BA931E
:10F27C00AA939A938A93602FA901222484E090E0A8
:10F28C004530304000F1A4E0B1E070E00DE110E059
:10F29C00169F102D079F100D069F110DA00DB11F6D
:10F2AC003324ED91FC911197E80FF91F0080022493
:10F2BC00E4E0F0EE31E0E00DF31D3BBF269001964B
:10F2CC008417950768F3022D89919991A991B991A9
:10F2DC0008955A924A92BA93AA939A938A93202E9B
:10F2EC00890120E080E090E044E051E033246DE1BE
:10F2FC0070E0729D702D639D700D629D602D710D7F
:10F30C000A01060E171E302F312BA9F0D0011C96C6
:10F31C00ED91FC911197E80FF91F4080552442267E
:10F32C00E4E0F0EE31E0E40DF51D3BBF26910196D3
:10F33C008017910768F3F00144855585400F511FE4
:10F34C00FA010081201711F401E001C000E010E087
:10F35C0089919991A991B9914990599008954FB774
:10F36C00F894023090F4E4E0F1E0202F30E00DE16D
:10F37C0010E0129F102D039F100D029F110DE00D38
:10F38C00F11F358B348B368737874FBF0895002498
:10F39C00112422243324E0E2EA9592F0001F111F7D
:10F3AC00221F331F001C111C221C331C04161506B3
:10F3BC002606370688F3041A150A260A370AECCFF4
:10F3CC00001F111F221F331F402D512D622D732D35
:10F3DC000095109520953095089501E0089520E052
:10F3EC0002D0E9F708952D9301501040202F212BC6
:10F3FC0008953BBF27913BB7F6DFD9F7089504E09A
:10F40C0011EE2801F20131E03BBF07911691F20198
:10F41C003296A791B691F201349647915791669125
:10F42C00242F252B262B21F0FA01362FE2DF01C0E9
:10F43C00D6DF07E0400E00E0501EA2014B30514ECB
:0AF44C0008F3089500008895FECF34
:00000001FF
