:020000021000EC
:10E000000C94F7F618951895189518951895189575
:10E010001895189518951895189518951895189598
:10E020001895189518951895189518951895189588
:10E030001895189518951895189518951895189578
:10E040001895189518951895189518951895189568
:10E05000189518950C947EF618951895189518959E
:10E06000189518950C94D3F30C9466F40C94A2F4C0
:10E070001895189518951895189518951895189538
:10E080001895189518951895189518951895189528
:10E090001895189518951895189518951895189518
:10E0A0001895189518951895189518951895189508
:10E0B00018951895189518951895189518951895F8
:10E0C00018951895189518951895189518951895E8
:10E0D00018951895189518951895189518951895D8
:10E0E00018951895550214020000001400000296BD
:10E0F000F001402FF89401E010E00E940BF710911E
:10E100002402102B109324027894089512E0019FAA
:10E11000F001EC5EFD4F208331830895E4E1F2E0ED
:10E1200028E000E0019301932A95E1F7009324028F
:10E1300008955A924A92BA93AA939A938A9344243E
:10E14000F89450902402409224027894B0E084E144
:10E1500092E0A8E001E010E04B2F0E940BF7152D94
:10E16000102331F00B2FFC012081F181E22F099562
:10E17000B3950296AA9521F3EDCF9A938A93F894DA
:10E180002BBFC80123E00E9455F121E18C010E94C0
:10E1900055F100E00BBF7894899199910895DA9236
:10E1A000CA929A928A927A926A925A924A92BA93AE
:10E1B000AA939A938A9348016A013B01F8942BBF72
:10E1C000C801A0E0B0E0672981F02A019C01F201BA
:10E1D000008111810E945BF11296029602E0400ECE
:10E1E00000E0501EA615B70588F3C40125E08401A0
:10E1F0000E9455F121E184010E9455F1A0E0B0E0B8
:10E20000260105C01296029602E0400E551EA61584
:10E21000B70588F420E08C010E9464F1F20140818E
:10E2200050E04017550721F421812117550751F37C
:10E23000789400E002C0789401E089919991A991C5
:10E24000B991499059906990799089909990C99025
:10E25000D99008957A926A925A924A92BA93AA935E
:10E260009A938A933B012BBFC80144245524672904
:10E2700089F0DA0120E08C010E9464F10C93FD0129
:10E28000118302E0400E00E0501E029612964614E2
:10E29000570480F300E00BBF89919991A991B9913E
:10E2A000499059906990799008951FD0F12FE02FEF
:10E2B00027BFE8951AC019D0F32FE22F112E002E98
:10E2C00021E027BFE89511C010D0F12FE02F20FDED
:10E2D00027BFD895002DE395D895102D089505D02A
:10E2E000002E29E027BFE89500C0022E27B720FDA9
:10E2F000FCCF202D089500E001B902B904B905B999
:10E3000007B908B90AB900EF0BB90EE00DB900E082
:10E310000EB900BB01BB03BB04BB0895F89400E039
:10E320000DBB0093690000936A000DBB05BF00930D
:10E330007400009375000FBF05BF05B7102F116063
:10E3400015BF026005BF089500E004B9E7DFD3CF31
:10E35000F999FECF0FEF1FE012BD01BDF89A00B58D
:10E360000895F999FECF1F7012BD01BD20BDFA9A24
:10E37000F99AF999FECF089508E000936000089596
:10E380000CB102950F7000950F7008959A938A93BF
:10E390002297A89504B704B7077F04BF00916000D7
:10E3A00008610093600000E00093600062E070E0AC
:10E3B000AE0110E020E030E00E942AF1F999FECF92
:10E3C0000FEF1FE012BD01BDF89A20B50CB1029508
:10E3D0000F7000950F700F3039F12A3A39F18881AA
:10E3E00099818F3F9F4F61F12B3B99F480E090E042
:10E3F000E0E0F0E12FEFF999FECF192F1F7012BD69
:10E4000081BD20BDFA9AF99AF999FECF019631970C
:10E4100091F7E0912502F0912602099500E010E0C5
:10E4200022968991999108952A3A51F4F999FECF4B
:10E430000FEF12BD01BD00BDFA9AF99AF999FECF0E
:10E440000E94A4F10E948EF00E94D7F60E9422F64C
:10E450002CEB31EF07E00E9486F078940E9499F04F
:10E46000D8CF7B2F0A2E592F682FD801C9014FEF23
:10E470002FEF082F092B81F00D91022710E0E6E91C
:10E48000FEEE31E0E00FF11F3BBF06914027242F45
:10E49000F3954691019781F7142F022F862F952F20
:10E4A000A02DB72F0895BA93AA938A93022E80E0E5
:10E4B000FB01A081B181159791F421E08A932A9301
:10E4C00031E0FA01718162814D5F5F4F202D0E9422
:10E4D000EAF2002329F00E946FF6802F01C083E04A
:10E4E000082F8991A991B9910895BA93AA938A9313
:10E4F000FA01DB0180E04D915C911197463050406C
:10E5000000F17181628153810480402D3581052A9B
:10E51000C1F049375807A8F4042E000C301589F4CF
:10E520005A934A9331E03696AF010E94EAF20023F3
:10E5300021F00E946FF6802F05C005E00D938C93AB
:10E5400001C083E0CDCF4A92BA93AA939A938A935B
:10E55000FA01DB0144248D919C911197059789F56F
:10E5600071816281848190E0882359F18E3748F56A
:10E570004D924C92119733E030834D915C914F5FF7
:10E580005F4F5C934E93382F330F31834D915C91E5
:10E590004F5F5F4F5C934E934A928A9330E032967E
:10E5A000AF010E94EAF2002319F00E946FF60AC040
:10E5B000880F991F0D911C91080F191F1C930E9322
:10E5C00002C003E0402E042D89919991A991B9913F
:10E5D00049900895AA929A928A927A926A925A924D
:10E5E0004A92BA93AA939A938A93A32E2A013B0143
:10E5F0000B851C85600F711F615070404B01E0E07E
:10E60000F2E005E0208131816216730658F0428104
:10E6100053814615570530F06217730718F04617F7
:10E620005707A0F434960A9569F701E0AFC020912E
:10E63000270200912802F2010083218302E0400EAC
:10E6400000E0501E01E0600E00E0701E861497048A
:10E6500008F49BC000E3601605E7700651F4AA2099
:10E6600031F3F201308101810093270230932802B7
:10E67000E5CF830108511947003820E01040D8F455
:10E68000062D085112E0019F09E212E0000D111D54
:10E69000AA2049F4F8012081F2012083F8010181C8
:10E6A000F2010183CBCFF2012081F8012083F20136
:10E6B0002181F801C2CF62160DE77006C9F4AA20C5
:10E6C000F1F0F20190818181019709F0B7CFF894C0
:10E6D0000E94A8F10F3F29F02FEF0FEF1FE00E94DB
:10E6E000B1F1789427E01AEF02E00E94E9F6A6CF94
:10E6F00008EE601600E87006D9F5AA2019F4F201B8
:10E7000020839BCFF20190818181813000E09007CE
:10E7100011F590912702F8940E94A8F10A3A29F085
:10E720002AEA0FEF1FE00E94B1F1789400E0192F60
:10E7300020E030E00E94BDF060E071E049E252E08C
:10E7400000E0192F20E030E00E94CFF0002309F014
:10E7500075CF05E01BC0029709F070CF60E071E053
:10E7600049E252E01091270230E00E942AF166CF80
:10E7700000ED601604E8700609F057CFAA2009F0F2
:10E780005DCFF201208304E68CCF00E0899199915E
:10E79000A991B991499059906990799089909990EF
:10E7A000A990229608955A924A92BA93AA939A935C
:10E7B0008A93FA93EA933A922A921A920A927A9355
:10E7C0006A935A934A933A932A931A930A934FB6A9
:10E7D0005BB62091C000E3E4F4E0022F0C71A9F1D4
:10E7E00023FB6EF4878190858F3F9F4F41F0078117
:10E7F00010850F5F1F4F10934B0400934A0422FBB8
:10E800006EF4838594858F3F9F4F41F00385148577
:10E810000F5F1F4F10934F0400934E0424FB6EF4C0
:10E82000818592858F3F9F4F41F0018512850F5F53
:10E830001F4F10934D0400934C040091C60000E05C
:10E8400000830183028303832AC02091C6000081D4
:10E85000118108311140A8F000E000830183028398
:10E860000383858196818F3F9F4FC9F000914804B3
:10E87000109149040F5F1F4F0093480410934904FF
:10E880000EC0A081B181A55DBC4F2C930081118188
:10E890000F5F1F4F0083118301E00E9479F05BBE80
:10E8A0004FBE0991199129913991499159916991D5
:10E8B00079910990199029903990E991F99189916C
:10E8C0009991A991B991499059901895FA93EA9321
:10E8D0004A933A932A931A930A934FB7E3E4F4E0E6
:10E8E00000811181228133812017310758F0009176
:10E8F000C1000F7D0093C1000091C100006400932E
:10E90000C10017C00281F381E02FE75DFC4F128147
:10E910000091C00000640093C0001093C6000091F5
:10E920004504109146040F5F1F4F00934504109358
:10E9300046044FBF09911991299139914991E99163
:10E94000F99118959A938A93FA93EA933A922A92B4
:10E950001A920A927A936A935A934A933A932A9311
:10E960001A930A938FB79BB70091C1000F7B009356
:10E97000C100E3E4F4E000E0008301830283038349
:10E9800000915A0410915B040F5F1F4F00935A04CB
:10E9900010935B0403E00E9479F09BBF8FBF099145
:10E9A00019912991399149915991699179910990D8
:10E9B000199029903990E991F99189919991189537
:10E9C0006A925A924A92BA93AA939A938A932297F6
:10E9D00048835983D801522ECB01FB016080062D5C
:10E9E000035039F0035009F458C00A5009F44FC0DD
:10E9F0005AC0BE01AC010A2F0E94A3F2402E44204F
:10EA0000B9F000E00883098300E8602AFC01608215
:10EA1000088119810F5F1F4F08831983800F911F91
:10EA2000FC014082088119810F5F1F4F0883198301
:10EA3000FD015282CD01865E9E4F088119810F5FD4
:10EA40001F4FFC0100831183208131818D010E5FF6
:10EA50001F4F0E9431F2FC01408151819A012F5FCA
:10EA60003F4F20833183FD01E40FF51F0283FC013A
:10EA7000408151819A012F5F3F4F20833183A40F42
:10EA8000B51FFD011283442089F401E010C0BE01CE
:10EA9000AC010A2F0E9475F2B1CFBE01AC010A2F62
:10EAA0000E9453F2ABCF44244394ABCF00E02296B4
:10EAB00089919991A991B991499059906990089536
:10EAC0007A926A924A92BA93AA939A938A93D801B5
:10EAD000F8014280E65EFE4F608071800DEF600EAF
:10EAE0000FEF701ECD0103960E94C0F1065FFD017D
:10EAF0000183401611F04420E9F4BC01A301242D48
:10EB00008D015EDF202F4420A9F0FD01E15DFE4F65
:10EB1000008111810F5F1F4F00831183213041F06D
:10EB2000A35DBE4F0D911C910F5F1F4F1C930E9361
:10EB300001E001C000E089919991A991B9914990B2
:10EB4000699079900895BA93AA939A938A93D80179
:10EB5000F801E55DFE4F008111810F5F1F4F0083BB
:10EB60001183CD01865E9E4FFC0100811181012B36
:10EB700019F1008111810430104038F485859685A3
:10EB80008F3F9F4FC9F0A95D10C0208131818D0159
:10EB90000E5F1F4F0E9431F2012B81F0FC0187852F
:10EBA00090898F3F9F4F41F0A75DBE4F0D911C9103
:10EBB0000F5F1F4F1C930E9300E002C08D0180DF9A
:10EBC00089919991A991B99108950A9529F00250D6
:10EBD00039F1025031F0089525E014E000E00C9482
:10EBE000E9F600912903002329F40091C1000F7672
:10EBF0000093C10009E213E0A6DF013089F400911F
:10EC00002903002309F4729A10E01093450410932D
:10EC10004604B9F40091C10000620093C100089558
:10EC2000E3E4F4E000E000830183028303830091C6
:10EC30002903002331F40091C10000690093C10051
:10EC4000729808950E94C0F110E010932903065FA6
:10EC500000932A03E3E4F4E0108311831283138307
:10EC600003E00483158316831783108711871287A7
:10EC700013871487158716871787108B118B128BB4
:10EC8000138B148B158B168B178B108F108311839E
:10EC9000128313830091C10000690093C100729830
:10ECA00025EE35EF01E00E9486F025EE35EF05E018
:10ECB0000E9486F025EE35EF03E00E9486F002E028
:10ECC0000093C00000E00093C50003E30093C4007C
:10ECD00006E00093C20008E90093C10008950023F4
:10ECE00029F00A9529F0065029F006C000E00895A1
:10ECF00002E0089506E0089504E008959A938A9347
:10ED0000FA93EA933A922A921A920A927A936A931F
:10ED10005A934A933A932A931A930A938FB79BB7BD
:10ED200000E00E9479F09BBF8FBF09911991299152
:10ED30003991499159916991799109901990299046
:10ED40003990E991F991899199911895BA93AA937B
:10ED50009A938A9300915C0410915D0420915E0463
:10ED600030915F040F5F1F4F2F4F3F4F00935C04A4
:10ED700010935D0420935E0430935F04A0E6B4E03A
:10ED800083E090E0FD010181002349F000810A95B4
:10ED9000008329F402810E9479F0FD01918313968A
:10EDA0008A9581F789919991A991B991089526EA57
:10EDB00036EF00E00E9486F002E004BD03E005BDEE
:10EDC00009EF07BD00E006BD02E005BB00936E0041
:10EDD000089533E0039FECE5F4E0E00DF11D1483AA
:10EDE000268301E00583089500008895FECF08EA98
:10EDF0000DBF04E00EBFCDE0D5E00E940EF700236A
:10EE000011F00E9420F70E94C6F10E94F4F60C94C3
:10EE1000F4F6000F111F4A95E2F7089501E00895F6
:10EE200020E02D9301501040E1F708953BBF26915B
:10EE30002D93EF5FFF4F3F4F01501040B9F70895FA
:10EE400044EE50EE61E0FA01362F3BBF0791169178
:10EE5000FA01EE5FFF4F3F4F3BBFA791B691FA011A
:10EE6000362FEC5FFF4F3F4F3BBF07901790269028
:10EE7000202D2129222921F0F001322DD7DF01C0D8
:10EE8000CFDF495F5F4F6F4F10EE21E0423F5107E8
:10EE90006207C8F2089500C1814001C0804101C0ED
:10EEA000804100C1814001C0804100C1814000C15A
:10EEB000814001C0804101C0804100C1814000C14A
:10EEC000814001C0804100C1814001C0804101C03A
:10EED000804100C1814001C0804100C1814000C12A
:10EEE000814001C0804100C1814001C0804101C01A
:10EEF000804100C1814000C1814001C0804101C00A
:10EF0000804100C1814001C0804100C1814000C1F9
:10EF1000814001C0804101C0804100C1814000C1E9
:10EF2000814001C0804100C1814001C0804101C0D9
:10EF3000804100C1814000C1814001C0804101C0C9
:10EF4000804100C1814001C0804100C1814000C1B9
:10EF5000814001C0804100C1814001C0804101C0A9
:10EF6000804100C1814001C0804100C1814000C199
:10EF7000814001C0804101C0804100C1814000C189
:10EF8000814001C0804100C1814001C0804101C079
:10EF9000804100C1814000C0C101C30302C2C60656
:10EFA00007C705C5C404CC0C0DCD0FCFCE0E0ACAC1
:10EFB000CB0BC90908C8D81819D91BDBDA1A1EDE11
:10EFC000DF1FDD1D1CDC14D4D515D71716D6D212C1
:10EFD00013D311D1D010F03031F133F3F23236F6D1
:10EFE000F737F53534F43CFCFD3DFF3F3EFEFA3A81
:10EFF0003BFB39F9F83828E8E929EB2B2AEAEE2E11
:10F000002FEF2DEDEC2CE42425E527E7E62622E280
:10F01000E323E12120E0A06061A163A3A26266A6D0
:10F02000A767A56564A46CACAD6DAF6F6EAEAA6A40
:10F030006BAB69A9A86878B8B979BB7B7ABABE7E90
:10F040007FBF7DBDBC7CB47475B577B7B67672B240
:10F05000B373B17170B050909151935352929656D0
:10F060005797559594549C5C5D9D5F9F9E5E5A9A00
:10F070009B5B99595898884849894B8B8A4A4E8E90
:10F080008F4F8D4D4C8C4484854587474686824200
:10F090004383418180403075307518799779007DC0
:0AF0A000007DE880E880D084D08471
:040000031000EDEE0E
:00000001FF
