:020000021000EC
:10E000000C94B7F0005EBCE2613FDD83C29C7E20D1
:10E01000A3FD1F419DC3217FFCA2401E5F01E3BD04
:10E020003E6082DC237D9FC1421CFEA0E1BF5D03F8
:10E0300080DE3C62BEE0025CDF81633D7C22C09EEC
:10E040001D43A1FF4618FAA427799BC584DA3866D8
:10E05000E5BB5907DB856739BAE406581947A5FBC4
:10E060007826C49A653BD987045AB8E6A7F91B45B8
:10E07000C6987A24F8A6441A99C7257B3A6486D8AC
:10E080005B05E7B98CD2306EEDB3510F4E10F2AC98
:10E090002F7193CD114FADF3702ECC92D38D6F3184
:10E0A000B2EC0E50AFF1134DCE90722C6D33D18F78
:10E0B0000C52B0EE326C8ED0530DEFB1F0AE4C126C
:10E0C00091CF2D73CA947628ABF517490856B4EA58
:10E0D0006937D58B5709EBB536688AD495CB297744
:10E0E000F4AA4816E9B7550B88D6346A2B7597C938
:10E0F0004A14F6A8742AC896154BA9F7B6E80A542C
:0BE10000D7896B35BA06000100000053
:10E10C0029D0F12FE02F20936800E895FFFF000045
:10E11C0021C020D0F32FE22F112E002E21E02093CE
:10E12C006800E895FFFF000015C014D0F12FE02F18
:10E13C0020FD20936800D895002DE395D895102DDF
:10E14C00089508D0002E29E020936800E895FFFF81
:10E15C00000000C0022E2091680020FDFBCF202D76
:10E16C0008950AEF03500DBF07E000400EBFCAEF41
:10E17C00D9E00E94C5F8002311F00E94D7F80E9444
:10E18C00F5F10E9492F80C9492F8E199FECF1FBB26
:10E19C000EBBE09A0DB30895E199FECF1FBB0EBBE9
:10E1AC002DBBE29AE19A08951DE1019FE5E0F2E0B2
:10E1BC00E00DF11D10E01283138314831583168375
:10E1CC00178316871787108B118B128B138B148B5D
:10E1DC00158B1287002319F00A9539F108950AEF6F
:10E1EC0000931B0210931C020FE312E00093050234
:10E1FC00109306020DE913E0009311021093120222
:10E20C0000E00BB900E412E42FE030E00E9495F836
:10E21C00402F4A9549B9015010401093900008E1E5
:10E22C000AB906E00093950008950AEF00933802AE
:10E23C00109339020BEF14E0009322021093230287
:10E24C0009E516E000932E0210932F0200E00093D4
:10E25C009B0000E412E42FE030E00E9495F8402F80
:10E26C004A9540939900015010401093980008E192
:10E27C0000939A0006E000939D00089500E003BF10
:10E28C0009E301BF00E00FBD0EBD00937A0000E270
:10E29C0011E01BBD0ABD00E005BD03BD00938B0062
:10E2AC0000938A0000938C000093870000938600F3
:10E2BC0000BF07BF00937D00089500E00ABB0BBBB5
:10E2CC0007BB08BB04BB05BB0FEF01BB02BB0EEFCA
:10E2DC0002B900E003B9009361000093620000E111
:10E2EC000093640000E0009365000895F89400E04A
:10E2FC0009BF00936A000ABF09BF05BF00936D00F8
:10E30C0000936C000FBF04B70093030100E004BF3F
:10E31C0008958A9300E007BB86B386958695837033
:10E32C00E5DFCBDFABDF40E855E260E070E000E01A
:10E33C003BDF40E855E260E070E001E035DF01E0F2
:10E34C0010E00E94CBF00E3130F001E010E00E94A2
:10E35C00CBF00E32C0F1082F882329F00A9571F00A
:10E36C000A95D9F030C02FE101E010E00E94D2F004
:10E37C0020E002E010E00E94D2F02CC02EE101E07F
:10E38C0010E00E94D2F020E002E010E00E94D2F0F7
:10E39C0000E0009302010EE10EC020E201E010E06B
:10E3AC000E94D2F020E002E010E00E94D2F001E0E6
:10E3BC000093020100E20093B7070E9420F2009341
:10E3CC00B80789910895882329F08A9509F38A95CD
:10E3DC0071F3F3CF00E1009302010FE1ECCFE1996F
:10E3EC00FECF0FEF0EBB0FE00FBBE09A0DB30A3A56
:10E3FC00E1F00E948FF100E00E94A3F20CB101E069
:10E40C000E94A3F200919C000E9442F2009119021A
:10E41C000A3019F400E00E94CEF7009136020A305F
:10E42C0099F701E00E94CEF7EFCFE0910001F09157
:10E43C000101099401E010E00E94CBF00093B707B2
:10E44C0002E010E00E94CBF00093B807089500237F
:10E45C0029F41CB95E9BFECF5E9A0895013059F4E5
:10E46C0010939C0000919B0006FFFCCF00919B0039
:10E47C00006400939B0008955F9902C05C9B5CC094
:10E48C000CB1E0911102F091120220911302309123
:10E49C001402E20FF31F0083009119020A3009F4F1
:10E4AC004BC00023B9F5E0911102F09112020091DA
:10E4BC00130210911402E00FF11F00810230009141
:10E4CC001A0249F4039500931A0200E00093130218
:10E4DC00009314020895023000E000931A02C8F071
:10E4EC0001E00093190200E000931502009316025C
:10E4FC000AEF00931B0200E000931C020091130230
:10E50C000F5F1F4F009313021093140200E00C9442
:10E51C000AF8089500911302109114020F5F1F4F17
:10E52C0000931302109314020F35114000E010F009
:10E53C000C94A3F20E940AF808952FB7F8940230B5
:10E54C0058F41DE1019FE5E0F2E0E00DF11D00E063
:10E55C00058B048B068707872FBF0895BA93AA9360
:10E56C008A93802FEFEFFFEF00003197E9F70DE171
:10E57C00809FA5E0B2E0A00DB11DFD0106811781C1
:10E58C00012B01F1ED91FC9113960D911C911597B6
:10E59C00E00FF11F1081082F0E942DF2FD01048164
:10E5AC0015810F5F1F4F048315830F35114018F031
:10E5BC0000E0048305830681178101501040068317
:10E5CC001783D5CF882331F41A98009165000F7EFC
:10E5DC00009365008991A991B9910895BD01AC0191
:10E5EC00102FC90100E023303040A0F02DE1129F24
:10E5FC00F001EB5FFD4FA081B1811296029731E0E3
:10E60C00E02FF0E00D91E027EC5FFF413BBF06915E
:10E61C000197B1F7CA01DB0108959D011DE1019F2E
:10E62C00A5E0B2E0A00DB11DFD0100E00687078753
:10E63C00008B018B04830583ED91FC91119702E013
:10E64C000083ED91FC91119701830091B907ED9135
:10E65C00FC91119702830091B707ED91FC911197F2
:10E66C000383ED91FC91119700E00483ED91FC91F3
:10E67C000583D9010895BA93AA93202ECEDF0DE11C
:10E68C00209EA5E0B2E0A00DB11D0D911C9111973B
:10E69C00FD0122813381020F131FF80100E000837A
:10E6AC00FD01028113810F5F1F4F028313830081D1
:10E6BC00118122813381020F131FF80100E00083C6
:10E6CC00FD01028113810F5F1F4F02831383ED91B4
:10E6DC00FC9111970583FD010381ED91FC9111973C
:10E6EC000483FD0122813381022D78DF202F0D91CF
:10E6FC001C911197FD0142815381040F151FF801E4
:10E70C002083FD01028113810F5F1F4F028313834E
:10E71C000081118122813381020F131FF80103E064
:10E72C000083FD01028113810F5F1F4F028313834E
:10E73C000081118122813381020F131FF80100E047
:10E74C000083FD01028113810F5F1F4F028313832E
:10E75C000683178300E004830583008511850F5F12
:10E76C001F4F00871187222041F400916500006142
:10E77C00009365001A9A00E0F1DEA991B991089511
:10E78C00E199FECF0FEF0EBB0FE00FBB0AEA0DBBFA
:10E79C00E29AE19AE199FECF08E001BD08959A92C0
:10E7AC008A927A926A925A924A92BA93AA939A93BA
:10E7BC008A931DE1019FA5E0B2E0A00DB11DFD0102
:10E7CC0001E0048F0081118142815381040F151FD8
:10E7DC00F80107EF0083FD01028113810F5F1F4FCA
:10E7EC000283138348010F5F1F4F028313834091F1
:10E7FC00B8070081118162817381060F171FF80120
:10E80C004083FD01028113810F5F1F4F028313832D
:10E81C00C90144E004851585080F191FF8015081C2
:10E82C000D911C911197FD0162817381060F171FC9
:10E83C00F8015083FD01028113810F5F1F4F02838A
:10E84C00138301964A9531F704851585F801E20F7B
:10E85C00F31F808191812E5F3F4F020F131FF80130
:10E86C006080718001E06016700698F00D911C912B
:10E87C001197FD0122813381020F131FF80101E072
:10E88C000083FD01028113810F5F1F4F02831383ED
:10E89C003DC08F3F0FE7900710F001E001C000E092
:10E8AC000BBF880F991F44245524062D072971F19D
:10E8BC0020E08C010E949BF0312F402F0D911C9178
:10E8CC001197FD0162817381060F171FF8014083B8
:10E8DC00FD01028113810F5F1F4F0283138300819F
:10E8EC00118142815381040F151FF8013083FD0102
:10E8FC00028113810F5F1F4F0283138302E0400ECE
:10E90C0000E0501E02964614570490F2FD0102815D
:10E91C0008190A95ED91FC91E80DF91D0083899178
:10E92C009991A991B9914990599069907990899050
:10E93C0099900895DA92CA92BA92AA929A928A926D
:10E94C007A926A925A924A92BA93AA939A938A9317
:10E95C001DE1019FA5E0B2E0A00DB11DFD0101E09C
:10E96C00048F0081118142815381040F151FF8011E
:10E97C0005EF0083FD01028113810F5F1F4F02839E
:10E98C00138368010F5F1F4F028313834091B807F5
:10E99C000081118162817381060F171FF80140837A
:10E9AC00FD01028113810F5F1F4F028313830081CE
:10E9BC00118142815381040F151FF80100E000837F
:10E9CC00FD01028113810F5F1F4F028313830485A6
:10E9DC001585F801E20FF31F408051802E5F3F4FE9
:10E9EC00F801E20FF31F808091802E5F3F4FF801FA
:10E9FC00E20FF31F4081442311F5482D492979F08A
:10EA0C00020F131F0F5F1F4F24E031E0C401F80108
:10EA1C0041918F01F90141939F010197C1F70D912C
:10EA2C001C911197FD0122813381020F131F01509C
:10EA3C001040F80105E0008380920402A2C04091CE
:10EA4C000402642F70E0042F10E0080D191D40170C
:10EA5C007107A8F4FD0104851585020F131F0F5FC4
:10EA6C001F4F24E031E0240F371FA401F80101905F
:10EA7C008F01F90101929F0141505040B9F7860E68
:10EA8C00971E01E08016900698F00D911C9111973D
:10EA9C00FD0122813381020F131FF80101E0008375
:10EAAC00FD01028113810F5F1F4F0283138369C025
:10EABC000FEF40160FE7500618F001E00BBF01C036
:10EACC007BBF440C551C520180E090E0082D0929B5
:10EADC00A9F004E011E038019201F30100811181E9
:10EAEC000E948FF0029602E0400E00E0501E02E001
:10EAFC00600E00E0701E8815990570F325E0850105
:10EB0C000E9486F021E185010E9486F080E090E071
:10EB1C00082D0929B1F104E011E0280102E0602E72
:10EB2C0020E085010E949BF00296F201408150E0AA
:10EB3C004017504061F02D913C911197FD0142819D
:10EB4C005381240F351F21503040F9016082F201AE
:10EB5C00218130E02117304061F00D911C9111970B
:10EB6C00FD0122813381020F131F01501040F80167
:10EB7C006082A60C00E0B01E460C501E881599054C
:10EB8C0078F2FD0102810C190A95ED91FC91EC0DC6
:10EB9C00FD1D008389919991A991B9914990599042
:10EBAC006990799089909990A990B990C990D990D1
:10EBBC0008955A924A92BA93AA939A938A931DE112
:10EBCC00019FA5E0B2E0A00DB11DFD0101E0048F95
:10EBDC00ED91FD910D911C911397E00FF11F03EF37
:10EBEC000083FD01028113810F5F1F4F028313838A
:10EBFC0028010F5F1F4F028313832091B8070081F8
:10EC0C00118142815381040F151FF8012083FD01EE
:10EC1C00028113810F5F1F4F0283138300E00BBF30
:10EC2C0080E090E001E012C023E08C010E9486F0AD
:10EC3C0021E18C010E9486F08F3F0EEF900710F0BF
:10EC4C0001E00BBF9395903E68F300E01BB71123D6
:10EC5C0059F3002349F78BBF0D911C911197FD01BE
:10EC6C0022813381020F131FF8018083FD01028181
:10EC7C0013810F5F1F4F0283138304190A95ED91C3
:10EC8C00FC91E40DF51D008389919991A991B9919D
:10EC9C004990599008955B2F6A2F1DE1019FE5E083
:10ECAC00F2E0E00DF11D01E0048FA081B181028141
:10ECBC001381A00FB11F01EF0C93028113810F5F21
:10ECCC001F4F0283138398012F5F3F4F228333839F
:10ECDC002091B807A081B1814281A40FB31F2C935E
:10ECEC00228133812F5F3F4F22833383A081B181F7
:10ECFC00A20FB31F24E42C93228133812F5F3F4F4B
:10ED0C0022833383A081B181A20FB31F2EE12C93F8
:10ED1C00228133812F5F3F4F22833383A081B181C6
:10ED2C00A20FB31F27E92C93228133812F5F3F4F12
:10ED3C0022833383A081B181A20FB31F22E02C93D5
:10ED4C00228133812F5F3F4F22833383201B2A95EF
:10ED5C00422F20813181200F311FF9014083A62FD2
:10ED6C00B52F08955B2F6A2F1DE1019FE5E0F2E0BE
:10ED7C00E00DF11D01E0048FA081B18102811381AE
:10ED8C00A00FB11F0FE40C93028113810F5F1F4F73
:10ED9C000283138398012F5F3F4F2283338320918B
:10EDAC00B807A081B1814281A40FB31F2C9322819B
:10EDBC0033812F5F3F4F22833383A081B181A20F18
:10EDCC00B31F23E82C93228133812F5F3F4F228383
:10EDDC00338320910201A081B1814281A40FB31F22
:10EDEC002C93228133812F5F3F4F22833383A08169
:10EDFC00B181A20FB31F2EE52C93228133812F5F9B
:10EE0C003F4F22833383A081B181A20FB31F21E036
:10EE1C002C93228133812F5F3F4F22833383A08138
:10EE2C00B181A20FB31F2EE52C93228133812F5F6A
:10EE3C003F4F22833383A081B181A20FB31F21E006
:10EE4C002C93228133812F5F3F4F22833383209178
:10EE5C000301A081B1814281A40FB31F2C932281A5
:10EE6C0033812F5F3F4F22833383A081B181A20F67
:10EE7C00B31F20E02C93228133812F5F3F4F2283DD
:10EE8C003383A081B181A20FB31F20E02C93228188
:10EE9C0033812F5F3F4F22833383A081B181A20F37
:10EEAC00B31F20E02C93228133812F5F3F4F2283AD
:10EEBC003383A081B181A20FB31F20E02C93228158
:10EECC0033812F5F3F4F22833383201B2A95422FA0
:10EEDC0020813181200F311FF901408300E0009324
:10EEEC000301A62FB52F0895BA93AA938A9381E0B4
:10EEFC001DE1019FA5E0B2E0A00DB11D1C96ED91A6
:10EF0C00FC91E20FF31FA081B0E01A2F105F89F083
:10EF1C001250B1F01250D9F0125011F1135049F1B6
:10EF2C00125471F512812091B807121761F51ADF8E
:10EF3C002AC012812091B807121729F5ACDE23C024
:10EF4C0012812091B8071217F1F433DE1CC0128124
:10EF5C004091B8071417B9F42D5F3F4FEBDC13C089
:10EF6C0012814091B807141771F42D5F3F4F17DCD5
:10EF7C000AC012812091B807121729F401DC03C0D2
:10EF8C001A9708F480E0082F8991A991B9910895F6
:10EF9C004A92BA93AA939A938A93402E0DE1409E7B
:10EFAC00A5E0B2E0A00DB11DFD0100E0048F06E06C
:10EFBC00028300E0038384E090E09C01042D94DF45
:10EFCC00202FFD0104851585080F191FF801E1811B
:10EFDC00F0E032968E0F9F1F222341F0FD01008D31
:10EFEC00118D025010408017910738F3FD01048DEC
:10EFFC00002311F0042D3FDB042D9FDA89919991A8
:10F00C00A991B99149900895BA93AA93392E782F62
:10F01C00202F0DE1209FA5E0B2E0A00DB11DFD0158
:10F02C000489002309F466C00A9531F00A95F1F0C1
:10F03C00085009F45FC05CC080899189039708F47B
:10F04C0059C00485F585E02F52810381402FFD01C5
:10F05C00008F518FCA01079708F44AC002E0048B55
:10F06C00808991890196828B938B44C00289138984
:10F07C000F5F1F4F028B138B408D518D041715079B
:10F08C00C8F10A011C96ED91FC911D97E40FF51F38
:10F09C000291033069F50EEF000E0FEF101E60E0C9
:10F0AC00FD0144855585002D012979F08A01C001A7
:10F0BC0031E0F80121908F016225E62FF0E0EC5F42
:10F0CC00FF413BBF66910197A1F7FA01E00DF11DDD
:10F0DC000081601769F4FA0100811091B7070117DC
:10F0EC0039F401810093B907FD010AE0048B02C0D9
:10F0FC00022F23DAFD01008911890F5F1F4F008B4E
:10F10C00118B0E35114018F000E0008B018B872F0E
:10F11C00932DA991B991089500008895FECF0024F4
:10F12C0011241001E0E22015300571F4E051312F6B
:10F13C00202F1FEF0FEF0894301106C0E850322F2C
:10F14C00212F102F0FEF0894001F111F221F331FA8
:10F15C00EA9572F0001C111C221C331C04161506B7
:10F16C002606370688F3041A150A260A370AECCF46
:10F17C00A001B1010095109520953095089501E0FE
:10F18C00089520E02D9301501040E1F708953BBF06
:10F19C0026912D93EF5FFF4F3F4F01501040B9F771
:10F1AC00089544E051EE61E0FA01362F3BBF079120
:10F1BC001691FA01EE5FFF4F3F4F3BBFA791B691FF
:10F1CC00FA01362FEC5FFF4F3F4F3BBF0790179074
:10F1DC002690202D2129222921F0F001322DD7DF74
:10F1EC0001C0CFDF495F5F4F6F4F11EE21E04B3015
:08F1FC0051076207C8F20895F3
:00000001FF
