:020000020000FC
:100000000C94372A0C9428040C94440518951895E0
:100010001895189518951895189518951895189578
:100020001895189518951895189518951895189568
:100030000C94BD1A1895189518951895189518953B
:1000400018951895189518950C94E41A0C94B01BF3
:100050000C94841B0C9425030C94E90318951895B3
:100060001895189518951895189518951895189528
:1000700018951895189518950C94241C0C94D81C58
:100080000C94A81C189518951895189518951895FE
:1000900018951895189518951895189518951895F8
:1000A00018951895189518951895189518951895E8
:1000B00018951895189518951895189518951895D8
:1000C00018951895189518951895189518951895C8
:1000D00018951895189518951895189518951895B8
:1000E0001895189503E801F62847280A4F280A5260
:1000F000283257280A5C280A61280A66280A7028CC
:100100001E8428147A2828C4280ACE280AD8280A47
:10011000E2280AEC28FE029E4A28FB0018E0000FA5
:10012000F89491982091E911222309F47894F89495
:10013000919A2091E911222309F478942091630087
:1001400023FD01601A9559F7089518E0F8949198E5
:100150002091E911222309F4789407FBF894209167
:10016000650046F42061209365002091E911222367
:1001700049F407C02F7E209365002091E9112223C6
:1001800009F47894000FF894919A2091E9112223B0
:1001900009F478941A95D1F60895CA927A926A92DF
:1001A0005A924A92BA93AA939A938A93279700E015
:1001B0000983EEE1F4E00CE011E011930A95E9F710
:1001C00002E010E00E948703802F03E010E00E940D
:1001D000870380931C0400931D040E94170F0FEFE8
:1001E000B4DF0FEFB2DF0FEFB0DF0FEFAEDF00E1F4
:1001F000ACDF0EE4AADF0AEF10E00E94B81800E5B9
:1002000013E00E949B1428EE33E001E00E94CF141B
:10021000F89403B10F7003B90091E911002309F4B8
:100220007894F89403B1006E03B90091E9110023AA
:1002300009F4789400E189DF0EE087DF05E510E03E
:100240000E94B81800E513E00E949B142AEF30E0EA
:1002500001E00E94CF1408E378DF60DF40E0F02F78
:100260005DDF0136FA4ED8F001E009838CE194E0BD
:100270000CE012EB012E1DE9112E1FE7212E1FE3CA
:10028000FC01EE59FF4F408341834283438300AA20
:1002900011AA22AA13AB04960A95C9F0F1CF8CE1FA
:1002A00094E00CE010EA012E1AE1112E1FE7212E36
:1002B0001FE3FC01EE59FF4F408341834283438398
:1002C00000AA11AA22AA13AB04960A9591F74883B3
:1002D000ACE1B4E00CE0402E88818068880F91E0AA
:1002E000880F991F880F991FAE014E5F5F4F24E062
:1002F0008C010E94A2030A811B812C813D810E94F6
:1003000037080023C9F00A811B812C813D814FEF02
:100310005FEF6FEF7FEB0E942E2C70F440E050E017
:1003200060E070E40E94052C38F4FD01EE59FF4FA7
:100330000083118322833383AE014E5F5F4F24E03D
:1003400004968C010E94A2030A811B812C813D81AD
:100350000E9437080023C1F00A811B812C813D8156
:1003600049E451EE6AE77FE30E942E2C68F44CE5E5
:100370005FE862E80E94052C38F4FD01EE59FF4F5A
:1003800000AB11AB22AB33AB088103950883149605
:100390004A9409F0A1CF09810023C9F1F89403B16F
:1003A0000F7003B90091E911002309F47894F894CF
:1003B00003B1006F03B90091E911002309F47894A7
:1003C00000E1C3DE0EE8C1DE0AEF10E00E94B818BB
:1003D00000E513E00E949B1428EE33E001E00E9448
:1003E000CF14F89403B10F7003B90091E911002301
:1003F00009F47894F89403B1006E03B90091E911FF
:10040000002309F4789400E1A0DE0EEC03C000E1C3
:100410009CDE0EE49ADE0AEF10E00E94B81800E5B8
:1004200013E00E949B1428EE33E001E00E94CF14F9
:1004300000E008830EE114E0380106E314E028012F
:100440000CE00E83CC24F89403B10F7003B9009133
:10045000E911002309F47894F89408810295007F4B
:1004600013B1102B13B90091E911002309F478940A
:1004700000E16BDE1EE008E0F89491982091E9110C
:10048000222309F4789417FBF8942091650046F430
:100490002061209365002091E911222349F407C0CF
:1004A0002F7E209365002091E911222309F478948E
:1004B000110FF894919A2091E911222309F478946C
:1004C0000A95D1F605E510E00E94B81800E513E0A2
:1004D0000E949B142AEF30E001E00E94CF1418E341
:1004E00008E0F89491982091E911222309F4789476
:1004F00017FBF8942091650046F420612093650075
:100500002091E911222349F407C02F7E2093650032
:100510002091E911222309F47894110FF894919A0B
:100520002091E911222309F478940A95D1F6F6DD99
:10053000302FF4DDF301C486D201A85BBF4F132F27
:1005400030E020E00E94EA2A40E05FEF6FE777E4C6
:100550000E94722C40E050E068EC71E40E949A2BFB
:10056000A801B901FD0100A911A922A933A90E947E
:100570009A2B4D915D916D917C910E94662BF201B9
:1005800040815181628173810E94662BC801D9012B
:10059000F301008110E020E030E00E94EA2A40E010
:1005A00050E060E87FE30E941A2BA801B9018C019A
:1005B0009D010E94722CF201408151816281738100
:1005C0000E941A2BF2010083118322833383088156
:1005D0000395088304E0400E5C1C01E0600E7C1C67
:1005E0000E810A950E8309F4D6CE2DCF00911C04FE
:1005F00005BBF89408B30E7108BB0091E911002304
:1006000009F47894F89400911D04017018B3102B2C
:1006100018BB0091E911002309F47894F894009133
:100620001C0410911D0416950795169507951695AF
:10063000079516950795007E18B3102B18BB0091EF
:10064000E911002309F4789408959A938A93FA9310
:10065000EA933A922A921A920A927A936A935A9356
:100660004A933A932A931A930A938FB79BB70091B0
:10067000E81103950093E8110091E91103950093A7
:10068000E911F8940E94D3130091E911002309F4B1
:1006900078940091D20E24B135B112E0019FF0019F
:1006A000E45FFB4F208331830091D20E03950093CA
:1006B000D20E023018F000E00093D20E07B1007E97
:1006C00007B90091D20E17B1102B17B9369AF894CA
:1006D0000E94EE130091E9110A950093E91100912F
:1006E000E8110A950093E8119BBF8FBF09911991FA
:1006F000299139914991599169917991099019906C
:1007000029903990E991F991899199911895E199F8
:10071000FECF1FBB0EBBF894E09A0091E9110023B5
:1007200009F478940DB30895E199FECFF8941FBBB6
:100730000EBB2DBBE29AE19A0091E911002309F466
:1007400078940895392F682F2223A9F0822F90E002
:10075000E199FECF1FBB0EBBF894E09A2091E911FE
:10076000222309F478942DB3FA012193AF010F5F8E
:100770001F4F019769F7862F932F0895E199FECFB8
:10078000F8943091E91133953093E9114093D40EE8
:100790005093D50E2093D30E1FBB0EBBFA010081E0
:1007A0000DBB0091D40E1091D50E0F5F1F4F00931B
:1007B000D40E1093D50E00E00093D60EE29AE19A83
:1007C000E39A0091E9110A950093E91109F47894EC
:1007D0000895FA93EA932A931A930A932FB70091F4
:1007E000D30E0A950093D30E0023C9F00EB31FB3A6
:1007F0000F5F1F4F1FBB0EBBE091D40EF091D50EC3
:1008000000810DBB0091D40E1091D50E0F5F1F4FCC
:100810000093D40E1093D50EE29AE19A04C0E398A7
:1008200001E00093D60E2FBF099119912991E9910A
:10083000F99118950EEF0EBB0FE00FBB0BED0DBB42
:10084000E29AE19AE199FECF08E101BD01BD089568
:10085000BA93AA939A938A93FA93EA933A922A9232
:100860001A920A927A936A935A934A933A932A93E2
:100870001A930A938FB79BB70091E81103950093E1
:10088000E8110091E91103950093E911F8940E9491
:10089000D3130091E911002309F478940091E60242
:1008A000002321F00A9509F4C8C0CCC000910A11B8
:1008B0000F700093E003AAEFB0E00091E003002383
:1008C00009F4B1C0025051F0025009F455C0025071
:1008D00009F4A6C0065009F44FC0A7C00091DE037A
:1008E0001091DF03012B51F400910C110D7F009347
:1008F0000C110EE713E00E947F1A97C0B093E1033A
:100900000091DE031091DF03012B09F48EC00091EA
:10091000DC031091DD03E091D803F091D903E00FDF
:10092000F11F0081009308110091DC031091DD0399
:100930000F5F1F4F0093DC031093DD030091E10371
:1009400003950093E1030091DE031091DF03015052
:1009500010400093DE031093DF030091E1030031A8
:1009600008F063C0CDCF0091EB0303950093EB0338
:10097000B093E403B093E50300910D1100FF55C05F
:1009800000910811E091E203F091E3032091E40368
:100990003091E503E20FF31F00830091EA030A3070
:1009A00059F3002361F5E091E203F091E303009134
:1009B000E4031091E503E00FF11F0081023099F28A
:1009C0001091EB031230B093EB03B0F201E000930F
:1009D000EA03B093E603B093E703A093EC03B0936C
:1009E000ED030091E4031091E5030F5F1F4F0093A7
:1009F000E4031093E50300E00E94D712BDCF0091FD
:100A0000E4031091E5030F5F1F4F0093E40310937D
:100A1000E5030937104000E078F30E945F08ACCF8F
:100A200000910D1102C000910E1100910A110F707A
:100A30000093E00300FD06C040CF20E533E001E075
:100A40000E94AF14F8940E94EE130091E9110A95E8
:100A50000093E9110091E8110A950093E8119BBFFA
:100A60008FBF0991199129913991499159916991B2
:100A700079910990199029903990E991F99189918A
:100A80009991A991B9911895BA93AA939A938A9337
:100A9000FA93EA933A922A921A920A927A936A9372
:100AA0005A934A933A932A931A930A938FB79BB710
:100AB0000091E81103950093E8110091E911039565
:100AC0000093E911F8940E94D3130091E9110023D7
:100AD00009F478940091E602002309F0C6C0009161
:100AE00002110F700093FA03AAEFB0E00091FA032D
:100AF000002309F4B1C0025051F0025009F455C06E
:100B0000025009F4A6C0065009F44FC0A7C00091D6
:100B1000F8031091F903012B51F4009104110D7F9A
:100B20000093041107E813E00E947F1A97C0B09366
:100B3000FB030091F8031091F903012B09F48EC017
:100B4000E091F203F091F3030091F6031091F703A3
:100B5000E00FF11F0081009300110091F603109146
:100B6000F7030F5F1F4F0093F6031093F7030091F5
:100B7000FB0303950093FB030091F8031091F90325
:100B8000015010400093F8031093F9030091FB0308
:100B9000003108F063C0CDCF0091050403950093A8
:100BA0000504B093FE03B093FF030091051100FF0D
:100BB00055C000910011E091FC03F091FD032091DC
:100BC000FE033091FF03E20FF31F00830091040442
:100BD0000A3059F3002361F5E091FC03F091FD0325
:100BE0000091FE031091FF03E00FF11F008102301E
:100BF00099F2109105041230B0930504B0F201E0AF
:100C000000930404B0930004B0930104A09306047D
:100C1000B09307040091FE031091FF030F5F1F4F75
:100C20000093FE031093FF0301E00E94D712BDCF93
:100C30000091FE031091FF030F5F1F4F0093FE030F
:100C40001093FF030937104001E078F30E945F081A
:100C5000ACCF0091051102C0009106110091021164
:100C60000F700093FA0300FF41CFECCEECE0F4E00C
:100C700008E020E0219321930A95E1F72093D20E1A
:100C800000EC07B90FE806B908951AE1019FE4EAFC
:100C9000F3E0E00DF11D10E012831383148315833C
:100CA000168317831487158716871787108B118B68
:100CB000128B138B1087002319F00A9539F10895D0
:100CC0000AEF0093B8031093B90308E11AE0009308
:100CD000A4031093A5030BE21BE00093AE03109353
:100CE000AF0300E00BB900E412E42FE030E00E9413
:100CF000562A402F4A9549B9015010401093900050
:100D000008EB0AB906E00093950008950AEF0093F6
:100D1000D2031093D30301EC1BE00093BE031093A6
:100D2000BF0304ED1CE00093C8031093C90300E067
:100D300000939B0000E412E42FE030E00E94562A6A
:100D4000402F4A954093990001501040109398000D
:100D500008EB00939A0006E000939D00089500912F
:100D6000E602002319F00A95F1F008950FEF0ABB8F
:100D700000E00BBB00E107BB00E008BB0FEF04BBCA
:100D800000E005BB01BB0FEF02BB0EEF02B900EFA5
:100D900003B900E0009361000093620007E0009354
:100DA000640003E01BC000E00ABB0BBB01EF07BB04
:100DB00000E008BB0FEF04BB00E005BB02E001BB95
:100DC00001EF02BB0EEF02B900E003B9009361002E
:100DD0000093620000E10093640000E0009365006E
:100DE0000895F8940091E602002319F00A9561F045
:100DF00014C000EC05BF00E009BF0FEA00936A00D1
:100E00000AEA0ABF03E008C000E005BF09BF0AEA1A
:100E100000936A000ABF01E009BF00E000936D0083
:100E200007E000936C0000E80FBF00E00CBF04B7C0
:100E30000093A20300E004BF0093D30E089500E0E6
:100E400007BB06B30695069503700093E602C9DF5B
:100E500086DF0091E602002331F00A9541F409E9AA
:100E600003BF07E003C009E903BF03E001BF40E09F
:100E700056E960E070E000E008DF40E056E960E03D
:100E800070E001E002DFF2DE369A0895A8950FE1E6
:100E900001BD0FE001BDA8950E9486180E94B01AFE
:100EA0000E941F0705E613E00E94FB1802E010E015
:100EB0001A930A9300EA1A930A9308ED1EE01A9314
:100EC0000A9367E479E24EE624EA32E007EE12E0A4
:100ED0000E940E1648EC50E028E43DE10CE613E0D9
:100EE0000E94D0190CE613E00E940A1A45E050E077
:100EF00026E53DE100E913E00E94D01900E913E086
:100F00000E940A1A02E010E01A930A9300EA1A9368
:100F10000A9308E71FE01A930A9369E579E244E629
:100F20002BEA32E00CEF12E00E940E1648EC50E083
:100F30002BE53DE105E713E00E94D01905E713E03A
:100F40000E940A1A45E050E02DE63DE109E913E070
:100F50000E94D01909E913E00E940A1A0091E602E2
:100F6000002321F00A9509F442C055C002E010E0C8
:100F70001A930A9302EB1A930A930CE710E11A935F
:100F80000A9369EB7AE040E522EB32E006E213E0F7
:100F90000E940E1648EC50E023E538E00EE713E01F
:100FA0000E94D0190EE713E00E940A1A02E010E036
:100FB0001A930A9302EB1A930A930EE211E11A9321
:100FC0000A936FE17EE04AE523EC32E00BE313E0A5
:100FD0000E940E1648EC50E029E538E007E813E0DF
:100FE0000E94D01907E813E00E940A1A14C002E018
:100FF00010E01A930A9302EB1A930A930CE710E19C
:101000001A930A936DEC70E04AE524ED32E000E5B6
:1010100013E00E940E1602E010E01A930A9304E611
:101020001A930A9308E110E11A930A9361E278E0B7
:1010300042E32BED32E001E113E00E940E160C9426
:101040009D1304E610E00E94B818A8950FE101BDB9
:101050000FE001BDA89504EF11E00E94B818A89513
:10106000FACF00B302950F7000950F70089500E05D
:1010700020783F77422F432B29F0003020483F470C
:1010800009F001E008952091E81123952093E811DB
:1010900020E02093E91178940093EE110091EE1175
:1010A0000023E1F7089500910C110D7F00930C11BE
:1010B0000895009104110D7F0093041108950230EA
:1010C00068F41AE1019FE8EDF3E0E00DF11D00E0A6
:1010D000038B028B04870587068B078B0895BD0160
:1010E000AC01102FC90100E023303040A0F02AE10C
:1010F000129FF001E852FC4FA081B1811296029735
:1011000030E0E02FF0E00D91E027E254F54A3BBFDC
:1011100006910197B1F7CA01DB0108959D011AE11B
:10112000019FA8EDB3E0A00DB11DFD0100E0048713
:1011300005870687078704830583ED91FC91119746
:1011400002E00083ED91FC9111970183ED91FC91F8
:10115000119700E00283ED91FC9111970DEF03834D
:10116000ED91FC91119700E00483ED91FC910583D2
:10117000D9010895BA93AA938A93802FCFDF0AE109
:10118000809FA8EDB3E0A00DB11D0D911C911197AA
:10119000FD0122813381020F131FF80101E000835A
:1011A000FD01028113810F5F1F4F028313830081B2
:1011B000118122813381020F131FF80100E00083A7
:1011C000FD01028113810F5F1F4F02831383ED9195
:1011D000FC9111971483FD010281ED91FC9111970F
:1011E0000583FD0122813381082F79DF202F0D91A6
:1011F0001C911197FD0142815381040F151FF801C5
:101200002083FD01028113810F5F1F4F028313832F
:101210000081118122813381020F131FF80103E045
:101220000083FD01028113810F5F1F4F028313832F
:101230000081118122813381020F131FF80100E028
:101240000083FD01028113810F5F1F4F028313830F
:10125000015010400683178301E0048300E00583FA
:10126000082F2DDF8823A9F40EE713E00E94F01960
:1012700000910C11026000930C1104E110E00E9437
:10128000B818E091D803F091D903008100930811B8
:1012900016C08130A1F407E813E00E94F019009114
:1012A000041102600093041104E110E00E94B818D8
:1012B000E091F203F091F303008100930011899112
:1012C000A991B99108959D011AE1019FE8EDF3E01C
:1012D000E00DF11DA081B18102811381A00FB11F2A
:1012E0000AE072C03B2F4A2F202F0AE1209FE8ED31
:1012F000F3E0E00DF11DA081B18102811381A00F07
:10130000B11F08E10C93028113810F5F1F4F02830D
:101310001383A081B181A00FB11F01E00C93028162
:1013200013810F5F1F4F02831383B0E02C5EA22F47
:10133000B54F0C91A081B1812281A20FB11F0C93F6
:10134000028113810F5F1F4F02831383A42FB32FDA
:1013500008959D011AE1019FE8EDF3E0E00DF11D14
:10136000A081B18102811381A00FB11F00E12CC0C7
:101370009D011AE1019FE8EDF3E0E00DF11DA08170
:10138000B18102811381A00FB11F0DE01DC09D012D
:101390001AE1019FE8EDF3E0E00DF11DA081B181BC
:1013A00002811381A00FB11F0BE10EC09D011AE154
:1013B000019FE8EDF3E0E00DF11DA081B181028114
:1013C0001381A00FB11F00EA0C93028113810F5FFC
:1013D0001F4F02831383A081B181A00FB11F01E0D1
:1013E0000C93028113810F5F1F4F02831383A0812F
:1013F000B181A00FB11F00E00C93028113810F5F38
:101400001F4F02831383D90108959D011AE1019FA3
:10141000E8EDF3E0E00DF11DA081B18102811381BF
:10142000A00FB11F05E6D0CFAD012AE1029FE8ED84
:10143000F3E0E00DF11DA081B18122813381A20F83
:10144000B31F06E60C93228133812F5F3F4F228327
:101450003383A081B181A20FB31F01E00C932281DD
:1014600033812F5F3F4F22833383A081B181A20F4D
:10147000B31F1C93028113810F5F1F4F02831383DD
:10148000DA0108951AE1019FE8EDF3E0E00DF11DA6
:1014900010E0128313831483158316831783148734
:1014A000158716871787108B118B128B138B10875C
:1014B000002319F00A9579F108950AEF0093EC03DF
:1014C0001093ED030AE61DE00093D8031093D903AF
:1014D00006EA1DE00093E2031093E30300E80093A3
:1014E0000B1108E418EE21E030E00E94562A009328
:1014F00008111093091103E000930B1101E0009310
:101500000A1101EC00930A1103E00093091100E0B5
:1015100000930C1108950AEF00930604109307043A
:101520000EE11EE00093F2031093F3030AE51EE0C0
:101530000093FC031093FD0300E80093031108E4FB
:1015400018EE21E030E00E94562A0093001110931B
:10155000011103E00093031101E00093021101EC7B
:101560000093021103E00093011100E000930411C5
:101570000895EA92CA92BA929A928A927A926A925A
:101580005A924A92BA93AA939A938A9390E005E06A
:10159000B02E40E855E260E070E000E073DF909329
:1015A000F4039093F5039093F6039093F7039093CD
:1015B000F8039093F9039093FE039093FF039093A5
:1015C0000004909301049093020490930304909379
:1015D0000404909305049093FA030AEF0093060421
:1015E000909307040EE11EE00093F2031093F303BF
:1015F0000AE51EE00093FC031093FD0300E800934E
:1016000003110DE0009300119093011103E000938A
:10161000031101E00093021101EC0093021103E0B9
:10162000009301119093041102E010E00E948703DF
:1016300000931C0403E010E00E94870300931D0444
:1016400004E010E00E94870300931E04E0E1F9E04B
:101650004F019083E0E6F9E03F019083E0EBF9E091
:101660002F01908392ABA0E088E0F89420911C04B5
:1016700001E010E04A2F0E944E2A202305B3022BDE
:1016800005BB0091E911002309F4789404E610E009
:101690000E94B818A3958A9541F700E717E10E94C8
:1016A000B818A4E1BAE001E1E02ECB2C80E004C040
:1016B0009395953108F090E08093A3031BC0FD0142
:1016C00003811091A303011731F403950093170AC6
:1016D000043008F0838328EE33E001E00E94CF1449
:1016E00001FB1EF4BC1408F0BB240091A303039576
:1016F0000093A3030091A3030430D0F60091F003FC
:10170000093030F00091081100910D1100FDFACF61
:1017100000910A04093030F0009100110091051188
:1017200000FDFACFBC1430F4B394BC1418F000914F
:101730001C0405BBF89403B1006F03B90091E911D3
:10174000002309F47894F8944091A30300E110E099
:101750000E944E2A007F009513B1102313B9009107
:10176000E911002309F4789400911C0410E04091E1
:10177000A3030E94532A017009F404C106E00093F8
:10178000DA038093DB0300911D0410E04091A30372
:10179000440F0E94532A013029F5092F992319F08B
:1017A000045139F01CC0E091D803F091D90304E64C
:1017B00038C0F2010081002391F4FD0102811091F3
:1017C000A303011761F413E700E02EDE0091160A6F
:1017D00003950093160A043008F4D1C0C9C000E094
:1017E00014DECDC00230F9F4092F9923A9F0045179
:1017F00081F4F2010081002361F4FD010281109166
:10180000A303011731F403950093160A043008F07E
:10181000828300E0CBDDB3C0E091D803F091D9031F
:1018200001EA068369C0F4010081013009F04CC06F
:1018300001811091A303011709F046C043E012C0D3
:10184000E42FF0E0E05FF64F0081F90100830091A2
:10185000DA031091DB030F5F1F4F0093DA0310933D
:10186000DB0343950091DA031091DB032091D80349
:101870003091D903200F311FF401028110E00D5F78
:101880001F4F40178107E4F28083F901E082009145
:10189000DA031091DB030F5F1F4F0093DA031093FD
:1018A000DB03E091D803F091D903E00FF11F8083AF
:1018B0000091DA031091DB030F5F1F4F0093DA03EF
:1018C0001093DB0310E001C011E0992319F400E04C
:1018D0005EDD55C0953019F400E04ADD50C09A3005
:1018E00039F50091DA031091DB03E091D803F09110
:1018F000D903E00FF11FE0820091DA031091DB03BE
:101900000F5F1F4F0093DA031093DB03E091D803BE
:10191000F091D903E00FF11F80830091DA03109159
:10192000DB030F5F1F4F0093DA031093DB0327C025
:101930009F3019F400E00DDD22C09431E1F4F20192
:1019400000810023C1F4FD0102812091A30302174D
:1019500091F400E0C7DC0C910E5F0C930F3078F02F
:101960008C930091160A03950093160A043038F000
:10197000FD01828304C0112311F000E0A4DC00E02B
:10198000F9DB0CC0FD0102811091A303011731F4B2
:1019900003950093160A043008F0828300911C041A
:1019A0004091A3034C5F10E00E94532A017009F498
:1019B00086CE06E00093F4038093F50300911E04A5
:1019C00010E04091A303440F0E94532A013029F5EF
:1019D000092F992319F0045139F01CC0E091F2034A
:1019E000F091F30304E638C0F20102A9002391F458
:1019F000FD0103811091A303011761F413E701E0D6
:101A000013DD0091170A03950093170A043008F4B8
:101A1000D8C0D0C001E0F9DCD4C00230F9F4092FFD
:101A20009923A9F0045181F4F20102A9002361F481
:101A3000FD0103811091A303011731F40395009375
:101A4000170A043008F0838301E0B0DCBAC0E091EB
:101A5000F203F091F30301EA06836DC0F301008104
:101A6000013009F050C021810091A30310E00C5F08
:101A70001F4F2017810709F046C043E012C0E42F32
:101A8000F0E0E05AF64F0081F90100830091F40381
:101A90001091F5030F5F1F4F0093F4031093F503AC
:101AA00043952091F2033091F3030091F4031091D8
:101AB000F503200F311FF301028110E00D5F1F4F6E
:101AC00040178107E4F28083F901E0820091F4037A
:101AD0001091F5030F5F1F4F0093F4031093F5036C
:101AE000E091F203F091F303E00FF11F8083009186
:101AF000F4031091F5030F5F1F4F0093F40310934D
:101B0000F50310E001C011E0992319F401E03FDC76
:101B100058C0953019F401E02BDC53C09A3039F5E8
:101B2000E091F203F091F3030091F4031091F503B7
:101B3000E00FF11FE0820091F4031091F5030F5FB5
:101B40001F4F0093F4031093F503E091F203F0911B
:101B5000F303E00FF11F80830091F4031091F5036C
:101B60000F5F1F4F0093F4031093F5032AC09F30BB
:101B700019F401E0EEDB25C09431F9F4F20102A979
:101B80000023D9F4FD0103812091A3030217A9F4D6
:101B900001E0A8DB0091150A0E5F0093150A0F30D3
:101BA00080F0FD0181830091170A03950093170AC5
:101BB000043038F0FD01838304C0112311F001E0EB
:101BC00082DB01E0D7DA87CD6A925A924A92BA93C1
:101BD000AA939A938A93502E66246A944424439439
:101BE00084E090E00AE1509EA8EDB3E0A00DB11DA5
:101BF0009C01052D6AD4002309F44424FD010285CB
:101C00001385080F191FF801E181F0E032968E0F5D
:101C10009F1F6A9451F0442041F0FD010689178905
:101C2000035010408017910718F3052D48DA899169
:101C30009991A991B9914990599069900895AA9361
:101C40008A9300E91AE10E94B818A0E05DC00091F3
:101C50000A04039500930A040091A30314E0019F72
:101C6000F001E45EFB4F058D168D0F5F1F4F058F52
:101C7000168F0091A30314E0019FECE1F4E0E00D66
:101C8000F11D038D148D98012F5F3F4F238F348FEB
:101C90000630104048F00091A303F0E0E02FE45E2E
:101CA000FB4F07810160078300911C0410E0409105
:101CB000A3034C5F0E94532A017009F10091A30312
:101CC00014E0019FF001E45EFB4F038D07700430C8
:101CD000B1F4F8944091A3034C5F01E010E00E943E
:101CE0004E2A009515B3102315BB0091E91100236E
:101CF00009F4789426E233E002E00E94AF1426E271
:101D000033E001E00E94AF1403EF11E00E94B81825
:101D100021E030E003E00E94CF14802F00FBBEF4EE
:101D200000E052DF0091A30314E0019FF001E45EA4
:101D3000FB4FA387A4870091A303F0E0E02FE45EAC
:101D4000FB4F03810E7F0383A093F00356C00091E5
:101D5000F00303950093F0030091A30314E0019FA7
:101D6000F001E45EFB4F058516850F5F1F4F058769
:101D700016870091A30314E0019FECE1F4E0E00D6D
:101D8000F11D0385148598012F5F3F4F238734870A
:101D90000630104048F00091A303F0E0E02FE45E2D
:101DA000FB4F03810160038300911C0410E040910C
:101DB000A3030E94532A017001F10091A30314E0D0
:101DC000019FF001E45EFB4F038507700430A9F426
:101DD000F8944091A30301E010E00E944E2A009580
:101DE00015B3102315BB0091E911002309F4789471
:101DF00026E233E002E00E94AF1481FB0EF027CF11
:101E000001E0E2DE0091A30314E0019FF001E45E33
:101E1000FB4FA38FA48F0091A303F0E0E02FE45EBB
:101E2000FB4F07810E7F0783A0930A0468CF0091C0
:101E30001C0405BB0895BA93AA931AE1019FA8ED6B
:101E4000B3E0A00DB11D1A96ED91FC91E20FF31FC6
:101E500014E0019F90014081518162817381009162
:101E6000A30310E01001200E311E08E3309E302C39
:101E7000209E310CA02DB32DA950B94F4D935D93E9
:101E80006D937C9344815581668177810091A30392
:101E90001901200E311E08E3309E302C209E310C9B
:101EA000A02DB32DA550B94F4D935D936D937C93A9
:101EB00040850091A303B901600F711F0EE0709F70
:101EC000702D609F710DA02DA95A7B4FB72F4C9399
:101ED00041850091A303200F311F0EE0309F302D6C
:101EE000209F310DE02DF32FE953FB4F4083A99143
:101EF000B9910895BA93AA939A938A931AE1019F8C
:101F0000E8EDF3E0E00DF11DA285B385A20FB31F4C
:101F100014E0019FC0010C9110E020E030E00E942D
:101F2000EA2A4091A30350E0BC01640F751F48E307
:101F3000749F702D649F710DE02DF72FE950F94FBC
:101F40000083118322833383FD0111810281212FBC
:101F5000220F220B322F0E94AB2A40E060E271E494
:101F60000E94722C4091A30350E0BC01640F751FC6
:101F700048E3749F702D649F710DE02DF72FE5509D
:101F8000F94F0083118322833383FD012381009164
:101F9000A30310E0AC01400F511F0EE0509F502DE5
:101FA000409F510DE02DF52FE45EFB4F23AF0091D4
:101FB000A303800F911F0EE0909F902D809F910DA5
:101FC000E02DF92FE953FB4F108389919991A99145
:101FD000B9910895BD01AC011AE1019FE8EDF3E06C
:101FE000E00DF11DA285B385A20FB31F1D9113371C
:101FF000D9F412E3019F8CE194E0800D911DFC0166
:10200000EC56FA4F11E01083000F000F1091A3035C
:10201000010F0183029604E01D91FC01EC56FA4F7A
:10202000108301960A95C1F7CA01DB010895BD012D
:10203000102F0091A3034AE1149FA8EDB3E0A00D77
:10204000B11D1A96ED91FC91E20FF31F24E0129F4F
:10205000208110E0A001400F511FDA01A95BBB4FA6
:102060000C91022B0C9321810091A303A001400F3E
:10207000511FDA01A15BBB4F2C930481002351F067
:102080000091A303000E111EF001E45EFB4F03A9B3
:10209000006803ABDB0108955B2F6A2F12E3019FF9
:1020A000ECE1F4E0E00DF11DDF01AC56BA4F11E0B8
:1020B0001D93102F110F110F4091A303140F1C93A8
:1020C0001AE1019FD001AE51BC4F0D911C91020F3E
:1020D000131FEA56FA4F29E2D8013D918D01319341
:1020E0002A95D1F7A62FB52F0895BA93AA931AE18E
:1020F000019FF001E852FC4FA285B385A20FB31FE8
:102100002EE014E0019FA001FD0160816E3038F5E2
:102110003181E7E5F4E070E0E60FF71F0091A303DB
:1021200010E01A01200E371E0EE0309E302C209E4B
:10213000310CE00DF31D3083FD013281E7ECF4E05A
:10214000E60FF71F0091A303BA01600F711F0EE0A5
:10215000709F702D609F710DE00DF71F30831396F7
:102160002A9591F6A991B9910895BD011AE1019FAF
:10217000A8EDB3E0A00DB11D1A96ED91FC91E20F10
:10218000F31F14E0019F20810091A30310E0A00140
:10219000400F511FDA01A95BBB4F2C9321810091A5
:1021A000A303000E111EF001E45EFB4F23ABDB0125
:1021B00008957A926A925A924A92BA93AA939A93FB
:1021C0008A93A9011AE1019FE8EDF3E0E00DF11D0A
:1021D00062857385FB01E40FF51F229130E0213009
:1021E0003307E4F180E014E0019F100134C08A015C
:1021F000080F131FDB01A00FB11FFD0190819E305E
:1022000048F54180E7E5F4E0E90FF31F0091A303EF
:102210003101600E731E0EE0709E702C609E710C7A
:10222000E00DF71D4082FD01A281B381E7E1F6E0F8
:1022300002E0909FE00DF11D0091A3032101400EEB
:10224000531E0CE1509E502C409E510CE00DF51D8C
:10225000A083B1838C5F821733074CF289919991E7
:10226000A991B991499059906990799008957A927D
:102270006A925A924A92BA93AA939A938A93A9011C
:102280001AE1019FE8EDF3E0E00DF11D6285738531
:10229000FB01E40FF51F229130E021303307E4F118
:1022A00080E014E0019F100134C08A01080F131F61
:1022B000DB01A00FB11FFD0190819E3048F54180E8
:1022C000E7E5F4E0E90FF31F0091A3033101600E8D
:1022D000731E0EE0709E702C609E710CE00DF71D59
:1022E0004082FD01A281B381E7E3F5E002E0909F27
:1022F000E00DF11D0091A3032101400E531E0CE1DE
:10230000509E502C409E510CE00DF51DA083B183D2
:102310008C5F821733074CF2A1CF5A924A92AA934C
:102320009A938A93A02FC90105E613E00E943619FB
:1023300060E070E00AE1A09FE8EDF3E0E00DF11D40
:1023400042855385480F591F8A0124E0A29FF80156
:10235000819191918F01E7EBF8E01B01220C331C76
:10236000E20DF31D2090A30333242001420C531CE3
:10237000440C551C440C551C440C551CE40DF51D17
:10238000808391836F5F7F4F2A9509F7FA0120853B
:102390000091A30310E0B001600F711FFB01E95031
:1023A000F74F2083FA01218532850091A303000EA7
:1023B000111E000C111CF001E150F74F20833183F6
:1023C000AA0FAA0F0091A303A00F01E04A2F0E94B9
:1023D0004E2A10910F09102B10930F0905E613E0F8
:1023E0000E946F1989919991A991499059900895E6
:1023F0006A925A924A92BA93AA939A938A93602EB7
:1024000029010AE1609EA8EDB3E0A00DB11DFD0118
:1024100002851385040D151D01501040F8018081BF
:1024200090E005E613E00E943619813000E099073C
:102430000CF446C010E0882309F442C0FD01A285D7
:10244000B385A40DB51D24E0629E1001FD0120811D
:1024500030E02E3078F56181E7E5F4E0E20FF91F16
:102460004091A3032101440E591E4EE0549E502C6E
:10247000449E510CE00DF51D6083FD0142815381A6
:1024800064817581E7EFF6E0220F331F220F331FBF
:10249000E20FF31F2091A3032101420E591E28E3EE
:1024A000529E502C429E510CE00DF51D40835183ED
:1024B000628373830A5F1F4F16960817190730F25D
:1024C00005E613E00E946F19B2CBBA93AA938A93E0
:1024D00081E01AE1019FE8EDF3E0E00DF11DA28536
:1024E000B385A20FB31FFD011081105809F440C03D
:1024F000145309F445C01A9509F446C01B5409F455
:1025000050C01A9509F44DC01D5188F0135080F049
:102510001350B0F0C9F01A95F9F0175009F11350A3
:10252000B9F0125049F01D54F9F01A9529F13AC04A
:102530002E5F3F4F5DDF36C02E5F3F4FEEDE32C075
:102540002E5F3F4F94DE2EC02E5F3F4F32DE2AC0FB
:102550002E5F3F4F0ADE26C02E5F3F4FC6DD22C0F2
:102560002E5F3F4F99DD1EC02E5F3F4F60DD1AC0CA
:102570002E5F3F4F2FDD16C02E5F3F4FBBDC12C0DA
:102580002E5F3F4F58DC0EC0448514E0019F009140
:10259000A30310E0000E111EF001E45EFB4F43A701
:1025A00001C080E0082F8991A991B9910895BA934B
:1025B000AA939A938A93202F0AE1209FA8EDB3E073
:1025C000A00DB11DFD010289002309F486C00A9502
:1025D00031F00A9541F1085009F47FC07BC086852F
:1025E0009785039708F479C00285F385E02F52811F
:1025F00010E00381402FFD01068B578B08E76685AD
:102600007785061B170B4017510708F063C0CA01F6
:10261000079708F45FC002E0028B868597850196D4
:10262000808B918B5AC0008911890F5F1F4F008BDF
:10263000118B468957890417150708F44EC0028587
:102640001385040F151F01501040F801008103305D
:1026500009F040C040E080E090E0FD010285138574
:1026600006883EEF030E3FEF531F30E00BC0F8012A
:1026700061918F014627E42FF0E0E254F54A3BBF19
:10268000469101968015950790F3FD01028513850B
:1026900066897789060F171F02501040F8010081E4
:1026A0004017C1F4FD010285F385E02F00810D3F45
:1026B00089F4FD010AE0028B222321F42BE333E0AD
:1026C00001E005C0213049F42BE333E002E00E9431
:1026D000AF1403C0022F0E945F08FD010685178515
:1026E0000F5F1F4F06871787083720E0104010F054
:1026F000268727876ACC78940895DF93CF93BF937A
:10270000AF939F938F93FF92EF92DF92CF92BF92FE
:10271000AF929F928F927F926F925F924F92409072
:10272000E8114F924090E9114F92E091F111F09130
:10273000F2114DB65EB642825382C3E6D2E003EA9E
:102740000DBF02E00EBF01E00093E5020E94AB174F
:1027500000270093E502E091F111F091F21102815E
:1027600013811EBF0DBF0F900092E9110F900092D0
:10277000E8114F905F906F907F908F909F90AF90F7
:10278000BF90CF90DF90EF90FF908F919F91AF918E
:10279000BF91CF91DF910895E091F111F091F21185
:1027A000EF2B59F2AACF0091E50203950093E502C1
:1027B000013009F008952F913F914DB75EB76C2F0E
:1027C0007D2FC3E6D2E003EA0DBF02E00EBF7F9388
:1027D0006F935F934F933F932F9308950091E5027A
:1027E0000A950093E50209F008952F913F914F91CA
:1027F0005F91CF91DF914DBF5EBF3F932F930895BF
:10280000BA93AA932897A02FB12F0C831D830A8314
:102810001B83E1EFF1E1008111810E831F83F894A6
:102820000D911C91119708831983CD93DC93088136
:102830001981012B29F0A881B12F1296CD93DC9339
:10284000A1EFB1E1ED91FC91C483D583A1EFB1E19A
:10285000ED91FC9127830E947B182896A991B9914C
:102860000895BA93AA9328970C831D830A831B8328
:10287000E1EFF1E1608171816E837F83F894E02F55
:10288000F12F6081718168837983C083D18308814E
:102890001981012B29F0A881B12F1296CD93DC93D9
:1028A000E1EFF1E10081F181E02F46875787E1EF09
:1028B000F1E14081F181E42FC483D5832460E1EF0D
:1028C000F1E10081F181E02F27830E947B18289697
:1028D000A991B991089524970A831B8300E0088386
:1028E00009830C2F1D2F0E94311424960895BA934A
:1028F000AA93A02FB12F07C0ED91F12F1197068158
:1029000017810E947815F8940D911C911197012B55
:1029100099F70091E911002309F47894A991B991EC
:1029200008954FB7F894E2EEF1E100811181228120
:1029300033814FBF0895202F212B21F4E1EFF1E1E6
:1029400000811181F894E02FF12F248930E0348B3D
:102950000091E911002309F47894022F0895BA93A5
:10296000AA93F894E22FF32F1489102B148B07816C
:10297000087F083061F4A481B5811496ED91FC9133
:102980000281102321F0022F132F0E94781500914D
:10299000E911002309F47894A991B99108954A9214
:1029A000BA93AA939A938A93402E822F932F213021
:1029B00000E090079CF0F8940E949114080F191FF2
:1029C000A1EFB1E1ED91FC912489242139F4402F4C
:1029D000512F28E0042D10E00E946B14F894A1EF11
:1029E000B1E1ED91FC91048910E0148B1091E91193
:1029F000112309F4789489919991A991B9914990F9
:102A000008955B2F6A2F392F482F202F212B21F477
:102A1000E1EFF1E100811181E02FF12F80899189AF
:102A2000A289B389082F092B41F00D910A3A19F0B8
:102A3000082F192F04C00197C1F700E010E0842F80
:102A4000932FA62FB52F08959A938A93202F212B89
:102A500021F4E1EFF1E100811181E02FF12F808974
:102A60009189CFDF801B910B082F192F89919991A4
:102A70000895E02FF12F01C0219341505040E2F71B
:102A80000895021B130B0895F894E8EEF1E100811C
:102A90000A95008331F40091ED11002311F00E949A
:102AA0007D130091E911002309F4789408955B2FB8
:102AB0006A2FA02FB12F1496ED91FC912E2F2F2B62
:102AC000A1F0A081B181228133814A2F4B2B21F0CB
:102AD00012962D933C931397E22FF32FA083B1838B
:102AE00020E0E02FF12F24832583A62FB52F089512
:102AF000BA93AA93A02FB12FF894E02FF12F07815A
:102B0000037007830A2FD3DFEA2FFB2F07810023EF
:102B100009F07CC0E3EFF1E100811181A017B1075A
:102B200021F000811181012B89F4E3EFF1E1A08311
:102B3000B1830091E811002319F40E947D13E9CFBD
:102B4000EDEEF1E1008102600083E3CF0081F181CD
:102B5000E02F0681EA2FFB2F2681021730F3E3EFE7
:102B6000F1E10081F181E02F0681201791F60A2F13
:102B70001B2FE02FF12F00811181302F312B49F2D3
:102B8000E02FF12F3681231721F6E3EFF1E14081A9
:102B900051810417150769F7C8CFBA93AA93E02F9C
:102BA000F12F46812FEE31E102C02A2F3B2FE22F79
:102BB000F32FA081B1815A2F5B2B29F0EA2FFB2F35
:102BC0005681451790F3F894E02FF12FA083B1833D
:102BD000E22FF32F00831183E02FF12F2487358715
:102BE0002A2F2B2B79F0EA2FFB2F048715872681BC
:102BF000241721F4E02FF12F218501C020E0E02FE0
:102C0000F12F20872781222309F472DF0091E91137
:102C1000002309F47894A991B9910895CA92BA92BF
:102C2000AA929A928A927A926A925A924A92BA9303
:102C3000AA939A938A93A02FB12FA22EB32EC42EBB
:102C4000862E972E8D859E854F845888698845E10C
:102C500050E020E00EDFE8EEF1E100810395008313
:102C6000EA2FFB2F61860A2D0B2911F0A286B3866D
:102C7000828B938B408A518A442D552D2AEA082F46
:102C8000192FF7DEEA2FFB2FC682840D951D48977A
:102C900048E150E020E0082F192FEBDE00E0E82F9C
:102CA000F92F0083018303E1048B0BE7058B968AE0
:102CB000878A082F192F0A5010405694479456942B
:102CC00047945694479404191509028B138B019766
:102CD000EA2FFB2F828393830A2F1B2F5EDFD4DE24
:102CE00089919991A991B991499059906990799058
:102CF00089909990A990B990C99026960895BA9311
:102D0000AA93F894EDEEF1E100810E7F0083E2EEEC
:102D1000F1E100811181228133810056104FE6EEEE
:102D2000F1E10083118327C0E5EFF1E1008111811A
:102D3000E7EFF1E100831183E091F711F12F0081BA
:102D40001181E5EFF1E10083118300E0A7EFB1E12C
:102D5000ED91FC910087A7EFB1E1ED91FC91048327
:102D600005837894A7EFB1E1ED91FC910281F381A5
:102D7000E02F0995F894E5EFF1E100811181012B35
:102D8000E1F0E2EEF1E10081118122813381202F17
:102D9000312FA5EFB1E1ED91FC910481158171DE38
:102DA000013010400CF2A5EFB1E1ED91FC910481EE
:102DB0001581E6EEF1E1008311837894EFEEF1E105
:102DC00016C0E6EEF1E120813181EA2FFB2F068566
:102DD000178557DE112342F4EA2FFB2F068517854E
:102DE000E6EEF1E1008311837894EA2FFB2FA081B6
:102DF000B1810A2F0B2B61F1F894E3EFF1E100812F
:102E00001181012B59F0EA2FFB2F2681E3EFF1E12D
:102E10000081F181E02F06812017D0F0EA2FFB2FEF
:102E200007810770043001F7E2EEF1E100811181C2
:102E300022813381202F312FEA2FFB2F0685178522
:102E400020DE013010400CF0BCCF0A2F1B2F50DECB
:102E5000A991B9910895BA93AA93F894E1EFF1E199
:102E600000811181EDEEF1E120812B7F20837894A8
:102E7000202F212B09F456C0E02FF12F2081318122
:102E8000232B09F44FC04681E081F32F26812417BC
:102E900009F048C0E02FF12F208102C02E2F3F2FD4
:102EA000A22FB32FED91FC915E2F5F2B19F056816D
:102EB0005417A1F3F894E3EFF1E1408151814017F9
:102EC000510741F4E02FF12F40815181E3EFF1E10F
:102ED00040835183E02FF12F44855585A02FB12FDA
:102EE000ED91FC91A42FB52FED93FC93448755876A
:102EF000E02FF12F24873587A22FB32FED91FC917E
:102F0000A02FB12FED93FC934E2F4F2B11F0048780
:102F10001587E22FF32F00831183018500877894B2
:102F200082D0F8947894A991B99108953B2F2A2FD3
:102F3000E3EFF1E1A081B1811496ED91FC91A481C0
:102F4000B58112960D911C91E1EFF1E1008311839F
:102F5000A22FB32F0895BA93AA9301E00093E8112A
:102F600000E00093E91178940091EC11002359F0EE
:102F70000091EB11A1EFB1E1ED91FC91008700917F
:102F8000ED1102FD68DFF894EDEEF1E1008100FF44
:102F900008C07894B4DEF894EDEEF1E1008100FD14
:102FA000F8CF00810D7F0083E3EFF1E10081118113
:102FB000012B41F1A3EFB1E1ED91FC9107810023D9
:102FC00011F0B4DF08C0E3EFF1E100811181E1EF1E
:102FD000F1E100831183A1EFB1E1ED91FC91A289B0
:102FE000B3890C910A3A21F008E710E00E944308E7
:102FF000A1EFB1E1ED91FC9100850093EB110093FD
:10300000EC110EC000E00093EB110093EC11E1EF26
:10301000F1E1008301830093E81178940E94BC1AC7
:10302000A991B9910895BA93AA938A932AC0E6EE1A
:10303000F1E1208131810A2F1B2F23DD112322F49E
:10304000E6EEF1E1A083B1838B7F803179F4E3EF89
:10305000F1E1A081B1811496ED91FC91A481B5813B
:103060001296ED91FC9107810023C9F0A3EFB1E125
:10307000ED91FC9100811181E3EFF1E10083118377
:103080007894E3EFF1E100811181012B41F0F89494
:10309000A3EFB1E1ED91FC918781882329F4789425
:1030A0008991A991B991089582FB76F6E3EFF1E158
:1030B0000081F181E02FA685B785E2EEF1E1008184
:1030C000118122813381202F312F0A2F1B2FD9DC30
:1030D000013010400CF0ABCFE3EFF1E10081118142
:1030E00007DDE3EFF1E10081F181E02F07810023AB
:1030F00009F0AACFD4CFE8EEF1E100810395008377
:10310000789491DFF8940E947D13BECC01E0009387
:10311000E8110093EA110FEF1FE3E6EEF1E10083FF
:103120001183BFCCBA93AA939A938A93802F912F3D
:103130000091E811002349F078940E949114282FFF
:10314000392F9FDC11237AF4F8CFF894A1EFB1E185
:10315000ED91FC918687178704E0A1EFB1E1ED9135
:10316000FC910783C8DF89919991A991B99108953C
:103170009A938A93802F912F0E949114080F191F00
:10318000D1DF899199910895E8EEF1E120812395AD
:103190002083E02FF12F24812A95248311F40E94AB
:1031A00077140C944415BA93AA939A938A93802F18
:1031B000912FE9EFF1E1A081B1810A2F0B2BB1F042
:1031C000EA2FFB2F0481002351F00281138108179D
:1031D000190729F401E004830A2F1B2FD5DFEA2FFA
:1031E000FB2FA581B6810A2F0B2B51F7899199915D
:1031F000A991B9910895BA93AA939A938A93802F2B
:10320000912FE9EFF1E1A081B1810A2F0B2B71F031
:10321000A817B90721F40FEA10E00E944308EA2F2B
:10322000FB2FA581B6810A2F0B2B91F703ED18E137
:10323000EBEFF1E10083118347E050E020E0082F3D
:10324000192F0E943915F894E9EFF1E100811181FD
:10325000E82FF92F05831683E9EFF1E1808391834D
:103260000091E911002309F47894C0CFBA93AA938E
:103270008A93A02FB12FE8EEF1E10081039500833E
:10328000EA2FF12F04810023B1F4E1EFF1E1008195
:103290001181EA2FFB2F02831383EA2FFB2F048176
:1032A00003950483802F0E944415082F10E0899114
:1032B000A991B991089502811381E1EFF1E1208193
:1032C00031810217130749F320E10A2F1B2F0E94B7
:1032D0000014EA2FFB2F04810023B1F7D6CF54CF7F
:1032E000E8EEF1E10081039500837894F8940E9460
:1032F000D3130091E911002309F47894F894E2EED5
:10330000F1E100811181228133814091EA1150E085
:1033100060E070E0400F511F621F731F40835183B4
:1033200062837383E6EEF1E120813181042F152F52
:103330000E94411511232AF0EDEEF1E100810160B8
:1033400000830091EB11002351F0EBEEF1E10A95BF
:10335000008329F4EDEEF1E1008104600083009127
:10336000E911002309F47894E0EEF1E10081118184
:103370000F5F1F4F00831183F8940E94EE13F8949F
:103380000091E811013031F40091ED11002311F0AA
:103390000E94CC13E8EEF1E100810A9500830895C4
:1033A0005A924A92BA93AA939A938A93A02FB12FD2
:1033B000822F932F442E552E49E050E020E00E94AA
:1033C0003915EA2FFB2F4682578244825582828329
:1033D000938389919991A991B991499059900895B0
:1033E000BA93AA93A02FB12FF89418960C9118971E
:1033F000002319F00A2F83D0F89416960D911C9192
:1034000013970D931C9315970A2F1B2F03D0A99187
:10341000B99108957A926A925A924A92BA93AA936B
:103420009A938A93A02FB12FE02FF12F00850023CC
:1034300009F05CC084819581813090400CF456C0C5
:103440000E949114EA2FFB2F24813581200F311F18
:1034500024833583822F932FF89401E00087E5EFD2
:10346000F1E100811181012B29F400E00D930C930F
:1034700011971DC04E2E5F2E6080712EE62DF72D08
:1034800024813581082F192F0E94411501301040E9
:103490004CF0462C572CE62DF72D60807180062DC0
:1034A000072961F76D927C921197E42DF52DA08389
:1034B000B183E6EEF1E120813181A5EFB1E1ED913B
:1034C000FC91048115810E944115112352F4A5EF4E
:1034D000B1E1ED91FC9104811581E6EEF1E100830B
:1034E00011830091E911002309F47894899199914D
:1034F000A991B99149905990699079900895BA939A
:10350000AA93A02FB12FF894E02FF12F008500236C
:10351000F9F000E000870E949114EA2FFB2F24812C
:103520003581201B310B2483358305EF11E102C067
:10353000022F132FE02FF12F20813181232B41F017
:1035400020812A173B07A1F72D913C9120833183DD
:103550000091E911002309F47894A991B991089593
:1035600000E00FBD09E80EBD0FE71EE31BBD0ABD5D
:1035700007B7006107BF0895FFCF9A938A93FA9324
:10358000EA933A922A921A920A927A936A935A93F7
:103590004A933A932A931A930A938FB79BB70E9440
:1035A00070199BBF8FBF0991199129913991499148
:1035B0005991699179910990199029903990E991DF
:1035C000F991899199911895BA93AA939A938A93AC
:1035D000FA93EA933A922A921A920A927A936A9307
:1035E0005A934A933A932A931A930A938FB79BB7A5
:1035F0000091E81103950093E8110091E9110395FA
:103600000093E911F8940E94D3130091E91100236B
:1036100009F478940BB10BB1AAEFB0E007C00395A1
:103620000093B703B093B003B093B1035F9B4AC05C
:103630000CB1E091AE03F091AF032091B003309153
:10364000B103E20FF31F00830091B6030A3071F358
:10365000002321F5E091AE03F091AF030091B00398
:103660001091B103E00FF11F108116310091B703E3
:10367000B1F2023080F001E0113069F4B093B70389
:103680000093B603B093B203B093B303A093B8030F
:10369000B093B903CBCFB093B703C8CF0091B003B9
:1036A0001091B1030F5F1F4F0093B0031093B1034C
:1036B0000739104000E018F00E94371DB7CF0E9474
:1036C0006B29B4CFF8940E94EE130091E9110A958A
:1036D0000093E9110091E8110A950093E8119BBF4E
:1036E0008FBF099119912991399149915991699106
:1036F00079910990199029903990E991F9918991DE
:103700009991A991B99118959A938A93FA93EA930A
:103710003A922A921A920A927A936A935A934A9305
:103720003A932A931A930A938FB79BB70091E811A3
:1037300003950093E8110091E91103950093E911B5
:10374000F8940E94D3130091E911002309F47894AE
:1037500056981A980CE613E00E947F1A00E052C0B7
:103760009A938A93FA93EA933A922A921A920A9235
:103770007A936A935A934A933A932A931A930A93A1
:103780008FB79BB70091E81103950093E811009162
:10379000E91103950093E911F8940E94D313009165
:1037A000E911002309F478940091AA031091AB0366
:1037B000012BF9F00091AA03015010400093AA03D5
:1037C0001093AB030091A8031091A903E091A40307
:1037D000F091A503E00FF11F00810CB90091A8033F
:1037E0001091A9030F5F1F4F0093A8031093A90323
:1037F00008C00FEF0093AA030093AB0355985E9A9D
:10380000569A02C00E94371DF8940E94EE13009150
:10381000E9110A950093E9110091E8110A950093C6
:10382000E8119BBF8FBF0991199129913991499155
:103830005991699179910990199029903990E9915C
:10384000F991899199911895BA93AA939A938A9329
:10385000FA93EA933A922A921A920A927A936A9384
:103860005A934A933A932A931A930A938FB79BB722
:103870000091E81103950093E8110091E911039577
:103880000093E911F8940E94D3130091E9110023E9
:1038900009F4789400919B0000919B00AAEFB0E09E
:1038A00007C003950093D103B093CA03B093CB0331
:1038B00000919B0007FF4BC000919C00E091C80362
:1038C000F091C9032091CA033091CB03E20FF31F9B
:1038D00000830091D0030A3059F3002321F5E091D1
:1038E000C803F091C9030091CA031091CB03E00F04
:1038F000F11F108116310091D10399F2023080F04E
:1039000001E0113069F4B093D1030093D003B09378
:10391000CC03B093CD03A093D203B093D303C8CF0D
:10392000B093D103C5CF0091CA031091CB030F5FB1
:103930001F4F0093CA031093CB030739104001E0D7
:1039400018F00E94371DB4CF0E946B29B1CFBACEB8
:103950009A938A93FA93EA933A922A921A920A9243
:103960007A936A935A934A933A932A931A930A93AF
:103970008FB79BB70091E81103950093E811009170
:10398000E91103950093E911F8940E94D313009173
:10399000E911002309F4789400919A000F7B0093B9
:1039A0009A001B9805E713E00E947F1A01E02ACFD6
:1039B0009A938A93FA93EA933A922A921A920A92E3
:1039C0007A936A935A934A933A932A931A930A934F
:1039D0008FB79BB70091E81103950093E811009110
:1039E000E91103950093E911F8940E94D313009113
:1039F000E911002309F478940091C4031091C503E0
:103A0000012B01F10091C403015010400093C40345
:103A10001093C503E091BE03F091BF030091C20370
:103A20001091C303E00FF11F008100939C000091EF
:103A3000C2031091C3030F5F1F4F0093C203109383
:103A4000C30314C00FEF0093C4030093C503009198
:103A50009A000F7D00939A0000919B0000640093F0
:103A60009B0000919A00006400939A00CDCE2FB77E
:103A7000F894023058F41AE1019FE4EAF3E0E00D13
:103A8000F11D00E0038B028B048705872FBF08958B
:103A90005598F8941A980091E911002309F4789444
:103AA0000CE613E00E947F1A00E0E1CF559A00E98E
:103AB00013E00C947F1A00919A000F7D00939A00F6
:103AC000F8941B980091E911002309F4789405E714
:103AD00013E00E947F1A01E0CACF00919A000062B1
:103AE00000939A0009E913E00C947F1ABD01AC0120
:103AF000102FC90100E025303040A0F02AE1129FCC
:103B0000F001EC55FC4FA081B1811496049730E090
:103B1000E02FF0E00D91E027E254F54A3BBF06911B
:103B20000197B1F7CA01DB010895BA93AA931AE18C
:103B3000019FA4EAB3E0A00DB11DFD0100E00487E0
:103B400005870687078704830583ED91FC9111970C
:103B500006E10083ED91FC9111970183ED91FC91B9
:103B600011970283ED91FC91199601E00383ED9189
:103B7000FC911B970281ED91FC9119960483ED91C4
:103B8000FC911B970381ED91FC91119705830091A6
:103B9000E602005FED91FC91119706830E943108C7
:103BA000ED91FC9111970783ED91FC91119700E045
:103BB0000087ED91FC9111970187ED91FC910287AF
:103BC000A991B9910895BA93AA938A93802FADDFF2
:103BD0000AE1809FA4EAB3E0A00DB11D0D911C91F4
:103BE0001197FD0122813381020F131FF80100E0BC
:103BF0000083FD01028113810F5F1F4F0283138336
:103C00000081118122813381020F131FF80100E02E
:103C10000083FD01028113810F5F1F4F0283138315
:103C20000081118122813381020F131FF80100E00E
:103C30000083FD01028113810F5F1F4F02831383F5
:103C40002185022F039501870081118142815381D3
:103C5000040F151FF8012083FD01028113810F5FFE
:103C60001F4F028313830250ED91FC91119700873F
:103C7000FD010281138102501040ED91FC911197DA
:103C800011872AE030E0082F31DFED91FC91119788
:103C90000287FD0122813381082F28DF202F0D911B
:103CA0001C911197FD0142815381040F151FF801EA
:103CB0002083FD01028113810F5F1F4F0283138355
:103CC0000081118122813381020F131FF80104E06A
:103CD0000083FD01028113810F5F1F4F0283138355
:103CE0000683178300E004830583882371F40CE6C0
:103CF00013E00E94F019F8941A9A0091E911002338
:103D000009F4789400E913E00FC0813079F405E7F5
:103D100013E00E94F019F8941B9A0091E911002316
:103D200009F4789409E913E00E94F0198991A991A6
:103D3000B99108955A924A92BA93AA939A938A9300
:103D40001AE1019F002D24EA022E23E0000E121E2C
:103D5000F00101E0018F0081118122813381020F86
:103D6000131FF80109ED0083F001028113810F5F39
:103D70001F4F028313830081118122813381020F3F
:103D8000131FF80104E00083F001028113810F5F2B
:103D90001F4F0283138398010E5F1F4F028313830B
:103DA0004091A2034295407F00811181628173811D
:103DB000060F171FF8014083F001028113810F5F86
:103DC0001F4F02831383EAE2F4E086E394E00CE001
:103DD0001191D0014D915C91D00112966D917C9121
:103DE000460F571FDA011C93D00112964D915C913A
:103DF0004F5F5F4F5C934E93DC014D915D916D91F0
:103E00007D91CD01D0012D903C90D00112964D9026
:103E10005C90240C351CD1014D935D936D937C9384
:103E2000D00112964D915C914C5F5F4F5C934E9325
:103E30000A9571F6F001421B425000811181020F78
:103E4000131FF8014083F00182819381821B930B41
:103E5000029700811181020F131FF8010CC6BA935B
:103E60003A2E592F282E1AE1019FE4EAF3E0E00DE3
:103E7000F11D01E0018FA081B18102811381A00FAA
:103E8000B11F0FEC0C93028113810F5F1F4F028350
:103E90001383A081B181A00FB11F04E00C930281B4
:103EA00013810F5F1F4F02831383B8010E5F1F4FF3
:103EB000028313830EE114E04CE0D8012D918D01B3
:103EC000A081B18102801380A00DB11D2C932281AD
:103ED00033812F5F3F4F228333834A9571F70281ED
:103EE000061B0250A081B181A60FB71F0C938281DF
:103EF0009381861B970B029700811181060F171F74
:103F0000F8019183822D952FA32DB9910895AD01CC
:103F10001AE1019FF001EC55FC4FA285B385A20F79
:103F2000B31FEEE1F4E00CE01D9111930A95E1F767
:103F3000DA0108957B2F2A2E592F682F1AE1019F4D
:103F4000E4EAF3E0E00DF11D01E0018FA081B18111
:103F500002811381A00FB11F0BEB0C93028113811F
:103F60000F5F1F4F02831383A081B181A00FB11F88
:103F700004E00C93028113810F5F1F4F02831383B0
:103F800098012E5F3F4F2283338320911C04A08130
:103F9000B1814281A40FB31F2C93228133812F5F03
:103FA0003F4F2283338320911D04A081B181428140
:103FB000A40FB31F2C93228133812F5F3F4F2283A5
:103FC0003383201B2250A081B181A00FB11F2C93FD
:103FD00082819381801B910B029720813181200F78
:103FE000311FF9019183862F952FA22DB72F0895A8
:103FF000BA93AA939A938A93C9011AE1019FA4EAFA
:10400000B3E0A00DB11DFD0102851385080F191F36
:10401000F8012081318120931C0430931D042081FC
:1040200002E010E00E949403FD0102851385080F51
:10403000191FF801218103E010E00E9494030E94FF
:10404000F602EFC65A924A92BA93AA939A938A9327
:104050001AE1019FA4EAB3E0A00DB11DFD0101E04A
:10406000018F0081118142815381040F151FF801D6
:1040700006E70083FD01028113810F5F1F4F02835A
:1040800013830081118142815381040F151FF801B0
:1040900004E00083FD01028113810F5F1F4F028343
:1040A0001383A8014E5F5F4F42835383428553853C
:1040B000420F531FFA0160814D915C911197FD01F0
:1040C00002801380400D511DFA016083FD01428181
:1040D00053814F5F5F4F4283538380E090E04EE017
:1040E0001C01220C331C67E375E0620D731D028412
:1040F0001384020E131EF00100805CE1059E600D2A
:10410000711DFB0100801180FD0160817181428081
:104110005380640D751DFB0100821182FD016281D7
:1041200073816E5F7F4F6283738367E176E0620D18
:10413000731D02841384020E131EF0015081ECE102
:104140005E9F600D711DFB0100801180FD0160818B
:10415000718122803380620D731DFB010082118208
:10416000FD01628173816E5F7F4F6283738301966D
:104170004A9509F0B5CF2281201B2250ED91FC9188
:104180001197E00FF11F2083FD0182819381801B35
:10419000910B0297ED91FC91E00FF11F6CC48A9294
:1041A0007A926A925A924A92BA93AA939A938A936B
:1041B000C9011AE1019FA4EAB3E0A00DB11DFD0100
:1041C00001E0018F0081118122813381020F131FD1
:1041D000F8010CE90083FD01028113810F5F1F4F7D
:1041E000028313830081118122813381020F131F07
:1041F000F80104E00083FD01028113810F5F1F4F6E
:104200000283138338010E5F1F4F028313834424FC
:10421000552404E0802E0091E81103950093E811E5
:104220009201220F331F07EB18E0020F131FFD014D
:1042300042855385480F591FFA01508148E0549F29
:10424000000D111DF80140810D911C911197FD0188
:1042500062817381060F171FF8014083FD010281FF
:1042600013810F5F1F4F0283138307EB18E0020FC8
:10427000131F22853385280F391FF901208138E06B
:10428000239F000D111DF80121810D911C911197A3
:10429000FD0142815381040F151FF8012083FD01A8
:1042A000028113810F5F1F4F028313830E94441505
:1042B00001E0400E00E0501E8A9409F0ACCFFD01F1
:1042C00002851385080F191FF801E081F0E0E9501D
:1042D000F74F20810D911C911197FD01428153816F
:1042E000040F151FF8012083FD01028113810F5F68
:1042F0001F4F028313830091E81103950093E81187
:1043000002851385080F191FF801008112E0019F33
:10431000F001E150F74F20810D911C911197FD01A3
:1043200042815381040F151FF8012083FD01028192
:1043300013810F5F1F4F0283138302851385080FBC
:10434000191FF801008112E0019FF001E150F74FC1
:1043500021810D911C911197FD0142815381040F20
:10436000151FF8012083FD01028113810F5F1F4F8C
:10437000028313830E944415FD0102810619025035
:10438000ED91FC911197E60DF71D0083FD018281EF
:104390009381861997090297ED91FC91E60DF71D1F
:1043A000918389919991A991B99149905990699076
:1043B000799089900895BA933A2E792F282E212F3B
:1043C0001AE1019FE4EAF3E0E00DF11D01E0018F45
:1043D000A081B18102811381A00FB11F09E80C9364
:1043E000028113810F5F1F4F02831383A081B1816C
:1043F000A00FB11F04E00C93028113810F5F1F4FC8
:1044000002831383A8010E5F1F4F0283138300EB07
:1044100019E032E3239F000D111D6CE2D8012D91AC
:104420008D01A081B18102801380A00DB11D2C935C
:10443000228133812F5F3F4F228333836A9571F747
:104440000281041B0250A081B181A40FB51F0C93FF
:1044500082819381841B950B029700811181040F47
:10446000151FF8019183822D972FA32DB9910895DF
:10447000BA93AA939A938A931AE1019FE4EAF3E02C
:10448000E00DF11D01E0018FA081B1810281138156
:10449000A00FB11F05E70C93028113810F5F1F4F1F
:1044A00002831383A081B181A00FB11F04E00C939C
:1044B000028113810F5F1F4F0283138318010E5F68
:1044C0001F4F02831383A285B385A20FB31F0C91E4
:1044D000A081B1814281A40FB11F0C93028113818D
:1044E0000F5F1F4F02831383A285B385A20FB31FF3
:1044F000AC91B0E0A15EBB4F0C911091A20312955C
:10450000107F012BA081B18142815381A40FB51F7F
:104510000C93028113810F5F1F4F02831383A285C7
:10452000B385A20FB31F0C9114E0019FD001A95DC8
:10453000BB4F0D91A081B18142815381A40FB51F62
:104540000C93028113810F5F1F4F02831383A28597
:10455000B385A20FB31F0C9114E0019FD001A95D98
:10456000BB4F11960C91A081B18142815381A40F60
:10457000B51F0C93028113810F5F1F4F02831383BA
:10458000A285B385A20FB31F0C9114E0019FD00147
:10459000A75DBB4F0D91A081B18142815381A40FD2
:1045A000B51F0C93028113810F5F1F4F028313838A
:1045B000A285B385A20FB31F0C9114E0019FD00117
:1045C000A75DBB4F11960C91A081B18142815381AF
:1045D000A40FB51F0C93028113810F5F1F4F02833D
:1045E0001383A285B385A20FB31FAC91B0E0A95B82
:1045F000BB4F0C91A081B1814281A40FB11F0C93DC
:10460000028113810F5F1F4F02831383A285B3853D
:10461000A20FB31FAC91B0E0A15BBB4F0C91A08186
:10462000B1814281A40FB11F0C93028113810F5FEE
:104630001F4F02831383A285B385A20FB31FAC91D2
:10464000B0E0A15BBB4F0C910F770C9380E090E042
:104650000EE047E554E0480F591FA285B385A20F2D
:10466000B31F1C916EE0169F400D511DDA011C9185
:10467000A081B18142815381A40FB51F1C93428157
:1046800053814F5F5F4F4283538347EC54E0480FA1
:10469000591FA285B385A20FB31F1C91169F400D11
:1046A000511DDA011C91A081B18142815381A40F77
:1046B000B51F1C93428153814F5F5F4F42835383E9
:1046C00047EF56E0BC01660F771F660F771F460F56
:1046D000571FA285B385A20FB31F1C9168E3169FD5
:1046E000400D511DDA014D915D916D917C91A0813C
:1046F000B18102801380A00DB11D4D935D936D9328
:104700007C93428153814C5F5F4F42835383019678
:104710000A9509F09ECF028102190250A081B18151
:10472000A20DB31D0C938281938182199309029784
:1047300000811181020D131DF801918372C3BA9398
:104740003A2E792F282EC9011AE1019FE4EAF3E0FD
:10475000E00DF11DA285B3859D01280F391FF901D8
:104760000081043010F400E001C000E510E04CE1ED
:1047700054E0400F511F8A010C501B4FF80160811B
:10478000662311F561E06083F9012081F80121833E
:104790000196FD01E80FF91F2081F801228323E033
:1047A000A80FB91F119630E008C06D91FA01E20F11
:1047B000F31FEC50FB4F60832395F801E281F0E09A
:1047C00033962E173F078CF34ECE7B2F2A2E592F70
:1047D000682F1AE1019FE4EAF3E0E00DF11D01E02A
:1047E000018FA081B18102811381A00FB11F07E564
:1047F0000C93028113810F5F1F4F02831383A081EB
:10480000B181A00FB11F04E00C93028113810F5FEF
:104810001F4F0283138398012E5F3F4F2283338300
:1048200020911C04A081B1814281A40FB31F2C935D
:10483000228133812F5F3F4F2283338320911D04D8
:10484000A081B1814281A40FB31F2C9322813381B7
:104850002F5F3F4F2283338320911E04A6CBBA9350
:10486000AA931AE1019FA4EAB3E0A00DB11D1A9624
:10487000ED91FC91E20FF31F208120931C04018134
:1048800000931D04028100931E0402E010E00E94C8
:10489000940320911D0403E010E00E9494032091F2
:1048A0001E0404E010E00E9494030E94170FA991D7
:1048B000B9910895BA933A2E592F282E1AE1019FE3
:1048C000E4EAF3E0E00DF11D01E0018FA081B18188
:1048D00002811381A00FB11F03E40C9302811381A5
:1048E0000F5F1F4F02831383A081B181A00FB11FFF
:1048F00004E00C93028113810F5F1F4F0283138327
:1049000098010E5F1F4F028313830CE014E043E015
:10491000D8016D91A081B18102801380A00DB11DDD
:104920006C93628173816F5F7F4F62837383D80161
:1049300011967D918D01A081B18102801380A00D1F
:10494000B11D7C93628173816F5F7F4F628373833C
:104950004A95F1F60281021B0250A081B181A20F9B
:10496000B31F0C9382819381821B930B029700816A
:104970001181020F131FC4CA5A924A92BA93AA9382
:104980009A938A931AE1019FA4EAB3E0A00DB11DA6
:10499000FD0101E0018FED91FD910D911C911397A7
:1049A000E00FF11F09E30083FD01028113810F5F16
:1049B0001F4F02831383ED91FD910D911397E00F2B
:1049C000F11F04E00083FD01028113810F5F1F4F7F
:1049D0000283138328010E5F1F4F02831383028516
:1049E0001385020F131FF80120810D911C9111975F
:1049F000FD0142815381040F151FF8012083FD0141
:104A0000028113810F5F1F4F0283138308E0209FF1
:104A1000C001408151810281400F511F24E080017B
:104A20000E94A203FD01028113810C5F1F4F0283CC
:104A3000138340815181400F511F24E004968C0163
:104A40000E94A203FD01028113810C5F1F4F0283AC
:104A5000138304190250ED91FC911197E40DF51D9B
:104A60000083FD0182819381841995090297ED915C
:104A7000FC91E40DF51D918389919991A991B991CA
:104A80004990599008959A928A925A924A92BA936A
:104A9000AA939A938A9349011AE1019F04EA402E4E
:104AA00003E0400C011D502EE42DF02F428553856C
:104AB000480D591DFA012081203800F10091E602CD
:104AC0000130E1F40EE714E0622F70E06F70660FC2
:104AD000660F060F171F0180128023803480F801B3
:104AE0000082118222823382FA010580168027809B
:104AF0003084F80100AA11AA22AA33AA08E0209F54
:104B0000D0014F5F5F4F24E080010E94BE030E94EE
:104B10009114C80101E010E00E94B8180E9491149D
:104B2000081B190B0432104020F40091D60E00230C
:104B300089F3F20142855385480D591D4B5F5F4F44
:104B400024E014968D010E94BE030E949114C801B6
:104B500001E010E00E94B8180E949114081B190B84
:104B60000432104020F40091D60E002389F389917D
:104B70009991A991B99149905990899099900895E6
:104B8000E199FECF0FEF0EBB0FE00FBB0FEF0DBB98
:104B9000E29AE19AE199FECF08E101BD08E001BD8A
:104BA0000895BA93AA939A938A931AE1019FA4EA6B
:104BB000B3E0A00DB11DFD0101E0018FED91FD916C
:104BC0000D911C911397E00FF11F07E70083FD0182
:104BD000028113810F5F1F4F02831383ED91FD91BB
:104BE0000D911397E00FF11F07E00083FD01028193
:104BF00013810F5F1F4F02831383C8010E5F1F4F86
:104C00000283138307EE12E00E9424152D913C913C
:104C10001197FD0162817381260F371FF90100830F
:104C2000FD01228133812F5F3F4F22833383212F68
:104C3000008111814281040F131FF8012083FD01BF
:104C4000028113810F5F1F4F028313830CEF12E069
:104C50000E9424152D913C911197FD016281738171
:104C6000260F371FF9010083FD01228133812F5F59
:104C70003F4F22833383212F008111814281040F12
:104C8000131FF8012083FD01028113810F5F1F4F65
:104C90000283138301E113E00E9424152D913C91BE
:104CA0001197FD0162817381260F371FF90100837F
:104CB000FD01228133812F5F3F4F22833383212FD8
:104CC000008111814281040F131FF8012083FD012F
:104CD000028113810F5F1F4F028313830091E6024D
:104CE000002321F00A9509F443C086C006E213E0D0
:104CF0000E9424152D913C911197FD0162817381D1
:104D0000260F371FF9010083FD01228133812F5FB8
:104D10003F4F22833383212F008111814281040F71
:104D2000131FF8012083FD01028113810F5F1F4FC4
:104D3000028313830BE313E00E9424152D913C9111
:104D40001197FD0162817381260F371FF9010083DE
:104D5000FD01228133812F5F3F4F22833383212F37
:104D6000008111814281040F131FF80120833DC08F
:104D700000E513E00E9424152D913C911197FD014F
:104D800062817381260F371FF9010083FD012281A3
:104D900033812F5F3F4F22833383212F0081118185
:104DA0004281040F131FF8012083FD01028113814A
:104DB0000F5F1F4F02831383008111812281338192
:104DC000020F131FF80100E00083FD01028113812F
:104DD0000F5F1F4F02831383008111812281338172
:104DE000020F131FF80100E00083FD01028113810F
:104DF0000F5F1F4F028313830281081B0250ED9146
:104E0000FC911197E80FF91F0083FD0102811381C6
:104E1000081B190B02501040ED91FC91E80FF91F8F
:104E2000118389919991A991B99108955A924A92C1
:104E3000BA93AA939A938A931AE1019FA4EAB3E0E2
:104E4000A00DB11DFD0111E0118FED91FD912D918E
:104E50003C911397E20FF31F19EE1083FD0122819D
:104E600033812F5F3F4F22833383ED91FD912D914D
:104E70001397E20FF31F13E01083FD0122813381AA
:104E80002F5F3F4F2283338329012E5F3F4F2283C1
:104E900033832081318142815381240F351FF901F1
:104EA0000083FD01028113810F5F1F4F0283138373
:104EB0002091E602205F0081118142815381040F1D
:104EC000151FF8012083FD01028113810F5F1F4F21
:104ED00002831383C8010F5F1F4F028313830E9455
:104EE0003108ED91FC911197E80FF91F00830D91A6
:104EF0001C911197FD0122813381020F131FF801CC
:104F000006E20083FD01028113810F5F1F4F0283C0
:104F100013830081118122813381020F131FF80155
:104F200001E00083FD01028113810F5F1F4F0283A7
:104F300013830081118122813381020F131FF80135
:104F400002E00083FD01028113810F5F1F4F028386
:104F500013830081118122813381020F131FF80115
:104F600006E90083FD01028113810F5F1F4F028359
:104F700013830081118122813381020F131FF801F5
:104F800000E00083FD01028113810F5F1F4F028348
:104F900013830081118122813381020F131FF801D5
:104FA00003E10083FD01028113810F5F1F4F028324
:104FB00013830081118122813381020F131FF801B5
:104FC00001E00083FD01028113810F5F1F4F028307
:104FD00013832091A2030081118142815381040F28
:104FE000151FF8012083FD01028113810F5F1F4F00
:104FF000028313830081118122813381020F131FE9
:10500000F80101E00083FD01028113810F5F1F4F52
:105010000283138304190250ED91FC911197E40D62
:10502000F51D0083FD018281938184199509029702
:10503000ED91FC91E40DF51D918300E00093A20336
:105040001BCD9A928A927A926A925A924A92BA9313
:10505000AA939A938A93402EC901552453940AE146
:10506000409E04EA802E03E0800C011D902EE82D66
:10507000F02FA285B385A80FB91FFD016080718054
:105080008301E4EEF0E0FBBFF0E00C94E62C042D8D
:10509000CDDEB2C004969C01042D83DDADC00E941C
:1050A0001A04AAC004969C01042D6ADDA5C00496CA
:1050B0009C01042DE8DCA0C004969C01042D5CDC5E
:1050C0009BC004969C01042DF5DB96C00091E6027E
:1050D000002309F091C004969C01042DC0DB8CC014
:1050E0000091E602002309F087C004969C01042D7C
:1050F0006CDB82C00091E602002309F07DC00496BB
:105100009C01042D1CDB78C00091E602002309F00D
:1051100073C0FD010481002319F00A9579F16CC078
:105120003C0105E0600E00E0701E9301042DA0D943
:10513000A0EBB9E00C91013029F410E0042D3BD92B
:1051400000E00C93FD0102A9013029F4820133D95A
:10515000FD0100E002AB00910F0910E0F40122858F
:105160003385280F391FF90145810E94532A0170A8
:1051700009F442C09301042D12D83EC005969C014B
:10518000042D0E94222038C00091E6020130A1F5D2
:1051900004969C01042D0E94F81F2EC00091E60287
:1051A000013051F504969C01042D0E949A1F24C0E1
:1051B0000091E602013001F504969C01042D0E9445
:1051C000871F1AC00091E6020130B1F404969C01D9
:1051D000042D0E942F1F10C00091E602013061F4DF
:1051E00004969C01042D0E949A1E06C004E66016D7
:1051F00000E0700608F45524052D89919991A99134
:10520000B9914990599069907990899099900895B1
:105210004A92BA93AA939A938A93402E0AE1409EA7
:10522000A4EAB3E0A00DB11DFD0100E0018F0BE089
:10523000028300E0038387E090E09C01042D01DFFE
:10524000302FFD0102851385080F191FF8012281F7
:10525000F381E22F34968E0F9F1F332341F0FD011F
:1052600006891789045010408017910730F3FD011B
:10527000018D0023042D19F00E94E31D02C00E943D
:10528000371D89919991A991B9914990089524EF79
:1052900031E001E00E94CF140023C9F305E613E0DA
:1052A0000E94361900E0B4DF05E613E00E946F1992
:1052B000EECF24EF31E001E00E94CF140023C9F3C8
:1052C00005E613E00E94361901E0A2DF05E613E0CF
:1052D0000E946F19EECFBA93AA939A938A93802F64
:1052E0000AE1809FA4EAB3E0A00DB11DFD0102898F
:1052F000002309F4ABC00A9539F00A9509F44BC0B4
:10530000085009F4A3C09FC00685178506301040D9
:1053100008F49CC00285F385E02F04811581FD010E
:10532000068B178B60E0428553858A0126E030E0CA
:10533000F80101908F016025E62FF0E0E254F54A74
:105340003BBF66912A95A1F7FA010681601709F023
:105350007AC0008110E0E091E602F0E070960E174E
:105360001F0709F070C0FD012689378906E94685C7
:105370005785041B150B2017310708F064C0273030
:10538000304008F460C002E0028B86859785019664
:10539000808B918B5BC0008911890F5F1F4F008B41
:1053A000118B268937890217130708F44FC019019A
:1053B00002851385020F131F01501040F801008170
:1053C000043009F040C00EEF200E0FEF301E002415
:1053D000FD0162857385022D032981F08B01A101F6
:1053E00030E0F80121918F010226E02DF0E0E25437
:1053F000F54A3BBF06904150504099F7620D731D2E
:10540000FB0100810016F9F40E943108202FFD01F4
:105410000285F385E02F3181321711F03F3F99F477
:1054200003810093D70EFD010AE0028B882319F453
:1054300027EE32E004C0813049F42CEF32E001E085
:105440000E94AF1403C0082F0E94371DFD0106857E
:1054500017850F5F1F4F06871787063920E010401A
:1054600010F026872787DDCC00008895FECF0CE85A
:105470000093740003EA0DBF02E00EBFC4E6D2E061
:105480000E94222D002311F00E94342D0E94460715
:105490000E94342A0C94342A000F111F4A95E2F717
:1054A0000895159507954A95E2F70895002411246B
:1054B0001001E0E22015300571F4E051312F202F6A
:1054C0001FEF0FEF0894301106C0E850322F212F44
:1054D000102F0FEF0894001F111F221F331FEA9592
:1054E00072F0001C111C221C331C04161506260623
:1054F000370688F3041A150A260A370AECCFA001EA
:10550000B10100951095209530950895222342F021
:10551000323030F03A95EE0F001F111F221FC2F7F4
:10552000E03821F400FF08940EF488940F4F1F4FC9
:105530002F4F3F4F323038F4332319F427FD31E039
:1055400002C027FF30E03F3F29F0220F000C3795C3
:1055500027950895C4C0032E00203AF43095209575
:10556000109501951F4F2F4F3F4FE0E03E17A1F4DC
:105570002E0739F51E0741F50E0769F0202F00E0D0
:1055800036E82AF03A95000F111F221FDAF7220F92
:10559000000C379527950895EEE932F0EA95000F53
:1055A000111F221F331FD2F70038012F122F232F74
:1055B0003E2F11F400FF08940F4F1F4F2F4F3F4F06
:1055C000E6CF36E922F3DECF212F102F00E03EE8B0
:1055D000F2F2D8CF0024C9CF3E2E312A302A79F4F6
:1055E000362E330C372E331C19F09B018A01089597
:1055F000362A352A342AC9F73723089574C0F1E0D2
:10560000E6951FC0EE2339F4E62FEE0FF72FFF1FAC
:1056100011F0FF3F09F00895EE2339F7732772F375
:1056200008953E2E352A342A11F40895DECFF1E094
:10563000E6950FC0F901EE0FFF1F71F2FF3F11F366
:10564000E7950F01FB01EE0FFF1F59F3FF3F71F3C9
:10565000E795202D032E312D172EBF01F0E0E0E05D
:10566000E894401751076207730721F41024E2F40D
:1056700000242FC058F0F9019B01BF01F8018A01F5
:10568000AF01E0E0F0E0302C012C132C731B39F05B
:10569000669557954795F795E0407395C9F7E7FBF1
:1056A000EE0FE0E010246AF0EF0F041F151F261F15
:1056B00060F4279517950795E79508F46894339556
:1056C00025CFEF0B040B150B260B20CFE0E87E2730
:1056D000B1CF302D307822271127002708953FE7DA
:1056E000302920E8F9CF3FEF2FEFF6CF31E02695B4
:1056F00029C02223C1F7660F771F29F07F3F79F772
:10570000662389F7ECCF652B642B69F3E8CFE22F92
:10571000E12BE02B59F7660F771F7F3F21F3D9CF9D
:10572000F62FF42BF52BA9F271E0669511C06623D4
:10573000D1F6D5CF032E0726220F331F41F33F3F6B
:10574000C1F22795660F771F59F37F3F81F3679565
:10575000E0E0F0E0E8943F57E040370FEF1F12F031
:1057600021F0BDCF393ED8F26894302C049FF0016F
:10577000059F7727F00D711D149F2224F00D711DD8
:10578000221C069F0027700D211C001F249F442708
:10579000700D211C041F159F700D211C041F169FE6
:1057A0001127200C011D111F259F200C011D141F06
:1057B000269F000D111D5EF43395169507952794CD
:1057C0007795F795E79533953130BCF314C01123E5
:1057D00022F0332349F433950EC0339561F4032C42
:1057E0007ECF3A95313038F0EE0FFF1F771F221C25
:1057F000001F111FB2F7E894FE2B09F06894212FC7
:10580000102F022DE72F032C8BCEF901EE0FFF1F77
:10581000FF3F11F4EE23A1F4FB01EE0FFF1FFF3F4A
:1058200011F4EE2369F4E32FE7276AF4F52BF42B48
:10583000F02BF12BF22BE32FEE0FFE2B11F0731751
:105840000895889408950417150726073707C1F3AC
:1058500037FF0895EE1FE095E6950895F901EE0FE4
:10586000FF1FFF3F11F4EE2351F4FB01EE0FFF1F6A
:10587000FF3F11F4EE2319F4D6DF18F308940895CE
:10588000E22FE12BE02B51F0E0E0269502C03150F1
:10589000E040000F111F221FD2F72DC0660F771FA7
:1058A00019F07F3F31F015CFE62FE42BE52B31F0D7
:1058B00010CF662319F40DCF222309F014CF660F01
:1058C000771F7F3FD9F30BCFF62FF42BF52BD9F3AE
:1058D000F0E0669502C07150F040440F551F661FFE
:1058E000D2F710C0032E0726220F331F49F23F3F85
:1058F00019F32795E0E0660F771F31F37F3FC9F278
:105900006795F0E0E894371BEF0B3158EF4F2AF022
:10591000EE23C9F63F3FB9F203C0393E60F2689406
:10592000E0E0F0E040175107620738F0315008F42A
:105930006894000F111F221FEE1F71E0172E1394A1
:105940000BC07A9371E0000F111F221FEE1F041786
:1059500015072607EF0720F0041B150B260BEF0B8E
:10596000771F88F71A946AF719902990000F111F72
:10597000221FEE1F041715072607EF073E2EF0F92A
:10598000E894E0E839F008F4E0E0322A312A302ADD
:1059900009F06894709510942094332311F0F0FF6F
:1059A00009C0269417947795E79508F46894339581
:1059B0003130BCF3072F112D222D0C94902A5791D2
:1059C0004791179011FA279037900895F8DF041B3C
:1059D000150B20E030E000C0B8F010FC17C0479174
:1059E0000790E00FF11F0417100540E0240734076B
:1059F00058F436F406910024F101E01BF0090994F3
:105A0000E00FF11F27903790F101099411F4D6F7B8
:105A1000F1CF31960EF0319650E060E070E04791A2
:105A20004B3F48F089F34F3F29F04E3F11F07791FB
:105A3000679157914791041B150B260B370B39F3D0
:105A400018F3E7CF01E0089520E02D9301501040B6
:105A5000E1F708953BBF26912D93EF5FFF4F3F4F36
:105A600001501040B9F708954EEB5BE560E0FA0194
:105A7000362F3BBF07911691FA01EE5FFF4F3F4F64
:105A80003BBFA791B691FA01362FEC5FFF4F3F4F16
:105A90003BBF079017902690202D2129222921F025
:105AA000F001322DD7DF01C0CFDF495F5F4F6F4F6D
:105AB0001BE520E04C3C51076207C8F20895005EE8
:105AC000BCE2613FDD83C29C7E20A3FD1F419DC3DC
:105AD000217FFCA2401E5F01E3BD3E6082DC237D8E
