:020000021000EC
:10E000000C94E8F8005EBCE2613FDD83C29C7E2098
:10E01000A3FD1F419DC3217FFCA2401E5F01E3BD04
:10E020003E6082DC237D9FC1421CFEA0E1BF5D03F8
:10E0300080DE3C62BEE0025CDF81633D7C22C09EEC
:10E040001D43A1FF4618FAA427799BC584DA3866D8
:10E05000E5BB5907DB856739BAE406581947A5FBC4
:10E060007826C49A653BD987045AB8E6A7F91B45B8
:10E07000C6987A24F8A6441A99C7257B3A6486D8AC
:10E080005B05E7B98CD2306EEDB3510F4E10F2AC98
:10E090002F7193CD114FADF3702ECC92D38D6F3184
:10E0A000B2EC0E50AFF1134DCE90722C6D33D18F78
:10E0B0000C52B0EE326C8ED0530DEFB1F0AE4C126C
:10E0C00091CF2D73CA947628ABF517490856B4EA58
:10E0D0006937D58B5709EBB536688AD495CB297744
:10E0E000F4AA4816E9B7550B88D6346A2B7597C938
:10E0F0004A14F6A8742AC896154BA9F7B6E80A542C
:0BE10000D7896B35DA02000200000036
:10E10C0003E801CAF7B5F7FE03ACB8F70ABBF70A88
:10E11C00BDF70AC2F714C7F7FB001FD0F12FE02F91
:10E12C0027BFE8951AC019D0F32FE22F112E002E1D
:10E13C0021E027BFE89511C010D0F12FE02F20FD72
:10E14C0027BFD895002DE395D895102D089505D0AF
:10E15C00002E29E027BFE89500C0022E27B720FD2E
:10E16C00FCCF202D08950E9466F9C801D901E4E086
:10E17C00F2E000E0008300E00183E4E0F2E000E084
:10E18C00028300E00383E4E0F2E000E0048300E0BB
:10E19C000583E4E0F2E000E0028700E00387E4E0BE
:10E1AC00F2E000E0048700E00587E4E0F2E000E044
:10E1BC00068700E0078700E00093140200E000935C
:10E1CC00150200E000930C02E4E0F2E00AEF10E02C
:10E1DC00028B138B00E00093C00000E412E42FE0EC
:10E1EC0030E0AC01BD010E94FAF80A950093C4001E
:10E1FC0000E412E42FE030E0AC01BD010E94FAF81B
:10E20C0001501040012F10E00093C50008E100936D
:10E21C00C10006E00093C200E4E00C9475F900E440
:10E22C000093900009E00093910007E010E0109338
:10E23C0099000093980002E004BD03E005BD09EFCE
:10E24C0007BD00E006BD02E005BB02E000936E00D6
:10E25C00089500E001B900E002B900E004B900EC57
:10E26C0005B900E007B900E008B900E00AB900EF11
:10E27C000BB90EE00DB900E00EB900E000BB00E0F8
:10E28C0001BB00E003BB00E004BB0895F89400E080
:10E29C000DBB00E00093690000E000936A0000E011
:10E2AC000DBB00E005BF00E00093740000E000939C
:10E2BC00750000E00FBF05B70093030200E005BF37
:10E2CC0015B7012F016005BF012F026005BF08952E
:10E2DC00DDDFBFDFA4DF00E016E920E030E043DF44
:10E2EC0003B1069506950370009302020895A89554
:10E2FC0084B704B7077F04BF00E000936000F9996E
:10E30C00FECF0FEF01BD0FE002BDF89A00B50A3A3F
:10E31C0021F40E94ABF10F3089F400E000BD0E94A3
:10E32C006EF10E942DF20091C6000E94BEF1009188
:10E33C0014020A30D1F70E94D3F7F7CFE0E0F2E0F5
:10E34C0000811181F801099508950CB102950F70A7
:10E35C0000950F7008950093C6001091C000212FF6
:10E36C0026FFFBCF1091C00010641093C0000895DD
:10E37C000091C000102F17FD05C00091C000102F98
:10E38C0014FF64C00091C600E4E0F2E022853385FE
:10E39C00F901E458FC4F0083009114020A3009F48F
:10E3AC0055C0009114020023D9F5E4E0F2E0028597
:10E3BC001385F801E458FC4F0081063161F400919B
:10E3CC001502039500931502E4E0F2E000E00287E9
:10E3DC0000E003870895009115020230E8F0E4E0B4
:10E3EC00F2E002851385F801E458FC4F00810130FE
:10E3FC0099F400E00093150201E000931402E4E0AC
:10E40C00F2E000E0048700E00587E4E0F2E00AEFC8
:10E41C0010E0028B138B089500E000931502089511
:10E42C00E4E0F2E0028513850F5F1F4F028713872C
:10E43C00E4E0F2E0028513850F3521E0120718F0B5
:10E44C000E942DF2089500E00E9407F808951FB76E
:10E45C00F89400E00093150200E000931402E4E04D
:10E46C00F2E000E0028700E003871FBF08959A9353
:10E47C008A9380E090E0E0E0F0E0EF3F0FEFF007F0
:10E48C0021F0000001963196F8CFE4E0F2E004812F
:10E49C001581012B49F1E4E0F2E002811381F801CE
:10E4AC00E25EFD4F00810E94B1F1E4E0F2E00281F6
:10E4BC0013810F5F1F4F02831383E4E0F2E00281AC
:10E4CC0013810F3521E0120730F0E4E0F2E000E0B8
:10E4DC00028300E00383E4E0F2E004811581015043
:10E4EC00104004831583D1CF729880E090E089911D
:10E4FC0099910895BC01A80100E084E090E0841794
:10E50C00950780F410E0FC01E25EFD4F208130E0C5
:10E51C0002271327F801EC5FFF4131E03BBF069166
:10E52C000196EDCFCB010895E4E0F2E000E0028724
:10E53C0000E00387E4E0F2E000E0048700E00587F8
:10E54C00E4E0F2E000E0028300E0038306E10093E4
:10E55C001E0206E100931F0206E10093200201E077
:10E56C000093210200917E030093220200917F030D
:10E57C000093230200910202005F009324020E9488
:10E58C00ABF10093250200E00093260200E000931B
:10E59C00270200E00093280208959A938A93C4DF1F
:10E5AC00E4E0F2E000811181F801E25EFD4F00E051
:10E5BC000083E4E0F2E0008111810F5F1F4F0083C4
:10E5CC001183E4E0F2E000811181F801E25EFD4F7D
:10E5DC0000E00083E4E0F2E0008111810F5F1F4F47
:10E5EC0000831183E4E0F2E000811181F801E25E26
:10E5FC00FD4F00E00083E4E0F2E0008111810F5F49
:10E60C001F4F0083118300910D02102F139510934F
:10E61C000D02E4E0F2E020813181F901E25EFD4F70
:10E62C000083E4E0F2E0008111810F5F1F4F008353
:10E63C001183E4E0F2E00081118102500093260284
:10E64C00E4E0F2E0808191810297892F90E0809341
:10E65C0027020AE010E04EDF00932802E4E0F2E02B
:10E66C000081118147DFE4E0F2E020813181F90182
:10E67C00E25EFD4F0083E4E0F2E0008111810F5F68
:10E68C001F4F00831183E4E0F2E000811181F80157
:10E69C00E25EFD4F04E00083E4E0F2E000811181D2
:10E6AC000F5F1F4F00831183E4E0F2E000811181C2
:10E6BC00F801E25EFD4F00E00083E4E0F2E000814F
:10E6CC0011810F5F1F4F00831183E4E0F2E00081A2
:10E6DC001181E4E0F2E004831583E4E0F2E000E071
:10E6EC00028300E00383E4E0F2E0068117810F5F10
:10E6FC001F4F06831783729ABADE899199910895F8
:10E70C00F999FECF1FEF11BD1FE012BD1AEA10BD23
:10E71C00FA9AF99AF999FECF18E0109360000895CF
:10E72C000E9460F9280101E000931C02E4E0F2E091
:10E73C0000811181F801E25EFD4F03EB0083E4E000
:10E74C00F2E0008111810F5F1F4F00831183E4E021
:10E75C00F2E000811181F801E25EFD4F07E00083D9
:10E76C00E4E0F2E0008111810F5F1F4F0083118301
:10E77C00E4E0F2E0008111814801E4E0F2E0008184
:10E78C0011810E5F1F4F0083118380E090E0843075
:10E79C0000E09007C8F48201080F191FF801E45833
:10E7AC00FC4F0081E4E0F2E020813181F901E25E6E
:10E7BC00FD4F0083E4E0F2E0008111810F5F1F4FF9
:10E7CC00008311830196E3CFF201E458FC4F808162
:10E7DC00F201E458FC4F9181F201E458FC4F628045
:10E7EC00F201E458FC4F738001E0601601E0700602
:10E7FC0090F0E4E0F2E000811181F801E25EFD4F5F
:10E80C0001E00083E4E0F2E0008111810F5F1F4F13
:10E81C00008311833BC08F3F0FE7900718F001E096
:10E82C000BBF02C000E00BBF880F991FA0E0B0E047
:10E83C00A615B70558F520E08C010E94A2F09801AE
:10E84C00022FE4E0F2E040815181FA01E25EFD4FDB
:10E85C000083E4E0F2E0008111810F5F1F4F008321
:10E86C001183232F30E0E4E0F2E000811181F80104
:10E87C00E25EFD4F2083E4E0F2E0008111810F5F46
:10E88C001F4F0083118312960296D2CFE4E0F2E080
:10E89C0000811181182D011B0250F401E25EFD4F25
:10E8AC000083E4E0F2E0A081B181A819B9091297C4
:10E8BC00AB2FB0E0F401E25EFD4FA183EAE00C94D3
:10E8CC006FF90E945CF9280101E000931C02E4E05E
:10E8DC00F2E000811181F801E25EFD4F09EA00834C
:10E8EC00E4E0F2E0008111810F5F1F4F0083118380
:10E8FC00E4E0F2E000811181F801E25EFD4F07E0F7
:10E90C000083E4E0F2E0008111810F5F1F4F008370
:10E91C001183E4E0F2E0008111816801E4E0F2E0AF
:10E92C00008111810E5F1F4F00831183F201E458A7
:10E93C00FC4FA081F201E458FC4FB181F201E45884
:10E94C00FC4FA280F201E458FC4FB38004E0400E6F
:10E95C0000E0501EC20101E0A01601E0B00690F0EC
:10E96C00E4E0F2E000811181F801E25EFD4F01E08C
:10E97C000083E4E0F2E0008111810F5F1F4F008300
:10E98C00118380C0AF3F0FE7B00718F001E00BBF59
:10E99C0002C000E00BBFAA0FBB1F4D0166247724F9
:10E9AC006A147B04A8F49D01F201E458FC4F008129
:10E9BC00F201E458FC4F11810E9499F002E0600EC4
:10E9CC0000E0701E129602E0400E00E0501EE8CFF0
:10E9DC0025E084010E9493F021E184010E9493F0D0
:10E9EC00E4E0F2E000811181F801E25EFD4F00E00D
:10E9FC000083E4E0F2E0008111810F5F1F4F008380
:10EA0C001183662477246A147B04E0F520E08401EA
:10EA1C000E94A2F09801AC01CA010196FA01E458D7
:10EA2C00FC4F408150E089010F7F10704017510757
:10EA3C0049F0E4E0F2E000811181F801E35EFD4F62
:10EA4C0002E00083AC01CA010196FA01E458FC4FC4
:10EA5C00008110E0A901452F50E00417150749F07B
:10EA6C00E4E0F2E000811181F801E35EFD4F02E089
:10EA7C00008302E0600E00E0701E02E0800E00E0F9
:10EA8C00901EC1CFE4E0F2E0008111811C2D011B2E
:10EA9C000250F601E25EFD4F0083E4E0F2E00081FB
:10EAAC0011810C191D0902501040012F10E0F601C4
:10EABC00E25EFD4F0183EEE00C946BF90E9466F967
:10EACC0001E000931C02E4E0F2E000811181F80106
:10EADC00E25EFD4F0FE90083E4E0F2E0008111817A
:10EAEC000F5F1F4F00831183E4E0F2E0008111817E
:10EAFC00F801E25EFD4F07E00083E4E0F2E0008104
:10EB0C0011810F5F1F4F00831183E4E0F2E000815D
:10EB1C001181D801E4E0F2E0008111810E5F1F4FFA
:10EB2C000083118300E00BBF80E090E0803000EEAA
:10EB3C00900710F411E001C010E00BB7002311F4A2
:10EB4C0001E001C000E0102B112389F023E08C01BF
:10EB5C000E9493F021E18C010E9493F08F3F0EEF05
:10EB6C00900710F001E00BBF80509F4FDFCF00E00B
:10EB7C000BBFE4E0F2E000811181F801E25EFD4F91
:10EB8C0000E00083E4E0F2E0008111810F5F1F4F91
:10EB9C0000831183E4E0F2E0008111811A2F011B44
:10EBAC000250FD01E25EFD4F0083E4E0F2E00081E3
:10EBBC0011810A1B1B0B02501040012F10E0FD01AC
:10EBCC00E25EFD4F0183E4E00C9475F9BC01202F4B
:10EBDC0031E030931C02E4E0F2E040815181FA0113
:10EBEC00E25EFD4F35E93083E4E0F2E04081518193
:10EBFC004F5F5F4F40835183E4E0F2E040815181ED
:10EC0C00FA01E25EFD4F37E03083E4E0F2E0408150
:10EC1C0051814F5F5F4F40835183E4E0F2E04081CC
:10EC2C0051818A01E4E0F2E0408151814E5F5F4FF7
:10EC3C0040835183E4E0F2E040815181FA01E25ECD
:10EC4C00FD4F34E43083E4E0F2E0408151814F5FCA
:10EC5C005F4F40835183E4E0F2E040815181FA013F
:10EC6C00E25EFD4F3EE13083E4E0F2E04081518111
:10EC7C004F5F5F4F40835183E4E0F2E0408151816C
:10EC8C00FA01E25EFD4F37E93083E4E0F2E04081C7
:10EC9C0051814F5F5F4F40835183E4E0F2E040814C
:10ECAC005181FA01E25EFD4F32E03083E4E0F2E0A4
:10ECBC00408151814F5F5F4F40835183E4E0F2E02C
:10ECCC0040815181302F431B4250F801E25EFD4FD1
:10ECDC004083E4E0F2E080819181801B910B0297EC
:10ECEC00892F90E0F801E25EFD4F8183CB010895FE
:10ECFC000E9465F9402E01E000931C02E4E0F2E072
:10ED0C0000811181F801E25EFD4F09EE0083E4E021
:10ED1C00F2E0008111810F5F1F4F00831183E4E04B
:10ED2C00F2E000811181F801E25EFD4F03E0008307
:10ED3C00E4E0F2E0008111810F5F1F4F008311832B
:10ED4C00E4E0F2E000811181D801E4E0F2E000811E
:10ED5C0011810E5F1F4F00831183E4E0F2E000810C
:10ED6C001181F801E25EFD4F4082E4E0F2E00081A7
:10ED7C0011810F5F1F4F0083118300910202005F0E
:10ED8C00E4E0F2E020813181F901E25EFD4F008385
:10ED9C00E4E0F2E0008111810F5F1F4F00831183CB
:10EDAC00E4E0F2E0808191818C010F5F1F4FE4E081
:10EDBC00F2E0008311830E94ABF1FC01E25EFD4F97
:10EDCC000083E4E0F2E000811181F801E25EFD4F86
:10EDDC000AE00083E4E0F2E0008111810F5F1F4F35
:10EDEC0000831183E4E0F2E000811181F801E25E1E
:10EDFC00FD4F01E00083E4E0F2E0008111810F5F40
:10EE0C001F4F00831183E4E0F2E000811181F801CF
:10EE1C00E25EFD4F02E00083E4E0F2E0008111814C
:10EE2C000F5F1F4F00831183E4E0F2E0008111813A
:10EE3C00F801E25EFD4F0EE50083E4E0F2E00081B4
:10EE4C0011810F5F1F4F00831183E4E0F2E000811A
:10EE5C001181F801E25EFD4F01E00083E4E0F2E095
:10EE6C00008111810F5F1F4F00831183E4E0F2E0FA
:10EE7C0000811181F801E25EFD4F0EE50083E4E0B4
:10EE8C00F2E0008111810F5F1F4F00831183E4E0DA
:10EE9C00F2E000811181F801E25EFD4F01E0008398
:10EEAC00E4E0F2E0008111810F5F1F4F00831183BA
:10EEBC0000910302E4E0F2E020813181F901E25E8D
:10EECC00FD4F0083E4E0F2E0008111810F5F1F4FE2
:10EEDC0000831183E4E0F2E000811181F801E25E2D
:10EEEC00FD4F00E00083E4E0F2E0008111810F5F50
:10EEFC001F4F00831183E4E0F2E0008111811A2F8F
:10EF0C00011B0250FD01E25EFD4F0083E4E0F2E0E4
:10EF1C00808191818A1B9B0B0297892F90E0FD01C8
:10EF2C00E25EFD4F818300E000930302E5E00C9468
:10EF3C0074F90E9464F9C801552444244394FC01DB
:10EF4C00E458FC4F0081FC01E458FC4F1181D801BE
:10EF5C008D01ECE0F1E0FBBFF1EE0C9420F9052DF6
:10EF6C00C7DE17C0052D32DE14C0A8DD12C08C011F
:10EF7C000C5F1F4FA6DC0DC08C010C5F1F4FD0DB4C
:10EF8C0008C0052DBDDB05C0A43600E0B00708F4B1
:10EF9C004424042DE6E00C9473F90E9465F900E01A
:10EFAC0000931C02E4E0F2E00BE010E0008311831C
:10EFBC0087E090E08C01BDDF402EFC01E458FC4F53
:10EFCC00A281B0E0FC01E458FC4F038110E0102F4B
:10EFDC0000E0A00FB11F14968A0F9B1F442041F034
:10EFEC00E4E0F2E0A489B58914978A179B0710F323
:10EFFC0000911C02002309F0D0DA29DAE5E00C9428
:10F00C0074F90E9466F9802F00911402005049F0A7
:10F01C000A9541F00A9509F450C0085009F48DC0C6
:10F02C008BC08BC0E4E0F2E0A485B585169708F49C
:10F03C0084C02091800330E00091810310E0102FF8
:10F04C0000E0200F311FE4E0F2E0248B358B26E04A
:10F05C0030E0082F8BD0012B71F100917C0310E074
:10F06C00E0910202F0E070960E171F0721F5E4E024
:10F07C00F2E0248935890EE511E0E4E0F2E0448504
:10F08C005585041B150B2017310798F4E4E0F2E0CA
:10F09C00A489B589179768F002E000931402E4E0A4
:10F0AC00F2E0A485B5851196E4E0F2E0A687B78777
:10F0BC0044C0CDD942C0CBD940C0E4E0F2E00685D3
:10F0CC0017850F5F1F4F06871787E4E0F2E0068570
:10F0DC001785E4E0F2E0248935890217130768F1FB
:10F0EC00E4E0F2E004891589F801E558FC4F008151
:10F0FC00043001F5E4E0F2E02489358922503040F7
:10F10C00082F34D0012BA1F00E94ABF110917D039C
:10F11C00101721F000917D030F3F41F400917F0304
:10F12C0000931D020AE00093140207C090D905C099
:10F13C008ED903C08CD901C08AD9E4E0F2E00485F1
:10F14C0015850F5F1F4F04871587E4E0F2E00485F7
:10F15C0015850E3521E0120730F0E4E0F2E000E016
:10F16C00048700E00587E4E00C9475F9792F082EEC
:10F17C00602FA90120E080E090E08417950788F4C7
:10F18C00022F10E0FC01E458FC4F208130E00227F4
:10F19C001327F801EC5FFF4131E03BBF269101964C
:10F1AC00ECCFFA01E458FC4F0081201719F401E070
:10F1BC0010E002C000E010E0802D972F08950000B1
:10F1CC008895FECF09E10DBF05E00EBFCAE1D7E07F
:10F1DC000E947EF9002311F00E9490F90E947DF1AB
:10F1EC000E94E5F80C94E5F8002411241001E0E2EB
:10F1FC00001F111F221F331FEA9572F0001C111CF7
:10F20C00221C331C041615062606370688F3041A2E
:10F21C00150A260A370AECCFA001B101009510950A
:10F22C0020953095089557914791179011FA279092
:10F23C0037900895F8DF041B150B20E030E000C078
:10F24C00B8F010FC17C047910790E00FF11F04179E
:10F25C00100540E02407340758F436F406910024D6
:10F26C00F101E01BF0090994E00FF11F2790379092
:10F27C00F101099411F4D6F7F1CF31960EF03196D5
:10F28C0050E060E070E047914B3F48F089F34F3F0E
:10F29C0029F04E3F11F07791679157914791041BDC
:10F2AC00150B260B370B39F318F3E7CFDA92CA920A
:10F2BC00BA92AA929A928A927A926A925A924A92A2
:10F2CC00BA93AA939A938A930895DD84CC84BB84D1
:10F2DC00AA84998488847F806E805D804C80BB81F9
:10F2EC00AA8199818881F0E0EC0FFD1FEF01089550
:10F2FC0001E0089520E02D9301501040E1F70895AE
:10F30C003BBF26912D93EF5FFF4F3F4F01501040B5
:10F31C00B9F7089544E051EE61E0FA01362F3BBF96
:10F32C0007911691FA01EE5FFF4F3F4F3BBFA7913C
:10F33C00B691FA01362FEC5FFF4F3F4F3BBF079062
:10F34C0017902690202D2129222921F0F001322D11
:10F35C00D7DF01C0CFDF495F5F4F6F4F11EE21E068
:0AF36C004B3051076207C8F2089504
:00000001FF
