:020000020000FC
:100000000C94261918951895189518951895189503
:10001000189518950C94A50A0C94D90A0C942B0BDE
:100020000C94760B189518951895189518951895A1
:100030000C94FC18189518951895189518951895FE
:1000400018951895189518950C94C20C0C948E0D53
:100050000C94580D189518950C94A117189518958F
:100060001895189518951895189518951895189528
:100070001895189518951895189518951895189518
:1000800018951895189518951895189500320175BA
:100090000F940E01A00E01AC0E01B80E01C40E01AA
:1000A000D00E01DD0E01E90E010D0F01540F0119F3
:1000B0000F01880E01310F013D0F01250F02F50ED2
:1000C00001010F01490FA25F0F126A0FFB00789424
:1000D0000895DF93CF93BF93AF939F938F93FF9236
:1000E000EF92DF92CF92BF92AF929F928F927F92C8
:1000F0006F925F924F92409088024F924090890297
:100100004F92E0919102F09192024DB65EB642821A
:100110005382C7ECD1E007E40DBF02E00EBF01E05F
:10012000009348020E94AD04002700934802E0912A
:100130009102F0919202028113811EBF0DBF0F90B8
:10014000009289020F90009288024F905F906F900A
:100150007F908F909F90AF90BF90CF90DF90EF9067
:10016000FF908F919F91AF91BF91CF91DF910895B3
:10017000E0919102F0919202EF2B59F2AACF0091F7
:100180004802039500934802013009F008952F9129
:100190003F914DB75EB76C2F7D2FC7ECD1E007E4E0
:1001A0000DBF02E00EBF7F936F935F934F933F931A
:1001B0002F930895009148020A950093480209F090
:1001C00008952F913F914F915F91CF91DF914DBF56
:1001D0005EBF3F932F930895BA93AA932897A02FB9
:1001E000B12F0C831D830A831B83E1E9F2E00081B8
:1001F00011810E831F83F8940D911C911197088330
:100200001983CD93DC9308811981012B29F0A881F2
:10021000B12F1296CD93DC93A1E9B2E0ED91FC9160
:10022000C483D583A1E9B2E0ED91FC9127830E94BC
:100230007D052896A991B9910895BA93AA93289714
:100240000C831D830A831B83E1E9F2E060817181E5
:100250006E837F83F894E02FF12F60817181688332
:100260007983C083D18308811981012B29F0A8816A
:10027000B12F1296CD93DC93E1E9F2E00081F18198
:10028000E02F46875787E1E9F2E04081F181E42FD2
:10029000C483D5832460E1E9F2E00081F181E02F9D
:1002A00027830E947D052896A991B99108952497E6
:1002B0000A831B8300E0088309830C2F1D2F0E94F3
:1002C0001D012496089524970A831B8300E0088368
:1002D00009830C2F1D2F0E94EC0024960895BA93D9
:1002E000AA93A02FB12F07C0ED91F12F119706818E
:1002F00017810E947A02F8940D911C911197012B9D
:1003000099F700918902002309F47894A991B99191
:1003100008954FB7F894E2E8F2E00081118122815C
:1003200033814FBF0895BA93AA93F894E22FF32F25
:100330001489102B148B0781087F083061F4A48185
:10034000B5811496ED91FC910281102321F0022FCA
:10035000132F0E947A0200918902002309F47894F5
:10036000A991B99108954A92BA93AA939A938A93BC
:10037000402E822F932F213000E090079CF0F894BC
:100380000E948901080F191FA1E9B2E0ED91FC91CB
:100390002489242139F4402F512F28E0042D10E026
:1003A0000E945701F894A1E9B2E0ED91FC91048913
:1003B00010E0148B10918902112309F4789489912B
:1003C0009991A991B99149900895BA93AA93F894F3
:1003D000A1E9B2E0ED91FC911489102321F428E009
:1003E00010E00E946301F894A1E9B2E0ED91FC9164
:1003F000048910E0148B10918902112309F4789478
:10040000A991B99108955B2F6A2F392F482F202F7A
:10041000212B21F4E1E9F2E000811181E02FF12F9D
:1004200080899189A289B389082F092B41F00D9108
:100430000A3A19F0082F192F04C00197C1F700E0FC
:1004400010E0842F932FA62FB52F08959A938A93A7
:10045000202F212B21F4E1E9F2E000811181E02F2E
:10046000F12F80899189CFDF801B910B082F192FE5
:10047000899199910895E02FF12F01C02193415066
:100480005040E2F70895021B130B0895F894E8E832
:10049000F2E000810A95008331F400918D0200237F
:1004A00011F00E94690000918902002309F47894F8
:1004B00008955B2F6A2FA02FB12F1496ED91FC9118
:1004C0002E2F2F2BA1F0A081B181228133814A2FC1
:1004D0004B2B21F012962D933C931397E22FF32F81
:1004E000A083B18320E0E02FF12F24832583A62F62
:1004F000B52F0895BA93AA93A02FB12FF894E02FA7
:10050000F12F0781037007830A2FD3DFEA2FFB2F18
:100510000781002309F07CC0E3E9F2E0008111814A
:10052000A017B10721F000811181012B89F4E3E9C3
:10053000F2E0A083B18300918802002319F40E94A5
:100540006900E9CFEDE8F2E0008102600083E3CFCB
:100550000081F181E02F0681EA2FFB2F268102170F
:1005600030F3E3E9F2E00081F181E02F068120170A
:1005700091F60A2F1B2FE02FF12F00811181302FD0
:10058000312B49F2E02FF12F3681231721F6E3E9D1
:10059000F2E0408151810417150769F7C8CFBA937B
:1005A000AA93E02FF12F46812FE832E002C02A2FD4
:1005B0003B2FE22FF32FA081B1815A2F5B2B29F023
:1005C000EA2FFB2F5681451790F3F894E02FF12F77
:1005D000A083B183E22FF32F00831183E02FF12F4B
:1005E000248735872A2F2B2B79F0EA2FFB2F0487BE
:1005F00015872681241721F4E02FF12F218501C0D2
:1006000020E0E02FF12F20872781222309F472DFD9
:1006100000918902002309F47894A991B991089571
:10062000CA92BA92AA929A928A927A926A925A92AA
:100630004A92BA93AA939A938A93A02FB12FA22E8B
:10064000B32EC42E862E972E8D859E854F84588876
:10065000698845E150E020E00EDFE8E8F2E0008143
:1006600003950083EA2FFB2F61860A2D0B2911F0D9
:10067000A286B386828B938B408A518A442D552D56
:100680002AEA082F192FF7DEEA2FFB2FC682840DE6
:10069000951D489748E150E020E0082F192FEBDE28
:1006A00000E0E82FF92F0083018300E0048B07E6C8
:1006B000058B968A878A082F192F0A501040569466
:1006C0004794569447945694479404191509028BFD
:1006D000138B0197EA2FFB2F828393830A2F1B2F03
:1006E0005EDFD4DE89919991A991B9914990599091
:1006F0006990799089909990A990B990C99026961F
:100700000895BA93AA93F894EDE8F2E000810E7F81
:100710000083E2E8F2E000811181228133810056FA
:10072000104FE6E8F2E00083118327C0E5E9F2E02C
:1007300000811181E7E9F2E000831183E0919702E3
:10074000F12F00811181E5E9F2E00083118300E0DF
:10075000A7E9B2E0ED91FC910087A7E9B2E0ED9145
:10076000FC91048305837894A7E9B2E0ED91FC91B4
:100770000281F381E02F0995F894E5E9F2E0008128
:100780001181012BE1F0E2E8F2E000811181228188
:100790003381202F312FA5E9B2E0ED91FC91048146
:1007A000158171DE013010400CF2A5E9B2E0ED9147
:1007B000FC9104811581E6E8F2E0008311837894CE
:1007C000EFE8F2E016C0E6E8F2E020813181EA2F9E
:1007D000FB2F0685178557DE112342F4EA2FFB2FE6
:1007E00006851785E6E8F2E0008311837894EA2F06
:1007F000FB2FA081B1810A2F0B2B61F1F894E3E963
:10080000F2E000811181012B59F0EA2FFB2F2681A4
:10081000E3E9F2E00081F181E02F06812017D0F0BA
:10082000EA2FFB2F07810770043001F7E2E8F2E0BE
:100830000081118122813381202F312FEA2FFB2F5C
:100840000685178520DE013010400CF0BCCF0A2F42
:100850001B2F50DEA991B9910895BA93AA93F894E9
:10086000E1E9F2E000811181EDE8F2E020812B7FE7
:1008700020837894202F212B09F456C0E02FF12FEC
:1008800020813181232B09F44FC04681E081F32F71
:100890002681241709F048C0E02FF12F208102C0E3
:1008A0002E2F3F2FA22FB32FED91FC915E2F5F2BA8
:1008B00019F056815417A1F3F894E3E9F2E040816E
:1008C00051814017510741F4E02FF12F40815181B0
:1008D000E3E9F2E040835183E02FF12F4485558511
:1008E000A02FB12FED91FC91A42FB52FED93FC9388
:1008F00044875587E02FF12F24873587A22FB32F08
:10090000ED91FC91A02FB12FED93FC934E2F4F2B27
:1009100011F004871587E22FF32F008311830185DF
:100920000087789482D0F8947894A991B991089529
:100930003B2F2A2FE3E9F2E0A081B1811496ED91DB
:10094000FC91A481B58112960D911C91E1E9F2E030
:1009500000831183A22FB32F0895BA93AA9301E0C5
:100960000093880200E000938902789400918C0241
:10097000002359F000918B02A1E9B2E0ED91FC91C6
:10098000008700918D0202FD68DFF894EDE8F2E047
:10099000008100FF08C07894B4DEF894EDE8F2E03E
:1009A000008100FDF8CF00810D7F0083E3E9F2E0D4
:1009B00000811181012B41F1A3E9B2E0ED91FC919D
:1009C0000781002311F0B4DF08C0E3E9F2E0008101
:1009D0001181E1E9F2E000831183A1E9B2E0ED9138
:1009E000FC91A289B3890C910A3A21F008E710E042
:1009F0000E94B30CA1E9B2E0ED91FC910085009357
:100A00008B0200938C020EC000E000938B020093D7
:100A10008C02E1E9F2E0008301830093880278947C
:100A20000E94FB18A991B9910895BA93AA938A9349
:100A30002AC0E6E8F2E0208131810A2F1B2F23DD56
:100A4000112322F4E6E8F2E0A083B1838B7F8031AA
:100A500079F4E3E9F2E0A081B1811496ED91FC9183
:100A6000A481B5811296ED91FC9107810023C9F014
:100A7000A3E9B2E0ED91FC9100811181E3E9F2E09C
:100A8000008311837894E3E9F2E000811181012B66
:100A900041F0F894A3E9B2E0ED91FC9187818823BD
:100AA00029F478948991A991B991089582FB76F6F9
:100AB000E3E9F2E00081F181E02FA685B785E2E865
:100AC000F2E00081118122813381202F312F0A2F02
:100AD0001B2FD9DC013010400CF0ABCFE3E9F2E082
:100AE0000081118107DDE3E9F2E00081F181E02F6F
:100AF0000781002309F0AACFD4CFE8E8F2E0008113
:100B000003950083789491DFF8940E946900BECC2D
:100B100001E00093880200938A020FEF1FE3E6E8EA
:100B2000F2E000831183BFCCBA93AA939A938A937D
:100B3000802F912F00918802002349F078940E9421
:100B40008901282F392F9FDC11237AF4F8CFF894EC
:100B5000A1E9B2E0ED91FC918687178704E0A1E955
:100B6000B2E0ED91FC910783C8DF89919991A99139
:100B7000B99108959A938A93802F912F0E948901A9
:100B8000080F191FD1DF899199910895E8E8F2E0E3
:100B9000208123952083E02FF12F24812A9524831F
:100BA00011F40E946F010C944602BA93AA939A938F
:100BB0008A93802F912FE9E9F2E0A081B1810A2F79
:100BC0000B2BB1F0EA2FFB2F0481002351F002819F
:100BD00013810817190729F401E004830A2F1B2F3A
:100BE000D5DFEA2FFB2FA581B6810A2F0B2B51F7FA
:100BF00089919991A991B9910895BA93AA939A93D9
:100C00008A93802F912FE9E9F2E0A081B1810A2F28
:100C10000B2B71F0A817B90721F40FEA10E00E941E
:100C2000B30CEA2FFB2FA581B6810A2F0B2B91F76E
:100C300005ED15E0EBE9F2E00083118347E050E0B9
:100C400020E0082F192F0E943B02F894E9E9F2E016
:100C500000811181E82FF92F05831683E9E9F2E07D
:100C60008083918300918902002309F47894C0CF96
:100C7000BA93AA938A93A02FB12FE8E8F2E00081FB
:100C800003950083EA2FF12F04810023B1F4E1E9F9
:100C9000F2E000811181EA2FFB2F02831383EA2FF8
:100CA000FB2F048103950483802F0E944602082FA6
:100CB00010E08991A991B991089502811381E1E928
:100CC000F2E0208131810217130749F320E10A2F56
:100CD0001B2F0E94EC00EA2FFB2F04810023B1F7A9
:100CE000D6CF54CFE8E8F2E00081039500837894F2
:100CF000F8940E94BF0000918902002309F47894BF
:100D0000F894E2E8F2E00081118122813381409180
:100D10008A0250E060E070E0400F511F621F731FB5
:100D20004083518362837383E6E8F2E0208131815E
:100D3000042F152F0E94430211232AF0EDE8F2E060
:100D400000810160008300918B02002351F0EBE8E9
:100D5000F2E00A95008329F4EDE8F2E000810460F6
:100D6000008300918902002309F47894E0E8F2E01E
:100D7000008111810F5F1F4F00831183F8940E943F
:100D8000DA00F89400918802013031F400918D026C
:100D9000002311F00E94B800E8E8F2E000810A9513
:100DA000008308955A924A92BA93AA939A938A9387
:100DB000A02FB12F822F932F442E552E49E050E0C3
:100DC00020E00E943B02EA2FFB2F4682578244829A
:100DD00055828283938389919991A991B991499080
:100DE00059900895BA93AA93A02FB12FF89418960A
:100DF0000C911897002319F00A2F83D0F8941696B7
:100E00000D911C9113970D931C9315970A2F1B2F6F
:100E100003D0A991B99108957A926A925A924A920E
:100E2000BA93AA939A938A93A02FB12FE02FF12F10
:100E30000085002309F05CC0848195818130904059
:100E40000CF456C00E948901EA2FFB2F24813581C2
:100E5000200F311F24833583822F932FF89401E0D4
:100E60000087E5E9F2E000811181012B29F400E01F
:100E70000D930C9311971DC04E2E5F2E6080712E26
:100E8000E62DF72D24813581082F192F0E9443026A
:100E9000013010404CF0462C572CE62DF72D608089
:100EA0007180062D072961F76D927C921197E42DD0
:100EB000F52DA083B183E6E8F2E020813181A5E938
:100EC000B2E0ED91FC91048115810E94430211234F
:100ED00052F4A5E9B2E0ED91FC9104811581E6E8B8
:100EE000F2E00083118300918902002309F47894D1
:100EF00089919991A991B991499059906990799066
:100F00000895BA93AA93A02FB12FF894E02FF12F50
:100F100000850023F9F000E000870E948901EA2F94
:100F2000FB2F24813581201B310B2483358305E978
:100F300012E002C0022F132FE02FF12F2081318108
:100F4000232B41F020812A173B07A1F72D913C91DB
:100F50002083318300918902002309F47894A991B8
:100F6000B9910895279706E508830DE209839E014C
:100F70002E5F3F4F0BE10E94870C00E00D8320E0C5
:100F80008E01A5D200EA1FE00E94BA059E010091E1
:100F90001A030E94870C098108830A81098300E2F1
:100FA0000A839E012D5F3F4F00911B030E94870C17
:100FB00000E00E8320E08E018AD201E00E94E5016C
:100FC00001E000931E030AEF10E00E94BA0500E062
:100FD00000931E03F2CF0DE710E00E94BA050FE761
:100FE00000931D0307E711E00E94BA0500E000939B
:100FF0001D03F1CFBA93AA93ADE9B2E006C01091F8
:1010000065001F7E10936500018301E010E00E94DF
:10101000BA0500919F020A9521F00F5009F456C0BD
:1010200088C000916500007F009365002C9110E05E
:10103000022F000F111FEBE5F3E0E00FF11F243149
:1010400008F500A5009502BBC79AC798008107FF65
:1010500007C040911D0340234F77409542BB03C01A
:101060000F77009502BB03E0029FE6EAFAE330E067
:10107000E00DF11D3BBF06910BBB3196069105BB00
:10108000319616C00081009502BBC79AC7980FE73A
:1010900002BB03E0029FE6EAFAE330E0E00DF11D57
:1010A000FC973BBF06910BBB31960691319605BB71
:1010B000069110916500102B109365000C9103951B
:1010C0000C930C31B0F100E00C9333C000E00BBB8B
:1010D00005BB00916500007F009365002C9110E036
:1010E000022F000F111FEBE5F3E0E00FF11F00816D
:1010F00007FF03C010911D030123000F009502BBE1
:1011000003E0029FE6EAFAE330E0E00DF11D3BBFA9
:1011100006910BBB3196069105BB31960691109155
:101120006500102B109365000C9103950C9304310E
:1011300050F60091320A023059F410911D03112328
:101140001091650011F0106101C01F7E10936500C1
:10115000FD011181011709F458CF102F002309F464
:101160004ECF1A9519F01A9509F04ECF10916500DF
:10117000106148CFBA93AA939A938A936497802F69
:101180000091310A081761F5882351F1DE01EDE184
:10119000FAE004E111911D930A95E1F700919F0295
:1011A000003191F4FE0134E100E0108117FD01E00F
:1011B00027E0000F108110FD0160169510832A951D
:1011C000C1F701933A9581F7FE01ABE5B3E004E185
:1011D000219130E02D933D930A9509F4C3C0F8CFD7
:1011E00008E0809FABE5B3E0A00DB11DFD01E85321
:1011F000FF4F708190E020E02717B0F430E0FD0150
:10120000E20FF31FE753FF4F40810FE0049FF0010F
:10121000EA5DFC4C30E03BBF0691900F2395271709
:1012200008F49395273040F3953110F001E001C0A8
:1012300000E014E120E0271708F040C01123F1F18D
:1012400030E0FD01E20FF31FE753FF4F30813032F2
:1012500038F1303828F5402FE5E0E49F46E055E3CB
:1012600060E0400D511DEFE0E39F400D511DFA017C
:10127000E05EF1406BBF969100240EC01A951124D8
:10128000FA01E00DF11DEF5DF1401690FE013324EF
:10129000E10FF31D10820394091610F4112371F766
:1012A0002395271740F4112331F01A9530E0FE0101
:1012B000E10FF31F3083273008F4BDCF112319F05D
:1012C000212F8E01D7D000919F02003191F4FE01B1
:1012D00034E100E0108117FD01E027E0000F1081EC
:1012E00010FD0160169510832A95C1F701933A9578
:1012F00081F7FE01ABE5B3E004E1219130E02D93ED
:101300003D930A95D1F700919F020130A9F402EEB6
:101310001AE320E04BE653E09BE0BE01F8012BBF4F
:1013200007908F01600D731FFB016081FA016193CB
:101330003193AF019A9589F78823A1F40091320A7D
:101340000230EBE5F3E004E139F41081106810831A
:1013500032960A9539F0F9CF10811F7710833296B3
:101360000A95D1F7649689919991A991B9910895B7
:10137000BA93AA93382E249710919F02113009F046
:1013800074C010E026E0209F6BE573E0600D711DD6
:10139000FB01E452FA4F5081FE0124E011932A959B
:1013A000E9F720E040E0451708F04BC0FB01E40FEF
:1013B000F11FE352FA4F8081803280F0803870F460
:1013C000282E8FE0829DF001E05DFC4C30E03BBFB9
:1013D0000690FE01E20FF11F00824395222369F47B
:1013E000FB01E40FF11FE452FA4F30813C3211F05F
:1013F0003E3219F4388130683883451788F4FB0190
:10140000E40FF11FE452FA4F31813C3211F03E32C9
:1014100039F4FE01E20FF11F3081306830834395CB
:101420002395243070F4453008F4BDCFDE011396C7
:1014300033E0FD0142914C93108311973A95C9F71F
:101440002395243098F3FE01A3E8B3E0000F111FA9
:10145000000F111F000F111FA00FB11F04E02191F9
:1014600030E02D933D930A95D1F72496832DA991D1
:10147000B99108950D01243158F4D80170E0F801B4
:10148000E20FF71F34E1321B41914D933A95E1F79A
:1014900060E0222361F030E0462F50E0419550405B
:1014A000F801E40FF51F338B63956217A0F3D001A9
:1014B00008958A93802F00919F02013021F400E06B
:1014C00057DF01E055DF082F55DE89910895BA9363
:1014D000AA938A93D801822F0E94F91900932304BA
:1014E0000C9100932404FD010181009325040281E5
:1014F00000932604038100932704048100932804A9
:1015000005810093290400919F02002319F00A9598
:1015100049F00DC000E00093430700935509009384
:10152000B90905C000E00093370900933D09809395
:10153000320A00E00093330A01E00093340A00E02D
:1015400019DE8991A991B9910895BA93AA939A93B2
:101550008A93FA93EA933A922A921A920A927A9387
:101560006A935A934A933A932A931A930A938FB79A
:101570009BB7A8E8B2E00C9103950D930C910395ED
:101580000C93F8940E94BF000C91002309F4789406
:1015900000911E03002329F424EF32E001E00E94B1
:1015A0009301F8940E94DA000C910A950C930E9125
:1015B000EFC0BA93AA939A938A93FA93EA933A92D2
:1015C0002A921A920A927A936A935A934A933A9376
:1015D0002A931A930A938FB79BB7A8E8B2E00C91AD
:1015E00003950C93FD01018103950183F8940E94FA
:1015F000BF00FD010181002309F4789400911E03CE
:10160000002341F500919F020A9511F00F50E9F473
:101610000091330A0023B1F40091320A023019F428
:1016200001E00093320AEBE5F3E004E110811F775B
:10163000108332960A95D1F7EFE1F3E00081026062
:10164000008303C000E00093330A24EF32E001E09E
:101650000E94930195C0BA93AA939A938A93FA939E
:10166000EA933A922A921A920A927A936A935A9336
:101670004A933A932A931A930A938FB79BB7A8E891
:10168000B2E00C9103950C93FD0101810395018358
:10169000F8940E94BF00FD010181002309F47894B1
:1016A00000911E03002309F500919F020031C1F44F
:1016B0002091330A00E02395243608F020E0F0E082
:1016C000E22FE154FC4F1081113019F42093330ABA
:1016D00004E60395043678F30091330A0E94590A10
:1016E00024EF32E001E00E9493014AC0BA93AA932A
:1016F0009A938A93FA93EA933A922A921A920A92C6
:101700007A936A935A934A933A932A931A930A9331
:101710008FB79BB7A8E8B2E00C9103950C93FD013D
:10172000018103950183F8940E94BF00FD010181AE
:10173000002309F4789400911E03002309F5009119
:101740009F020031C1F40091330A10E00A9504367B
:1017500008F003E6F0E0E02FE154FC4F2081213057
:1017600019F40093330A14E61395143678F30091B4
:10177000330A0E94590A24EF32E001E00E949301EB
:10178000F8940E94DA00FD0101810A9501830C9111
:10179000013031F400918D02002311F00E94B80055
:1017A0000C910A950C939BBF8FBF099119912991B8
:1017B000399149915991699179910990199029909C
:1017C0003990E991F99189919991A991B9911895D7
:1017D0000E9488050E94EF180E94D41709E013E0C8
:1017E0000E94FD0502E010E01A930A9308EC1A9398
:1017F0000A9307EF1BE01A930A936FED7DE046E929
:1018000029E432E000EA12E00E94100348EC50E0C4
:1018100029ED3DE000E113E00E94D20600E113E073
:101820000E940C0702E010E01A930A9308E71A934B
:101830000A9307E31DE01A930A936BEE77E048E7FB
:1018400020E532E00FED12E00E94100302E010E00C
:101850001A930A9306E91A930A9307E71EE01A936C
:101860000A9362EB77E04EE626E532E004EF12E001
:101870000E94100300919F020A9511F00F50A1F4ED
:1018800002E010E01A930A9308EC1A930A930FEA05
:101890001DE01A930A936AEF77E04EEB2BE532E0F6
:1018A0000AEC12E00E94100302E010E01A930A937F
:1018B00008E71A930A930FEB1CE01A930A936AE65F
:1018C0007CE042E32BE632E005EB12E00E941003DD
:1018D0000C94890004E610E00E94BA05A8950FE177
:1018E00001BD0FE001BDA89504EF11E00E94BA050B
:1018F000A895FACF01E010E00E947C1700931A032C
:1019000002E010E00E947C1700931B0308957B2FD8
:101910002A2E592F682F902FD90144E60E9438199A
:10192000802F805D8C9314E6019F90194AE0092F67
:101930000E943819102F105DF90111832AE0029FCF
:101940009019905D9283803311F400E20C93103370
:1019500029F40C91003211F400E20183862F952FB7
:10196000A22DB72F0895E8E8F2E020812395208387
:1019700020E02183789400938E0200918E02002350
:10198000E1F70895BA93AA939A938A93FA93EA9304
:101990003A922A921A920A927A936A935A934A93A3
:1019A0003A932A931A930A938FB79BB7E8E8F2E029
:1019B000008103950083018103950183F8940E94BF
:1019C000BF00E8E8F2E00181002309F478940BB14C
:1019D0000BB15F9B42C0E1E2F3E00CB1A485B58599
:1019E00026853785A20FB31F0C9304890A30A9F10D
:1019F000002329F5A485B58506851785A00FB11F9D
:101A00000C910230058931F40395058B00E00687BF
:101A1000078723C0023000E0058BF8F001E0048B5B
:101A200000E010E0008B018B0AEF068B178B068518
:101A300017850F5F1F4F0687178700E00CC00685CC
:101A400017850F5F1F4F06871787113000E018F0CA
:101A50000E946A1702C00E946316F8940E94DA007E
:101A6000E8E8F2E001810A9501830081013031F458
:101A700000918D02002311F00E94B800E8E8F2E026
:101A800000810A9500839BBF8FBF0991199129910D
:101A900039914991599169917991099019902990B9
:101AA0003990E991F99189919991A991B9911895F4
:101AB000BA93AA939A938A93FA93EA933A922A92C0
:101AC0001A920A927A936A935A934A933A932A9370
:101AD0001A930A938FB79BB7A8E8B2E00C910395CD
:101AE0000D930C9103950C93F8940E94BF000C91F8
:101AF000002309F47894F8940E94DA000C910A9576
:101B00000C930E91013031F400918D02002311F0FD
:101B10000E94B8000C910A950C93B5CFBA93AA9382
:101B20009A938A93FA93EA933A922A921A920A9291
:101B30007A936A935A934A933A932A931A930A93FD
:101B40008FB79BB7E8E8F2E000810395008301813D
:101B500003950183F8940E94BF00E8E8F2E0018158
:101B6000002309F478945D9B23C0E1E2F3E0068151
:101B70001781012BD9F0A081B18104811581A00FBB
:101B8000B11F0C910CB9048115810F5F1F4F0483A5
:101B90001583073920E0104010F024832583068147
:101BA0001781015010400683178302C055981A9878
:101BB00054CF55981A9800E113E00C9481078A934A
:101BC0000AC009E013E00E94380600E023D009E0D3
:101BD00013E00E94710680E020E137E201E00E94FC
:101BE000B30100FB76F30023B9F7082F83950D307E
:101BF00068F000912003002341F422E005E712E0A1
:101C00000E94670A01E00093200380E000E00E9448
:101C10006A17E2CF5A924A92BA93AA939A938A93F6
:101C2000A02F0DE10A9F21E2422E23E0522E400C0C
:101C3000511C00E0F201048F06E010E002831383E0
:101C400084E090E09C010A2F2AD0B02FF201048595
:101C50001585080F191FF801E181F0E032968E0F0B
:101C60009F1F00E010E00E94BA05BB2341F0F20183
:101C7000008D118D025010408017910718F3F2016A
:101C8000048D002311F00A2F82D10A2F0E946A17B7
:101C900089919991A991B9914990599008957A9211
:101CA0006A925A924A92BA93AA939A938A93A02FCD
:101CB000C901B1E00DE10A9F21E2422E23E0522E3C
:101CC000400C511CF20104851585080F131FF80103
:101CD000028110911B03011761F40091200300237E
:101CE00029F020E00BE712E00E94670A00E0009371
:101CF0002003F20144845584480E591EF20160808D
:101D000077248301ECE8F0E0FBBFF0E00C94761957
:101D1000F201028110911B03011709F0FBC0039629
:101D20009C010A2F65D5F6C0F201028110911B03B8
:101D3000011709F0EFC003969C010A2F96D5EAC05F
:101D4000F201028110911B03011709F0E3C0039611
:101D50009C010A2FDDD5DEC0F201028110911B0328
:101D6000011709F0D7C003969C010A2F10D6D2C0E4
:101D7000F201028110911B03011709F0CBC00396F9
:101D80009C010A2F2CD6C6C0F201028110911B03C0
:101D9000011709F0BFC003969C010A2F4DD6BAC0A7
:101DA000F201028110911B03011709F0B3C0EFE1AA
:101DB000F3E000810D7F0083ADC0F201028110913C
:101DC0001B03011709F0A6C003969C010A2F4DD6EC
:101DD000A1C0F201028110911B03011709F09AC002
:101DE00003969C010A2F9BD695C0F20102811091A7
:101DF0001B03011709F08EC003969C010A2FBCD665
:101E000089C0F201028110911B03011709F082C001
:101E100003969C010A2FD0D67DC0F2010281109159
:101E20001B03011709F076C003969C010A2FE5D623
:101E300071C0F201028110911B03011709F06AC001
:101E400003969C010A2F0BD765C0F2010281109105
:101E50001B03011709F05EC003969C010A2F25D1D0
:101E600059C0F201028110911B03011709F052C001
:101E700003969C010A2F6AD14DC0F2010281109194
:101E80001B03011709F046C003969C010A2FE7D1F6
:101E900041C0F201028110911B030117D9F503968D
:101EA0009C010A2FF0D136C0F201028110911B0370
:101EB000011781F503969C010A2F2DD22BC0F20148
:101EC000028110911B03011729F503969C010A2F2B
:101ED00089D320C0F201028110911B030117D1F4B4
:101EE00003969C010A2FDED615C00AE0601690F416
:101EF00002E06016770469F400911F0301FF09C036
:101F000003969C010A2F1AD3EFE1F3E000810E7FC4
:101F10000083B0E00B2F89919991A991B9914990D3
:101F200059906990799008953B2F4A2F202F0DE109
:101F3000029FA1E2B3E0A00DB11D00E010E0FD01A1
:101F400006870787008B018B0483058302E0ED91F0
:101F5000FC9111970083ED91FC911B960183ED910B
:101F6000FC911D970181ED91FC91119702830091E5
:101F70001A03ED91FC9111970383ED91FC91119758
:101F80001483ED91FC911583A42FB32F0895BA9378
:101F9000AA938A93802FC8DF0DE1089FA1E2B3E0E6
:101FA000A00DB11D20E00D911C911197FD01428102
:101FB0005381040F151FF8012083FD010281138155
:101FC0000F5F1F4F028313830D911C911197FB2FFD
:101FD00042815381040F151FF8012083FD01028106
:101FE00013810F5F1F4F028313830281ED91FC91D8
:101FF00011970583FD010381ED91FC9111970483F5
:10200000FD0122813381082FD7D62D913C91119764
:10201000FD0142815381240F351FF9010083FD0129
:10202000028113810F5F1F4F0283138323E00D9101
:102030001C911197FB2F42815381040F151FF8014A
:102040002083FD01028113810F5F1F4F02831383E1
:1020500020E00D911C911197FB2F42815381040FB9
:10206000151FF8012083FD01028113810F5F1F4FAF
:1020700002831383028106831783248325830085CB
:1020800011850F5F1F4F00871187882351F400E1EE
:1020900013E00E94F2061A9A04E110E00E94BA05C9
:1020A000559A8991A991B99108951D01BC01202FDC
:1020B0000DE1029FE1E2F3E0E00DF11D01E0048F8C
:1020C00004E5A081B18122813381A20FB31F0C935B
:1020D000028113810F5F1F4F0283138302819801D6
:1020E0002F5F3F4F2283338320911B03A081B18157
:1020F0004281A40FB31F2C93228133812F5F3F4F66
:102100002283338380E090E0DC01AA5CB54F2C9100
:10211000A081B18142815381A40FB51F2C932281EC
:1021200033812F5F3F4F228333830196883220E033
:10213000920754F34281401B4A9520813181200F40
:10214000311FF9014083CB01D10108956A925A925F
:102150004A92BA93AA939A938A9366246394202FFF
:102160000DE1029FA1E2B3E0A00DB11DFD01648E5F
:1021700022E50D911C911197FB2F42815381040F91
:10218000151FF8012083FD01028113810F5F1F4F8E
:10219000028313838281912F082F0F5F1F4F0283C9
:1021A000138344245524F201EA5CF54F2081820117
:1021B0000D5F1F4F0E948E17460C00E0501E08E274
:1021C000401600E050067CF34424552482010D5F44
:1021D0001F4F0E947C17F201EA5CF54F1081011736
:1021E00009F0662401E0400E00E0501E08E24016AF
:1021F00000E050065CF320911B030D911C91119798
:10220000FD0142815381040F151FF8012083FD0158
:10221000028113810F5F1F4F028313830D911C9165
:102220001197FB2F22813381020F131FF801608267
:10223000FD01028113810F5F1F4F0283138302810F
:10224000081B0A95ED91FC91E80FF91F0083899115
:102250009991A991B99149905990699008956A927C
:102260005A924A92BA93AA939A938A936624639451
:10227000202F0DE1029FA1E2B3E0A00DB11DFD01F1
:10228000648E23E576CFBD01202F0DE1029FE1E2B0
:10229000F3E0E00DF11D01E0048F08E5A081B181BC
:1022A00022813381A20FB31F0C93028113810F5F30
:1022B0001F4F02831383028198012F5F3F4F2283B8
:1022C000338320911B03A081B1814281A40FB31FEE
:1022D0002C93228133812F5F3F4F228333832AE067
:1022E00030E0A081B18142815381A40FB51F3C939E
:1022F000428153814F5F5F4F428353832A9581F719
:102300004281401B4A9520813181200F311FF90104
:102310004083DB0108951D01202F0DE1029FA1E202
:10232000B3E0A00DB11D01E0FD01048F2FE40D917C
:102330001C911197FB2F42815381040F151FF80147
:102340002083FD01028113810F5F1F4F02831383DE
:10235000028198012F5F3F4F2283338340911B03FB
:102360002D913C911197FB2F62817381260F371FAE
:10237000F9014083FD01228133812F5F3F4F22838A
:1023800033834BE12D913C911197FB2F6281738137
:10239000260F371FF9014083FD01228133812F5F12
:1023A0003F4F2283338340919F022D913C9111979F
:1023B000FB2F62817381260F371FF9014083FD01D6
:1023C000228133812F5F3F4F228333834FEF2D9143
:1023D0003C911197FB2F62817381260F371FF90102
:1023E0004083FD01228133812F5F3F4F228333835E
:1023F00040E02D913C911197FB2F62817381260F54
:10240000371FF9014083FD01228133812F5F3F4F48
:102410002283338346E92D913C911197FB2F6281F2
:102420007381260F371FF9014083FD01228133811B
:102430002F5F3F4F2283338340E02D913C911197D2
:10244000FB2F62817381260F371FF9014083FD0145
:10245000228133812F5F3F4F2283338340911C03BE
:102460002D913C911197FB2F62817381260F371FAD
:10247000F9014083FD01228133812F5F3F4F228389
:102480003383E6E3FAE060814D915C911197FD01A1
:1024900002801380400D511DFA016083FD014281CD
:1024A00053814F5F5F4F42835383E6E3FAE06181DC
:1024B0004D915C911197FD0102801380400D511DDB
:1024C000FA016083FD01428153814F5F5F4F428378
:1024D0005383E6E3FAE062814D915C911197FD012F
:1024E00002801380400D511DFA016083FD0142817D
:1024F00053814F5F5F4F42835383E6E3FAE04381AA
:102500002D913C911197FD0162817381260F371F38
:10251000F9014083FD01228133812F5F3F4F2283E8
:1025200033832281201B2A95ED91FC91E00FF11F4E
:10253000208300E000931C03D10108955B2F6A2FD4
:10254000202F0DE1029FE1E2F3E0E00DF11D01E03B
:10255000048F0BE4A081B18122813381A20FB31FCC
:102560000C93028113810F5F1F4F0283138302813B
:1025700098012F5F3F4F2283338310911B03A0816B
:10258000B1812281A20FB31F1C93228133812F5F5F
:102590003F4F228333831091320AA081B18122817F
:1025A000A20FB31F1C93228133812F5F3F4F2283E1
:1025B000338310E0A081B1812281A20FB31F1C934D
:1025C000228133812F5F3F4F228333834281401B1F
:1025D0004A9520813181200F311FF9014083A62FB8
:1025E000B52F0895BA93AA939A938A93202F0DE159
:1025F000029FA1E2B3E0A00DB11D01E0FD01048F37
:1026000027EE0D911C911197FB2F42815381040FEE
:10261000151FF8012083FD01028113810F5F1F4FF9
:10262000028313838281082F0F5F1F4F028313835E
:1026300020911B030D911C911197FB2F4281538117
:10264000040F151FF8012083FD01028113810F5F24
:102650001F4F0283138300EA12E00E9426022D918D
:102660003C911197FD0162817381260F371FF9019B
:102670000083FD01228133812F5F3F4F228333830B
:10268000212F0D911C911197FB2F42815381040F33
:10269000151FF8012083FD01028113810F5F1F4F79
:1026A000028313830FED12E00E9426022D913C91CC
:1026B0001197FD0162817381260F371FF901008395
:1026C000FD01228133812F5F3F4F22833383212FEE
:1026D0000D911C911197FB2F42815381040F151FFF
:1026E000F8012083FD01028113810F5F1F4F0283D8
:1026F000138305EB12E00E9426022D913C91119765
:10270000FD0162817381260F371FF9010083FD01EE
:10271000228133812F5F3F4F22833383212F0D91FD
:102720001C911197FB2F42815381040F151FF80153
:102730002083FD01028113810F5F1F4F02831383EA
:1027400004EF12E00E9426022D913C911197FD01A9
:1027500062817381260F371FF9010083FD012281F9
:1027600033812F5F3F4F22833383212F0D911C91A3
:102770001197FB2F42815381040F151FF80120830D
:10278000FD01028113810F5F1F4F028313830AEC47
:1027900012E00E9426022D913C911197FD01628169
:1027A0007381260F371FF9010083FD0122813381D8
:1027B0002F5F3F4F22833383212F0D911C9111975F
:1027C000FB2F42815381040F151FF8012083FD0167
:1027D000028113810F5F1F4F028313830281081B45
:1027E0000A95ED91FC9190E0E80FF91F008392C1EA
:1027F000BA93AA939A938A93402F0DE1049FE1E242
:10280000F3E0E00DF11D64857585FB01E20FF31F18
:10281000208005E0201640F532978081825006E046
:10282000029D4BE553E0400D511DDA01A452BA4F11
:102830008C93863010F005E00C9301E00FC011245A
:10284000C901800F911DFB01E80FF91F1081FA01EA
:10285000E00FF11DE452FA4F108303951C911017FD
:1028600070F7022D0E94B80955C1BA93AA93402F60
:102870000DE1049FE1E2F3E0E00DF11D6485758553
:10288000DB01A20FB31F1C911436F8F5012E1124A1
:1028900001E0E12FF0E0E154FC4F008312970C912E
:1028A0000250000C111C000C111C000C111C4BE5FB
:1028B00053E0400D511DDA01A853BF4F0C9308306F
:1028C00010F007E00C9301E00FC011241901200E55
:1028D000311CFB01E20DF31D2080FA01E00FF11D18
:1028E000E853FF4F208203950C90001670F700917B
:1028F000310A011719F400E00093310A0091330AFC
:10290000011719F4012F0E94BA08A991B9910895ED
:10291000BA93AA93402F0DE1049FE1E2F3E0E00DAA
:10292000F11D44855585DA01A20FB31F0C910436C1
:1029300058F5F0E061E0E02FE154FC4F608312971E
:10294000EC91E25065E0609F0BE513E0000D111D76
:10295000D801A851BC4FEC93E53010F064E06C93C3
:1029600060E00FC011241901260E311CFA01E20D9E
:10297000F31D7181F801E60FF11DE751FC4F7083E3
:1029800063957C91671770F3A991B99108955B2FB6
:102990006A2F402F0DE1049FE1E2F3E0E00DF11D0D
:1029A00004851585020F131FF80120812436A0F439
:1029B00030E0EBE5F3E0E20FF31F21E0DF01AC597B
:1029C000BF4F2C93D80111960C91E650FA4F00831B
:1029D000053610F004E60083A62FB52F08955B2F6F
:1029E0006A2FE5E3FAE0108110611083402F0DE1BA
:1029F000049FE1E2F3E0E00DF11D04851585020F6F
:102A0000131FF80120812436A0F430E0EBE5F3E059
:102A1000E20FF31F21E0DF01AC59BF4F2C93D80127
:102A200011960C91E25AF94F0083053610F004E636
:102A30000083A62FB52F0895BA93AA93402F0DE1D6
:102A4000049FF001EF5DFC4FA485B585A20FB31F75
:102A50000C910093320A0091330A002319F400E02C
:102A60000E94590AA991B9910895BA93AA939A9389
:102A70008A93C901202F0DE1029FE1E2F3E0E00D0E
:102A8000F11D24853585F901E80FF91F0081043611
:102A900008F040C0402F0093310A01E0F0E0E42F3D
:102AA000E154FC4F008301968C010196F901E00F7F
:102AB000F11F0081002339F0EDE1FAE004E110E0BC
:102AC00011930A95E1F7F901E80FF91F3497E081B6
:102AD000F0E03397E53100E0F0071CF0E4E1F0E0CE
:102AE00003C0E130F00794F0DF01EFE2FAE003E128
:102AF0001081118331970A95D9F7F901E80FF91F71
:102B0000008100931D0A0196119779F70091330A0D
:102B10000E94BA0889919991A991B99108951D01CE
:102B2000BC01402F0DE1049FE1E2F3E0E00DF11D57
:102B300004851585F801E20FF31F3297808190E03C
:102B40004296833340E094071CF082E390E003C098
:102B50008531940774F0E3E8F3E04497D801A20FBD
:102B6000B31F4C9150E0419351932F5F3F4F01971A
:102B7000A9F7CB01D1010895BA93AA93402F0DE193
:102B8000049FE1E2F3E0E00DF11DA485B585A20FFD
:102B9000B31F0C91043668F4F0E0E02FE154FC4FD1
:102BA0000081013031F4FD0100810093330A0E945D
:102BB000590AA991B99108951B2F6A2F402F0DE151
:102BC000049FE1E2F3E0E00DF11DA485B585A20FBD
:102BD000B31F0C91043670F4F0E0E02FE154FC4F89
:102BE0000081013039F400E0FD01E081F0E0E154C2
:102BF000FC4F0083A62FB12F08955A924A92BA93A0
:102C0000AA939A938A93C901202F0DE1029FA1E212
:102C1000B3E0A00DB11DFD0104851585080F131F3C
:102C20002801085F1F4F3FD10023C1F082011DD151
:102C30000023A1F0FD0124853585F901E80FF91F76
:102C400000A500FF0BC0A6E3BAE008E2F901E80F17
:102C5000F91F10811D9301960A95C1F719C8BA93FF
:102C6000AA939A938A93C901202F0DE1029FA1E2B2
:102C7000B3E0A00DB11DFD0104851585080F131FDC
:102C8000F801208101E010E00E948E17FD0104850B
:102C90001585080F191FF801218102E010E00E943C
:102CA0008E1738CFE199FECF0FEF0EBB0FE00FBBB1
:102CB0000FEF0DBBE29AE19AE199FECF08E101BD69
:102CC00008E001BD0895BA93AA939A938A93802F3E
:102CD0000DE1089FA1E2B3E0A00DB11DFD01048943
:102CE000002309F45AC00A9531F00A9511F10850F1
:102CF00009F453C01BC0008911890330104008F447
:102D00004CC00485F585E02F32810381FD01008FE1
:102D1000318F008D132F0730104040F002E0048BFC
:102D2000808991890196828B938B37C0082FD2D0EE
:102D300034C0028913890F5F1F4F028B138B0289E6
:102D4000208D318D0217130740F104851585020F80
:102D5000131F01501040F8010081033039F7225051
:102D60003040082F53D0012B09F3FD010485F58570
:102D7000E02F208130911A03231711F02F3FB1F675
:102D80000181009319030AE0FD01048B882329F4D3
:102D900020EA32E001E00E949301FD0100891189DF
:102DA0000F5F1F4F008B118B00890F3F20E01040F9
:102DB00010F0208B218BAECE3B2E7A2F592F282E50
:102DC000602F890140E082E090E023301407C0F0DA
:102DD0002DE1269FA1E2B3E0A00DB11DED91FC9184
:102DE0001197E80FF91F20814227E42FF0E0EA5FF6
:102DF000FB4C30E03BBF469101968017910770F382
:102E0000042F822D952FA72FB32D0895792F282ECB
:102E1000402F890160E080E090E02DE1249FE1E215
:102E2000F3E0E00DF11D44855585202F232B81F023
:102E3000FA01E80FF91F20816227E62FF0E0EA5F30
:102E4000FB4C30E03BBF669101968017910780F301
:102E5000400F511FFA010081601711F401E001C019
:102E600000E010E0822D972F089520E060E047E019
:102E7000F8013081332309F021E031968F01632777
:102E8000E62FF0E0EA5FFB4C30E03BBF66914A95ED
:102E900079F7F8010081601721F4213011F401E085
:102EA000089500E0089540E02FE1F80161918F015D
:102EB0004627E42FF0E0EA5FFB4C30E03BBF469151
:102EC0002A9599F7F8010081401711F401E008955F
:102ED00000E008951FB7F894023060F4202F0DE150
:102EE000029FE1E2F3E0E00DF11D00E0058B048BB1
:102EF000068707871FBF0895E199FECF1FBB0EBB52
:102F0000F894E8E8F2E0018103950183E09A0181F9
:102F10000A95018309F478940DB30895E199FECFE1
:102F2000F894E8E8F2E03181339531831FBB0EBBA2
:102F30002DBBE29AE19A01810A95018309F4789404
:102F40000895BA93AA93FA93EA932A931A930A9349
:102F50002FB7E3EFFBE000810A9500830023B9F06F
:102F60000EB31FB30F5F1F4F1FBB0EBBA4EFBBE021
:102F7000ED91FC9100810DBBE4EFFBE0008111813C
:102F80000F5F1F4F00831183E29AE19A04C0E39818
:102F900000E00093F60B2FBF099119912991E99157
:102FA000F991A991B99118958A9300E007BB86B36E
:102FB00086958695837001E010E00E947C170E31A3
:102FC00030F001E010E00E947C170E32B0F0082FC4
:102FD000882329F00A9529F00A9529F00EC02FE1DF
:102FE00003C02EE101C020E201E010E00E948E1734
:102FF00020E002E010E00E948E17882329F08A95D5
:1030000041F08A9559F010C000E100939F020FE152
:1030100009C000E000939F020EE104C001E00093AC
:103020009F0200E200931A030E947A0C00931B0394
:103030000BD02CD070D040E855E260E070E000E0AA
:1030400075D0B8D089910895F89400919F020A959F
:1030500011F00F5041F400E009BF0AEA00936A0042
:103060000ABF00EF09BF00E005BF00936D0007E055
:1030700000936C0000E80FBF00E00CBF04B70093A2
:103080001C0300E004BF0093F30B089500919F021E
:103090000A9509F10F50F1F50FEF0ABB00E00BBBE9
:1030A00007BB06E008BB0FEF04BB00E005BB0FEF5A
:1030B00001BB0EEF02BB04E002B90BEF03B900E065
:1030C000009361000FEF009362000093640000E042
:1030D0000093650008950FEF0ABB00E00BBB00E80A
:1030E00007BB06E008BB0FEF04BB00E005BB0FEF1A
:1030F00001BB0EEF02BB04E002B90BEF03B900E025
:10310000009361000FEF009362000093640000E001
:1031100000936500089500919F020A9511F00F50E9
:1031200021F409E803BF03E001BF0895BA93AA930D
:103130009A938A93202FA1E2B3E00DE1029FFD0153
:10314000E00DF11D00E010E002830383048305839A
:103150000683078306870787008B018B028B038B0F
:10316000048B058B0287222301F50AEFFD01068BF4
:10317000178B0EE51AE00D931C9304EF1AE00487F9
:10318000158700E00BB900E412E42FE030E00E9464
:103190004619402F4A9549B9C8010197909390006C
:1031A00008EB0AB906E00093950089919991A991DD
:1031B000B99108959A938A9380E090E0FC01339648
:1031C0008F010E947C17FC01EA5CF54F0083019699
:1031D000883200E0900794F389919991089500E076
:1031E0000FBD09E80EBD0FE71EE31BBD0ABD07B703
:1031F000006107BF0895FFCF9A938A93FA93EA93E9
:103200003A922A921A920A927A936A935A934A931A
:103210003A932A931A930A938FB79BB70E94720628
:103220009BBF8FBF0991199129913991499159916A
:10323000699179910990199029903990E991F991C2
:1032400089919991189500008895FECF07E40DBFEC
:1032500002E00EBFC8ECD1E00E94B719002311F0C4
:103260000E94C9190E94E80B0E9423190C9423198B
:103270000024E8E0EA9532F0001F001C0416D0F3A9
:10328000041AF8CF001F402D009508950024112442
:103290001001E0E2EA9592F0001F111F221F331F78
:1032A000001C111C221C331C0416150626063706AA
:1032B00088F3041A150A260A370AECCF001F111FDB
:1032C000221F331FA001B101009510952095309564
:1032D00008957791679157914791179011FA279028
:1032E00037900895F9DF041B10E003C0F4DF041BDE
:1032F000150B20E030E005C0ECDF041B150B260B9E
:10330000370BB8F010FC17C047910790E00FF11F82
:103310000417100540E02407340758F436F40691EA
:103320000024F101E01BF0090994E00FF11F279040
:103330003790F101099411F4D6F7F1CF31960EF0E0
:10334000319650E060E070E047914B3F48F089F3E0
:103350004F3F29F04E3F11F0779167915791479178
:10336000041B150B260B370B39F318F3E7CF01E0DD
:10337000089520E008D0E9F708953BBF27913BB7B7
:1033800002D0D9F708952D9301501040202F212B02
:1033900008950DEE402E0AE3502E00E0602EF2015B
:1033A000362D6BBE07911691F201EE5FFF4F3F4F36
:1033B0003BBFA791B691F201362DEC5FFF4F3F4F17
:1033C0003BBF479157916691242F252B262B21F047
:1033D000FA01362FD2DF01C0CCDF07E0400E00E05B
:1033E000501E601EA201662D4B3F5A436040B8F24A
:1033F0000895F80101C0319620812223E1F7E01BF6
:10340000F10B8F010895005EBCE2613FDD83C29C39
:103410007E20A3FD1F419DC3217FFCA2401E5F01B2
:10342000E3BD3E6082DC237D9FC1421CFEA0E1BF64
:103430005D0380DE3C62BEE0025CDF81633D7C2296
:10344000C09E1D43A1FF4618FAA427799BC584DAC4
:103450003866E5BB5907DB856739BAE40658194772
:10346000A5FB7826C49A653BD987045AB8E6A7F924
:103470001B45C6987A24F8A6441A99C7257B3A6456
:1034800086D85B05E7B98CD2306EEDB3510F4E1084
:10349000F2AC2F7193CD114FADF3702ECC92D38D32
:1034A0006F31B2EC0E50AFF1134DCE90722C6D33E4
:1034B000D18F0C52B0EE326C8ED0530DEFB1F0AE16
:1034C0004C1291CF2D73CA947628ABF51749085644
:1034D000B4EA6937D58B5709EBB536688AD495CBF2
:1034E0002977F4AA4816E9B7550B88D6346A2B75A4
:1034F00097C94A14F6A8742AC896154BA9F7B6E8D6
:103500000A54D7896B350200000000020000000059
:103510000000000000017D000000017D00000000AF
:1035200000000000037000700003700070000000D5
:10353000000000041E741E74041E741E740000003B
:10354000000004122F7A2404122F7A2400000000B5
:10355000000433340B330433340B33000000000019
:1035600004364936050436493605000000000001DE
:103570006000000001600000000200000000031C69
:10358000224100031C2241003900000000034122B7
:103590001C000341221C000F00000000042A1C1C18
:1035A0002A042A1C1C2A000000000003081C080032
:1035B00003081C08000000000000020106000001D2
:1035C00001000000000000000003080808000308D4
:1035D0000808004000000000010100000001010097
:1035E00000000000000000030708700003070870D7
:1035F000000000000000043E41413E033E413E0009
:103600003F0000000003217F010002207F00000630
:1036100000000000042345493103274931005B00C5
:10362000000000042249493603224936004F0000B9
:103630000000047808087F0378087F006600000017
:1036400000047251514E0372514E006D0000000093
:10365000043E494926033E4946007D00000000041F
:1036600040474870034047780007000000000436D8
:1036700049493603364936007F00000000043048CF
:10368000483F0330493E006700000000012400006D
:1036900000012400000000000000000127000000DD
:1036A000012700000000000000000408142241046B
:1036B000081422410000000000041414141404141F
:1036C00014141400000000000441221408044122D4
:1036D000140800000000000420404D300420404D3C
:1036E00030000000000004264D4D3E04264D4D3EA6
:1036F0000000000000043F48483F043F48483F772F
:1037000000000000047F494936047F4949367C00A7
:10371000000000043E414122043E414122390000A4
:103720000000047F41413E047F41413E5E000000B5
:1037300000047F494941047F494941790000000064
:10374000047F484840047F4848407100000000045E
:103750003E41492E043E41492E7D00000000047F79
:1037600008087F047F08087F760000000003417F7F
:10377000410003417F410006000000000302417E3A
:10378000000302417E000E00000000047F1422416D
:10379000047F1422410000000000047F01010104A5
:1037A0007F0101013800000000037F307F00037FAC
:1037B000307F000000000000047F180C7F047F1899
:1037C0000C7F5400000000043E41413E043E414154
:1037D0003E3F00000000047F484830047F484830E6
:1037E0007300000000043E41423D043E41423D0062
:1037F00000000000047F4C4A31047F4C4A315000E5
:10380000000000043249492604324949266D00006F
:10381000000003407F400003407F4000780000002C
:1038200000047E01017E047E01017E3E0000000056
:10383000047C03037C047C03037C00000000000480
:103840007F06067F047F06067F00000000000467F5
:103850001818670467181867000000000003601F4D
:10386000600003601F600000000000000443454941
:103870007104434549710000000000037F4141008D
:10388000037F4141000000000000037008070003AF
:103890007008070000000000000341417F00034161
:1038A000417F000000000000032050200003205052
:1038B0002000630000000003010101000301010179
:1038C000000800000000027068000002706800003C
:1038D00000000000000312150F000312150F0077FF
:1038E00000000000031F050200031F0502007C000A
:1038F0000000000302050500030205050039000071
:1039000000000302051F000302051F005E00000007
:103910000003060D050003060D05007900000000F8
:1039200003040F140003040F1400710000000003CF
:10393000050D060003050D06007D00000000031FB5
:10394000040300031F0403007600000000030517B2
:10395000010003051701000600000000030516041E
:103960000003051604000E00000000031F020500FE
:10397000031F020500000000000003111F010003E7
:10398000111F01003800000000030F060300030FA1
:103990000603000000000000030F040300030F04EF
:1039A0000300540000000003060906000306090690
:1039B000003F00000000030F0A0400030F0A040088
:1039C000730000000003040A0F0003040A0F000044
:1039D00000000000030F040800030F04080050005B
:1039E00000000003050D0A0003050D0A006D00002C
:1039F000000003081E090003081E090078000000EB
:103A000000030E010F00030E010F003E0000000036
:103A1000030E010E00030E010E0000000000000363
:103A20000E030E00030E030E000000000000030949
:103A300006090003090609000000000000030D0547
:103A40000E00030D050E00000000000003090B0D21
:103A50000003090B0D0000000000000308364100C0
:103A600003083641000000000000013E0000000194
:103A70003E00000000000000000341360800034142
:103A800036080000000000000420402040042040D0
:103A900020400100000000032A552A00032A552A6D
:103AA0000000000000000100000200000400000807
:103AB0000000100000200000400000800000000115
:103AC00000000200000400000800001000002000B8
:103AD000004000008000000001000002000004001F
:103AE0000008100F0E0D0C0B0A091211088D0C8026
:103AF0000200000037004802FB3A000155534152D2
:103B0000543000426C696E6B00496E666F00446908
:103B100073706C61795F436F6E74726F6C00576184
:103B200074636820646F67004E6F20527800204FE6
:023B30004B0048
:0400000300000000F9
:00000001FF
