:020000020000FC
:100000000C947907189518951895189518951895C2
:100010001895189518951895189518951895189578
:100020001895189518951895189518951895189568
:100030001895189518951895189518951895189558
:100040001895189518951895189518951895189548
:100050001895189518951895189518951895189538
:100060001895189518951895189518951895189528
:100070001895189518951895189518951895189518
:100080001895189518951895189518951895189508
:1000900018951895189518951895189518951895F8
:1000A00018951895189518951895189518951895E8
:1000B00018951895189518951895189518951895D8
:1000C00018951895189518951895189518951895C8
:1000D00018951895189518951895189518951895B8
:1000E000189518951FD0F12FE02F27BFE8951AC05B
:1000F00019D0F32FE22F112E002E21E027BFE89513
:1001000011C010D0F12FE02F20FD27BFD895002D72
:10011000E395D895102D089505D0002E29E027BF2E
:10012000E89500C0022E27B720FDFCCF202D0895B2
:1001300000E40093900009E00093910007E010E0D4
:10014000109399000093980002E004BD03E005BD00
:1001500009EF07BD16BD02E005BB00936E000895D0
:1001600000E001B902B904B900EC05B900E007B933
:1001700008B90AB900EF0BB90EE00DB900E00EB9ED
:1001800000BB01BB03BB04BB0895F89400E00DBBAA
:100190000093690000936A000DBB05BF00937400D3
:1001A000009375000FBF05B700931C0200E005BF68
:1001B00005B7102F116015BF026005BF0895E5DF78
:1001C000CFDFB6DF00E0009300020093010200934E
:1001D00002020093030200930402009305020093BD
:1001E0000A0200930B0200930C0200930D0200938D
:1001F0000E0200930F02009310020093110200936D
:1002000008020AEF0093120200E000931302009329
:10021000C00009E10093C40000E00093C50008E1BC
:100220000093C10006E00093C20003B10695069555
:10023000037000931B020895A89504B704B7077FC5
:1002400004BF00E000936000F999FECF0FEF01BDFD
:100250000FE002BDF89A00B50A3A21F40E94460167
:100260000F3079F40E94DF000E94AB010091C600BC
:100270000E945801009110020A30D1F70E949D0699
:10028000F7CFE0911902F0911A0209940CB102958E
:100290000F7000950F7008950093C6000091C00084
:1002A00006FFFCCF0091C00000640093C0000895D9
:1002B0000091C00007FD04C00091C00004FF4AC0C7
:1002C0000091C600E0910A02F0910B02E458FC4F45
:1002D0000083109110021A30E9F1112349F506311B
:1002E00059F40091110203950093110200E000936C
:1002F0000A0200930B020895109111021230A0F02F
:10030000013091F400E00093110201E0009310022B
:1003100000E000930C0200930D020AEF009312021A
:1003200000E000931302089500E000931102089585
:1003300000910A0210910B020F5F1F4F00930A02F7
:1003400010930B020F35114010F00C94AB0100E03C
:100350000E94C90608951FB7F89400E000931102A7
:100360000093100200930A0200930B021FBF08952E
:10037000EFEFFFEF00003197E9F7009104021091D1
:100380000502012B19F1E0910202F0910302E25EF5
:10039000FD4F00810E944C01E0910202F0910302A6
:1003A0003196EF3501E0F00710F0E0E0F0E0E09387
:1003B0000202F09303020091040210910502015021
:1003C00010400093040210930502D7CF729808954D
:1003D000AD0120E00530120780F0A2E2B2E0045047
:1003E000104030E0E22FF0E02D91E227E057F04F8F
:1003F0003BBF269101501040A9F7022FDA01089562
:1004000000E000930A0200930B0200930C02009399
:100410000D02009302020093030206E100931E0204
:1004200000931F020093200201E00093210200913B
:100430007E030093220200917F0300932302009128
:100440001B02005F009324020E94460100932502D4
:1004500000E00093260200932702009328020895EB
:10046000CFDFE0910002F0910102E25EFD4F00E07B
:10047000008300910002109101020F5F1F4F009353
:10048000000210930102F801E25EFD4F00E00083DC
:1004900000910002109101020F5F1F4F00930002B4
:1004A00010930102F801E25EFD4F00E0008300912D
:1004B0000002109101020F5F1F4F00930002109382
:1004C000010200910902E0910002F0910102E25E56
:1004D000FD4F0083009109020395009309020091EA
:1004E0000002109101020F5F1F4F00930002109352
:1004F00001026091000270910102025000932602F5
:10050000FB013297F09327020AE010E061DF0093CD
:1005100028028B015DDFFB01E25EFD4F008300914D
:100520000002109101020F5F1F4F00930002109311
:100530000102F801E25EFD4F04E000830091000239
:10054000109101020F5F1F4F0093000210930102F0
:10055000F801E25EFD4F00E000830091000210917F
:1005600001020F5F1F4F00930002109301020093DE
:1005700004021093050200E00093020200930302BC
:1005800000910602109107020F5F1F4F00930602B1
:1005900010930702729AECCE7A926A925A924A9219
:1005A000BA93AA939A938A9321E020931802E09138
:1005B0000002F0910102E25EFD4F23EB20832091C7
:1005C0000002309101022F5F3F4F209300023093D1
:1005D0000102F901E25EFD4F27E020832091000235
:1005E000309101022F5F3F4F2093000230930102B0
:1005F00060900002709001022E5F3F4F2093000236
:1006000030930102ACE7B3E0A00FB11F8D0124E0ED
:10061000F80131918F01E0910002F0910102E25E58
:10062000FD4F308340910002509101024F5F5F4FB8
:1006300040930002509301022A9551F78C91FD01DD
:1006400091814280538001E04016500690F0E09185
:100650000002F0910102E25EFD4F00830091000272
:10066000109101020F5F1F4F0093000210930102CF
:1006700038C08F3F0FE7900710F001E001C000E0A5
:100680000BBF880F991FA0E0B0E0042D052949F1A8
:1006900020E08C010E948100312FE0910002F09156
:1006A0000102E25EFD4F0083009100021091010201
:1006B0000F5F1F4F0093000210930102F801E25EEA
:1006C000FD4F308300910002109101020F5F1F4F18
:1006D000009300021093010212960296A415B5052C
:1006E000B8F2EEE1F2E0E60DF71D80910002909184
:1006F0000102082F061902500083861997090297F4
:10070000918389919991A991B99149905990699052
:1007100079900895DA92CA92BA92AA929A928A929B
:100720007A926A925A924A92BA93AA939A938A9325
:10073000280101E000931802E0910002F09101020B
:10074000E25EFD4F09EA0083009100021091010270
:100750000F5F1F4F0093000210930102F801E25E49
:10076000FD4F07E0008300910002109101020F5F2E
:100770001F4F0093000210930102C0900002D0901E
:1007800001020E5F1F4F0093000210930102ECE77D
:10079000F3E0E40DF51D808191816280738004E0B7
:1007A000400E00E0501E01E06016700688F0E091F7
:1007B0000002F12FE25EFD4F0083009100021091D4
:1007C00001020F5F1F4F00930002109301026BC0E4
:1007D0008F3F0FE7900710F001E001C000E00BBF72
:1007E000880F991F5C0188249924062D072999F008
:1007F000ACE7B3E0A40DB51D9C010C91FD01118186
:100800000E94780002E0800E00E0901E0296129690
:100810008614970488F325E085010E94720021E187
:1008200085010E947200E0910002F0910102E25EF7
:10083000FD4F00E0008300910002109101020F5F64
:100840001F4F009300021093010280E090E0062DFC
:10085000072949F1ACE7B3E0A40DB51D02E0402E35
:1008600020E085010E9481004C9150E0401755071F
:1008700039F0E0910002F0910102E35EFD4F408209
:10088000FD0101810117550739F0E0910002F09157
:100890000102E35EFD4F40820296A40CB51E129643
:1008A00086159705E8F2EEE1F2E0EC0DFD1D809172
:1008B000000290910102082F0C19025000838C193C
:1008C0009D090297918389919991A991B991499034
:1008D00059906990799089909990A990B990C99010
:1008E000D9900895BA93AA939A938A9301E00093BA
:1008F0001802E0910002F0910102E25EFD4F0FE963
:10090000008300910002109101020F5F1F4F0093BE
:10091000000210930102F801E25EFD4F07E0008340
:1009200000910002109101020F5F1F4F009300021F
:1009300010930102A0910002B09101020E5F1F4FBF
:10094000009300021093010200E00BBF80E090E0F2
:1009500001E012C023E08C010E94720021E18C01B1
:100960000E9472008F3F0EEF900710F001E00BBF66
:100970009395903E68F300E01BB7112359F30023D1
:1009800049F78BBFE0910002F0910102E25EFD4F5A
:10099000808300910002109101020F5F1F4F0093AE
:1009A000000210930102EEE1F2E0EA0FFB1F8091DA
:1009B0000002909101020A1B025000838A1B9B0BCC
:1009C0000297918389919991A991B9910895BA93C8
:1009D000AA939A938A9311E010931802E09100026F
:1009E000F0910102E25EFD4F19EE108320910002AA
:1009F000309101022F5F3F4F20930002309301029C
:100A0000F901E25EFD4F13E0108320910002309166
:100A100001022F5F3F4F209300023093010280912B
:100A20000002909101022E5F3F4F2093000230930D
:100A30000102F901E25EFD4F008300910002109176
:100A400001020F5F1F4F0093000210930102A0915B
:100A50000002B091010200911B02005FFD01E25E05
:100A6000FD4F00831196FD013196E0930002F09353
:100A700001020E944601FD01E25EFD4F0083E0910C
:100A80000002F0910102E25EFD4F08E00083009158
:100A90000002109101020F5F1F4F0093000210939C
:100AA0000102F801E25EFD4F01E0008300910002C7
:100AB000109101020F5F1F4F00930002109301027B
:100AC000F801E25EFD4F02E0008300910002109108
:100AD00001020F5F1F4F0093000210930102F80103
:100AE000E25EFD4F0EE500830091000210910102CD
:100AF0000F5F1F4F0093000210930102F801E25EA6
:100B0000FD4F01E0008300910002109101020F5F90
:100B10001F4F0093000210930102F801E25EFD4FA7
:100B20000EE5008300910002109101020F5F1F4F3C
:100B30000093000210930102F801E25EFD4F01E014
:100B4000008300910002109101020F5F1F4F00937C
:100B500000021093010200911C02E0910002F0914A
:100B60000102E25EFD4F008300910002109101023C
:100B70000F5F1F4F0093000210930102F801E25E25
:100B8000FD4F00E0008300910002109101020F5F11
:100B90001F4F0093000210930102EEE1F2E0E80F14
:100BA000F91FA0910002B0910102081B02500083BE
:100BB000A81BB90B1297B18300E000931C0202CF6F
:100BC000BA93AA938A9381E0ECE7F3E0E00FF11F78
:100BD00020813181F901E85EF34081F0EC5AF34065
:100BE00081F03A9709F486C03A9709F485C03A979C
:100BF00009F486C0749709F487C096C000E0E7DE68
:100C000097C080931802E0910002F0910102E25E29
:100C1000FD4F05E9008300910002109101020F5F72
:100C20001F4F0093000210930102F801E25EFD4F96
:100C300007E0008300910002109101020F5F1F4F37
:100C400000930002109301022091000230910102F2
:100C50000E5F1F4F0093000210930102F801E25E45
:100C6000FD4F04E4008300910002109101020F5F28
:100C70001F4F0093000210930102F801E25EFD4F46
:100C80000EE1008300910002109101020F5F1F4FDF
:100C90000093000210930102F801E25EFD4F07E9A4
:100CA000008300910002109101020F5F1F4F00931B
:100CB000000210930102F801E25EFD4F02E00083A2
:100CC00000910002109101020F5F1F4F009300027C
:100CD00010930102EEE1F2E0E20FF31FA091000297
:100CE000B0910102021B02500083A21BB30B1297AA
:100CF000B1831EC0F7DD1CC00C5F1F4F0BDD18C099
:100D00000C5F1F4F49DC14C0F999FECF0FEF01BDF6
:100D10000FE002BD0AEA00BDFA9AF99AF999FECFEE
:100D200008E00093600004C02436304008F480E0FE
:100D3000082F8991A991B99108959A938A9300E017
:100D4000009318020BE00093000200E00093010200
:100D500087E090E08C0134DFECE7F3E0E80FF91F67
:100D60001281F381E12F34968E0F9F1F002341F0F3
:100D7000E0911402F091150234978E179F0750F3FB
:100D800000911802002309F06BDBE5DA8991999153
:100D90000895BA93AA939A938A930091100200231C
:100DA00009F494C00A9539F00A9509F44CC008502A
:100DB00009F48CC08AC080910C0290910D0286309B
:100DC00000E0900708F482C0009180031091810335
:100DD000009314021093150210E0ACE7B3E006E0B4
:100DE00030E0F0E02D911227E12FE057F04F3BBFAC
:100DF00016910A95B1F700918203101709F065C0AA
:100E000000917C0310E0E0911B02F0E070960E1759
:100E10001F0709F05AC0E0911402F09115020EE587
:100E200011E0081B190BE017F10708F04EC03797C7
:100E300008F44BC002E000931002019680930E026A
:100E400090930F0243C000910E0210910F020F5FAA
:100E50001F4F00930E0210930F0240911402509105
:100E600015020417150790F1FA01E558FC4F0081AF
:100E7000043059F54250504000E0142F152B71F00A
:100E8000ACE7B3E0CA0130E0E02FF0E00D91E027DD
:100E9000E057F04F3BBF06910197B1F7FA01E458D4
:100EA000FC4F1081011789F40E944601102F009118
:100EB0007D03011711F00F3F41F400917F03009370
:100EC0001D020AE00093100201C045DAE0910C0215
:100ED000F0910D023196EE3501E0F00710F0E0E000
:100EE000F0E0E0930C02F0930D026CCD00008895C9
:100EF000FECF09E50DBF05E00EBFCAE5D9E00E94AF
:100F00008B07002311F00E949D070E941C010E9484
:100F100076070C94760701E0089520E02D930150A8
:100F20001040E1F708953BBF26912D93EF5FFF4FEF
:100F30003F4F01501040B9F7089540E950E160E09B
:100F4000FA01362F3BBF07911691FA01EE5FFF4F72
:100F50003F4F3BBFA791B691FA01362FEC5FFF4F91
:100F60003F4F3BBF079017902690202D2129222923
:100F700021F0F001322DD7DF01C0CFDF495F5F4F95
:100F80006F4F10E120E0473951076207C8F208951A
:100F9000005EBCE2613FDD83C29C7E20A3FD1F4159
:100FA0009DC3217FFCA2401E5F01E3BD3E6082DC49
:100FB000237D9FC1421CFEA0E1BF5D0380DE3C6239
:100FC000BEE0025CDF81633D7C22C09E1D43A1FF29
:100FD0004618FAA427799BC584DA3866E5BB590719
:100FE000DB856739BAE406581947A5FB7826C49A09
:100FF000653BD987045AB8E6A7F91B45C6987A24F9
:10100000F8A6441A99C7257B3A6486D85B05E7B9E8
:101010008CD2306EEDB3510F4E10F2AC2F7193CDD8
:10102000114FADF3702ECC92D38D6F31B2EC0E50C8
:10103000AFF1134DCE90722C6D33D18F0C52B0EEB8
:10104000326C8ED0530DEFB1F0AE4C1291CF2D73A8
:10105000CA947628ABF517490856B4EA6937D58B98
:101060005709EBB536688AD495CB2977F4AA481688
:10107000E9B7550B88D6346A2B7597C94A14F6A878
:10108000742AC896154BA9F7B6E80A54D7896B3568
:07109000DA0200020000007B
:00000001FF
