:020000040001F9
:10E000000C94DAF8005EBCE2613FDD83C29C7E20A6
:10E01000A3FD1F419DC3217FFCA2401E5F01E3BD04
:10E020003E6082DC237D9FC1421CFEA0E1BF5D03F8
:10E0300080DE3C62BEE0025CDF81633D7C22C09EEC
:10E040001D43A1FF4618FAA427799BC584DA3866D8
:10E05000E5BB5907DB856739BAE406581947A5FBC4
:10E060007826C49A653BD987045AB8E6A7F91B45B8
:10E07000C6987A24F8A6441A99C7257B3A6486D8AC
:10E080005B05E7B98CD2306EEDB3510F4E10F2AC98
:10E090002F7193CD114FADF3702ECC92D38D6F3184
:10E0A000B2EC0E50AFF1134DCE90722C6D33D18F78
:10E0B0000C52B0EE326C8ED0530DEFB1F0AE4C126C
:10E0C00091CF2D73CA947628ABF517490856B4EA58
:10E0D0006937D58B5709EBB536688AD495CB297744
:10E0E000F4AA4816E9B7550B88D6346A2B7597C938
:10E0F0004A14F6A8742AC896154BA9F7B6E80A542C
:0BE10000D7896B35DA02000200000036
:10E10C0003E801C7F7B2F7FE03ACB5F70AB8F70A94
:10E11C00BAF70ABFF714C4F7FB001FD0F12FE02F9A
:10E12C0027BFE8951AC019D0F32FE22F112E002E1D
:10E13C0021E027BFE89511C010D0F12FE02F20FD72
:10E14C0027BFD895002DE395D895102D089505D0AF
:10E15C00002E29E027BFE89500C0022E27B720FD2E
:10E16C00FCCF202D08950E9458F9C801D90100E078
:10E17C0010E0E4E0F2E00083118300E010E0E4E062
:10E18C00F2E00283138300E010E0E4E0F2E00483A9
:10E19C00158300E010E0E4E0F2E00287138700E072
:10E1AC0010E0E4E0F2E00487158700E010E0E4E022
:10E1BC00F2E00687178700E00093140200E000935A
:10E1CC00150200E000930C020AEF10E0E4E0F2E02C
:10E1DC00028B138B00E00093C000AC01BD0100E486
:10E1EC0012E42FE030E00E94ECF80A950093C40092
:10E1FC00AC01BD0100E412E42FE030E00E94ECF829
:10E20C0001501040012F10E00093C50008E100936D
:10E21C00C10006E00093C200E4E00C9467F900E44E
:10E22C000093900009E00093910000E000939900A6
:10E23C0007E00093980002E004BD03E005BD09EF80
:10E24C0007BD00E006BD02E005BB02E000936E00D6
:10E25C00089500E001B900E002B900E004B900EC57
:10E26C0005B900E007B900E008B900E00AB900EF11
:10E27C000BB90EE00DB900E00EB900E000BB00E0F8
:10E28C0001BB00E003BB00E004BB0895F89400E080
:10E29C000DBB00E00093690000E000936A0000E011
:10E2AC000DBB00E005BF00E00093740000E000939C
:10E2BC00750000E00FBF05B70093030200E005BF37
:10E2CC0015B7012F016005BF012F026005BF08952E
:10E2DC00DDDFBFDFA4DF00E016E920E030E043DF44
:10E2EC0003B1069506950370009302020895F89405
:10E2FC00A89504B7077F04BF0091600008610093E4
:10E30C00600000E00093600078940895F894A8955C
:10E31C000091600008610093600008E200936000C7
:10E32C0078940895E4DFF2DFF999FECF0FEF01BD89
:10E33C000FE002BDF89A00B50A3A21F40E94C0F130
:10E34C000F3089F400E000BD0E946EF10E9441F292
:10E35C000091C6000E94D2F1009114020A30D1F74C
:10E36C000E94D0F7F7CFA0E0B2E0ED91FC911197AD
:10E37C00099508950CB102950F7000950F700895D2
:10E38C000093C6001091C00016FFFCCF1091C00086
:10E39C0010641093C0000895BA93AA930091C00022
:10E3AC0007FD04C00091C00004FF62C00091C600CC
:10E3BC00E4E0F2E0A285B385A458BC4F0C93A89579
:10E3CC00009114020A3009F453C000911402002386
:10E3DC00C9F5E4E0F2E0A285B385A458BC4F0C91DA
:10E3EC00063161F4E4E0F2E001890395018B00E071
:10E3FC0010E0E4E0F2E0028713873AC000911502C6
:10E40C000230E0F0E4E0F2E0A285B385A458BC4F02
:10E41C000C91013099F400E00093150201E0009397
:10E42C00140200E010E0E4E0F2E0048715870AEF44
:10E43C0010E0E4E0F2E0028B138B1AC000E00093D2
:10E44C00150216C0E4E0F2E0028513850F5F1F4F42
:10E45C0002871387E4E0F2E0028513850F3521E093
:10E46C00120718F00E9441F203C000E00E9400F86D
:10E47C00A991B99108952FB7F894A89500E000934D
:10E48C00150200E00093140200E010E0E4E0F2E07A
:10E49C00028713872FBF08959A938A9380E090E0A8
:10E4AC00E0E0F0E0EF3F0FEFF00721F00000019605
:10E4BC003196F8CFA895E4E0F2E004811581012BA8
:10E4CC0049F1E4E0F2E002811381F801E25EFD4FD4
:10E4DC0000810E94C6F1E4E0F2E0028113810F5F3B
:10E4EC001F4F02831383E4E0F2E0028113810F35A6
:10E4FC0021E0120730F000E010E0E4E0F2E00283EB
:10E50C001383E4E0F2E00481158101501040048390
:10E51C001583D1CF729800E010E0899199910895FC
:10E52C00A80100E064E070E06417750788F410E05F
:10E53C00FB01E25EFD4F208130E002271327F8013A
:10E54C00EC5FFF4131E03BBF06916F5F7F4FECCF3B
:10E55C00089500E010E0E4E0F2E00287138700E0A9
:10E56C0010E0E4E0F2E00487158700E010E0E4E05E
:10E57C00F2E00283138306E100931E0206E100938E
:10E58C001F0206E10093200201E00093210200919A
:10E59C007E030093220200917F03009323020091DB
:10E5AC000202005F009324020E94C0F10093250236
:10E5BC0000E00093260200E00093270200E00093A5
:10E5CC0028020895BA93AA93C4DFE4E0F2E0A08194
:10E5DC00B181A25EBD4F00E00C93E4E0F2E000815B
:10E5EC0011810F5F1F4F00831183E4E0F2E0A081E3
:10E5FC00B181A25EBD4F00E00C93E4E0F2E000813B
:10E60C0011810F5F1F4F00831183E4E0F2E0A081C2
:10E61C00B181A25EBD4F00E00C93E4E0F2E000811A
:10E62C0011810F5F1F4F0083118300910D02102F7A
:10E63C00139510930D02E4E0F2E0A081B181A25E8B
:10E64C00BD4F0C93E4E0F2E0008111810F5F1F4F8E
:10E65C0000831183E4E0F2E0008111810250009309
:10E66C002602E4E0F2E00081118102501040012FFB
:10E67C0010E0009327020AE010E052DF009328021A
:10E68C00E4E0F2E0008111814BDFE4E0F2E0A081F4
:10E69C00B181A25EBD4F0C93E4E0F2E000811181E8
:10E6AC000F5F1F4F0083118304E0E4E0F2E0A081D0
:10E6BC00B181A25EBD4F0C93E4E0F2E000811181C8
:10E6CC000F5F1F4F00831183E4E0F2E0A081B18162
:10E6DC00A25EBD4F00E00C93E4E0F2E000811181FA
:10E6EC000F5F1F4F00831183E4E0F2E00081118182
:10E6FC00E4E0F2E00483158300E010E0E4E0F2E0F3
:10E70C0002831383E4E0F2E0068117810F5F1F4F51
:10E71C0006831783729AC0DEA991B9910895F9996D
:10E72C00FECF1FEF11BD1FE012BD1AEA10BDFA9A01
:10E73C00F99AF999FECFFFCF0E9452F9D801A8950A
:10E74C0001E000931C0223EBE4E0F2E00081118174
:10E75C00F801E25EFD4F2083E4E0F2E000811181DC
:10E76C000F5F1F4F0083118327E0E4E0F2E000818C
:10E77C001181F801E25EFD4F2083E4E0F2E00081BC
:10E78C0011810F5F1F4F00831183E4E0F2E0608082
:10E79C007180E4E0F2E0008111810E5F1F4F008375
:10E7AC00118380E090E0843000E09007C0F4FD011C
:10E7BC00E80FF91FE458FC4F2081E4E0F2E00081FF
:10E7CC001181F801E25EFD4F2083E4E0F2E000816C
:10E7DC0011810F5F1F4F008311830196E4CFFD0160
:10E7EC00E458FC4F8081FD01E458FC4F9181FD0100
:10E7FC00E458FC4F4280FD01E458FC4F538001E08B
:10E80C00401601E0500690F001E0E4E0F2E02081D7
:10E81C003181F901E25EFD4F0083E4E0F2E000811A
:10E82C0011810F5F1F4F008311833DC08F3F0FE796
:10E83C00900718F001E00BBF02C000E00BBF880F7F
:10E84C00991F882499248414950468F520E08C0180
:10E85C000E94A2F09801E4E0F2E000811181F8013D
:10E86C00E25EFD4F2083E4E0F2E0008111810F5F56
:10E87C001F4F00831183232F30E0E4E0F2E000818E
:10E88C001181F801E25EFD4F2083E4E0F2E00081AB
:10E89C0011810F5F1F4F0083118302E0800E00E097
:10E8AC00901E0296D0CFE4E0F2E0008111810619AF
:10E8BC000250F301E25EFD4F0083E4E0F2E00081E0
:10E8CC0011810619170902501040012F10E0F301B5
:10E8DC00E25EFD4F0183EAE00C9461F90E944EF96F
:10E8EC00D801A89501E000931C0229EAE4E0F2E0CB
:10E8FC0000811181F801E25EFD4F2083E4E0F2E03B
:10E90C00008111810F5F1F4F0083118327E0E4E02A
:10E91C00F2E000811181F801E25EFD4F2083E4E01A
:10E92C00F2E0008111810F5F1F4F00831183E4E03F
:10E93C00F2E080809180E4E0F2E0008111810E5FD2
:10E94C001F4F00831183FD01E458FC4F8081FD01B2
:10E95C00E458FC4F9181FD01E458FC4F6280FD01AD
:10E96C00E458FC4F738014962D0101E0601601E011
:10E97C00700690F021E0E4E0F2E000811181F801F2
:10E98C00E25EFD4F2083E4E0F2E0008111810F5F35
:10E99C001F4F008311837EC08F3F0FE7900718F045
:10E9AC0001E00BBF02C000E00BBF880F991F5C0198
:10E9BC00CC24DD24C614D70490F49C01FD01E4584A
:10E9CC00FC4F0081FD01E458FC4F11810E9499F02D
:10E9DC0002E0C00E00E0D01E02961296EBCF25E0AE
:10E9EC0085010E9493F021E185010E9493F0E4E0FF
:10E9FC00F2E000811181F801E25EFD4F00E000833E
:10EA0C00E4E0F2E0008111810F5F1F4F008311835E
:10EA1C00CC24DD24C614D704E8F520E085010E943F
:10EA2C00A2F09801F201AF014F5F5F4FE458FC4F29
:10EA3C00008110E0B90170E00617170749F062E099
:10EA4C00E4E0F2E000811181F801E35EFD4F6083A8
:10EA5C00FA012F0101E0400E00E0501EE458FC4F7B
:10EA6C00008110E0A901452F50E00417150749F06B
:10EA7C0042E0E4E0F2E000811181F801E35EFD4F39
:10EA8C00408302E0C00E00E0D01E02E0A00E00E0C9
:10EA9C00B01EC0CFE4E0F2E00081118108190250F1
:10EAAC00F401E25EFD4F0083E4E0F2E000811181AD
:10EABC000819190902501040012F10E0F401E25E10
:10EACC00FD4F0183EEE00C945DF90E9458F901E0D2
:10EADC0000931C020FE9E4E0F2E0A081B181A25E98
:10EAEC00BD4F0C93E4E0F2E0008111810F5F1F4FEA
:10EAFC000083118307E0E4E0F2E0A081B181A25E23
:10EB0C00BD4F0C93E4E0F2E0008111810F5F1F4FC9
:10EB1C0000831183E4E0F2E080819181E4E0F2E093
:10EB2C00008111810E5F1F4F0083118300E00BBF2A
:10EB3C00A0E0B0E0A03000EEB00710F411E001C08E
:10EB4C0010E00BB7002311F401E001C000E0102B22
:10EB5C00112389F023E08D010E9493F021E18D01B6
:10EB6C000E9493F0AF3F0EEFB00710F001E00BBF27
:10EB7C00A050BF4FDFCF00E00BBFE4E0F2E000811C
:10EB8C001181F801E25EFD4F00E00083E4E0F2E069
:10EB9C00008111810F5F1F4F00831183E4E0F2E0CD
:10EBAC0000811181081B0250FC01E25EFD4F0083C5
:10EBBC00E4E0F2E000811181081B190B02501040B7
:10EBCC00012F10E0FC01E25EFD4F0183E4E00C94A8
:10EBDC0067F9202F01E000931C0235E9E4E0F2E034
:10EBEC0000811181F801E25EFD4F3083E4E0F2E038
:10EBFC00008111810F5F1F4F0083118337E0E4E028
:10EC0C00F2E000811181F801E25EFD4F3083E4E017
:10EC1C00F2E0008111810F5F1F4F00831183E4E04C
:10EC2C00F2E000811181E4E0F2E0408151814E5F1D
:10EC3C005F4F4083518334E4E4E0F2E04081518142
:10EC4C00FA01E25EFD4F3083E4E0F2E04081518155
:10EC5C004F5F5F4F408351833EE1E4E0F2E040813F
:10EC6C005181FA01E25EFD4F3083E4E0F2E0408135
:10EC7C0051814F5F5F4F4083518337E9E4E0F2E00D
:10EC8C0040815181FA01E25EFD4F3083E4E0F2E015
:10EC9C00408151814F5F5F4F4083518332E0E4E00C
:10ECAC00F2E040815181FA01E25EFD4F3083E4E0F5
:10ECBC00F2E0408151814F5F5F4F40835183E4E02C
:10ECCC00F2E040815181401B4250F801E25EFD4F61
:10ECDC004083E4E0F2E040815181401B510B4250F3
:10ECEC005040452F50E0F801E25EFD4F41830895FE
:10ECFC000E9457F9402E01E000931C0229EEE4E03B
:10ED0C00F2E000811181F801E25EFD4F2083E4E026
:10ED1C00F2E0008111810F5F1F4F0083118323E00C
:10ED2C00E4E0F2E000811181F801E25EFD4F208306
:10ED3C00E4E0F2E0008111810F5F1F4F008311832B
:10ED4C00E4E0F2E080819181E4E0F2E00081118165
:10ED5C000E5F1F4F00831183E4E0F2E0008111810C
:10ED6C00F801E25EFD4F4082E4E0F2E000811181A7
:10ED7C000F5F1F4F0083118320910202205FE4E09C
:10ED8C00F2E000811181F801E25EFD4F2083E4E0A6
:10ED9C00F2E0008111810F5F1F4F00831183E4E0CB
:10EDAC00F2E0A081B1818D010F5F1F4FE4E0F2E032
:10EDBC00008311830E94C0F1A25EBD4F0C932CE026
:10EDCC00E4E0F2E000811181F801E25EFD4F208366
:10EDDC00E4E0F2E0008111810F5F1F4F008311838B
:10EDEC0021E0E4E0F2E000811181F801E25EFD4FE8
:10EDFC002083E4E0F2E0008111810F5F1F4F00835C
:10EE0C00118322E0E4E0F2E000811181F801E25E7E
:10EE1C00FD4F2083E4E0F2E0008111810F5F1F4F72
:10EE2C00008311832EE5E4E0F2E000811181F8010A
:10EE3C00E25EFD4F2083E4E0F2E0008111810F5F80
:10EE4C001F4F0083118321E0E4E0F2E00081118187
:10EE5C00F801E25EFD4F2083E4E0F2E000811181D5
:10EE6C000F5F1F4F008311832EE5E4E0F2E0008179
:10EE7C001181F801E25EFD4F2083E4E0F2E00081B5
:10EE8C0011810F5F1F4F0083118321E0E4E0F2E05A
:10EE9C0000811181F801E25EFD4F2083E4E0F2E095
:10EEAC00008111810F5F1F4F00831183209103029A
:10EEBC00E4E0F2E000811181F801E25EFD4F208375
:10EECC00E4E0F2E0008111810F5F1F4F008311839A
:10EEDC00E4E0F2E000811181F801E25EFD4F00E018
:10EEEC000083E4E0F2E0008111810F5F1F4F00838B
:10EEFC001183E4E0F2E000811181081B0250FC0157
:10EF0C00E25EFD4F0083E4E0F2E000811181081B1A
:10EF1C00190B02501040012F10E0FC01E25EFD4F76
:10EF2C00018300E000930302E5E00C9466F90E9473
:10EF3C0056F9C801442455245394FC01E458FC4F61
:10EF4C00A081FC01E458FC4FB1818D01ECE0F1E0B3
:10EF5C00FBBFF1EE0C9412F9042DCADE17C0042D80
:10EF6C0038DE14C0B2DD12C08C010C5F1F4FB6DC52
:10EF7C000DC08C010C5F1F4FDFDB08C0042DCFDBF5
:10EF8C0005C0A43600E0B00708F45524052DE6E0D2
:10EF9C000C9465F90E9459F900E000931C020BE0F7
:10EFAC0010E0E4E0F2E00083118387E090E08C0154
:10EFBC00BEDFA02FFC01E458FC4F0281FC01E45899
:10EFCC00FC4F13810C5F1F4F800F911FAA2349F038
:10EFDC00E4E0F2E004891589045010408017910791
:10EFEC0030F300911C02002309F0ECDA44DAE3E080
:10EFFC000C9468F98A93802FA89500911402005004
:10F00C0049F00A9541F00A9509F44EC0085009F4EC
:10F01C008BC089C089C0E4E0F2E004851585063018
:10F02C00104008F481C00091800310918103E4E04A
:10F03C00F2E0048B158B26E030E0082F8DD0012BED
:10F04C0089F120917C0330E00091020210E0005F16
:10F05C001F4F2017310731F5E4E0F2E024893589A0
:10F06C000EE511E0E4E0F2E044855585041B150B38
:10F07C0020173107A8F4E4E0F2E004891589073081
:10F08C00104070F002E000931402E4E0F2E004851A
:10F09C0015850F5F1F4FE4E0F2E00687178744C029
:10F0AC00EAD942C0E8D940C0E4E0F2E00685178511
:10F0BC000F5F1F4F06871787E4E0F2E00685178580
:10F0CC00E4E0F2E0248935890217130768F1E4E0E3
:10F0DC00F2E004891589F801E558FC4F00810430F1
:10F0EC0001F5E4E0F2E02489358922503040082F04
:10F0FC0033D0012BA1F00E94C0F110917D031017A9
:10F10C0021F000917D030F3F41F400917F030093A8
:10F11C001D020AE00093140207C0ADD905C0ABD99B
:10F12C0003C0A9D901C0A7D9E4E0F2E00485158594
:10F13C000F5F1F4F04871587E4E0F2E00485158507
:10F14C000E3521E0120730F000E010E0E4E0F2E0D0
:10F15C000487158789910895002EA90120E060E0AD
:10F16C0070E06417750788F430E0FB01E458FC4F3D
:10F17C00008110E020273127F901EC5FFF4131E0DD
:10F18C003BBF26916F5F7F4FECCFFA01E458FC4FE9
:10F19C000081201719F401E010E0089500E010E060
:10F1AC00089500008895FECF09E10DBF05E00EBF64
:10F1BC00CAE1D7E00E9470F9002311F00E9472F9A5
:10F1CC000E9498F10E94D7F80C94D7F800241124CF
:10F1DC001001E0E2001F111F221F331FEA9572F08D
:10F1EC00001C111C221C331C04161506260637069F
:10F1FC0088F3041A150A260A370AECCFA001B101CC
:10F20C00009510952095309508955791479117903A
:10F21C0011FA279037900895F8DF041B150B20E0A6
:10F22C0030E000C0B8F010FC17C047910790E00F19
:10F23C00F11F0417100540E02407340758F436F486
:10F24C0006910024F101E01BF0090994E00FF11F75
:10F25C0027903790F101099411F4D6F7F1CF31963C
:10F26C000EF0319650E060E070E047914B3F48F073
:10F27C0089F34F3F29F04E3F11F0779167915791E9
:10F28C004791041B150B260B370B39F318F3E7CFFB
:10F29C00DA92CA92BA92AA929A928A927A926A92C2
:10F2AC005A924A92BA93AA939A938A930895DD84B8
:10F2BC00CC84BB84AA84998488847F806E805D8092
:10F2CC004C80BB81AA8199818881F0E0EC0FFD1FF5
:10F2DC00EF01089501E0089504E011EE21E0F8013A
:10F2EC002BBF47915791A791B791079017902790F3
:10F2FC002BB78F01302D3129322951F0F0012BBE63
:10F30C0067912BB60F016D9341505040B9F705C072
:10F31C0030E03D9341505040D9F751EE61E00B3055
:08F32C0015072607E0F2089521
:00000001FF
