:020000020000FC
:100000000C947E230C94C50A18951895189518958C
:100010001895189518951895189518951895189578
:100020001895189518951895189518951895189568
:100030001895189518951895189518951895189558
:10004000189518950C94081B1895189518951895DF
:100050001895189518951895189518951895189538
:10006000189518950C946A1B0C94001C0C94AF1BEB
:10007000189518950C9432010C94B901189518959F
:100080001895189518951895189518951895189508
:100090000C9486030C94F7030C94D00318951895D0
:1000A00018951895189518951895189518951895E8
:1000B00018951895189518951895189518951895D8
:1000C0001895189518951895189518950C9440043E
:1000D0000C94B1040C948A040C94D9040C944A0531
:1000E0000C942305FA01FA01FA01FA01FD01FD0160
:1000F000FD01FD01010201020102010215021502CA
:100100001502150218021802180218021C021C021D
:100110001C021C023802380238023802350235024D
:100120003502350232023202320232026D026D02B3
:100130006D026D026A026A026A026A02670267025F
:10014000670267028D028D028D028D028A028A0289
:100150008A028A028702870287028702F502F50275
:10016000F502F502F202F202F202F202EF02EF02EF
:10017000EF02EF020108010801080108FE07FE076F
:10018000FE07FE07FB07FB07FB07FB072408240805
:100190002408240821082108210821081E081E0817
:1001A0001E081E083F083F083F083F083C083C085F
:1001B0003C083C0839083908390839085A085A08EF
:1001C0005A085A0857085708570857085408540837
:1001D000540854087508750875087508720872087F
:1001E000720872086F086F086F086F088F088F0811
:1001F0008F088F088C088C088C088C08890889085F
:1002000089088908A908A908A908A908A608A608AC
:10021000A608A608A308A308A308A308250A250A78
:10022000250A250A220A220A220A220A1F0A1F0A6E
:100230001F0A1F0A430A430A430A430A3F0A3F0AA6
:100240003F0A3F0A3C0A3C0A3C0A3C0A3B0C3B0C76
:100250003B0C3B0C400C400C400C400C4F0C4F0C2A
:100260004F0C4F0C9A938A93FA93EA933A922A92FC
:100270001A920A927A936A935A934A933A932A93D8
:100280001A930A938FB79BB70091B21B0395009303
:10029000B21B0091B31B03950093B31BF8940E940B
:1002A000B3120091B31B002309F4789400915E1AF5
:1002B000209178003091790012E0019FF001EE501A
:1002C000FA4E2083318300915E1A039500935E1AE3
:1002D000003118F00EE000935E1A00917C00007E61
:1002E00000937C0000915E1A10917C00102B1093FB
:1002F0007C0001E006BBF8940E94CE120091B31B73
:100300000A950093B31B0091B21B0A950093B21B90
:100310009BBF8FBF099119912991399149915991A9
:10032000699179910990199029903990E991F99101
:10033000899199911895F999FECFF89412BD01BD54
:1003400020BDFA9AF99A0091B31B002309F478941E
:100350000895392F682F222341F0822F90E000E08A
:10036000FA010193AF010197D9F7862F932F0895D2
:100370000895FA93EA932A931A930A932FB7009158
:100380005F1A0A9500935F1A0023C9F001B512B5F0
:100390000F5F1F4F12BD01BDE091601AF091611A0D
:1003A000008100BD0091601A1091611A0F5F1F4F0C
:1003B0000093601A1093611AFA9AF99A04C0FB9894
:1003C00001E00093621A2FBF099119912991E991D7
:1003D000F99118950895F80100810C30B0F4F0E01F
:1003E000FBBFF2E00F9FF001EC51FF4F079016901A
:1003F000F001099406E618E002C00DE11EE00C943D
:100400007B1904ED13E10E947B190895F801008126
:100410000C30B0F4F0E0FBBFF2E00F9FF001E450CD
:10042000FF4F07901690F001099406E618E002C00D
:100430000DE11EE00C94B41904ED13E10E94B4190F
:100440000895BA93AA93D8010C910C30A8F4F0E067
:10045000FBBFF2E00F9FF001EC5EFE4F079016909D
:10046000F001099404ED13E105C00DE11EE002C0A6
:1004700006E618E00E947B19FD0101E0018302837A
:1004800000E00383048305830683078300870187D5
:10049000028703870487058706870787008B018B00
:1004A000028B038B048B058B068B078B008F018FD0
:1004B000028F00810C30A8F4F0E0FBBFF2E00F9F48
:1004C000F001E45DFE4F07901690F001099404EDF1
:1004D00013E105C00DE11EE002C006E618E00E942F
:1004E000B419A991B9910895BA93AA938A93D8019E
:1004F000822F0C910C30A8F4F0E0FBBFF2E00F9FCC
:10050000F001EC5BFE4F07901690F001099404EDAA
:1005100013E105C00DE11EE002C006E618E00E94EE
:100520007B19882349F08A95A9F08A9509F18A9563
:1005300069F18A95C9F145C0FD01078110852185C2
:1005400032850F5F1F4F2F4F3F4F07831087218743
:10055000328737C0FD0103851485258536850F5FF9
:100560001F4F2F4F3F4F038714872587368729C09A
:10057000FD0107851089218932890F5F1F4F2F4F99
:100580003F4F0787108B218B328B1BC0FD010389E6
:100590001489258936890F5F1F4F2F4F3F4F038BDB
:1005A000148B258B368B0DC0FD010789108D218D95
:1005B000328D0F5F1F4F2F4F3F4F078B108F218FB3
:1005C000328F0C910C30A8F4F0E0FBBFF2E00F9FEB
:1005D000F001E45AFE4F07901690F001099404EDE3
:1005E00013E105C00DE11EE002C006E618E00E941E
:1005F000B4198991A991B9910895BD01AC01F8018F
:10060000D801AC5ABD4F13968D919D910D911C91BF
:100610001697E80FF91FE55AFD4F20810196FD015D
:100620003081332329F03A95C1F03A9559F13EC013
:100630008017910778F00091C80000640093C8000B
:100640000091C9000F7D0093C9000091C9000064AA
:100650000093C9002093CE0029C08017910778F03D
:100660000091D00000640093D0000091D1000F7D74
:100670000093D1000091D10000640093D100209339
:10068000D60014C08017910778F000913001006403
:1006900000933001009131010F7D009331010091F1
:1006A00031010064009331012093360183839483E8
:1006B000CA01DB0108959A938A93C801F801EC5AA4
:1006C000FD4F0081002329F00A9549F00A9569F051
:1006D00011C00091C9000F7B0093C9000BC00091AD
:1006E000D1000F7B0093D10005C0009131010F7B39
:1006F0000093310100810E94DF0C815C9D4F9C01C1
:1007000004E00E948F138991999108959A938A9396
:10071000FA93EA933A922A921A920A927A936A93F5
:100720005A934A933A932A931A930A938FB79BB793
:100730000091B21B03950093B21B0091B31B03956C
:100740000093B31BF8940E94B3120091B31B0023D3
:1007500009F4789400911508F0E0E02FEA5EF74F75
:1007600000810023B1F00091CE0000911508409166
:10077000AC1B5091AD1B6091AE1B7091AF1B14E090
:10078000019FF001E65EF74F4083518362837383DC
:1007900006C02EEC30E00AEE14E00E94C11850C0F2
:1007A0009A938A93FA93EA933A922A921A920A9225
:1007B0007A936A935A934A933A932A931A930A9391
:1007C0008FB79BB70091B21B03950093B21B0091AA
:1007D000B31B03950093B31BF8940E94B3120091CE
:1007E000B31B002309F4789406EB12E028C09A9317
:1007F0008A93FA93EA933A922A921A920A927A93F5
:100800006A935A934A933A932A931A930A938FB707
:100810009BB70091B21B03950093B21B0091B31BD1
:1008200003950093B31BF8940E94B3120091B31B7D
:10083000002309F4789406EB12E0DFDE01C03BDF11
:10084000F8940E94CE120091B31B0A950093B31B3B
:100850000091B21B0A950093B21B9BBF8FBF0991F9
:1008600019912991399149915991699179910990F9
:10087000199029903990E991F99189919991189558
:100880009A938A93FA93EA933A922A921A920A9244
:100890007A936A935A934A933A932A931A930A93B0
:1008A0008FB79BB70091B21B03950093B21B0091C9
:1008B000B31B03950093B31BF8940E94B3120091ED
:1008C000B31B002309F478940091CC0DF0E0E02FE5
:1008D000E353F24F00810023B1F00091D600009164
:1008E000CC0D4091AC1B5091AD1B6091AE1B709133
:1008F000AF1B14E0019FF001EF52F24F4083518390
:100900006283738306C026ED30E001EA1AE00E949C
:10091000C11896CF9A938A93FA93EA933A922A92BD
:100920001A920A927A936A935A934A933A932A9321
:100930001A930A938FB79BB70091B21B039500934C
:10094000B21B0091B31B03950093B31BF8940E9454
:10095000B3120091B31B002309F478940DE618E05C
:100960006ECF9A938A93FA93EA933A922A921A92C2
:100970000A927A936A935A934A933A932A931A93D0
:100980000A938FB79BB70091B21B03950093B21BDC
:100990000091B31B03950093B31BF8940E94B3120C
:1009A0000091B31B002309F478940DE618E025DECE
:1009B00047CF9A938A93FA93EA933A922A921A9299
:1009C0000A927A936A935A934A933A932A931A9380
:1009D0000A938FB79BB70091B21B03950093B21B8C
:1009E0000091B31B03950093B31BF8940E94B312BC
:1009F0000091B31B002309F4789400918313F0E075
:100A0000E02FEC57FC4E00810023B1F0009136013D
:100A1000009183134091AC1B5091AD1B6091AE1BB4
:100A20007091AF1B14E0019FF001E857FC4E40832A
:100A300051836283738306C026E331E008E510E149
:100A40000E94C118FDCE9A938A93FA93EA933A9240
:100A50002A921A920A927A936A935A934A933A93F1
:100A60002A931A930A938FB79BB70091B21B0395F1
:100A70000093B21B0091B31B03950093B31BF89432
:100A80000E94B3120091B31B002309F4789404E28E
:100A90001EE0D5CE9A938A93FA93EA933A922A92D9
:100AA0001A920A927A936A935A934A933A932A93A0
:100AB0001A930A938FB79BB70091B21B03950093CB
:100AC000B21B0091B31B03950093B31BF8940E94D3
:100AD000B3120091B31B002309F4789404E21EE0E2
:100AE0008CDDAECE0C5A1D4FF8010081002329F099
:100AF0000A9599F00A9509F1089502E00093C8005B
:100B000006E00093CD0002E80093CC0006E30093DA
:100B1000CA0008E90093C900089502E00093D000DC
:100B200006E00093D50002E80093D40006E30093AA
:100B3000D20008E90093D100089502E0009330014B
:100B400006E00093350102E80093340106E30093C8
:100B5000320108E90093310108950C5A1D4FF80144
:100B600025813681232BE1F020E02383248300813B
:100B7000002329F00A9549F00A9569F0089500913B
:100B8000C90000620093C90008950091D10000627D
:100B90000093D1000895009131010062009331016A
:100BA00008959A938A932597C8018E01EAE0FCE4A0
:100BB00030E045E050E00E94702587559A4F25E0CF
:100BC0008C010E94301033E0AE0122E88C010E94BB
:100BD0004F1040E020E030E08C010E947F108C013B
:100BE0000E94B1102596899199910895335090F4FF
:100BF00004E0209FE2E1F6E1E00DF11D00811181AA
:100C00000F5F1F4F00831183028113810F5F1F4FFE
:100C10000283138308952497F80123812883228176
:100C2000298321812A8300810B83088119812A81EC
:100C30003B8124960895FA92EA92DA92CA92BA9285
:100C4000AA929A928A927A926A925A924A92BA9303
:100C5000AA939A938A9325972A834801442478017A
:100C60000FEDE00E03E0F01EA0E0B0E088EC90E0B5
:100C7000340104E3600E02E0701EAC019E018301AA
:100C80000E943B14102F08810F3F11F4119689E147
:100C9000112309F094C00F3F81F314970CF48FC017
:100CA000F70101935F010881063809F08AC0EB83E0
:100CB000FC83A0E0B0E02F0108E0C02EAC019E0153
:100CC0002F5F3F4F83010E943B14102F0981F201D7
:100CD00001932F011196CA94112309F062C0CC2010
:100CE00069F74424552408E0A00EB91E6501AC0143
:100CF0009E012F5F3F4F83010E943B14102F0981FB
:100D0000F60101936F0101E0400E591E112309F015
:100D100048C0EB81FC8106814016590624F40DEF92
:100D20004016590624F3A40DB51D9D01820E931E95
:100D30000FED800E03E0901EF401A08187010E9458
:100D4000FC0F0A1781F50A8114E0019F42E156E188
:100D5000400D511DBA0162537F4F85010F5F1F4F38
:100D60005ADFFB01008311832283338385010A5FED
:100D70001F4F51DFFB0100AB11AB22AB33AB0BE0DC
:100D80000A0DB91E1B2D47DFFA01E25DFE4F0083FD
:100D9000118322833383FA01908391834424439403
:100DA00004C008E00DC000E1402EAC019E012F5FA1
:100DB0003F4F83010E943B14002319F4F6CF02E059
:100DC000402E042D259689919991A991B991499028
:100DD00059906990799089909990A990B990C9900B
:100DE000D990E990F9900895FA92EA92CA92BA924B
:100DF000AA929A928A927A926A925A924A92BA9352
:100E0000AA939A938A932497D801C22E5A010091EB
:100E1000AC1B1091AD1B2091AE1B3091AF1B088312
:100E200019832A833B830BE1C09E0BED402E03E127
:100E3000400C011D502E4D0104E5800E02E0901E75
:100E4000F4010181EC2CE01A23E082014DDBF50175
:100E500001E00083FD01E552FC4F00E000830183C7
:100E6000028303838D010C581A4F0E94D60FF401A0
:100E700000E003830483058306838D0107551A4F21
:100E80000E942E100C2D0E942D0C0AE010E00E94F2
:100E90003E18FD01E15AFA4FE08204E0E09E3D0178
:100EA000600C711C04E6600E05E0701EF301008109
:100EB000118122813381012B022B032BE9F0009158
:100EC000AC1B1091AD1B2091AE1B3091AF1B40812C
:100ED000518162817381041B150B260B370B402F48
:100EE000013305E7100700E0200730072CF4412B01
:100EF000422B432B09F03DC12C2D8D01F501418181
:100F0000F281E42F0995FD01E355FA4F008111812B
:100F1000F4010583168300810E94540D05E010E062
:100F20000E943E188D01015C1D4F0E947B138D01B4
:100F300014DE20ED37E004E00E94AF13002309F433
:100F40003DC10091AC1B1091AD1B2091AE1B3091A7
:100F5000AF1BF40100810E942A0DFF24CD018E0DEC
:100F60009F1D805A9A4FFC01F082F40100810023FA
:100F700081F00A9541F00A9589F4009131010061F0
:100F8000009331010BC00091D10000610093D100AA
:100F900005C00091C90000610093C9002C2D8D018E
:100FA000F5014381F481E42F0995102FF301F082BC
:100FB000F182F282F382FC0101E000831A9509F4C8
:100FC00064C01A9549F1165021F0185009F492C0E6
:100FD000F5C022E0820188DAF20100810C30A8F429
:100FE000F0E0FBBFF2E00F9FF001EC58FE4F0790DE
:100FF0001690F001099404ED13E105C00DE11EE027
:1010000002C006E618E00E947B19F20101E00183AC
:101010008201FCD931E0A5C020E0820165DAF2014D
:1010200000810C30A8F4F0E0FBBFF2E00F9FF0016C
:10103000E457FE4F07901690F001099404ED13E178
:1010400005C00DE11EE002C006E618E00E947B1913
:10105000F20102E0018300810C30A8F4F0E0FBBF54
:10106000F2E00F9FF001EC55FE4F07901690F00153
:10107000099404ED13E105C00DE11EE002C006E68F
:1010800018E00E94B41930E06CC0F20100810C300D
:10109000A8F4F0E0FBBFF2E00F9FF001E454FE4F34
:1010A00007901690F001099404ED13E105C00DE1DD
:1010B0001EE002C006E618E00E947B19F201F182F0
:1010C00000810C3008F07AC0F0E0FBBFF2E00F9F27
:1010D000F001EC52FE4F07901690F001099404EDD8
:1010E00013E105C00DE11EE002C006E618E00E9413
:1010F000B41964C0F20100810C30A8F4F0E0FBBF29
:10110000F2E00F9FF001E451FE4F07901690F001BE
:10111000099404ED13E105C00DE11EE002C006E6EE
:1011200018E00E947B19F201F18200810C30A8F4D2
:10113000F0E0FBBFF2E00F9FF001EC5FFD4F079086
:101140001690F001099404ED13E105C00DE11EE0D5
:1011500002C006E618E00E94B41921E08201C4D959
:1011600032E02C2D8D01F5014581F681E42F0995A2
:1011700025C002E010E00E943E18FF24FD01EE0DA4
:10118000FF1DE05AFA4F01E00083F40100810023C3
:1011900081F00A9541F00A9589F4009131010061CE
:1011A000009331010BC00091D10000610093D10088
:1011B00005C00091C90000610093C9000881198130
:1011C00002511D4F0E941818F4010081002381F084
:1011D0000A9541F00A9589F4009131010F7E009340
:1011E00031010BC00091D1000F7E0093D10005C0EA
:1011F0000091C9000F7E0093C900FF24AE0DBF1DF2
:10120000A05ABA4FFC92249689919991A991B991CB
:10121000499059906990799089909990A990B99046
:10122000C990E990F99008959A928A925A924A92B6
:10123000BA93AA939A938A938090BB1B9090BC1BFD
:1012400001EC800E0DEF901EB4016C547F4F40E80E
:1012500051E021E084010C5C1D4F0E944A1840E8D7
:1012600051E0940121523C4F84010C581A4F0E94C6
:10127000F60F40E851E09401255A3D4F840107558F
:101280001A4F0E94241084012DDCD401AC5ABD4FAA
:101290000C910E942A0D0C91002381F00A9541F0D7
:1012A0000A9589F4009131010F7E009331010BC042
:1012B0000091D1000F7E0093D10005C00091C900BC
:1012C0000F7E0093C9000E94711328012CC00BE10E
:1012D000809FEBEDF3E1E00DF11D0281002389F425
:1012E000038114812581368140E050E060E470E4A0
:1012F0000E94BF2430F493954FE155E1282F8401DB
:1013000073DD8395FD010281081708F708EB400E95
:101310000BE0501E82010E941818992321F408EC5A
:1013200010E00E943E1890E0FD018181EBCFBA935E
:10133000AA939A938A9306E618E00E9440190DE159
:101340001EE00E94401904ED13E10E944019B0E034
:10135000ACE00BE1B09F8BED93E1800D911D8C0112
:1013600070D80B2F0E94B60B8C0135D8FC0100E021
:1013700002838C014BD8B395AA9559F70E945B0C58
:101380000E947E0B0E947D0B0CED15E00E943E1822
:1013900002E010E01A930A9304EB1A930A9306EB07
:1013A00012E01A930A9364E179E048E724EA32E014
:1013B00005EF14E00E94941502E010E01A930A93DE
:1013C00004EB1A930A930DE618E01A930A9364E16A
:1013D00079E048E72AEA32E00CEA1AE00E94941524
:1013E00002E010E01A930A9304EB1A930A9304E2C2
:1013F0001EE01A930A9364E179E048E720EB32E0BB
:1014000003E610E10E94941589919991A991B991EF
:101410000895BA93AA931BE1019FABEDB3E1A00D30
:10142000B11D0C910C30A8F4F0E0FBBFF2E00F9F6F
:10143000F001E45EFD4F07901690F001099404ED71
:1014400013E105C00DE11EE002C006E618E00E94AF
:101450007B198D01A991B9910895F80100810C3093
:10146000B0F4F0E0FBBFF2E00F9FF001EC5CFD4F49
:1014700007901690F001099404ED13E102C00DE10C
:101480001EE00C94B41906E618E00E94B419089501
:1014900000E018E0000F20910B012E7F20930B013C
:1014A00020910B01216020930B012091090121FD66
:1014B00001601A9579F7089518E020910B012E7FAD
:1014C00020930B0107FB20910B0116F4246001C04F
:1014D0002B7F20930B01000F20910B0121602093A3
:1014E0000B011A9551F7089501E00E94C90C04E61A
:1014F00010E00E943E1800E00E94C90C04EF11E0C9
:101500000E943E1801E00E94C90C04E610E00C9411
:101510003E1808E3D1DFBCDF502FBADF152F089546
:1015200028EE33E001E00E94AF13002361F4009144
:10153000CF151091D0150F5F1F4F0093CF1510934B
:10154000D01501E0089500E008950EE00E94C20C5D
:1015500000E1B2DF0EE4B0DF28EE33E001E00E94EC
:10156000AF13002351F40091CF151091D0150F5FE8
:101570001F4F0093CF151093D015CBDF00E19CDFF8
:101580000FE09ADF00E00C94C20C9A938A93FA93CE
:10159000EA933A922A921A920A927A936A935A9307
:1015A0004A933A932A931A930A938FB79BB7009161
:1015B000B21B03950093B21B0091B31B03950093DC
:1015C000B31BF8940E94B3120091B31B002309F4DB
:1015D00078942AEB35E101E00E948F13F8940E9481
:1015E000CE120091B31B0A950093B31B0091B21B5E
:1015F0000A950093B21B9BBF8FBF09911991299146
:10160000399149915991699179910990199029904D
:101610003990E991F9918991999118954A92BA93E3
:10162000AA939A938A93402E890120E030E00E9489
:10163000F82340E050E060E270E40E942B2440E098
:101640005FEF6FE777E40E94032540E050E060E23F
:1016500071E40E94032540E050E068EC72E40E94CF
:101660002B244BEA5CE560E87FE30E940325C80178
:10167000D9010CE0401698F4042D0E94090AF801E3
:1016800083839483A583B68324E0429EF001E055D2
:10169000F94E80839183A283B3830E942D0A89919E
:1016A0009991A991B991499008959A938A931CDFD1
:1016B0004CDF90E08CE0092F0E94C20C00E1FCDEC0
:1016C0000EE0FADE2DDF25DFA80100E1F5DE0FE0F8
:1016D000F3DE9A01092FA2DF00912F150E94780DE9
:1016E00000912F15002311F401E001C000E00093E8
:1016F0002F1593958A95E9F2DECF089502E010E068
:101700001A930A9308E71A930A9302E415E11A93CD
:101710000A9365E57BE04AE526E235E10AEB15E14F
:101720000C949415F89401B10FEF01B90091B31B1B
:10173000002309F47894F89400910401006F009359
:1017400004010091B31B002309F47894F89402B1CA
:1017500000E002B90091B31B002309F47894F894D7
:10176000009105010F70009305016EC1402F0850D4
:1017700018F0045070F00895F89401E010E00E9411
:10178000A52312B1102B12B90091B31B002389F4C9
:101790000FC0F894445001E010E00E94A52310917E
:1017A0000501102B109305010091B31B002309F4D0
:1017B00078940895F894559A0091B31B002309F486
:1017C0007894F8940091070101600093070100915B
:1017D000B31B002309F47894F89400910701026088
:1017E000009307010091B31B002309F47894F89447
:1017F000009101010860009301010091B31B0023D7
:1018000009F47894F89400910701006100930701AE
:101810000091B31B002309F47894F8940091070118
:101820000062009307010091B31B002309F4789430
:10183000F894009104010860009304010091B31B27
:10184000002309F47894F894389A0091B31B00238C
:1018500009F47894F894399AF7C0102F0C3050F5A9
:10186000F0E0FBBFF2E01F9FF001E45BFD4F07904B
:101870001690F0010994F894109108011C7F07C09C
:10188000F894109108011F7C04500295007F102BE2
:10189000109308010091B31B002361F40AC0F8946F
:1018A00018B11C7F0850102B18B90091B31B0023EE
:1018B00009F478940895F8945D9A0091B31B00237D
:1018C00009F47894F89400910201086000930201F1
:1018D0000091B31B002309F47894F894009105015A
:1018E000086000930501B0C0F89400B30F6000BB1E
:1018F0000091B31B002309F47894F89400910A0135
:10190000016000930A010091B31B002309F478944D
:10191000F89400910A010D7F00930A010091B31B16
:10192000002309F47894F89400910A01046000936C
:101930000A010091B31B002309F47894F8940091F4
:101940000A01086000930A010091B31B002309F407
:101950007894F89450980091B31B002309F478947C
:10196000F89400910B01016000930B010091B31BEF
:10197000002309F47894F89400910B01077F0093F9
:101980000B0162C011B3107F11BB11B3102B11BB3F
:1019900008950023F89400910B0141F00860009332
:1019A0000B010091B31B002349F407C0077F00938C
:1019B0000B010091B31B002309F4789408950023D0
:1019C00029F00A9529F00A9549F008955C9A08953E
:1019D0000091020104600093020108950091050145
:1019E0000460009305010895F894549A0091B31B84
:1019F000002309F47894F8940091010104600093A5
:101A000001010091B31B002309F47894F89400912C
:101A100004010460009304010091B31B002309F446
:101A20007894F89400E0CBDF0091B31B002309F415
:101A30007894F89401E0C3DF0091B31B002309F40C
:101A40007894F89402E0BBDF0091B31B002309F403
:101A500078940895F894002381F00A9541F00A954E
:101A600069F40091050104600093050107C000912D
:101A7000020104600093020101C05C9AE5CF0023DB
:101A800029F00A9529F00A9549F008955C9808957F
:101A9000009102010B7F009302010895009105015E
:101AA0000B7F009305010895F894E9DFCDCFF894FA
:101AB0009D9A0091B31B002309F47894F8940DB11A
:101AC0000F700DB90091B31B002309F47894F894BA
:101AD0006A9A0091B31B002309F47894F8947298E1
:101AE0000091B31B002309F47894F8946B9AACCF5F
:101AF000002311F0A5980895A59A089513DE5ADEE3
:101B0000F3DE72DFD4CF2F3FF80141F023E024ABA6
:101B100024ED3FE02083318301E0089521E0208718
:101B200020E021872CE23EE02083318300E008950D
:101B3000BA93AA939A93782F2497D8011696ED9189
:101B4000FC9115970D911C911D96AF01400F511FEF
:101B50004D935C931F978D919D910D911C911597BD
:101B600080179107E8F4E80FF91F20830196FD0123
:101B7000828393832238E9F400E0078701E0068737
:101B8000FD0100E000870187028702E51EE00D935A
:101B90001C9300E02496872F9991A991B9910895FB
:101BA000FD0101E004AB04ED1FE00D931C9301E087
:101BB000F1CF263021F401E0078700E0E0CF26389E
:101BC00009F048C001E0078706871696ED91FC9161
:101BD0001797258528832485298323852A830285D1
:101BE0000B83088119812A813B81FD01048F158FA8
:101BF000268F378F80E090E08D01005E1F4F9D01A2
:101C00002C5D3F4F44E065E01C01369E302C269E43
:101C1000310C1696ED91FC911797E00DF31D52894A
:101C200058835189598350895A8357855B835685D8
:101C3000F80151938F01088019802A803B80F901B7
:101C400001921192219231929F0101964A9509F4D5
:101C500097CFDACF06E0A6CF9A938A932F3FF80169
:101C600061F080859185059730F048E95DE040831B
:101C700051835EDF14C024E00AC0208531852F5FC8
:101C80003F4F20873187C901459740F025E024ABBD
:101C900024ED3FE02083318301E001C000E0899121
:101CA000999108957B2F0A2E392F682FF80100850E
:101CB0001185012B41F40681178142815381040F64
:101CC000151F028B138B82819381048115818017EC
:101CD0009107A8F4A681B781A80FB91F2C9301968C
:101CE00082839383008511850F5F1F4F00871187C3
:101CF0000685002381F00A9551F000E012C101E051
:101D000004AB04ED1FE00083118301E0F7CF808571
:101D1000912F059791F70285002300E00087018746
:101D200029F403ED1EE000831183E7CF09E91EE0EB
:101D3000FACF0D01BC01F80100851185012B41F49A
:101D40000681178142815381040F151F048B158B67
:101D5000828193810481158180179107C0F4A68147
:101D6000B781A80FB91F2C930196828393830085B6
:101D700011850F5F1F4F008711879801028520177B
:101D8000304069F403ED1EE00083118308C001E0D8
:101D900004AB04ED1FE00083118301E001C000E00B
:101DA000CB01D00108951D010C01D8011696ED91CB
:101DB000FC91D80112964D915C91BF01640F751F83
:101DC000D80156966D937C93D80112968D919C9173
:101DD000D80114964D915C918417950768F4E80F2B
:101DE000F91F20830196F8018283938327E03FE067
:101DF0002083318300E008C0F80121E024AB24ED0A
:101E00003FE02083318301E0C001D10108950D013D
:101E1000BC01F8013785313021F4223010F422E082
:101E20001AC0238782819381448155818417950745
:101E300088F4A681B781A80FB91F2C9301968283DD
:101E400093832785213020E069F4208721872BE4C4
:101E50003FE01BC021E024AB24ED3FE02083318331
:101E600001E016C0208F218F2385222339F420E042
:101E70002487228F238F20ED3FE007C0238524870E
:101E800020E02087218726E93FE02083318300E09E
:101E9000CB01D00108957B2F0A2E392F682FF8012E
:101EA00000851185012B41F4068117814281538100
:101EB000040F151F008F118F82819381048115817A
:101EC00080179107D8F4A681B781A80FB91F2C936A
:101ED000019682839383008511850F5F1F4F0087D2
:101EE0001187C8010297E1F40385023079F400E01C
:101EF0000487028F038F00ED1FE010C001E004ABE8
:101F000004ED1FE00083118301E00BC00385025044
:101F1000048700E00087018706E91FE00083118342
:101F200000E0862F932FA02DB72F08950D01BC013F
:101F3000F80100851185012B41F40681178142814A
:101F40005381040F151F028F138F828193810481A7
:101F5000158180179107C0F4A681B781A80FB91F1A
:101F60002C93019682839383008511850F5F1F4F09
:101F700000871187980104852017304069F400ED2F
:101F80001FE00083118308C001E004AB04ED1FE0F3
:101F90000083118301E001C000E0CB01D00108956E
:101FA000F801258702E0089500E00895F80120E097
:101FB000208B218B228B238B248B258B268B278BAD
:101FC000208F218F228F238F2087218722872387AD
:101FD00024872587268721E0278720E02283238303
:101FE00024AB23E83DE0208331830895F801268364
:101FF000378344835583DACF40E0522F532B39F097
:10200000F80151918F01452721503040C9F7042F25
:1020100008953B2F0A2EF801448155816281738116
:102020004617570710F000E00CC0A081B181A40F43
:10203000B51F2C93048115810F5F1F4F04831583F7
:1020400001E0A02DB32F0895F8012083318342834E
:10205000538320E02483258326830895F801F9CF54
:10206000F80126832223C9F03FEF64817581428104
:1020700053816417750710F000E008954081518185
:10208000460F571FFA013083F801448155814F5F95
:102090005F4F448355832A9541F701E00895BA9331
:1020A000AA93D8011A01132EB4DF013011F5910162
:1020B00045E0FD016481758102811381601771071C
:1020C000C0F4F90151919F01FD0100811181060FBA
:1020D000171FF8015083FD01048115810F5F1F4F09
:1020E000048315834A9529F7212D8D0192DF013054
:1020F00011F000E001C001E0A991B99108950D012E
:10210000F80104811581628173810617170738F57C
:10211000A081B181A00FB11F4C93048115810F5F85
:102120001F4F048315834423B9F004811581628114
:1021300073810617170798F4D9015D919D01A0815D
:10214000B181A00FB11F5C93048115810F5F1F4FF8
:10215000048315834A9549F701E0D001089500E012
:10216000FCCFBD01D801F80146812481358150E0C2
:10217000241B304000811181040F151F3DDF202FEB
:10218000FD0144815581028113814017510710F0F0
:1021900000E00EC000811181040F151FF80120839B
:1021A000FD01048115810F5F1F4F0483158301E03A
:1021B000DB0108950091D115002329F00A9539F02B
:1021C000025051F0089509E904BD03E003C009E994
:1021D00004BD07E007BD089500E40093900009E006
:1021E0000093910007E010E010939900009398008D
:1021F00008950091D115002329F00A95E9F00250C5
:10220000A9F108950FEF01B900E002B900E104B9A6
:1022100000E005B90FEF07B900E008B90AB90FEF00
:102220000BB90EEF0DB900EF0EB900E000BB01BB1A
:1022300007E003BB03E018C000E001B902B901EFF9
:1022400004B900E005B90FEF07B900E008B902E0F2
:102250000AB901EF0BB90EEF0DB900E00EB900BBE2
:1022600001BB00E103BB00E004BB089500E000BB3C
:1022700001BB009308010EE000935E1A00917C0000
:10228000007E00937C0000915E1A10917C00102B60
:1022900010937C0000917A00006200937A00009114
:1022A0007B00087F00937B0000917A000068009318
:1022B0007A0000917A00086000937A0001E006BB82
:1022C0000C947E0DF89400E005BF0DBB0AEA009364
:1022D000690000936A0001E00DBB00E00093740008
:1022E00007E00093750000E80FBF05B70093D21513
:1022F00000E005BF00935F1A089503B106950695A7
:1023000003700093D115DEDF74DF54DF00E000932B
:10231000D5150093D6150093D7150093D8150093C3
:10232000D9150093DA150093DD150093DE1500939F
:10233000EE150093EF150093DB150093F115009354
:10234000F0156EE07AE140E550E021E00FED15E197
:102350000E944A1808EE17E10093D3151093D41584
:1023600008E719E10093EA151093EB1500E00093DC
:10237000C00009E10093C40000E00093C50008E933
:102380000093C10006E00093C200089501E00895A3
:10239000A8950FE1009360000FE000936000A895FE
:1023A00001E2E0E0F0E007BF049101E2E2E007BFF4
:1023B000049101E2E4E007BF04910E940C180E941E
:1023C000F51A0E947D1140E050E026ED31E002E177
:1023D00016E10E947C250E94970901E91BE10E94F9
:1023E000401902E010E01A930A9300EA1A930A9344
:1023F00003E61AE11A930A9367E773E24EE620E3D5
:1024000035E107E61BE10E94941548EC50E027E512
:102410003CE108E91BE10E94151A08E91BE10E9452
:102420004F1A45E050E029E63CE101EA1BE10E9439
:10243000151A01EA1BE10E944F1A02E010E01A93FC
:102440000A9304E61A930A9303E01BE11A930A9392
:1024500063E372E142E327E335E10CE71BE10E940D
:1024600094150C947D1204E610E00E943E18A89585
:102470000FE1009360000FE000936000A89504EF67
:1024800011E00E943E18A895FACF0CB102950F708A
:1024900000950F7008952091B21B23952093B21BD5
:1024A00020E02093B31B78940093B81B0091B81BD5
:1024B0000023E1F7089578940895DF93CF93BF93B5
:1024C000AF939F938F93FF92EF92DF92CF92BF9241
:1024D000AF929F928F927F926F925F924F924090B5
:1024E000B21B4F924090B31B4F92E091BB1BF091F7
:1024F000BC1B4DB65EB642825382C3E6D2E003EA0D
:102500000DBF02E00EBF01E0009341150E9431179C
:10251000002700934115E091BB1BF091BC1B028189
:1025200013811EBF0DBF0F900092B31B0F9000923E
:10253000B21B4F905F906F907F908F909F90AF9065
:10254000BF90CF90DF90EF90FF908F919F91AF91D0
:10255000BF91CF91DF910895E091BB1BF091BC1B1F
:10256000EF2B59F2AACF0091411503950093411525
:10257000013009F008952F913F914DB75EB76C2F50
:102580007D2FC3E6D2E003EA0DBF02E00EBF7F93CA
:102590006F935F934F933F932F930895009141154D
:1025A0000A950093411509F008952F913F914F919D
:1025B0005F91CF91DF914DBF5EBF3F932F93089501
:1025C000BA93AA932897A02FB12F0C831D830A8357
:1025D0001B83EBEBFBE1008111810E831F83F894D9
:1025E0000D911C91119708831983CD93DC93088179
:1025F0001981012B29F0A881B12F1296CD93DC937C
:10260000ABEBBBE1ED91FC91C483D583ABEBBBE1BC
:10261000ED91FC9127830E9401182896A991B99108
:102620000895BA93AA9328970C831D830A831B836A
:10263000EBEBFBE1608171816E837F83F894E02F87
:10264000F12F6081718168837983C083D183088190
:102650001981012B29F0A881B12F1296CD93DC931B
:10266000EBEBFBE10081F181E02F46875787EBEB35
:10267000FBE14081F181E42FC483D5832460EBEB3F
:10268000FBE10081F181E02F27830E940118289649
:10269000A991B991089524970A831B8300E00883C8
:1026A00009830C2F1D2F0E94111324960895BA93AD
:1026B000AA93A02FB12F07C0ED91F12F119706819A
:1026C00017810E94FE14F8940D911C911197012B13
:1026D00099F70091B31B002309F47894A991B9915B
:1026E00008954FB7F894ECEAFBE100811181228153
:1026F00033814FBF0895202F212B21F4EBEBFBE119
:1027000000811181F894E02FF12F248930E0348B7F
:102710000091B31B002309F47894022F0895BA9313
:10272000AA93F894E22FF32F1489102B148B0781AE
:10273000087F083061F4A481B5811496ED91FC9175
:102740000281102321F0022F132F0E94FE1400910A
:10275000B31B002309F47894A991B99108954A9282
:10276000BA93AA939A938A93402E822F932F213063
:1027700000E090079CF0F8940E947113080F191F55
:10278000ABEBBBE1ED91FC912489242139F4402F7E
:10279000512F28E0042D10E00E944B13F894ABEB6E
:1027A000BBE1ED91FC91048910E0148B1091B31BF7
:1027B000112309F4789489919991A991B99149903B
:1027C0000895BA93AA939A938A93A02FB12F822F38
:1027D000932FE2EBFBE1008103950083F894EA2F4D
:1027E000F12F04811581012B61F420E40A2F1B2FA6
:1027F0000E94E012F894EA2FFB2F04811581012B2F
:10280000A1F30281138120853185020F131FE02F70
:10281000F12F0081E82FF92F0083EA2FFB2F00858D
:1028200011850F5F1F4F008711872681378102179F
:10283000130718F000E00087018704811581802FBD
:10284000912F019784839583021713070091B31B7F
:1028500021F0002349F4789407C0002309F4789408
:102860000A2F1B2F0E9457130E94CA148991999115
:10287000A991B99108957A926A925A924A92BA931A
:10288000AA939A938A93A02FB12F822F932F642E0D
:10289000752E0E947113402E512E460C571C07C0F6
:1028A000442D552D20E40A2F1B2F0E941113F8945C
:1028B000EA2FFB2F04811581012B91F40E947113E3
:1028C000202F312F042D152D0E94C71401301040E8
:1028D0003CF70091B31B002309F4789401E00EC08B
:1028E000E2EBFBE1008103950083282F392F0A2FAB
:1028F0001B2F0E9473180E94CA1400E089919991BD
:10290000A991B991499059906990799008955B2F58
:102910006A2F392F482F202F212B21F4EBEBFBE1DD
:1029200000811181E02FF12F80899189A289B389DB
:10293000082F092B41F00D910A3A19F0082F192F91
:1029400004C00197C1F700E010E0842F932FA62F59
:10295000B52F08959A938A93202F212B21F4EBEB26
:10296000FBE100811181E02FF12F80899189CFDF78
:10297000801B910B082F192F899199910895E02FB1
:10298000F12F01C0219341505040E2F70895021BFE
:10299000130B0895F894E2EBFBE100810A950083A4
:1029A00031F40091B71B002311F00E945D120091D9
:1029B000B31B002309F4789408955B2F6A2FA02F8E
:1029C000B12F1496ED91FC912E2F2F2BA1F0A08109
:1029D000B181228133814A2F4B2B21F012962D9306
:1029E0003C931397E22FF32FA083B18320E0E02FD5
:1029F000F12F24832583A62FB52F0895BA93AA9388
:102A0000A02FB12FF894E02FF12F078103700783D7
:102A10000A2FD3DFEA2FFB2F0781002309F07CC0A8
:102A2000EDEBFBE100811181A017B10721F00081DE
:102A30001181012B89F4EDEBFBE1A083B1830091BF
:102A4000B21B002319F40E945D12E9CFE7EBFBE112
:102A5000008102600083E3CF0081F181E02F0681D5
:102A6000EA2FFB2F2681021730F3EDEBFBE100810B
:102A7000F181E02F0681201791F60A2F1B2FE02FFE
:102A8000F12F00811181302F312B49F2E02FF12FEE
:102A90003681231721F6EDEBFBE1408151810417CC
:102AA000150769F7C8CFBA93AA93E02FF12F468193
:102AB00029EB3BE102C02A2F3B2FE22FF32FA0810D
:102AC000B1815A2F5B2B29F0EA2FFB2F5681451736
:102AD00090F3F894E02FF12FA083B183E22FF32F2E
:102AE00000831183E02FF12F248735872A2F2B2B8A
:102AF00079F0EA2FFB2F048715872681241721F40C
:102B0000E02FF12F218501C020E0E02FF12F208759
:102B10002781222309F472DF0091B31B002309F4FB
:102B20007894A991B9910895CA92BA92AA929A9268
:102B30008A927A926A925A924A92BA93AA939A93F2
:102B40008A93A02FB12FA22EB32EC42E862E972E9D
:102B50008D859E854F845888698845E150E020E046
:102B60000EDFE2EBFBE1008103950083EA2FFB2FF0
:102B700061860A2D0B2911F0A286B386828B938B76
:102B8000408A518A442D552D2AEA082F192FF7DE45
:102B9000EA2FFB2FC682840D951D489748E150E02F
:102BA00020E0082F192FEBDE00E0E82FF92F00833B
:102BB000018302E1048B0BE5058B968A878A082F37
:102BC000192F0A501040569447945694479456949F
:102BD000479404191509028B138B0197EA2FFB2FD9
:102BE000828393830A2F1B2F5EDFD4DE8991999114
:102BF000A991B9914990599069907990899099904B
:102C0000A990B990C99026960895BA93AA93F8947A
:102C1000E7EBFBE100810E7F0083ECEAFBE1008142
:102C20001181228133810056104FE0EBFBE10083DC
:102C3000118327C0EFEBFBE100811181E1ECFBE1A7
:102C400000831183E091C11BF12F00811181EFEB13
:102C5000FBE10083118300E0A1ECBBE1ED91FC916D
:102C60000087A1ECBBE1ED91FC910483058378948E
:102C7000A1ECBBE1ED91FC910281F381E02F09957C
:102C8000F894EFEBFBE100811181012BE1F0ECEA1C
:102C9000FBE10081118122813381202F312FAFEBA5
:102CA000BBE1ED91FC910481158171DE0130104092
:102CB0000CF2AFEBBBE1ED91FC9104811581E0EBEF
:102CC000FBE1008311837894E9EBFBE116C0E0EBB4
:102CD000FBE120813181EA2FFB2F0685178557DE26
:102CE000112342F4EA2FFB2F06851785E0EBFBE169
:102CF000008311837894EA2FFB2FA081B1810A2FE2
:102D00000B2B61F1F894EDEBFBE100811181012BBC
:102D100059F0EA2FFB2F2681EDEBFBE10081F181D9
:102D2000E02F06812017D0F0EA2FFB2F07810770D4
:102D3000043001F7ECEAFBE100811181228133814B
:102D4000202F312FEA2FFB2F0685178520DE01303B
:102D500010400CF0BCCF0A2F1B2F50DEA991B99167
:102D60000895BA93AA93F894EBEBFBE100811181EB
:102D7000E7EBFBE120812B7F20837894202F212B10
:102D800009F456C0E02FF12F20813181232B09F463
:102D90004FC04681E081F32F2681241709F048C0F7
:102DA000E02FF12F208102C02E2F3F2FA22FB32F13
:102DB000ED91FC915E2F5F2B19F056815417A1F312
:102DC000F894EDEBFBE1408151814017510741F44C
:102DD000E02FF12F40815181EDEBFBE140835183E6
:102DE000E02FF12F44855585A02FB12FED91FC9157
:102DF000A42FB52FED93FC9344875587E02FF12F37
:102E000024873587A22FB32FED91FC91A02FB12FEE
:102E1000ED93FC934E2F4F2B11F004871587E22F73
:102E2000F32F0083118301850087789482D0F89472
:102E30007894A991B99108953B2F2A2FEDEBFBE1EE
:102E4000A081B1811496ED91FC91A481B581129677
:102E50000D911C91EBEBFBE100831183A22FB32FAB
:102E60000895BA93AA9301E00093B21B00E0009387
:102E7000B31B78940091B61B002359F00091B51B49
:102E8000ABEBBBE1ED91FC9100870091B71B02FD1C
:102E900068DFF894E7EBFBE1008100FF08C078945D
:102EA000B4DEF894E7EBFBE1008100FDF8CF008190
:102EB0000D7F0083EDEBFBE100811181012B41F1DE
:102EC000ADEBBBE1ED91FC910781002311F0B4DF84
:102ED00008C0EDEBFBE100811181EBEBFBE100832E
:102EE0001183ABEBBBE1ED91FC91A289B3890C910D
:102EF0000A3A21F008E710E00E944B12ABEBBBE16D
:102F0000ED91FC9100850093B51B0093B61B0EC09C
:102F100000E00093B51B0093B61BEBEBFBE10083D5
:102F200001830093B21B78940E94071BA991B99169
:102F30000895BA93AA938A932AC0E0EBFBE120811B
:102F400031810A2F1B2F23DD112322F4E0EBFBE15B
:102F5000A083B1838B7F803179F4EDEBFBE1A0811D
:102F6000B1811496ED91FC91A481B5811296ED91F9
:102F7000FC9107810023C9F0ADEBBBE1ED91FC9121
:102F800000811181EDEBFBE1008311837894EDEB7F
:102F9000FBE100811181012B41F0F894ADEBBBE125
:102FA000ED91FC918781882329F478948991A991E6
:102FB000B991089582FB76F6EDEBFBE10081F1819A
:102FC000E02FA685B785ECEAFBE100811181228123
:102FD0003381202F312F0A2F1B2FD9DC01301040D5
:102FE0000CF0ABCFEDEBFBE10081118107DDEDEBE8
:102FF000FBE10081F181E02F0781002309F0AACFD6
:10300000D4CFE2EBFBE1008103950083789491DF5C
:10301000F8940E945D12BECC01E00093B21B0093B5
:10302000B41B0FEF1FE3E0EBFBE100831183BFCC88
:10303000BA93AA939A938A93802F912F0091B21BEF
:10304000002349F078940E947113282F392F9FDCB8
:1030500011237AF4F8CFF894ABEBBBE1ED91FC913E
:103060008687178704E0ABEBBBE1ED91FC9107830A
:10307000C8DF89919991A991B99108959A938A93FA
:10308000802F912F0E947113080F191FD1DF899192
:10309000999108957A926A925A924A92AA939A932F
:1030A0008A93602E712EA22F842F952F462E572E95
:1030B0004BE050E020E00E94BF14E62DF72D428245
:1030C000538286839783A28789919991A991499088
:1030D000599069907990089589919991A991B991A0
:1030E0004990599008955A924A92BA93AA939A9302
:1030F0008A93402E512E822F932FE02FF12FA285FD
:10310000B0E0408551850A2F10E00E949323E42D02
:10311000F52D22813381200F311FE22FF32F2081E3
:10312000E82FF92F21938E2F9F2F0F5F1F4F11979D
:1031300071F7E42DF52D008511850F5F1F4F008776
:103140001187268137810217130718F000E00087E6
:10315000018704811581802F912F019784839583A6
:10316000021713070091B31B41F4002309F478946C
:10317000042D152D0E94571303C0002309F47894E1
:10318000ABCFBA93AA939A938A93E02FF12F81E061
:10319000A2EBBBE10C9103950C93F894048115818B
:1031A000468157810417150760F5402F512F008580
:1031B0001185040F151F468157810417150710F05C
:1031C000041B150BA22FB32F2C91A281B381A00F4A
:1031D000B11F2C9304811581802F912F0196848338
:1031E0009583012B0091B31B21F0002349F47894BF
:1031F00007C0002309F478940E2F1F2F0E94571345
:1032000080E00E94CA14082F89919991A991B991DF
:103210000895E2EBFBE1208123952083E02FF12F3D
:1032200024812A95248311F40E9457130C94CA1404
:10323000BA93AA939A938A93802F912FE3ECFBE1A0
:10324000A081B1810A2F0B2BB1F0EA2FFB2F048153
:10325000002351F0028113810817190729F401E0B6
:1032600004830A2F1B2FD5DFEA2FFB2FA581B68100
:103270000A2F0B2B51F789919991A991B991089532
:10328000BA93AA939A938A93802F912FE3ECFBE150
:10329000A081B1810A2F0B2B71F0A817B90721F477
:1032A0000FEA10E00E944B12EA2FFB2FA581B68196
:1032B0000A2F0B2B91F708E119E1E5ECFBE1008304
:1032C000118347E050E020E0082F192F0E94BF141F
:1032D000F894E3ECFBE100811181E82FF92F0583DD
:1032E0001683E3ECFBE1808391830091B31B002301
:1032F00009F47894C0CFBA93AA938A93A02FB12FE0
:10330000E2EBFBE1008103950083EA2FF12F0481BA
:103310000023B1F4EBEBFBE100811181EA2FFB2FDD
:1033200002831383EA2FFB2F048103950483802FEC
:103330000E94CA14082F10E08991A991B9910895AB
:1033400002811381EBEBFBE120813181021713072E
:1033500049F320E10A2F1B2F0E94E012EA2FFB2FD6
:1033600004810023B1F7D6CF54CFE2EBFBE100811B
:10337000039500837894F8940E94B3120091B31BD4
:10338000002309F47894F894ECEAFBE100811181C0
:10339000228133814091B41B50E060E070E0400F27
:1033A000511F621F731F4083518362837383E0EB5D
:1033B000FBE120813181042F152F0E94C7141123B6
:1033C0002AF0E7EBFBE10081016000830091B51B6F
:1033D000002351F0E5EBFBE10A95008329F4E7EBCC
:1033E000FBE10081046000830091B31B002309F41A
:1033F0007894EAEAFBE1008111810F5F1F4F00839F
:103400001183F8940E94CE12F8940091B21B0130FF
:1034100031F40091B71B002311F00E94AC12E2EBD3
:10342000FBE100810A95008308955A924A92BA936B
:10343000AA939A938A93A02FB12F822F932F442E71
:10344000552E49E050E020E00E94BF14EA2FFB2FE8
:1034500046825782448255828283938389919991CF
:10346000A991B991499059900895BA93AA93A02F20
:10347000B12FF89418960C911897002319F00A2F81
:1034800083D0F89416960D911C9113970D931C936D
:1034900015970A2F1B2F03D0A991B99108957A92FD
:1034A0006A925A924A92BA93AA939A938A93A02FB5
:1034B000B12FE02FF12F0085002309F05CC084813B
:1034C0009581813090400CF456C00E947113EA2F10
:1034D000FB2F24813581200F311F24833583822FD8
:1034E000932FF89401E00087EFEBFBE1008111815D
:1034F000012B29F400E00D930C9311971DC04E2E63
:103500005F2E6080712EE62DF72D24813581082FE6
:10351000192F0E94C714013010404CF0462C572C34
:10352000E62DF72D60807180062D072961F76D92D9
:103530007C921197E42DF52DA083B183E0EBFBE1A4
:1035400020813181AFEBBBE1ED91FC9104811581CC
:103550000E94C714112352F4AFEBBBE1ED91FC9133
:1035600004811581E0EBFBE1008311830091B31B23
:10357000002309F4789489919991A991B99149907E
:103580005990699079900895BA93AA93A02FB12F7A
:10359000F894E02FF12F00850023F9F000E0008778
:1035A0000E947113EA2FFB2F24813581201B310BE0
:1035B000248335830FEB1BE102C0022F132FE02F72
:1035C000F12F20813181232B41F020812A173B07E5
:1035D000A1F72D913C91208331830091B31B0023EF
:1035E00009F47894A991B991089500E000938000BE
:1035F00009E8009381000FE71EE310938900009310
:10360000880000916F00026000936F000895FFCF63
:103610009A938A93FA93EA933A922A921A920A9286
:103620007A936A935A934A933A932A931A930A93F2
:103630008FB79BB70E94B5199BBF8FBF0991199196
:1036400029913991499159916991799109901990EC
:1036500029903990E991F99189919991189520E0F3
:103660002D9301501040E1F708953BBF26912D9313
:10367000EF5FFF4F3F4F01501040B9F708954FE003
:103680005CE460E0FA01362F3BBF07911691FA0126
:10369000EE5FFF4F3F4F3BBFA791B691FA01362F28
:1036A000EC5FFF4F3F4F3BBF079017902690202DB8
:1036B0002129222921F0F001322DD7DF01C0CFDFEF
:1036C000495F5F4F6F4F1CE420E04D3151076207A7
:1036D000C8F208959A938A93FA93EA933A922A92B7
:1036E0001A920A927A936A935A934A933A932A9334
:1036F0001A930A938FB79BB721970091B21B03953A
:103700000093B21B0091B31B03950093B31BF89475
:103710000E94B3120091B31B002309F47894009126
:10372000C0000091C00008C00091C60008839E013F
:103730000FED15E10E94C1180091C00007FDF4CF04
:10374000F8940E94CE120091B31B0A950093B31B0C
:103750000091B21B0A950093B21B21963EC09A932A
:103760008A93FA93EA933A922A921A920A927A9355
:103770006A935A934A933A932A931A930A938FB768
:103780009BB70091B21B03950093B21B0091B31B32
:1037900003950093B31BF8940E94B3120091B31BDE
:1037A000002309F478940091C1000F7B0093C100BD
:1037B000729808E91BE10E94C41A00E00E94531CA1
:1037C000F8940E94CE120091B31B0A950093B31B8C
:1037D0000091B21B0A950093B21B9BBF8FBF09914A
:1037E000199129913991499159916991799109904A
:1037F000199029903990E991F991899199911895A9
:103800009A938A93FA93EA933A922A921A920A9294
:103810007A936A935A934A933A932A931A930A9300
:103820008FB79BB70091B21B03950093B21B009119
:10383000B31B03950093B31BF8940E94B31200913D
:10384000B31B002309F478940091D7151091D81573
:103850002091D9153091DA1502171307A0F4E091E1
:10386000D315F091D415E00FF11F00810093C6002D
:103870000091D7151091D8150F5F1F4F0093D715E2
:103880001093D8150FC00091C1000F7D0093C100A7
:103890000091C00000640093C0000091C10000646A
:1038A0000093C1008DCF1FB7F8941FBF08950091FA
:1038B000C1000F7D0093C100F89472980091B31B72
:1038C000002309F4789408E91BE10E94C41A00E07F
:1038D000EACF0091C10000620093C10001EA1BE140
:1038E0000C94C41A1B2E2A2E592F082EB90140E021
:1038F00080E090E030E00FC0F801A081B181A80F16
:10390000B91F14962C914227E42FF0E0E65FF44BA8
:103910003BBF469101968617970770F3042F802DC1
:10392000952FA22DB12D0895BA93AA93F80120E006
:1039300024832583A081B181FD0126E12083218399
:10394000228321E02383F8012285FD012483F801ED
:103950000385FD0105830091D115005F06830E9458
:103960004512FD01078300E0008701870287A991C6
:10397000B9910895BA93AA939A938A93D801D4DF00
:103980008D919C911197FD012281338189010F5FF7
:103990001F4F02831383FC01E20FF31F00E000833B
:1039A000FD012281338189010F5F1F4F0283138341
:1039B000FC01E20FF31F00E00083FD01228133814F
:1039C00089010F5F1F4F02831383FC01E20FF31F76
:1039D00000E00083FD012281338189010F5F1F4FC9
:1039E000028313830185102F13951187FC01E20FC9
:1039F000F31F0083FD0102810250FC010087FD01DD
:103A00000281138102501040FC01118726E030E052
:103A10008D0168DFFC010287FD0122813381245082
:103A200030408D015FDFFD0122813381FC01E20F17
:103A3000F31F0083FD01228133812F5F3F4F8901F6
:103A40000F5F1F4F02831383820F931FFC0104E05B
:103A50000083FD01028113810683178300E0048344
:103A6000058308E91BE10E94351AF8940091B31B05
:103A700003950093B31B729A0091B31B0A950093B0
:103A8000B31B09F4789401EA1BE10E94351A89916D
:103A90009991A991B9910895CA92BA92AA929A92CB
:103AA0008A927A926A925A924A92BA93AA939A9373
:103AB0008A935801F8018080918001E0028FF4011F
:103AC0000BE0038705E004870091D2150295007F83
:103AD000078700E1602E7724D401549680EB96E1AD
:103AE0000BED13E128010CE0C02E9C012E59304053
:103AF000F90140815181FD01349740835183F901DF
:103B000022813381FD0132972083318382010E941B
:103B1000EB01FC01E05AFF4F0081118122813381CA
:103B20000D931D932D933C93139700A911A922A9DE
:103B300033A9FD010483158326833783FC010081AB
:103B4000118122813381FD0100871187228733870C
:103B500000E1600E00E0701E82010E9406020BE18F
:103B6000400E00E0501E04965096CA9409F0BDCF56
:103B7000062D0F50F4010587F3013F970F2FF40135
:103B80000687F5016282738289919991A991B99111
:103B9000499059906990799089909990A990B9909D
:103BA000C9900895BA933A2E792F282E1FE1019FCC
:103BB000A3EDB5E1A00DB11DFD0101E0028FED9176
:103BC000FD910D911C911397E00FF11F01E000830F
:103BD000FD01028113810F5F1F4F02831383ED915B
:103BE000FD910D911397E00FF11F05E00083FD019A
:103BF000028113810F5F1F4F02831383A8010E5FA1
:103C00001F4F0283138360E02CE0F0E0E62FEC55B9
:103C1000F94E3081FD010081118102801380000D79
:103C2000111DF8013083FD01028113810F5F1F4FC9
:103C30000283138363952A9541F70281041B025086
:103C4000ED91FC911197E40FF51F0083FD01828136
:103C50009381841B950B0297ED91FC91E40FF51F66
:103C60009183822D972FA32DB99108957B2F2A2E12
:103C7000592F682F1FE1019FE3EDF5E1E00DF11DE4
:103C800001E0028FA081B18102811381A00FB11FD9
:103C90000DEE0C93028113810F5F1F4F028313837C
:103CA000A081B181A00FB11F04E00C9302811381A8
:103CB0000F5F1F4F0283138398012E5F3F4F2283B4
:103CC00033832091A216A081B1814281A40FB31F3A
:103CD0002C93228133812F5F3F4F228333832091A6
:103CE000A316A081B1814281A40FB31F2C9322811E
:103CF00033812F5F3F4F22833383201B2250A081CB
:103D0000B181A00FB11F2C9382819381801B910BF5
:103D1000029720813181200F311FF9019183862F75
:103D2000952FA22DB72F0895BA933A2E592F282EEA
:103D30001FE1019FE3EDF5E1E00DF11D01E0028FD0
:103D4000A081B18102811381A00FB11F03E40C9304
:103D5000028113810F5F1F4F02831383A081B18102
:103D6000A00FB11F04E00C93028113810F5F1F4F5E
:103D70000283138398010E5F1F4F0283138302EFA8
:103D800015E143E0D8016D91A081B18102801380DB
:103D9000A00DB11D6C93628173816F5F7F4F628351
:103DA0007383D80111967D918D01A081B18102802C
:103DB0001380A00DB11D7C93628173816F5F7F4F73
:103DC000628373834A95F1F60281021B0250A0813F
:103DD000B181A20FB31F0C9382819381821B930B3D
:103DE000029700811181020F131FF8019183822D28
:103DF000952FA32DB99108955A924A92BA93AA93F6
:103E00009A938A931FE1019FA3EDB5E1A00DB11D27
:103E1000FD0101E0028F0081118142815381040F75
:103E2000151FF80109E30083FD01028113810F5F73
:103E30001F4F028313830081118142815381040F3C
:103E4000151FF80104E00083FD01028113810F5F5B
:103E50001F4F0283138328010E5F1F4F02831383BA
:103E6000F90120810D911C911197FD01428153812F
:103E7000040F151FF8012083FD01028113810F5FDC
:103E80001F4F0283138308E0209FC00140815181AE
:103E90000281400F511F24E080010E94A901FD0111
:103EA000028113810C5F1F4F028313834081518174
:103EB000400F511F24E004968C010E94A901FD01CE
:103EC000028113810C5F1F4F028313830419025078
:103ED000ED91FC911197E40DF51D0083FD018281A8
:103EE0009381841995090297ED91FC91E40DF51DDC
:103EF000918389919991A991B99149905990089587
:103F00007A925A924A92BA93AA939A938A932901DF
:103F1000F90100811091D1151330F9F40038E8F05F
:103F2000E8E8F7E1202F30E02F70220F220FE20F98
:103F3000F31FD20111964D915D916D917C9140835B
:103F4000518362837383D20115964D915D916D917A
:103F50007C9140AB51AB62AB73AB18E0019FD001D9
:103F6000A2014F5F5F4F24E080010E94B8010E94D0
:103F70007113C801772401E010E00E943E180E94EE
:103F80007113081B190B0432104020F40091621ABF
:103F9000002389F305E0400E571CA20124E014968B
:103FA0008D010E94B8010E947113C80101E010E068
:103FB0000E943E180E947113081B190B0432104016
:103FC00020F40091621A002389F389919991A991B3
:103FD000B9914990599079900895BA93AA939A9378
:103FE0008A931FE1019FA3EDB5E1A00DB11DFD0175
:103FF00001E0028FED91FD910D911C911397E00F5F
:10400000F11F07E70083FD01028113810F5F1F4F3E
:1040100002831383ED91FD910D911397E00FF11F32
:1040200007E00083FD01028113810F5F1F4F0283B0
:104030001383C8010E5F1F4F0283138307E61BE142
:104040000E94AA14312F402F0D911C911197FD0150
:1040500062817381060F171FF8014083FD01028101
:1040600013810F5F1F4F02831383008111814281EF
:104070005381040F151FF8013083FD010281138164
:104080000F5F1F4F028313830CE71BE10E94AA14EA
:10409000312F402F0D911C911197FD016281738189
:1040A000060F171FF8014083FD01028113810F5F86
:1040B0001F4F028313830081118142815381040FBA
:1040C000151FF8013083FD01028113810F5F1F4F1F
:1040D00002831383081B0250ED91FC911197E80FA6
:1040E000F91F0083FD0102811381081B190B025087
:1040F0001040ED91FC91E80FF91F1183C8CC5A9242
:104100004A92BA93AA939A938A931FE1019FA3EDCF
:10411000B5E1A00DB11DFD0111E0128FED91FD91F2
:104120002D913C911397E20FF31F19EE1083FD01BF
:10413000228133812F5F3F4F22833383ED91FD91A5
:104140002D911397E20FF31F13E01083FD012281DD
:1041500033812F5F3F4F2283338329012E5F3F4FEF
:10416000228333832081318142815381240F351F83
:10417000F9010083FD01028113810F5F1F4F02834C
:1041800013832091D115205F0081118142815381D9
:10419000040F151FF8012083FD01028113810F5FB9
:1041A0001F4F02831383C8010F5F1F4F02831383C6
:1041B0000E944512ED91FC911197E80FF91F0083C1
:1041C0000D911C911197FD0122813381020F131F64
:1041D000F80104E00083FD01028113810F5F1F4F8E
:1041E000028313830081118122813381020F131F07
:1041F000F80101E00083FD01028113810F5F1F4F71
:10420000028313830081118122813381020F131FE6
:10421000F80102E00083FD01028113810F5F1F4F4F
:10422000028313830081118122813381020F131FC6
:10423000F80106E90083FD01028113810F5F1F4F22
:10424000028313830081118122813381020F131FA6
:10425000F80100E00083FD01028113810F5F1F4F11
:10426000028313830081118122813381020F131F86
:10427000F80100E90083FD01028113810F5F1F4FE8
:10428000028313830081118122813381020F131F66
:10429000F80101E00083FD01028113810F5F1F4FD0
:1042A000028313832091D2150081118142815381B1
:1042B000040F151FF8012083FD01028113810F5F98
:1042C0001F4F028313830081118122813381020FEA
:1042D000131FF80101E00083FD01028113810F5FCC
:1042E0001F4F0283138304190250ED91FC91119723
:1042F000E40DF51D0083FD018281938184199509E8
:104300000297ED91FC91E40DF51D918300E000937F
:10431000D215EFCDDA92CA92BA92AA929A928A9262
:104320007A926A925A924A92BA93AA939A938A93E9
:104330002801D901F801858C038D148D0F5F1F4F63
:10434000038F148F00E0028F0BE0028300E00383F1
:10435000C9010E944512FC011181101709F04BC0E0
:10436000DD24D3941796048115813D01600E711EE2
:1043700008E1C02E0FE0B02E08E0A02E99249A94F8
:10438000CD011496FC0100811181F801309631F0C5
:10439000319721F00093C71B1093C81BFC010081CB
:1043A000F181E02F309609F47EC0319709F47BC08B
:1043B000E75EF340E9F03A9721F13A9729F1F29755
:1043C00089F13A9799F13A97A9F1E05AF040B1F1A1
:1043D0003A9709F446C03A9709F447C03A9709F466
:1043E00053C03A9709F454C0EC56F24031F052C031
:1043F000082D85DE4FC0DD245CC09D01082DEDDD5C
:1044000049C00E94EA0146C0F999FECF91BCB2BCF6
:1044100090BCFA9AF99AF999FECFC0926000A092E6
:10442000600038C09D01082D6BDD34C09D01082D52
:10443000E3DC30C09D01082D77DC2CC00C91FD0120
:1044400011810093A2161093A316208102E010E0C0
:104450000E949B01FD01218103E010E00E949B016D
:1044600019C09D01082D02DC15C09D0140E01CE033
:10447000F90101919F01F0E0E42FEC55F94E008322
:1044800043951A9539F0F4CF9D01082D8BDB02C0BE
:10449000820102DBFC0102811381A00FB11FA6156E
:1044A000B70508F46DCFF201028D002311F08201EF
:1044B00061DA0D2D89919991A991B99149905990FD
:1044C0006990799089909990A990B990C990D99064
:1044D0000895FA92EA92DA92CA92BA92AA929A92BB
:1044E0008A927A926A925A924A92BA93AA939A9329
:1044F0008A9323973801F8014788508C9E01045F06
:104500001F4F0E94E113FF24EE24E394FA82BB24A0
:1045100042E350E09E018301045F1F4F0E943B1461
:104520000023B1F40881063199F708C0AA24A394A6
:104530000881063179F4EA0C00E0F01E42E350E015
:104540009E018301045F1F4F0E943B14002371F3FF
:10455000AA24ACC00E2D0F2909F4A8C0088101308F
:1045600009F0A4C0D20187E042E350E09D0183013D
:10457000045F1F4F0E943B141196002319F4AA24D4
:10458000A39401C0AA248A95AA2009F48FC0882385
:1045900059F740E0820126E0F80131918F0143276D
:1045A000E42FF0E0E65FF44B30E03BBF46912A9504
:1045B00099F7F2010681401709F078C0848195814E
:1045C000FC013497EC3FF34008F070C0CC24DD24AC
:1045D0004C0109EF800E0FEF901EC814D904B0F4FF
:1045E00042E350E09D018301045F1F4F0E943B1492
:1045F0001196002319F4AA24A39401C0AA2401E06F
:10460000C00E00E0D01EAA2041F750C0D20100E049
:1046100009838C0102501040202F212B71F0298139
:104620003D912327E22FF0E0E65FF44B30E03BBF03
:10463000269129830150104091F78201080F191F1C
:1046400003501040F80121813981231779F5208129
:10465000F301268FF8010281043041F5F201028155
:10466000035111F10D5011F581810E9445128017FF
:10467000E9F4F201008110E0E091D115F0E07096CC
:104680000E171F0799F4F2010381F3010387F2016A
:104690000281F3010287920183013CDE002321F0B5
:1046A000BB2401E00A8302C0BB24B3940B2D01702C
:1046B0001A2D1170012309F02BCF0A81002321F458
:1046C000F301018D0395018F0A81239689919991B8
:1046D000A991B99149905990699079908990999050
:1046E000A990B990C990D990E990F990089503EDF7
:1046F00015E1EFDEFCCF00008895FECF0CE80093BB
:10470000740003EA0DBF02E00EBFC4E6D2E00E94CF
:10471000C611002311F00E943F1B0E94C8110E9485
:104720007B230C947B23002411240030010741F0EB
:104730001695079510F4040E151E440F551FF5CF5E
:10474000002D112D0895000F111F4A95E2F70895CD
:10475000E03821F400FF08940EF488940F4F1F4FA7
:104760002F4F3F4F323038F4332319F427FD31E017
:1047700002C027FF30E03F3F29F0220F000C3795A1
:10478000279508953DC0E0E03E17A1F42E0739F5C6
:104790001E0741F50E0769F0202F00E036E82AF0E9
:1047A0003A95000F111F221FDAF7220F000C3795E0
:1047B00027950895EEE932F0EA95000F111F221FA8
:1047C000331FD2F70038012F122F232F3E2F11F461
:1047D00000FF08940F4F1F4F2F4F3F4FE6CF36E992
:1047E00022F3DECF212F102F00E03EE8F2F2D8CFE7
:1047F0000024C9CF302D30782227112700270895B3
:104800003FE7302920E8F9CF3FEF2FEFF6CF31E037
:10481000269529C02223C1F7660F771F29F07F3F15
:1048200079F7662389F7ECCF652B642B69F3E8CF22
:10483000E22FE12BE02B59F7660F771F7F3F21F323
:10484000D9CFF62FF42BF52BA9F271E0669511C0A4
:104850006623D1F6D5CF032E0726220F331F41F34F
:104860003F3FC1F22795660F771F59F37F3F81F3D2
:104870006795E0E0F0E0E8943F57E040370FEF1F26
:1048800012F021F0BDCF393ED8F26894302C049F4D
:10489000F001059F7727F00D711D149F2224F00D64
:1048A000711D221C069F0027700D211C001F249FD4
:1048B0004427700D211C041F159F700D211C041F1F
:1048C000169F1127200C011D111F259F200C011D73
:1048D000141F269F000D111D5EF433951695079544
:1048E00027947795F795E79533953130BCF314C04D
:1048F000112322F0332349F433950EC0339561F42C
:10490000032C7ECF3A95313038F0EE0FFF1F771F22
:10491000221C001F111FB2F7E894FE2B09F06894C7
:10492000212F102F022DE72F032C12CFF901EE0FAC
:10493000FF1FFF3F11F4EE23A1F4FB01EE0FFF1F59
:10494000FF3F11F4EE2369F4E32FE7276AF4F52B18
:10495000F42BF02BF12BF22BE32FEE0FFE2B11F0AB
:1049600073170895889408950417150726073707C5
:10497000C1F337FF0895EE1FE095E6950895F9011C
:10498000EE0FFF1FFF3F11F4EE2351F4FB01EE0F7A
:10499000FF1FFF3F11F4EE2319F4D6DF18F308943C
:1049A0000895E22FE12BE02B51F0E0E0269502C0C4
:1049B0003150E040000F111F221FD2F72DC0660FAB
:1049C000771F19F07F3F31F015CFE62FE42BE52B51
:1049D00031F010CF662319F40DCF222309F014CF44
:1049E000660F771F7F3FD9F30BCFF62FF42BF52BF4
:1049F000D9F3F0E0669502C07150F040440F551FA6
:104A0000661FD2F710C0032E0726220F331F49F26C
:104A10003F3F19F32795E0E0660F771F31F37F3FA3
:104A2000C9F26795F0E0E894371BEF0B3158EF4F70
:104A30002AF0EE23C9F63F3FB9F203C0393E60F2D7
:104A40006894E0E0F0E040175107620738F0315019
:104A500008F46894000F111F221FEE1F71E0172E3B
:104A600013940BC07A9371E0000F111F221FEE1FE9
:104A7000041715072607EF0720F0041B150B260B5C
:104A8000EF0B771F88F71A946AF719902990000F97
:104A9000111F221FEE1F041715072607EF073E2ED2
:104AA000F0F9E894E0E839F008F4E0E0322A312A3D
:104AB000302A09F06894709510942094332311F0F3
:104AC000F0FF09C0269417947795E79508F4689449
:104AD00033953130BCF3072F112D222D0C94A823D0
:104AE000AF93BF93D8013BBF07900D924150504008
:104AF000D9F7BF91AF910895F80101C02193BA0190
:104B000041505040672BD1F70895005EBCE2613FF1
:104B1000DD83C29C7E20A3FD1F419DC3217FFCA29B
:104B2000401E5F01E3BD3E6082DC237D9FC1421CCD
:104B3000FEA0E1BF5D0380DE3C62BEE0025CDF817F
:104B4000633D7C22C09E1D43A1FF4618FAA427792D
:104B50009BC584DA3866E5BB5907DB856739BAE45B
:104B600006581947A5FB7826C49A653BD987045A8D
:104B7000B8E6A7F91B45C6987A24F8A6441A99C73F
:104B8000257B3A6486D85B05E7B98CD2306EEDB3ED
:104B9000510F4E10F2AC2F7193CD114FADF3702E1B
:104BA000CC92D38D6F31B2EC0E50AFF1134DCE904D
:104BB000722C6D33D18F0C52B0EE326C8ED0530DFF
:104BC000EFB1F0AE4C1291CF2D73CA947628ABF5AD
:104BD00017490856B4EA6937D58B5709EBB53668DB
:104BE0008AD495CB2977F4AA4816E9B7550B88D60D
:104BF000346A2B7597C94A14F6A8742AC896154BBF
:104C0000A9F7B6E80A54D7896B3580000000009EEA
:104C100012A4021D4C0087064215000000484152B4
:104C2000543000484152543100484152543200003F
:104C30000000000000000000000000000000000074
:104C40000000000000000000000000000000000064
:104C50000000000000000000000000000000000054
:104C60000000000000000000000000000000000044
:104E8000000000000003000000000000000000001F
:104E90000000000000000000000000000000000012
:104EA0000000000000000000000000000000000002
:104EB00000000000000000000000000000000000F2
:104EC00000000000000000000000000000000000E2
:105430000000000000000000000001040700000060
:10544000000000000000000000000000000000005C
:10545000000000000000000000000000000000004C
:10546000000000000000000000000000000000003C
:10547000000000000000000000000000000000002C
:1059F0000002080B00000000000000000000000092
:105A00000000000000000000000000000000000096
:105A10000000000000000000000000000000000086
:105A20000000000000000000000000000000000076
:105A30000000000000000000000000000000000066
:105D60000000000000000000000000000000000132
:105D70000000000000000000000000000000000023
:105D80000000000000000000000002000000000011
:105D90000000000000000000000000000000000003
:105DA00000000000000300000000000000000000F0
:105DB00000000000000000000000000000000000E3
:105DC00004000000000000000000000000000000CF
:105DD00000000000000000000000000500000000BE
:105DE00000000000000000000000000000000000B3
:105DF000000000000000060000000000000000009D
:105E00000000000000000000000000000000000092
:105E1000000700000000000000000000000000007B
:105E2000000000000000000000000000080000006A
:105E30000000000000000000000000000000000062
:105E40000000000000000009000000000000000049
:105E50000000000000000000000000000000000042
:105E600000000A0000000000000000000000000028
:105E7000000000000000000000000000000B000017
:105E80000000000000000000000000000000000012
:105E9000000000000000000000D1051B06F60548C8
:105EA00041525444696167000155534152543000D6
:0B5EB000576174636820646F67000195
:04000003000046FCB7
:00000001FF
