:020000021000EC
:10E000000C94B7F0005EBCE2613FDD83C29C7E20D1
:10E01000A3FD1F419DC3217FFCA2401E5F01E3BD04
:10E020003E6082DC237D9FC1421CFEA0E1BF5D03F8
:10E0300080DE3C62BEE0025CDF81633D7C22C09EEC
:10E040001D43A1FF4618FAA427799BC584DA3866D8
:10E05000E5BB5907DB856739BAE406581947A5FBC4
:10E060007826C49A653BD987045AB8E6A7F91B45B8
:10E07000C6987A24F8A6441A99C7257B3A6486D8AC
:10E080005B05E7B98CD2306EEDB3510F4E10F2AC98
:10E090002F7193CD114FADF3702ECC92D38D6F3184
:10E0A000B2EC0E50AFF1134DCE90722C6D33D18F78
:10E0B0000C52B0EE326C8ED0530DEFB1F0AE4C126C
:10E0C00091CF2D73CA947628ABF517490856B4EA58
:10E0D0006937D58B5709EBB536688AD495CB297744
:10E0E000F4AA4816E9B7550B88D6346A2B7597C938
:10E0F0004A14F6A8742AC896154BA9F7B6E80A542C
:0BE10000D7896B35BA06000100000053
:10E10C0029D0F12FE02F20936800E895FFFF000045
:10E11C0021C020D0F32FE22F112E002E21E02093CE
:10E12C006800E895FFFF000015C014D0F12FE02F18
:10E13C0020FD20936800D895002DE395D895102DDF
:10E14C00089508D0002E29E020936800E895FFFF81
:10E15C00000000C0022E2091680020FDFBCF202D76
:10E16C0008950AEF03500DBF07E000400EBFCAEF41
:10E17C00D9E00E94BCF8002311F00E94CEF80E9456
:10E18C00F0F10E948AF80C9488F8E199FECF1FBB3D
:10E19C000EBBE09A0DB30895E199FECF1FBB0EBBE9
:10E1AC002DBBE29AE19A0895BA93AA939A938A9313
:10E1BC00A5E0B2E01DE1019FFD01E00DF11D30E095
:10E1CC00328333833483358336833783368737877B
:10E1DC00308B318B328B338B348B358B32870023E6
:10E1EC0019F00A9501F140C00AEFFD01068B378B3F
:10E1FC000FE312E00D931C930DE913E004871587D0
:10E20C003BB900E412E42FE00E948CF8402F4A95B1
:10E21C0049B9C80101979093900008E10AB906E04A
:10E22C000093950021C00AEFFD0103AB34AB0BEF5B
:10E23C0014E0058F168F09E516E001A712A730939D
:10E24C009B0000E412E42FE00E948CF8402F4A95CA
:10E25C0040939900C80101979093980008E10093AE
:10E26C009A0006E000939D0089919991A991B9912A
:10E27C00089500E003BF09E301BF00E00FBD0EBD30
:10E28C0000937A0000E211E01BBD0ABD00E005BD61
:10E29C0003BD00938B0000938A0000938C000093C5
:10E2AC0087000093860000BF07BF00937D00089590
:10E2BC0000E00ABB0BBB07BB08BB04BB05BB0FEFE5
:10E2CC0001BB02BB0EEF02B900E003B90093610081
:10E2DC000093620000E10093640000E0009365008D
:10E2EC000895F89400E009BF00936A000ABF09BFC3
:10E2FC0005BF00936D0000936C000FBF04B7009333
:10E30C00030100E004BF08958A9300E007BB86B3C5
:10E31C00869586958370E5DFCBDFABDF40E05BE471
:10E32C0060E070E000E040DF40E05BE460E070E063
:10E33C0001E03ADF01E010E00E94CBF00E3130F04A
:10E34C0001E010E00E94CBF00E32C0F1082F8823C0
:10E35C0029F00A9571F00A95D9F030C02FE101E04F
:10E36C0010E00E94D2F020E002E010E00E94D2F017
:10E37C002CC02EE101E010E00E94D2F020E002E07F
:10E38C0010E00E94D2F000E0009302010EE10EC0FA
:10E39C0020E201E010E00E94D2F020E002E010E068
:10E3AC000E94D2F001E00093020100E20093B70753
:10E3BC000E941BF20093B80789910895882329F0D5
:10E3CC008A9509F38A9571F3F3CF00E1009302016A
:10E3DC000FE1ECCFE199FECF0FEF0EBB0FE00FBBBF
:10E3EC00E09A0DB30A3AE1F00E948AF100E00E9433
:10E3FC0089F20CB101E00E9489F200919C000E940C
:10E40C003DF2009119020A3019F400E00E94C6F79F
:10E41C00009136020A3099F701E00E94C6F7EFCF5F
:10E42C00E0910001F0910101099401E010E00E94DB
:10E43C00CBF00093B70702E010E00E94CBF0009302
:10E44C00B8070895002329F41CB95E9BFECF5E9A91
:10E45C000895013059F410939C0000919B0006FF25
:10E46C00FCCF00919B00006400939B000895BA932D
:10E47C00AA935F9902C05C9B43C0E5E0F2E00CB14B
:10E48C00A485B58526853785A20FB31F0C93048907
:10E49C000A30B1F1002329F5A485B58506851785C9
:10E4AC00A00FB11F0C910230058931F40395058B37
:10E4BC0000E00687078724C0023000E0058B00F1DE
:10E4CC0001E0048B00E010E0008B018B0AEF068B5F
:10E4DC00178B068517850F5F1F4F0687178700E080
:10E4EC000DC0068517850F5F1F4F068717870F35E1
:10E4FC00114000E018F00E9489F202C00E9401F85D
:10E50C00A991B99108952FB7F894023058F41DE1F0
:10E51C00019FE5E0F2E0E00DF11D00E0058B048BBE
:10E52C00068707872FBF0895BA93AA938A93802FE3
:10E53C00EFEFFFEF00003197E9F70DE1809FA5E0C9
:10E54C00B2E0A00DB11DFD0106811781012BF9F080
:10E55C000081118124813581020F131FF801108174
:10E56C00082F0E9428F2FD01048115810F5F1F4FB7
:10E57C00048315830F35114018F000E004830583E4
:10E58C00068117810150104006831783D6CF88234C
:10E59C0031F41A98009165000F7E00936500899103
:10E5AC00A991B9910895BD01AC01102FC90100E0EA
:10E5BC0023303040A0F02DE1129FF001EB5FFD4FB6
:10E5CC00A081B1811296029731E0F0E02D910227E3
:10E5DC00E02FEC5FFF413BBF06910197B1F7CA01F9
:10E5EC00DB0108959D011DE1019FE5E0F2E0E00DE6
:10E5FC00F11D00E010E006870787008B018B048378
:10E60C00058302E0A081B1810C93A081B1811196A8
:10E61C000C930091B907A081B18112960C930091D3
:10E62C00B707A081B18113960C93A081B181149688
:10E63C001C93DF01ED91FC911583D9010895BA93D8
:10E64C00AA93202ECFDF0DE1209EA5E0B2E0A00D15
:10E65C00B11D20E00D911C911197FD014281538158
:10E66C00040F151FF8012083FD01028113810F5F38
:10E67C001F4F028313830081118142815381040F48
:10E68C00151FF8012083FD01028113810F5F1F4FBD
:10E69C0002831383ED91FC9111970583FD01038196
:10E6AC00ED91FC9111970483FD0122813381022DA0
:10E6BC007ADF2D913C911197FD0142815381240FFA
:10E6CC00351FF9010083FD01028113810F5F1F4F7C
:10E6DC000283138323E00081118142815381040F53
:10E6EC00151FF8012083FD01028113810F5F1F4F5D
:10E6FC000283138320E00081118142815381040F36
:10E70C00151FF8012083FD01028113810F5F1F4F3C
:10E71C000283138306831783248325830085118545
:10E72C000F5F1F4F00871187222041F40091650075
:10E73C000061009365001A9A00E0F6DEA991B99188
:10E74C000895E199FECF0FEF0EBB0FE00FBB0AEA65
:10E75C000DBBE29AE19AE199FECF08E001BD089564
:10E76C009A928A927A926A925A924A92BA93AA93FB
:10E77C009A938A931DE1019FA5E0B2E0A00DB11D13
:10E78C0001E0FD01048F47EF0081118162817381EB
:10E79C00060F171FF8014083FD01028113810F5FE3
:10E7AC001F4F0283138338010F5F1F4F02831383A4
:10E7BC004091B8070081118162817381060F171F88
:10E7CC00F8014083FD01028113810F5F1F4F02830B
:10E7DC001383C90104E044855585480F591FFA017C
:10E7EC0010814D915C911197FD0162817381460FEF
:10E7FC00571FFA011083FD01428153814F5F5F4F18
:10E80C004283538301960A9531F704851585F801E7
:10E81C00E20FF31F808191812E5F3F4F020F131F78
:10E82C00F8014080518001E04016500690F021E044
:10E83C000D911C911197FD014281040F151FF801D8
:10E84C002083FD01028113810F5F1F4F028313830D
:10E85C003DC08F3F0FE7900710F001E001C000E0D2
:10E86C000BBF880F991F88249924042D052971F159
:10E87C0020E08C010E949BF0312F402F0D911C91B8
:10E88C001197FD0162817381060F171FF8014083F8
:10E89C00FD01028113810F5F1F4F028313830081DF
:10E8AC00118142815381040F151FF8013083FD0142
:10E8BC00028113810F5F1F4F0283138302E0800ECE
:10E8CC0000E0901E02968414950490F2FD010281E2
:10E8DC0006190A95ED91FC91E60DF71D00838991BF
:10E8EC009991A991B9914990599069907990899091
:10E8FC0099900895DA92CA92BA92AA929A928A92AE
:10E90C007A926A925A924A92BA93AA939A938A9357
:10E91C001DE1019FA5E0B2E0A00DB11D01E0FD01DC
:10E92C00048F45EF0081118162817381060F171FDF
:10E93C00F8014083FD01028113810F5F1F4F028399
:10E94C00138358010F5F1F4F028313834091B80745
:10E95C000081118162817381060F171FF8014083BA
:10E96C00FD01028113810F5F1F4F0283138340E06F
:10E97C000081118162817381060F171FF80140839A
:10E98C00FD01028113810F5F1F4F028313830485E6
:10E99C001585F801E20FF31F808191812E5F3F4FA7
:10E9AC00F801E20FF31F408051802E5F3F4F020FA2
:10E9BC00131FF8014081442301F5242D252969F00A
:10E9CC000F5F1F4F24E031E0C201F80141918F012C
:10E9DC00F90141939F010197C1F725E00D911C911D
:10E9EC001197FD0142815381040F151F01501040F6
:10E9FC00F801208340920402A6C000900402112466
:10EA0C008001040D151D00161106B8F4FD010485D6
:10EA1C001585020F131F0F5F1F4F24E031E0200DEF
:10EA2C00311DB201F80141918F01F90141939F0110
:10EA3C0061507040462F472BA9F7400C511C01E048
:10EA4C004016500698F021E00D911C911197FD0194
:10EA5C0042815381040F151FF8012083FD010281AF
:10EA6C0013810F5F1F4F028313836DC08F3F0FE71E
:10EA7C00900718F001E00BBF01C01BBE880F991F57
:10EA8C006C0188249924042D0529B1F004E0602E32
:10EA9C0001E0702E9C01F301008111810E948FF026
:10EAAC0002E0800E00E0901E029602E0600E00E094
:10EABC00701E8414950470F325E086010E9486F084
:10EACC0021E186010E9486F088249924042D0529D1
:10EADC00D1F184E091E020E086010E949BF021E0DE
:10EAEC00820E20E0921EFC01408150E04017204035
:10EAFC0069F042E02D913C911197FD016281738187
:10EB0C00260F371F21503040F901408321E0820E3F
:10EB1C00951EFC01218130E02117504069F022E064
:10EB2C000D911C911197FD0142815381040F151F0A
:10EB3C0001501040F801208302E0C00ED31E029653
:10EB4C008414950440F2FD0102810A190A95ED9195
:10EB5C00FC91EA0DFB1D008389919991A991B991C2
:10EB6C00499059906990799089909990A990B99011
:10EB7C00C990D99008955A924A92BA93AA939A93AB
:10EB8C008A931DE1019FA5E0B2E0A00DB11D01E04B
:10EB9C00FD01048F23EF0081118142815381040F09
:10EBAC00151FF8012083FD01028113810F5F1F4F98
:10EBBC000283138328010F5F1F4F0283138320915D
:10EBCC00B8070081118142815381040F151FF80190
:10EBDC002083FD01028113810F5F1F4F028313837A
:10EBEC0000E00BBF80E090E011E017C000E0102BBC
:10EBFC00C9F023E000E0192F0E9486F021E100E02B
:10EC0C00192F0E9486F08F3F0EEF900710F001E055
:10EC1C000BBF9395903E40F310E00BB7002331F7F8
:10EC2C0001E0E5CF8BBF0D911C911197FD01428145
:10EC3C005381040F151FF8018083FD01028113819C
:10EC4C000F5F1F4F0283138304190A95ED91FC91FA
:10EC5C00E40DF51D008389919991A991B991499081
:10EC6C00599008955B2F6A2F1DE1019FE5E0F2E0BA
:10EC7C00E00DF11D01E0048F01EFA081B181228133
:10EC8C003381A20FB31F0C93028113810F5F1F4FAF
:10EC9C000283138398012F5F3F4F2283338320918C
:10ECAC00B807A081B1814281A40FB31F2C9322819C
:10ECBC0033812F5F3F4F2283338324E4A081B181C2
:10ECCC004281A40FB31F2C93228133812F5F3F4FBE
:10ECDC00228333832EE1A081B1814281A40FB31F23
:10ECEC002C93228133812F5F3F4F2283338327E97B
:10ECFC00A081B1814281A40FB31F2C932281338157
:10ED0C002F5F3F4F2283338322E0A081B181428168
:10ED1C00A40FB31F2C93228133812F5F3F4F22838B
:10ED2C003383201B2A95422F20813181200F311FE4
:10ED3C00F9014083A62FB52F08955B2F6A2F1DE193
:10ED4C00019FE5E0F2E0E00DF11D01E0048F0FE41E
:10ED5C00A081B18122813381A20FB31F0C93028158
:10ED6C0013810F5F1F4F0283138398012F5F3F4F57
:10ED7C00228333832091B807A081B1814281A40FF3
:10ED8C00B31F2C93228133812F5F3F4F2283338318
:10ED9C0023E8A081B1814281A40FB31F2C9322815F
:10EDAC0033812F5F3F4F2283338320910201A08157
:10EDBC00B1814281A40FB31F2C93228133812F5F29
:10EDCC003F4F228333832EE5A081B1814281A40F72
:10EDDC00B31F2C93228133812F5F3F4F22833383C8
:10EDEC0021E0A081B1814281A40FB31F2C93228119
:10EDFC0033812F5F3F4F228333832EE5A081B18176
:10EE0C004281A40FB31F2C93228133812F5F3F4F7C
:10EE1C002283338321E0A081B1814281A40FB31FEF
:10EE2C002C93228133812F5F3F4F22833383209198
:10EE3C000301A081B1814281A40FB31F2C932281C5
:10EE4C0033812F5F3F4F2283338320E0A081B18138
:10EE5C004281A40FB31F2C93228133812F5F3F4F2C
:10EE6C002283338320E0A081B1814281A40FB31FA0
:10EE7C002C93228133812F5F3F4F2283338320E0F9
:10EE8C00A081B1814281A40FB31F2C9322813381C5
:10EE9C002F5F3F4F2283338320E0A081B1814281D9
:10EEAC00A40FB31F2C93228133812F5F3F4F2283FA
:10EEBC003383201B2A95422F20813181200F311F53
:10EECC00F901408300E000930301A62FB52F0895AC
:10EEDC00BA93AA938A9381E01DE1019FE5E0F2E0E9
:10EEEC00E00DF11DA485B585A20FB31F4C91142F15
:10EEFC00105F91F01250C1F01250F1F0125031F13C
:10EF0C00135071F11254A1F5FD0112812091B80733
:10EF1C00121789F512DF2FC0FD0112812091B8075D
:10EF2C00121749F59FDE27C0FD0112812091B80709
:10EF3C00121709F520DE1FC0FD0112814091B807A0
:10EF4C001417C9F42D5F3F4FD5DC15C0FD0112819C
:10EF5C004091B807141779F42D5F3F4F01DC0BC0BB
:10EF6C00FD0112812091B807121729F4EADB03C0C6
:10EF7C004A3008F480E0082F8991A991B99108953D
:10EF8C004A92BA93AA939A938A93402E0DE1409E8B
:10EF9C00A5E0B2E0A00DB11D00E0FD01048F06E07C
:10EFAC0010E00283138384E090E09C01042D90DF39
:10EFBC00FD0124853585280F391FF901E181F0E029
:10EFCC0032968E0F9F1F002341F0FD01008D118D95
:10EFDC00025010408017910740F3FD01048D00236F
:10EFEC0011F0042D2CDB042D8EDA89919991A991C5
:10EFFC00B99149900895BA93AA939A93382E1DE12A
:10F00C00019FA5E0B2E0A00DB11DFD0114891123F3
:10F01C0009F466C01A9531F01A95F1F0185009F4FC
:10F02C005FC05DC0808991898330904008F458C0DE
:10F03C002485F585E22F52812381FD01208F518F8C
:10F04C002730504008F44BC002E0048B8089918932
:10F05C000196828B938B44C0228933892F5F3F4F5B
:10F06C00228B338B408D518D24173507C8F10A0143
:10F07C0024853585240F351F21503040F90110812E
:10F08C00133069F51EEF010E1FEF111E2224FD0136
:10F09C0044855585102D112979F0BA01C00131E054
:10F0AC00FB012191BF012226E22DF0E0EC5FFF4134
:10F0BC003BBF26900197A1F7FA01E00DF11D1081DD
:10F0CC00211669F4FA0110812091B707121739F44F
:10F0DC0001810093B9070AE0FD01048B01C013DA2A
:10F0EC00FD01008911890F5F1F4F008B118B0E35AD
:10F0FC00114018F000E0008B018B832D9991A991A0
:10F10C00B99108950C94F9F80C9488F80024112402
:10F11C001001E0E22015300571F4E051312F202F61
:10F12C001FEF0FEF0894301106C0E850322F212F3B
:10F13C00102F0FEF0894001F111F221F331FEA9589
:10F14C0072F0001C111C221C331C0416150626061A
:10F15C00370688F3041A150A260A370AECCFA001E1
:10F16C00B1010095109520953095089501E0089512
:10F17C0020E008D0E9F708953BBF27913BB702D0B8
:10F18C00D9F708952D9301501040202F212B08956D
:10F19C0044E051EE61E0FA01362F6BBF07911691F6
:10F1AC00FA01EE5FFF4F3F4F3BBFA791B691FA01BB
:10F1BC00362FEC5FFF4F3F4F3BBF079017902690C9
:10F1CC00202D2129222921F0F001322DD5DF01C07B
:10F1DC00CFDF495F5F4F6F4F11EE21E04B3051078E
:08F1EC006207C8F20895FFCF8D
:00000001FF
