:0A0000000C948B000C9400000C948B
:10000A0000000C9400000C9400000C9400000C9466
:10001A0000000C9400000C9400000C9400000C9456
:10002A0000000C9400000C9400000C9400000C9446
:10003A0000000C9400000C9400000C9400000C9436
:10004A0000000C9400000C9400000C94FC010C9429
:10005A0029020C9400000C9400000C9400000C94EB
:10006A0000000C9400000C9400000C9400000C9406
:10007A0000000C9400000C9400000C9400000C94F6
:10008A0000000C9400000C9400000C9400000C94E6
:10009A0000000C9400000C9400000C9400000C94D6
:1000AA0000000C9400000C9400000C9400000C94C6
:1000BA0000000C94DD010C9400000C9400000C94D8
:1000CA0000000C9400000C9400000C9400000C94A6
:1000DA0000000C9400000C9400000C9400000C9496
:1000EA0000000C9400000C9400000C9400000C9486
:1000FA0000000C9400000C9400001027E803640030
:10010A000A0001000010000110000100F894EE2717
:10011A00F8EDA0E4F4BFA093100180E090E2A0E023
:10012A00B0E6ED930197E9F7E0E0ECBBEDBBEEBB7F
:10013A00EFBBEFEFEDBFEFE7EEBFC0E0D8E60C9400
:10014A00A600F89410E0E8EDE4BF10931001E0E097
:10015A00E0931201E093130108D02AD0DBD008D132
:10016A002DD19FD17894FFCFFFCF1A930A930FB75F
:10017A00F89410E0E8EDE4BF1093800012E0E4BFC9
:10018A00109380001160E4BF1093800013E0E4BF75
:10019A001093600010E0E4BF1093610010E0E4BF28
:1001AA001093630011E0E4BF109362000FBFAFC069
:1001BA00E0E1E0930404E4E9E0930004E0E0E09382
:1001CA001004E0931104E0931204E8E0E0931304AE
:1001DA00E0E0E0931404E8E0E0931504E0931604E9
:1001EA00E0E0E0931704E0932404EFEFE0932004A7
:1001FA00E0E0E0933004E0933104E0933204E093CA
:10020A003304E0933404E0933504E8E0E0933604E1
:10021A00E0933704E0934404EDEEE0934004E0E019
:10022A00E0935004E8E0E0935104E0E0E0935204E4
:10023A00E0935304E8E0E0935404E0E0E0935504CB
:10024A00E0935604E0935704E0936404E093600457
:10025A00E8E0E0937004E0937104E0937204E093A1
:10026A007304E0937404E0937504E0937604E093D6
:10027A007704E0E0E0938404E0938004E8E0E0930C
:10028A009004E0939104E0939204E0939304E09342
:10029A009404E0939504E0939604E0939704E0E0D5
:1002AA00E093A404EEE3E093A004E8E0E093B00452
:1002BA00E0E0E093B104E093B204E093B304E09386
:1002CA00B404E093B504E093B604E093C404EFEFFA
:1002DA00E093C004E0E0E093D004E093D104E0931B
:1002EA00D204E093D304E093D404E093D504E093DA
:1002FA00D604E093D70408951A930A938D01E0E097
:10030A00EC931396EC93D8011496ECE0EC930991D4
:10031A0019910895A0E0BAE0EFDFE0E0E093000A67
:10032A00E1E4E093010AE091E605E87FE093E6055F
:10033A00E0E0F0E0E093200AF093210AE1E0F0E047
:10034A00E093280AF093290AE0E0F0E0E0932A0A11
:10035A00F0932B0AE0932C0AF0932D0AE093090AF2
:10036A00E0930A0AE091000AE160E093000A089526
:10037A00A0E4BAE0C1DFE0E0E093400AE093410A7A
:10038A00E0E0F0E0E093600AF093610AE0EAFFE05F
:10039A00E093660AF093670AE0E0E093490AE1E035
:1003AA00E0934A0AE091400AE160E093400A089526
:1003BA00EA93E1E0E0934B0AE9911895E091E205AE
:1003CA00EC7FE160E093E205E0E1E0930504E3E01D
:1003DA00E0930708E1E8E0930508E3E8F6E0E09334
:1003EA000808F0930908E0ECE09306080895AA9338
:1003FA00EA93FA93EFB7EA931A930A9310910108D2
:10040A0000910008E12FE674E1F4E0918068EF5F63
:10041A00E0938068E150F0E0E050F8490083A09151
:10042A008068A03819F4E0E0E0938068A0918268BF
:10043A00AF5FA0938268A03821F4E0E0E09382687D
:10044A00E09A0991199127C0AA93EA93FA93EFB710
:10045A00EA93E0910569E030C9F0E0910569E1505D
:10046A00E0930569E0910469EF5FE0930469E15064
:10047A00F0E0ED57F749E081E0930208A0910469A2
:10048A00A03819F4E0E0E093046905C0E09105089A
:10049A00EF7DE0930508E991EFBFF991E991A99100
:1004AA001895E091E405E37FE093E405E7E2E09341
:1004BA006009E3E0E0936109E0E0E09362090895EE
:00000001FF
