:020000020000FC
:100000000C94014B0C9442080C94780818951895A0
:100010001895189518951895189518951895189578
:100020001895189518951895189518951895189568
:100030001895189518951895189518951895189558
:10004000189518950C94C62C189518951895189510
:100050001895189518951895189518951895189538
:10006000189518950C943E2E0C94CB2E0C94712E52
:10007000189518950C944E050C9431061895189502
:100080001895189518951895189518951895189508
:100090000C94FA2E0C94872F0C942D2F18951895EC
:1000A00018951895189518951895189518951895E8
:1000B00018951895189518951895189518951895D8
:1000C00018951895189518951895189500012E1ED5
:1000D0002D1E012D1E1DE51D01E51D01E51D01F172
:1000E0001D01F11D01F11D01F71D01031E07091E70
:1000F00003FD1D02EB1D4D0F1E011B1E01151E34BD
:10010000211E01271EFB03E801C048EC470AF54702
:100110000AFB473201480A07480A0D480A14480AF0
:100120001F481E3548142A482889480A94480A9FBF
:10013000480AAA480AB548FE029EEF47FB000E9403
:10014000A04D28013901CA01DB0182019301AC01F4
:10015000BD010E94104C08011901800191014DEB75
:1001600057E366E875EB0E94AA4C58F480019101B0
:100170004EEB57E366E875E30E94924C10F400E002
:100180000CC0800191014DEB57E366E875EB0E94CE
:10019000924C10F40FEF01C001E0E8E00C94AF4D79
:1001A0009A938A93902F80E0883008F092C0009153
:1001B0008F03007F002321F009E910E00E94690B02
:1001C000F89400918F03039500938F035998009141
:1001D0008F03007F002321F009E910E00E94690BE2
:1001E00000918F030A9500938F0300918F030023E2
:1001F00009F4789497FB26F500918F03007F002384
:1002000021F009E910E00E94690BF89400918F0336
:10021000039500938F03A49A00918F03007F00231E
:1002200021F009E910E00E94690B00918F030A9503
:1002300000938F0300918F03002329F5789423C046
:1002400000918F03007F002321F009E910E00E9454
:10025000690BF89400918F03039500938F03A49882
:1002600000918F03007F002321F009E910E00E9434
:10027000690B00918F030A9500938F0300918F0300
:10028000002309F47894990F00918F03007F0023D5
:1002900021F009E910E00E94690BF89400918F03A6
:1002A000039500938F03599A00918F03007F0023D9
:1002B00021F009E910E00E94690B00918F030A9573
:1002C00000938F0300918F03002309F478948395A2
:1002D0006BCF899199910895EEE2FBE00081118145
:1002E00008B900918F03007F002321F009E910E095
:1002F0000E94690BF89400918F03039500938F037C
:1003000005B10E7105B900918F03007F002321F024
:1003100009E910E00E94690B00918F030A95009390
:100320008F0300918F03002309F4789400918F03C9
:10033000007F002321F009E910E00E94690BF89486
:1003400000918F03039500938F03EEE2FBE00181A0
:100350000170017015B1102B15B900918F03007F4A
:10036000002321F009E910E00E94690B00918F033E
:100370000A9500938F0300918F03002309F478946A
:1003800000918F03007F002321F009E910E00E9413
:10039000690BF89400918F03039500938F0344E059
:1003A000EEE2FBE0008111810E94224B007E15B13C
:1003B000102B15B900918F03007F002321F009E96C
:1003C00010E00E94690B00918F030A9500938F0340
:1003D00000918F03002309F4789408950E94A24DA0
:1003E000249744240CE0401640F45524F201E25DC9
:1003F000F44F01E002834394F5CF02E010E00E9445
:100400007705802F03E010E00E947705902FEEE241
:10041000FBE08083918360DF0FEFC2DE0FEFC0DE71
:100420000FEFBEDE0FEFBCDE00E1BADE0EE4B8DE99
:100430000AEF10E00E94C12805EC19E10E94182380
:1004400028EE33E001E00E947B2300918F03007FC0
:10045000002321F009E910E00E94690BF894009153
:100460008F03039500938F030EB10F700EB90091A7
:100470008F03007F002321F009E910E00E94690B3F
:1004800000918F030A9500938F0300918F0300233F
:1004900009F4789400918F03007F002321F009E98B
:1004A00010E00E94690BF89400918F03039500936C
:1004B0008F030EB1006E0EB900918F03007F0023F1
:1004C00021F009E910E00E94690B00918F030A9561
:1004D00000938F0300918F03002309F4789400E1C7
:1004E0005FDE0EE05DDE05E510E00E94C12805EC50
:1004F00019E10E9418232AEF30E001E00E947B23DB
:1005000008E34EDE44240CE0401620F5042D10E0F4
:10051000000F111F000F111FF801E057F44F00E00A
:10052000008300E0018300E0028300E00383042DE8
:1005300010E0000F111F000F111FF801E054F44FDD
:1005400008E519E320E83FE3008311832283338326
:100550004394D9CF44240CE0401608F07EC0AE018D
:1005600024E0BA01042D10E00068106048E050E07B
:100570000E94134BAB010E94D705088119812A8183
:100580003B810E944A0B002339F140E050E060E0DB
:1005900070EC088119812A813B81D1DD0130E4F0C2
:1005A00040E050E060E070E4088119812A813B81DD
:1005B000C6DD00238AF4488159816A817B81042D3C
:1005C00010E0000F111F000F111FF801E057F44F4A
:1005D0004083518362837383AE0124E0BA01042D0A
:1005E00010E00068106048E050E00E94134B0C5F80
:1005F0001F4FAB010E94D705088119812A813B81D9
:100600000E944A0B002339F148E451EE6AE77FE388
:10061000088119812A813B8192DD0130E4F04CE5AB
:100620005FE862E87FE3088119812A813B8187DDE9
:1006300000238AF4488159816A817B81042D10E06E
:10064000000F111F000F111FF801E054F44F4083F9
:1006500051836283738343947ECF00918F03007F25
:10066000002321F009E910E00E94690BF894009141
:100670008F03039500938F030EB10F700EB9009195
:100680008F03007F002321F009E910E00E94690B2D
:1006900000918F030A9500938F0300918F0300232D
:1006A00009F4789400918F03007F002321F009E979
:1006B00010E00E94690BF89400918F03039500935A
:1006C0008F030EB1006F0EB900918F03007F0023DE
:1006D00021F009E910E00E94690B00918F030A954F
:1006E00000938F0300918F03002309F4789400E1B5
:1006F00057DD0EE855DD0AEF10E00E94C12805EC39
:1007000019E10E94182328EE33E001E00E947B23C8
:1007100000918F03007F002321F009E910E00E947F
:10072000690BF89400918F03039500938F030EB12A
:100730000F700EB900918F03007F002321F009E9AB
:1007400010E00E94690B00918F030A9500938F03BC
:1007500000918F03002309F4789400918F03007FA8
:10076000002321F009E910E00E94690BF894009140
:100770008F03039500938F030EB1006E0EB90091A5
:100780008F03007F002321F009E910E00E94690B2C
:1007900000918F030A9500938F0300918F0300232C
:1007A00009F4789400E1FCDC0EECFADC0AEF10E0CE
:1007B0000E94C12805EC19E10E94182328EE33E0BD
:1007C00001E00E947B2344240CE0401608F045CF52
:1007D00000918F03007F002321F009E910E00E94BF
:1007E000690BF89400918F03039500938F030EB16A
:1007F0000F700EB900918F03007F002321F009E9EB
:1008000010E00E94690B00918F030A9500938F03FB
:1008100000918F03002309F4789400918F03007FE7
:10082000002321F009E910E00E94690BF89400917F
:100830008F03039500938F03042D0295007F1EB153
:10084000102B1EB900918F03007F002321F009E9CE
:1008500010E00E94690B00918F030A9500938F03AB
:1008600000918F03002309F4789400E199DC0EE0F5
:1008700097DC05E510E00E94C12805EC19E10E9413
:1008800018232AEF30E001E00E947B2308E388DC94
:1008900082D010E0102F00E0C8017DD010E0800F62
:1008A000911F5524F201E25DF44F00E006878C01B0
:1008B00020E030E00E949A4B40E05FEF6FE777E482
:1008C0000E94C24C40E050E068EC71E40E942D4C64
:1008D000442D50E0440F551F440F551FFA01E054BA
:1008E000F44F40815181628173810E942D4C442DCF
:1008F00050E0440F551F440F551FFA01E057F44FC5
:1009000040815181628173810E94104C442D50E0DE
:10091000440F551F440F551FFA01E25DF44F428DFD
:10092000538D648D758D0E94104CC801D9015524DA
:10093000F201E25DF44F028110E020E030E00E941D
:100940009A4B40E050E060E87FE30E94D14BA80161
:10095000B9018C019D010E94C24C442D50E0440F0E
:10096000551F440F551FFA01E25DF44F428D538D20
:10097000648D758D0E94D14B442D50E0440F551F5E
:10098000440F551FFA01E25DF44F028F138F248F3D
:10099000358F439419CF9A938A9390E080E0883002
:1009A00008F04EC0990F00918F03007F002321F0C3
:1009B00009E910E00E94690BF89400918F030395F8
:1009C00000938F03599800918F03007F002321F03B
:1009D00009E910E00E94690B00918F030A950093CA
:1009E0008F0300918F03002309F4789400918F0303
:1009F000007F002321F009E910E00E94690BF894C0
:100A000000918F03039500938F03599A00918F03F0
:100A1000007F002321F009E910E00E94690B00919A
:100A20008F030A9500938F0300918F03002309F42D
:100A30007894939B02C0916001C09E7F8395AFCF55
:100A4000092F89919991089500914A112091780078
:100A50003091790010E0000F111FF801E25EF44FB1
:100A60002083318300914A11039500934A1102308B
:100A700018F000E000934A1100917C00007E009382
:100A80007C0000914A1110917C00102B10937C0087
:100A900000917A00006400937A0008959A938A93F3
:100AA000FA93EA933A922A921A920A927A936A9362
:100AB0005A934A933A932A931A930A938FB79BB700
:100AC00004E215E00E94642C9BBF8FBF099119912D
:100AD0002991399149915991699179910990199088
:100AE00029903990E991F9918991999118950E94ED
:100AF000A54DC801F999FECF00918F03007F002317
:100B000021F009E910E00E94690BF89400918F032D
:100B1000039500938F0392BD81BDF89A00918F03D6
:100B2000007F002321F009E910E00E94690B009189
:100B30008F030A9500938F0300918F03002309F41C
:100B4000789400B5A02F0A2FE3E00C94B44D0E94D6
:100B5000A54DC801A22FF999FECF00918F03007F08
:100B6000002321F009E910E00E94690BF89400913C
:100B70008F03039500938F0392BD81BDA0BDFA9AA8
:100B8000F99A00918F03007F002321F009E910E01A
:100B90000E94690B00918F030A9500938F030091C7
:100BA0008F03002309F47894E3E00C94B44D0E9481
:100BB000A04D2801622EDA0180E090E077248615AE
:100BC000970540F48201080F191F91DF0C931196CD
:100BD0000196F4CFE8E00C94AF4D0E94A34DC801FC
:100BE000422EDA01F999FECF00918F03007F002396
:100BF00021F009E910E00E94690BF89400918F033D
:100C0000039500938F03ECE4F1E1A083B18340925C
:100C10004B1192BD81BD0C9100BDECE4F1E100816E
:100C200011810F5F1F4F0083118300E000934E116D
:100C3000FA9AF99AFB9A00918F03007F002321F022
:100C400009E910E00E94690B00918F030A95009357
:100C50008F0300918F03002309F47894E5E00C944E
:100C6000B24DFA93EA933A932A931A930A932FB7C1
:100C70003BB700914B110A9500934B1100914B111A
:100C80000023B9F001B512B50F5F1F4F12BD01BDB2
:100C9000E0914C11F0914D11008100BDECE4F1E1C7
:100CA000008111810F5F1F4F00831183FA9AF99A17
:100CB00004C0FB9801E000934E113BBF2FBF099188
:100CC000199129913991E991F99118950EEF01BD8A
:100CD0000FE002BD0BED00BDFA9AF99AF999FECF2B
:100CE00008E10093600008E100936000089500911E
:100CF0000A220F700093CC090091CC09005009F42E
:100D0000B3C0025049F0025009F440C0025009F447
:100D1000A8C00650D9F1AAC0EAECF9E0008111811F
:100D2000012B31F4ECE0F2E200810D7F00839EC0E4
:100D300000E00093CD090091CD09003130F5EAECD7
:100D4000F9E000811181012B01F1E8ECF9E000816B
:100D50001181F801E657F64F008100930822E8EC74
:100D6000F9E0008111810F5F1F4F00831183009113
:100D7000CD0903950093CD09EAECF9E000811181DA
:100D80000150104000831183D6CF70C0EDE0F2E235
:100D9000008100FF6BC000910822E6E4FAE02081A8
:100DA0003181F901E253F64F008300914C0A0A3079
:100DB00069F300914C0A0023E1F5E6E4FAE00081D2
:100DC0001181F801E253F64F0081023061F4009185
:100DD0004D0A039500934D0AE6E4FAE000E0008333
:100DE00000E00183D3CF00914D0A0230F0F000E023
:100DF00000934D0A01E000934C0AE8E4FAE000E0B9
:100E0000008300E00183EEE4FAE00AEF10E00083E3
:100E10001183E6E4FAE0008111810F5F1F4F008328
:100E2000118300E00E94321EB1CF00E000934D0A12
:100E3000ADCFE6E4FAE0008111810F5F1F4F008320
:100E40001183E6E4FAE000811181093720E01207FE
:100E500020F000E00E94860B99CF00E00E94321E35
:100E600095CF00910D2202C000910E2200910A221E
:100E70000F700093CC09ECECF9E0008100FF3CCF4F
:100E80000895009102220F700093960A0091960A2D
:100E9000005009F4B3C0025049F0025009F440C0B8
:100EA000025009F4A8C00650D9F1AAC0E4E9FAE05A
:100EB00000811181012B31F4E4E0F2E200810D7F29
:100EC00000839EC000E00093970A0091970A0031CA
:100ED00030F5E4E9FAE000811181012B01F1E2E94A
:100EE000FAE000811181F801EC5AF54F008100937E
:100EF0000022E2E9FAE0008111810F5F1F4F0083B9
:100F000011830091970A03950093970AE4E9FAE0A8
:100F1000008111810150104000831183D6CF70C031
:100F2000E5E0F2E2008100FF6BC000910022E0E109
:100F3000FBE020813181F901E856F54F00830091F3
:100F4000160B0A3069F30091160B0023E1F5E0E17E
:100F5000FBE000811181F801E856F54F0081023075
:100F600061F40091170B03950093170BE0E1FBE090
:100F700000E0008300E00183D3CF0091170B023023
:100F8000F0F000E00093170B01E00093160BE2E194
:100F9000FBE000E0008300E00183E8E1FBE00AEF12
:100FA00010E000831183E0E1FBE0008111810F5F1D
:100FB0001F4F0083118301E00E94321EB1CF00E079
:100FC0000093170BADCFE0E1FBE0008111810F5FD3
:100FD0001F4F00831183E0E1FBE00081118109379D
:100FE00020E0120720F001E00E94860B99CF01E07B
:100FF0000E94321E95CF0091052202C00091062268
:10100000009102220F700093960AE6E9FAE000814F
:1010100000FF3CCF08958A9324EF31E003E00E9463
:101020007B23802F80FB0EF462DE81FBAEF729DF8D
:10103000F3CF02E010E01A930A9300E911E01A934B
:101040000A9307EF13E01A930A936BE078E04AE5FE
:1010500020E433E006ED13E00E94B92008950091EA
:101060008705005019F00A9539F0089526ED33E010
:1010700001E00E944423089525EC39E101E00E943B
:10108000442308959A938A93FA93EA933A922A9280
:101090001A920A927A936A935A934A933A932A93AA
:1010A0001A930A938FB79BB70FE218E00E94642C43
:1010B0009BBF8FBF099119912991399149915991FC
:1010C000699179910990199029903990E991F99154
:1010D00089919991189500918705005019F00A950A
:1010E00031F0089526ED33E002E00E944423089594
:1010F0009A938A93FA93EA933A922A921A920A92CC
:101100007A936A935A934A933A932A931A930A9337
:101110008FB79BB70BE618E00E94642C9BBF8FBF74
:10112000099119912991399149915991699179912F
:101130000990199029903990E991F99189919991A3
:101140001895089500E0083068F4202F30E0220F51
:10115000331FF901E25EF44F10E0108310E01183B9
:101160000395F1CF10E010934A1110EC10937C001E
:101170001FE810937A0008950E94A34D402ECA01E3
:10118000DB016AE477E0042D10E0102F00E0110F7E
:10119000600F711F42E350E021E00CE717E0E42DFF
:1011A000F0E0FE2FE0E0FF0F0E0F1F1F0E94CD2882
:1011B000042D10E0102F00E0110FF801E356F94F55
:1011C00000E0008300E00183042D10E0102F00E018
:1011D000110FF801E156F94F00E0008300E00183B0
:1011E000042D10E0102F00E0110FF801EF55F94F1A
:1011F00000E0008300E00183042D10E0102F00E0E8
:10120000110FF801E55CF84F00E0008300E0018376
:10121000042D10E0102F00E0110FF801E35CF84FEF
:1012200000E0008300E00183042D10E0102F00E0B7
:10123000110FF801E15CF84F00E0008300E001834A
:10124000042D10E0102F00E0110FF801EF5BF84FB4
:1012500000E00083042D10E0102F00E0110FF801D2
:10126000EE5BF84F00E00083042D10E0102F00E04B
:10127000110FF801ED55F94F00E00083042D0050E7
:1012800019F00A9579F15BC0042D10E0102F00E0F1
:10129000110FF801ED5BF84F0AEF10E000831183A6
:1012A00000E00093C0008C019D010E949A4BA801B0
:1012B000B90100E014E224E739E40E94C24C40E0A6
:1012C00050E060E07FEB0E94D14B0E94344D1093C0
:1012D000C5000093C40008E90093C10006E0009334
:1012E000C2002DC0042D10E0102F00E0110FF801F6
:1012F000ED5BF84F0AEF10E00083118300E00093EC
:10130000C8008C019D010E949A4BA801B90100E020
:1013100014E224E739E40E94C24C40E050E060E06F
:101320007FEB0E94D14B0E94344D1093CD0000936F
:10133000CC0008E90093C90006E00093CA00E5E08C
:101340000C94B24D00918705005019F00A9559F0A0
:10135000089502E40093B00001E80093B10003E0B7
:101360000093B300089502E40093B00001E80093F5
:10137000B10007E00093B300089500918705005085
:1013800019F00A95F1F008950FEF01B900E002B9E4
:1013900000E104B900E005B90FEF07B900E008B9B2
:1013A00000E00AB90FEF0BB90EEF0DB900EF0EB95F
:1013B00000E000BB00E001BB07E003BB03E004BBAF
:1013C000089500E001B900E002B901EF04B900E0BE
:1013D00005B90FEF07B900E008B902E00AB901EF5B
:1013E0000BB90EEF0DB900E00EB900E000BB00E054
:1013F00001BB00E103BB00E004BB0895F894009139
:101400008705005019F00A9589F01FC000EC05BF50
:1014100000E00DBB0FEA009369000AEA00936A003E
:1014200003E00DBB00E8009374000FC000E005BFAF
:1014300000E00DBB0AEA009369000AEA00936A0023
:1014400001E00DBB00E00093740007E0009375001D
:1014500004B70093880500E004BF00E000934B113F
:10146000089500E004B903B1069506950370009352
:101470008705C4DF82DF66DF40E056E960E070E0A8
:1014800000E07ADE40E056E960E070E001E074DE02
:1014900059DE57DE00917A00006400937A000895C7
:1014A000A8950FE1009360000FE000936000A895FD
:1014B00000918F03007F002321F009E910E00E94D2
:1014C000690BF89400918F03039500938F030E949A
:1014D00081280E94EF2C0E94310A06EE19E10E9439
:1014E000EF2945E050E026ED3FE202E01AE10E94DC
:1014F000A52B02E01AE10E94222C45E050E02CEDE1
:101500003FE20CE01AE10E94A52B0CE01AE10E94D8
:10151000222C02E010E01A930A9300E911E01A93DA
:101520000A9300E511E11A930A9361E379E44EE628
:101530002DE433E000E219E10E94B92002E010E05E
:101540001A930A9300E911E01A930A9300EE12E14C
:101550001A930A936FE379E444E624E533E001E467
:1015600019E10E94B9200E94F62D009187050050D4
:1015700021F00A9509F446C05AC002E010E01A931F
:101580000A9300E911E01A930A9300E016E11A9316
:101590000A9364EF73E140E52BE533E003E819E1DA
:1015A0000E94B92048EC50E02AE73BE00EEE19E13A
:1015B0000E94A52B0EEE19E10E94222C02E010E001
:1015C0001A930A9300E911E01A930A9300E917E1CC
:1015D0001A930A9361EE76E14AE52CE633E004EAD9
:1015E00019E10E94B92048EC50E020E83BE008EF08
:1015F00019E10E94A52B08EF19E10E94222C0E94FC
:10160000190815C002E010E01A930A9300E911E0EE
:101610001A930A9300E016E11A930A936EEE71E0B2
:101620004AE52DE733E005EC19E10E94B92002E01C
:1016300010E01A930A9300E911E01A930A9300E765
:1016400014E11A930A9362E37BE042E324E833E077
:1016500002E619E10E94B92001E00093171A0E94E6
:10166000F01F089504E610E00E94C128A8950FE13C
:10167000009360000FE000936000A89504EF11E074
:101680000E94C128A895FACF09B102950F70009564
:101690000F7008950E94A44DA801B9018A019B0111
:1016A0000070107020783F77C801D901082F092BEE
:1016B0000A2B0B2B51F0803000E0900700E8A007C8
:1016C0000FE7B00711F001E001C000E0E4E00C9486
:1016D000B34D20918E03239520938E0320E0209319
:1016E0008F037894202F2093161A2091161A222304
:1016F000E1F70895ECE0F2E200810D7F00830895A8
:10170000E4E0F2E200810D7F00830895202F223073
:1017100080F5022F10E04AEC50E00E94134BF801D4
:10172000E35BF54F00E00083022F10E04AEC50E04D
:101730000E94134BF801E45BF54F00E00083022F99
:1017400010E04AEC50E00E94134BF801EA5BF54FC1
:1017500000E0008300E00183022F10E04AEC50E03B
:101760000E94134BF801E05BF54F00E0008300E0BE
:10177000018308950E94A44D202ED90160E082E0EB
:1017800090E08A179B07C8F470E0022D10E04AEC45
:1017900050E00E94134BEAE8F9E0E00FF11FE80F78
:1017A000F91F008110E060277127FB01EC5FF34611
:1017B00030E03BBF66910196E4CF062FE4E00C9445
:1017C000B34D202F022F10E04AEC50E00E94134B43
:1017D000F801EA5BF54F00E0008300E00183022F8F
:1017E00010E04AEC50E00E94134BF801E85BF54F23
:1017F00000E0008300E00183022F10E04AEC50E09B
:101800000E94134BF801E853F64F00E0008300E01C
:101810000183022F10E04AEC50E00E94134BF801C4
:10182000E657F64F02E00083022F10E04AEC50E04A
:101830000E94134BF801E657F64F02E00183022F96
:1018400010E04AEC50E00E94134BF801E657F64FC7
:1018500000E00283022F10E04AEC50E00E94134B9C
:10186000F801E657F64F0DEF0383022F10E04AEC24
:1018700050E00E94134BF801E657F64F00E0048356
:10188000022F10E04AEC50E00E94134BF801E6579B
:10189000F64F00E0058308950E94A44D802F082F85
:1018A00090DF082F10E04AEC50E00E94134B2AE82A
:1018B00039E0200F311F082F10E04AEC50E00E9461
:1018C000134BF801EA53F64F00811181200F311FAD
:1018D000F90101E00083082F10E04AEC50E00E947B
:1018E000134BF801EA53F64F008111810F5F1F4F30
:1018F00000831183082F10E04AEC50E00E94134B44
:101900002AE839E0200F311F082F10E04AEC50E0A0
:101910000E94134BF801EA53F64F00811181200F0A
:10192000311FF90100E00083082F10E04AEC50E07D
:101930000E94134BF801EA53F64F008111810F5FAB
:101940001F4F00831183082F10E04AEC50E00E94E3
:10195000134BF801EA53F64F00811181012F10E07B
:10196000202F082F10E04AEC50E00E94134BF801A2
:10197000E657F64F2483082F10E04AEC50E00E940F
:10198000134BF801EA53F64F00811181202F082FE5
:1019900010E04AEC50E00E94134BF801E657F64F76
:1019A0002583082F10E04AEC50E00E94134BF80109
:1019B000EA53F64F20813181082FDCDE602F082F9B
:1019C00010E04AEC50E00E94134B2AE839E0200F67
:1019D000311F082F10E04AEC50E00E94134BF80131
:1019E000EA53F64F00811181200F311FF901608306
:1019F000082F10E04AEC50E00E94134BF801EA5324
:101A0000F64F008111810F5F1F4F00831183082F54
:101A100010E04AEC50E00E94134B2AE839E0200F16
:101A2000311F082F10E04AEC50E00E94134BF801E0
:101A3000EA53F64F00811181200F311FF90103E0B5
:101A40000083082F10E04AEC50E00E94134BF8018D
:101A5000EA53F64F008111810F5F1F4F00831183FE
:101A6000082F10E04AEC50E00E94134B2AE839E0BE
:101A7000200F311F082F10E04AEC50E00E94134B5A
:101A8000F801EA53F64F00811181200F311FF9014F
:101A900000E00083082F10E04AEC50E00E94134B56
:101AA000F801EA53F64F008111810F5F1F4F008349
:101AB0001183082F10E04AEC50E00E94134BF8010C
:101AC000EA53F64FA081B1811197082F10E04AEC3C
:101AD00050E00E94134BF801E653F64FA083B18308
:101AE000082F10E04AEC50E00E94134BF801E85335
:101AF000F64F01E010E000831183082F07DE8823F2
:101B0000B1F4ECE0F2E200810260008304E110E055
:101B10000E94C128082F10E04AEC50E00E94134BAD
:101B2000F801E657F64F00810093082217C0813074
:101B3000A9F4E4E0F2E200810260008304E110E035
:101B40000E94C128082F10E04AEC50E00E94134B7D
:101B5000F801E657F64F008100930022E4E00C9470
:101B6000B34D202F022F10E04AEC50E00E94134B9F
:101B70006AE879E0600F711F022F10E04AEC50E034
:101B80000E94134BF801EA53F64F00811181600F58
:101B9000711FFB010AE00083022F10E04AEC50E0C5
:101BA0000E94134BF801EA53F64F008111810F5F39
:101BB0001F4F00831183022F10E04AEC50E00E9477
:101BC000134B6AE879E0600F711F022F10E04AECB6
:101BD00050E00E94134BF801EA53F64F0081118147
:101BE000600F711FFB0101E00083022F10E04AEC3F
:101BF00050E00E94134BF801EA53F64F0081118127
:101C00000F5F1F4F00831183022F10E04AEC50E05A
:101C10000E94134B6AE879E0600F711F022F10E0F9
:101C20004AEC50E00E94134BF801EA53F64F008152
:101C30001181600F711FFB0100E00083022F10E093
:101C40004AEC50E00E94134BF801EA53F64F008132
:101C500011810F5F1F4F008311830895202F022FE2
:101C600010E04AEC50E00E94134B6AE879E0600F04
:101C7000711F022F10E04AEC50E00E94134BF80154
:101C8000EA53F64F00811181600F711FFB0108E1DB
:101C90000083022F10E04AEC50E00E94134BF80141
:101CA000EA53F64F008111810F5F1F4F00831183AC
:101CB000022F10E04AEC50E00E94134B6AE879E0F2
:101CC000600F711F022F10E04AEC50E00E94134B8E
:101CD000F801EA53F64F00811181600F711FFB017B
:101CE00001E00083022F10E04AEC50E00E94134B09
:101CF000F801EA53F64F008111810F5F1F4F0083F7
:101D0000118330E0F901EA5DFE4E3081022F10E0D0
:101D10004AEC50E00E94134B6AE879E0600F711FB3
:101D2000022F10E04AEC50E00E94134BF801EA53F6
:101D3000F64F00811181600F711FFB013083022F6C
:101D400010E04AEC50E00E94134BF801EA53F64FC2
:101D5000008111810F5F1F4F008311830895202F91
:101D6000022F10E04AEC50E00E94134B6AE879E041
:101D7000600F711F022F10E04AEC50E00E94134BDD
:101D8000F801EA53F64F00811181600F711FFB01CA
:101D900000E10083022F10E04AEC50E00E94134B58
:101DA000F801EA53F64F008111810F5F1F4F008346
:101DB0001183022F10E04AEC50E00E94134B6AE8B6
:101DC00079E0600F711F022F10E04AEC50E00E9492
:101DD000134BF801EA53F64F00811181600F711F18
:101DE000FB0101E00083022F10E04AEC50E00E946A
:101DF000134BF801EA53F64F008111810F5F1F4F1B
:101E000000831183022F10E04AEC50E00E94134B34
:101E10006AE879E0600F711F022F10E04AEC50E091
:101E20000E94134BF801EA53F64F00811181600FB5
:101E3000711FFB0100E00083022F10E04AEC50E02C
:101E40000E94134BF801EA53F64F008111810F5F96
:101E50001F4F008311830895202F022F10E04AECBA
:101E600050E00E94134B6AE879E0600F711F022F67
:101E700010E04AEC50E00E94134BF801EA53F64F91
:101E800000811181600F711FFB010DE00083022FA3
:101E900010E04AEC50E00E94134BF801EA53F64F71
:101EA000008111810F5F1F4F00831183022F10E00B
:101EB0004AEC50E00E94134B6AE879E0600F711F12
:101EC000022F10E04AEC50E00E94134BF801EA5355
:101ED000F64F00811181600F711FFB0101E000834B
:101EE000022F10E04AEC50E00E94134BF801EA5335
:101EF000F64F008111810F5F1F4F00831183022F66
:101F000010E04AEC50E00E94134B6AE879E0600F61
:101F1000711F022F10E04AEC50E00E94134BF801B1
:101F2000EA53F64F00811181600F711FFB0100E041
:101F30000083022F10E04AEC50E00E94134BF8019E
:101F4000EA53F64F008111810F5F1F4F0083118309
:101F50000895202F022F10E04AEC50E00E94134B0E
:101F60006AE879E0600F711F022F10E04AEC50E040
:101F70000E94134BF801EA53F64F00811181600F64
:101F8000711FFB010BE10083022F10E04AEC50E0CF
:101F90000E94134BF801EA53F64F008111810F5F45
:101FA0001F4F00831183022F10E04AEC50E00E9483
:101FB000134B6AE879E0600F711F022F10E04AECC2
:101FC00050E00E94134BF801EA53F64F0081118153
:101FD000600F711FFB0101E00083022F10E04AEC4B
:101FE00050E00E94134BF801EA53F64F0081118133
:101FF0000F5F1F4F00831183022F10E04AEC50E067
:102000000E94134B6AE879E0600F711F022F10E005
:102010004AEC50E00E94134BF801EA53F64F00815E
:102020001181600F711FFB0100E00083022F10E09F
:102030004AEC50E00E94134BF801EA53F64F00813E
:1020400011810F5F1F4F008311830895202F022FEE
:1020500010E04AEC50E00E94134B6AE879E0600F10
:10206000711F022F10E04AEC50E00E94134BF80160
:10207000EA53F64F00811181600F711FFB0101E1EE
:102080000083022F10E04AEC50E00E94134BF8014D
:10209000EA53F64F008111810F5F1F4F00831183B8
:1020A000022F10E04AEC50E00E94134B6AE879E0FE
:1020B000600F711F022F10E04AEC50E00E94134B9A
:1020C000F801EA53F64F00811181600F711FFB0187
:1020D00000E00083022F10E04AEC50E00E94134B16
:1020E000F801EA53F64F008111810F5F1F4F008303
:1020F000118308951C01202F63E070E0022F10E08F
:1021000040E550E00E94134BF801EC5DFF4E00816A
:10211000E02FF0E033966E177F07C4F5E2E2F0E1BE
:1021200070E0E60FF71F022F10E040E550E00E943C
:10213000134BE00FF11F3081022F10E04AEC50E00A
:102140000E94134B8AE899E0800F911F022F10E044
:102150004AEC50E00E94134BF801EA53F64F00811D
:102160001181800F911FFC013083022F10E04AEC97
:1021700050E00E94134BF801EA53F64F00811181A1
:102180000F5F1F4F008311836395B7CF022F10E0BD
:1021900040E550E00E94134BF801EE5DFF4E00E079
:1021A0000083C1010895202F022F10E04AEC50E077
:1021B0000E94134B6AE879E0600F711F022F10E054
:1021C0004AEC50E00E94134BF801EA53F64F0081AD
:1021D0001181600F711FFB0101EA0083022F10E0E3
:1021E0004AEC50E00E94134BF801EA53F64F00818D
:1021F00011810F5F1F4F00831183022F10E04AEC03
:1022000050E00E94134B6AE879E0600F711F022FC3
:1022100010E04AEC50E00E94134BF801EA53F64FED
:1022200000811181600F711FFB0100E00083022F0C
:1022300010E04AEC50E00E94134BF801EA53F64FCD
:10224000008111810F5F1F4F008311830895202F9C
:10225000022F10E04AEC50E00E94134B6AE879E04C
:10226000600F711F022F10E04AEC50E00E94134BE8
:10227000F801EA53F64F00811181600F711FFB01D5
:1022800000EA0083022F10E04AEC50E00E94134B5A
:10229000F801EA53F64F008111810F5F1F4F008351
:1022A0001183022F10E04AEC50E00E94134B6AE8C1
:1022B00079E0600F711F022F10E04AEC50E00E949D
:1022C000134BF801EA53F64F00811181600F711F23
:1022D000FB0101E00083022F10E04AEC50E00E9475
:1022E000134BF801EA53F64F008111810F5F1F4F26
:1022F00000831183022F10E04AEC50E00E94134B40
:102300006AE879E0600F711F022F10E04AEC50E09C
:102310000E94134BF801EA53F64F00811181600FC0
:10232000711FFB0100E00083022F10E04AEC50E037
:102330000E94134BF801EA53F64F008111810F5FA1
:102340001F4F008311830895202F022F10E04AECC5
:1023500050E00E94134B6AE879E0600F711F022F72
:1023600010E04AEC50E00E94134BF801EA53F64F9C
:1023700000811181600F711FFB0105E60083022FB0
:1023800010E04AEC50E00E94134BF801EA53F64F7C
:10239000008111810F5F1F4F00831183022F10E016
:1023A0004AEC50E00E94134B6AE879E0600F711F1D
:1023B000022F10E04AEC50E00E94134BF801EA5360
:1023C000F64F00811181600F711FFB0101E0008356
:1023D000022F10E04AEC50E00E94134BF801EA5340
:1023E000F64F008111810F5F1F4F00831183022F71
:1023F00010E04AEC50E00E94134B6AE879E0600F6D
:10240000711F022F10E04AEC50E00E94134BF801BC
:10241000EA53F64F00811181600F711FFB0100E04C
:102420000083022F10E04AEC50E00E94134BF801A9
:10243000EA53F64F008111810F5F1F4F0083118314
:102440000895202F312F022F10E04AEC50E00E9417
:10245000134B6AE879E0600F711F022F10E04AEC1D
:1024600050E00E94134BF801EA53F64F00811181AE
:10247000600F711FFB0106E60083022F10E04AEC9B
:1024800050E00E94134BF801EA53F64F008111818E
:102490000F5F1F4F00831183022F10E04AEC50E0C2
:1024A0000E94134B6AE879E0600F711F022F10E061
:1024B0004AEC50E00E94134BF801EA53F64F0081BA
:1024C0001181600F711FFB0101E00083022F10E0FA
:1024D0004AEC50E00E94134BF801EA53F64F00819A
:1024E00011810F5F1F4F00831183022F10E04AEC10
:1024F00050E00E94134B6AE879E0600F711F022FD1
:1025000010E04AEC50E00E94134BF801EA53F64FFA
:1025100000811181600F711FFB013083022F10E0D9
:102520004AEC50E00E94134BF801EA53F64F008149
:1025300011810F5F1F4F008311830895202F022FF9
:1025400010E04AEC50E00E94134B6AE879E0600F1B
:10255000711F022F10E04AEC50E00E94134BF8016B
:10256000EA53F64F00811181600F711FFB0104E6F1
:102570000083022F10E04AEC50E00E94134BF80158
:10258000EA53F64F008111810F5F1F4F00831183C3
:10259000022F10E04AEC50E00E94134B6AE879E009
:1025A000600F711F022F10E04AEC50E00E94134BA5
:1025B000F801EA53F64F00811181600F711FFB0192
:1025C00000E00083022F10E04AEC50E00E94134B21
:1025D000F801EA53F64F008111810F5F1F4F00830E
:1025E0001183089500912E0B08B90895102F1050F3
:1025F00019F01A9549F0089510910822EDE0F2E2E1
:10260000208120FDF9CF089510910022E5E0F2E24B
:10261000208120FDF9CF08950E94A34D402ECA01CC
:10262000DB01042D10E04AEC50E00E94134BF8014E
:10263000EA53F64F00E0008300E00183042D10E030
:102640004AEC50E00E94134BF801E853F64F00E0CB
:10265000008300E00183042D10E04AEC50E00E946A
:10266000134BF801E653F64F00E0008300E00183CE
:10267000042D10E04AEC50E00E94134BF801EA5B95
:10268000F54F00E0008300E00183042D10E04AECE8
:1026900050E00E94134BF801E85BF54F00E0008327
:1026A00000E00183042D10E04AEC50E00E94134B3F
:1026B000F801E65BF54F00E0008300E00183042DA4
:1026C00010E04AEC50E00E94134BF801E45BF54F38
:1026D00000E00083042D10E04AEC50E00E94134B10
:1026E000F801E35BF54F00E00083042D10E04AECB5
:1026F00050E00E94134BF801E453F64F00E00083D2
:10270000042D005019F00A95B9F16BC0042D10E0AA
:102710004AEC50E00E94134BF801E25BF54F0AEFE0
:1027200010E00083118300E800930B2208E418EE08
:1027300021E030E0AC01BD010E94314B0093082242
:1027400008E418EE21E030E0AC01BD010E94314BFD
:10275000012F10E00093092203E000930B2201E017
:1027600000930A2201EC00930A2203E0009309225D
:1027700000E000930C2235C0042D10E04AEC50E03C
:102780000E94134BF801E25BF54F0AEF10E0008363
:10279000118300E80093032208E418EE21E030E002
:1027A000AC01BD010E94314B0093002208E418EEF9
:1027B00021E030E0AC01BD010E94314B012F10E05F
:1027C0000093012203E00093032201E00093022220
:1027D00001EC0093022203E00093012200E0009349
:1027E0000422E5E00C94B24D0E94A14DA0E0B5E0BA
:1027F00040E855E260E070E000E00EDF40E855E2BE
:1028000060E070E001E008DF02E010E00E94770580
:1028100000932E0B03E010E00E94770500932F0B2E
:1028200004E010E00E9477050093300B00E0009375
:10283000221000E00093721000E00093C21000E04C
:102840000093F410662408E0601698F500918F0359
:10285000007F002321F009E910E00E94690BF89441
:1028600000918F03039500938F0320912E0B01E0BD
:1028700010E0462D0E941D4B202308B1022B08B901
:1028800000918F03007F002321F009E910E00E94EE
:10289000690B00918F030A9500938F0300918F03BA
:1028A000002309F4789404E610E00E94C1286394A0
:1028B000CACF00E717E10E94C12800E00093890514
:1028C00000918905043008F03BC20091520A09309A
:1028D00010F000E08BDE00911C0B093010F001E0DD
:1028E00085DEB53020F4B395B53008F07BDE00917D
:1028F0008F03007F002321F009E910E00E94690B9B
:10290000F89400918F03039500938F030EB1006F2D
:102910000EB900918F03007F002321F009E910E038
:102920000E94690B00918F030A9500938F03009119
:102930008F03002309F478944091890500E110E0A9
:102940000E941D4B007F502E00918F03007F0023BB
:1029500021F009E910E00E94690BF89400918F03BF
:10296000039500938F03052D00951EB110231EB90A
:1029700000918F03007F002321F009E910E00E94FD
:10298000690B00918F030A9500938F0300918F03C9
:10299000002309F4789400912E0B10E040918905F2
:1029A0000E94274B0170002309F4C1C0E6ECF9E056
:1029B00006E010E00083118300912F0B10E03091AE
:1029C000890522E0329F402D0E94274B602E03E0B4
:1029D0006022062D005009F44FC00A9519F00A959F
:1029E00051F1A1C00A2F005019F0045121F020C06C
:1029F00000E0A4DD98C00091C2100023B1F4009162
:102A0000281110918905011781F413E700E019DD01
:102A1000009128110395009328110091281104308A
:102A200048F000E0009328117EC000E08DDC7BC000
:102A300000E08ADC78C00A2F0050D9F00451B1F4CC
:102A40000091C210002391F4009128111091890582
:102A5000011761F40091281103950093281100914A
:102A60002811043018F000E00093281100E0EFDB9B
:102A70005AC000E098DB57C000912210013069F481
:102A80000091231010918905011739F400E032DB21
:102A900000E0DCDA00E0802F02C001E0802FAA23F2
:102AA00019F400E056DA3FC0A53019F400E0D4D99B
:102AB0003AC0AA3019F400E0C9DA35C0AF3019F4D1
:102AC00000E04DD930C0A43151F50091C21000236F
:102AD00009F500912811109189050117D9F400E03A
:102AE000BDD8009126110E5F00932611009126118A
:102AF0000F30C8F000E000932611009128110395D3
:102B00000093281100912811043068F000E0009330
:102B1000281109C0813039F400E023D804C0813085
:102B200011F400E01ED800E00E944C0C12C000918D
:102B3000281110918905011761F40091281103955E
:102B40000093281100912811043018F000E0009340
:102B5000281100912E0B10E0409189054C5F0E94D6
:102B6000274B0170002309F4C8C0E0E9FAE006E051
:102B700010E0008311830091300B10E03091890543
:102B800022E0329F402D0E94274B602E03E06022FE
:102B9000062D005009F44FC00A9519F00A9551F11D
:102BA000A8C00A2F005019F0045121F020C001E004
:102BB000C5DC9FC00091F4100023B1F400912911ED
:102BC00010918905011781F413E701E03ADC0091C7
:102BD000291103950093291100912911043048F01F
:102BE00000E00093291185C001E0AEDB82C001E066
:102BF000ABDB7FC00A2F0050D9F00451B1F4009133
:102C0000F410002391F40091291110918905011706
:102C100061F4009129110395009329110091291164
:102C2000043018F000E00093291101E010DB61C0CE
:102C300001E0B9DA5EC000917210013089F40091B0
:102C4000731010E0E0918905F0E034960E171F072D
:102C500039F401E04FDA01E0F9D900E0902F02C029
:102C600001E0902FAA2319F401E073D942C0A530E6
:102C700019F401E0F1D83DC0AA3019F401E0E6D919
:102C800038C0AF3019F401E06AD833C0A43161F51F
:102C90000091F410002311F500912911109189057C
:102CA0000117E1F401E00E942E0E009127110E5F42
:102CB00000932711009127110F30D8F000E0009306
:102CC00027110091291103950093291100912911D1
:102CD000043078F000E0009329110BC0913049F4E2
:102CE00001E00E94B10D05C0913019F401E00E948D
:102CF000B10D01E00E944C0C12C0009129111091FD
:102D00008905011761F40091291103950093291198
:102D100000912911043018F000E00093291128EEE9
:102D200033E001E00E947B23402E41FA1EF4B530CF
:102D300008F0B0E000918905039500938905C0CDA6
:102D4000A395A53108F4B9CDA0E0B7CD0E94A34D5D
:102D5000402EBFEFA1E084E090E09C01042D1DD740
:102D6000002309F4A0E0EFECF9E0E80FF91F042DCF
:102D700010E04AEC50E00E94134BE00FF11F00817D
:102D8000E02FF0E032968E0F9F1FBA95BB2309F417
:102D9000A0E0AA2381F0042D10E04AEC50E00E944C
:102DA000134BF801E05BF54F008111810350104097
:102DB0008017910790F2042D0E94860BE5E00C9499
:102DC000B24D0E94A44D00E91AE10E94C12803EF10
:102DD00011E00E94C12821E030E003E00E947B2343
:102DE000902F90FBEEF400E0B1DF0091890510E038
:102DF000000F111F000F111FF801E25DF44F00E0FA
:102E0000038700E004870091890510E0F801E25D86
:102E1000F44F03810E7F038300E00093520A87C0C2
:102E20000091520A03950093520A0091890510E01F
:102E3000000F111F000F111FF801E25DF44F05850F
:102E400016850F5F1F4F0587168700918905202F74
:102E500030E0220F331F220F331FF901E25DF44FE0
:102E6000A385B4859D012F5F3F4F10E0000F111F18
:102E7000000F111FF801E25DF44F23873487169786
:102E800048F00091890510E0F801E25DF44F0381FC
:102E90000160038300912E0B10E0409189050E9490
:102EA000274B0170002309F442C00091890510E00E
:102EB000000F111F000F111FF801E25DF44F038591
:102EC00014850770043099F54091890501E010E000
:102ED0000E941D4B802F00918F03007F002321F063
:102EE00009E910E00E94690BF89400918F030395A3
:102EF00000938F03082F009518B1102318B9009183
:102F00008F03007F002321F009E910E00E94690B84
:102F100000918F030A9500938F0300918F03002384
:102F200009F4789423E839E102E00E94442391FBFC
:102F3000EEF401E00BDF0091890510E0000F111F96
:102F4000000F111FF801E25DF44F00E0038F00E075
:102F5000048F0091890510E0F801E25DF44F0781CC
:102F60000E7F078300E000931C0B89C000911C0BAF
:102F7000039500931C0B0091890510E0000F111FB1
:102F8000000F111FF801E25DF44F058D168D0F5FE4
:102F90001F4F058F168F00918905202F30E0220FDB
:102FA000331F220F331FF901E25DF44FA38DB48D5F
:102FB0009D012F5F3F4F10E0000F111F000F111FE9
:102FC000F801E25DF44F238F348F169748F000919B
:102FD000890510E0F801E25DF44F07810160078385
:102FE00000912E0B10E0409189054C5F0E94274B09
:102FF0000170002309F443C00091890510E0000F1F
:10300000111F000F111FF801E25DF44F038D148DA5
:1030100007700430A1F5409189054C5F01E010E094
:103020000E941D4B802F00918F03007F002321F011
:1030300009E910E00E94690BF89400918F03039551
:1030400000938F03082F009518B1102318B9009131
:103050008F03007F002321F009E910E00E94690B33
:1030600000918F030A9500938F0300918F03002333
:1030700009F4789423E839E102E00E94442323E82C
:1030800039E101E00E944423A2CE602FE8EDF9E08F
:10309000E20FF31F062F10E04AEC50E00E94134BA2
:1030A000E00FF11F0080118022803380062F10E096
:1030B000000F111F000F111F4091890550E0040FF0
:1030C000151FF801E25DF44F03A608950E94A04D7C
:1030D000202EB9012EEC39E0260F371F022D10E00B
:1030E0004AEC50E00E94134B200F311FE2EDF9E053
:1030F000E60FF71F022D10E04AEC50E00E94134B40
:10310000E00FF11FD9014D905D906D907C90139769
:10311000022D10E0000F111F000F111F40918905B3
:1031200050E0040F151F48E350E00E94134BD801F4
:10313000A75FB14F4D925D926D927C921397408044
:10314000518062807380022D10E0000F111F000F6C
:10315000111F4091890550E0040F151F48E350E00E
:103160000E94134BD801A35FB14F4D925D926D92B7
:103170007C921397A6EDB9E0A60FB71F022D10E0C1
:103180004AEC50E00E94134BA00FB11F3C90022D5F
:1031900010E0000F111F000F111F4091890550E032
:1031A000040F151F4EE050E00E94134BD801A759A1
:1031B000B44F3C92A7EDB9E0A60FB71F022D10E067
:1031C0004AEC50E00E94134BA00FB11F3C90022D1F
:1031D00010E0000F111F000F111F4091890550E0F2
:1031E000040F151F4EE050E00E94134BD801A75268
:1031F000B44F3C92E8E00C94AF4D0E94A04DA02F3C
:10320000C901EEECF9E0E80FF91F0A2F10E04AECD3
:1032100050E00E94134BE00FF11F008110E020E00E
:1032200030E00E949A4B280139010A2F10E0000F6C
:10323000111F000F111F2091890530E0020F131F8D
:1032400048E350E00E94134BF801E75FF14F4082E2
:10325000518262827382EFECF9E0E80FF91F0A2FC6
:1032600010E04AEC50E00E94134BE00FF11F308158
:1032700020E0E0EDF9E0E80FF91F0A2F10E04AEC3A
:1032800050E00E94134BE00FF11F008110E0200F6F
:10329000311F8901212F220F220B322F0E948E4BCA
:1032A00040E050E060E271E40E94C24C2801390124
:1032B0000A2F10E0000F111F000F111F2091890528
:1032C00030E0020F131F48E350E00E94134BF80157
:1032D000E35FF14F4082518262827382E1EDF9E057
:1032E000E80FF91F0A2F10E04AEC50E00E94134B40
:1032F000E00FF11F60810A2F10E0000F111F000F77
:10330000111F2091890530E0020F131F4EE050E09D
:103310000E94134BF801E25DF44F63AF0A2F10E0F7
:10332000000F111F000F111F2091890530E0020FBF
:10333000131F4EE050E00E94134BF801E752F44F88
:1033400000E00083E8E00C94AF4D1C01602FC90140
:103350008C01C8010196EEECF9E0E00FF11F062F99
:1033600010E04AEC50E00E94134BE00FF11F008187
:103370000337E1F5062F10E042E350E00E94134BC3
:10338000F801EE53FF4E01E0008304E0609F302D12
:1033900000918905300F062F10E042E350E00E94B3
:1033A000134BF801ED53FF4E308322E02630F0F44A
:1033B000EEECF9E0E80FF91F062F10E04AEC50E0C0
:1033C0000E94134BE00FF11F7081E2ECF0E130E05E
:1033D000E20FF31F062F10E042E350E00E94134B70
:1033E000E00FF11F708301962395E0CFC10108958E
:1033F000602F20908905EEECF9E0E20FF31F062F15
:1034000010E04AEC50E00E94134BE00FF11F4081A6
:10341000062F10E0000F111F000F111F3324020DA3
:10342000131DF801E25DF44F03A5042B03A7EFEC95
:10343000F9E0E20FF31F062F10E04AEC50E00E9483
:10344000134BE00FF11F7081062F10E0000F111FCA
:10345000000F111F4091890550E0040F151FF8015E
:10346000E25DF44F73ABE2EDF9E0E20FF31F062FDC
:1034700010E04AEC50E00E94134BE00FF11F008176
:10348000002389F040918905062F10E0000F111FDD
:10349000000F111F50E0040F151FF801E25DF44FFB
:1034A00003A9006803AB08950E94A44D602FC901D1
:1034B000062F10E042E350E00E94134BF801EE5358
:1034C000FF4E01E0008304E0609F202D00918905FC
:1034D000200F062F10E042E350E00E94134BF8014A
:1034E000ED53FF4E2083A2E0B0E0AB3200E0B00726
:1034F000ECF4EEECF9E0E80FF91F062F10E04AECCF
:1035000050E00E94134BE00FF11F2081E2ECF0E14C
:10351000EA0FFB1F062F10E042E350E00E94134B1E
:10352000E00FF11F208301961196DFCFE4E00C94A9
:10353000B34D1C01602FC90130E03E3008F05FC080
:10354000EEECF9E0E80FF91F062F10E04AEC50E02E
:103550000E94134BE00FF11F0081202F01962E30A7
:1035600008F04AC0EEECF9E0E80FF91F062F10E072
:103570004AEC50E00E94134BE00FF11F7081E9E626
:10358000FBE0022F10E0E00FF11F062F10E0000F0C
:10359000111F000F111F4091890550E0040F151FE6
:1035A0004EE050E00E94134BE00FF11F7083EFECF0
:1035B000F9E0E80FF91F062F10E04AEC50E00E94F6
:1035C000134BE00FF11F7081E9EDFBE0022F10E0DB
:1035D000E00FF11F062F10E0000F111F000F111F49
:1035E0004091890550E0040F151F4EE050E00E9405
:1035F000134BE00FF11F7083029633959ECFC101EC
:103600000895602FEEECF9E0E20FF31F062F10E0B3
:103610004AEC50E00E94134BE00FF11F7081062F1F
:1036200010E0000F111F000F111F4091890550E09D
:10363000040F151FF801E25DF44F73A7EFECF9E0FA
:10364000E20FF31F062F10E04AEC50E00E94134BEC
:10365000E00FF11F7081062F10E0000F111F000F07
:10366000111F4091890550E0040F151FF801E25D1C
:10367000F44F73AB08950E94A24D202EEDECF9E0BB
:10368000E20FF31F022D10E04AEC50E00E94134BB2
:10369000E00FF11F008110E0D801A13000E0B00779
:1036A0000CF472C060E070E06A177B070CF06CC02D
:1036B000EEECF9E070E08901060F171FE00FF11F33
:1036C000022D10E04AEC50E00E94134BE00FF11F76
:1036D0000081802F8E3008F055C0EFECF9E070E0EB
:1036E0008901060F171FE00FF11F022D10E04AECB1
:1036F00050E00E94134BE00FF11F7081E9E6FBE000
:1037000090E0E80FF91F022D10E0000F111F000FCD
:10371000111F4091890550E0040F151F4EE050E045
:103720000E94134BE00FF11F7083E0EDF9E070E0B1
:103730008901060F171FE00FF11F022D10E04AEC60
:1037400050E00E94134BE00FF11F40805180E9E2EE
:10375000FDE0082F10E0000F111FE00FF11F022DF8
:1037600010E0000F111F000F111F4091890550E05C
:10377000040F151F4CE150E00E94134BE00FF11FA6
:10378000408251826C5F8FCFE6E00C94B14D0E9475
:10379000A24D202EEDECF9E0E20FF31F022D10E018
:1037A0004AEC50E00E94134BE00FF11F008110E043
:1037B000D801A13000E0B0070CF472C060E070E006
:1037C0006A177B070CF06CC0EEECF9E070E0890141
:1037D000060F171FE00FF11F022D10E04AEC50E01A
:1037E0000E94134BE00FF11F0081802F8E3008F0F4
:1037F00055C0EFECF9E070E08901060F171FE00FEC
:10380000F11F022D10E04AEC50E00E94134BE00F34
:10381000F11F7081E9E6FBE090E0E80FF91F022D4F
:1038200010E0000F111F000F111F4091890550E09B
:10383000040F151F4EE050E00E94134BE00FF11FE4
:103840007083E0EDF9E070E08901060F171FE00FCB
:10385000F11F022D10E04AEC50E00E94134BE00FE4
:10386000F11F40805180E9E4FCE0082F10E0000FD8
:10387000111FE00FF11F022D10E0000F111F000FAC
:10388000111F4091890550E0040F151F4CE150E0D5
:103890000E94134BE00FF11F408251826C5F8FCF6B
:1038A000E6E00C94B14D0E94A34D402ED90106EEE6
:1038B00019E10E943D2A842D90E0880F991F880FFE
:1038C000991F0091890510E0800F911FEDECF9E040
:1038D000EA0FFB1F042D10E04AEC50E00E94134B4E
:1038E000E00FF11F0081043009F052C020E030E009
:1038F000233000E0300724F5EEECF9E08D01020FF3
:10390000131FE00FF11F042D10E04AEC50E00E945D
:10391000134BE00FF11F608170E0E9ECFFE08901DB
:10392000000F111FE00FF11F8C0148E050E00E94D2
:10393000134BE00FF11F608371832F5F3F4FD8CF90
:103940008C0148E050E00E94134BF801E153F04F26
:1039500000E0008300E00183E1EDF9E0EA0FFB1FE6
:10396000042D10E04AEC50E00E94134BE00FF11FD1
:103970000081FC01E75FFF4E00838C01000F111FE7
:10398000F801EF5EFF4E00E0008300E0018355C0C8
:1039900020E030E0243000E0300744F5042D10E052
:1039A0004AEC50E00E94134BEAE8F9E0E00FF11F07
:1039B000EA0FFB1F8901000F111FE00FF11FEC5BE5
:1039C000FF4F60817181E9ECFFE08901000F111F59
:1039D000E00FF11F8C0148E050E00E94134BE00F14
:1039E000F11F608371832F5F3F4FD4CFE6EDF9E085
:1039F000EA0FFB1F042D10E04AEC50E00E94134B2D
:103A0000E00FF11F0081FC01E75FFF4E0083E7ED4F
:103A1000F9E0EA0FFB1F042D10E04AEC50E00E9491
:103A2000134BE00FF11F208131818C01000F111F1A
:103A3000F801EF5EFF4E2083318304E0409E402D6D
:103A400000918905400F01E010E00E941D4B10918C
:103A50002110102B1093211006EE19E10E94932AD9
:103A6000E5E00C94B24D0E949A4DA02E4901EDEC78
:103A7000F9E0E80DF91D0A2D10E04AEC50E00E9433
:103A8000134BE00FF11F008110E0680106EE19E111
:103A90000E943D2A01E0C01600E0D0060CF476C07A
:103AA00080E090E08C159D0508F070C0EEECF9E028
:103AB0008401080F191FE00FF11F0A2D10E04AECD6
:103AC00050E00E94134BE00FF11F008110E0D8017D
:103AD000AE3000E0B00708F057C0EFECF9E0840129
:103AE000080F191FE00FF11F0A2D10E04AEC50E0FB
:103AF0000E94134BE00FF11F2081E9E6FBE0EA0F83
:103B0000FB1F0A2D10E0000F111F000F111F409125
:103B1000890550E0040F151F4EE050E00E94134B42
:103B2000E00FF11F2083E0EDF9E08401080F191F79
:103B3000E00FF11F0A2D10E04AEC50E00E94134BF9
:103B4000E00FF11F4080518062807380E9E0FEE069
:103B50008D01000F111F000F111FE00FF11F0A2D23
:103B600010E0000F111F000F111F2091890530E098
:103B7000020F131F48E350E00E94134BE00FF11FA8
:103B8000408251826282738206968CCF06EE19E1E2
:103B90000E94932AEEE00C94A94D0E94A44DA02F00
:103BA000C901B1E0EEECF9E0E80FF91F0A2F10E0CF
:103BB0004AEC50E00E94134BE00FF11F0081ECEC47
:103BC000F0E0FBBFF0E00C945A4D9C012E5F3F4F9C
:103BD0000A2F49DF43C09C012E5F3F4F0A2F63DE4F
:103BE0003DC09C012E5F3F4F0A2FD1DD37C09C01A5
:103BF0002E5F3F4F0A2F3FDD31C09C012E5F3F4FAC
:103C00000A2FFFDC2BC09C012E5F3F4F0A2F91DC57
:103C100025C09C012E5F3F4F0A2F46DC1FC09C0130
:103C20002E5F3F4F0A2FE4DB19C09C012E5F3F4FF0
:103C30000A2F8BDB13C09C012E5F3F4F0A2FDDDA6A
:103C40000DC09C012E5F3F4F0A2F40DA07C09C0138
:103C50002E5F3F4F0A2F19DA01C0B0E00B2FE4E0CE
:103C60000C94B34D0E94A44D802F082F10E04AEC15
:103C700050E00E94134BF801E45BF54F00810050C7
:103C800049F00A9541F00A9509F489C0085009F4F1
:103C900004C100C102C1082F10E04AEC50E00E94AC
:103CA000134BF801E85BF54FA081B181139708F43D
:103CB000F4C0082F10E04AEC50E00E94134BF801CA
:103CC000E053F64F208130E0322F20E0082F10E043
:103CD0004AEC50E00E94134BF801EF52F64F00817E
:103CE00010E0200F311F082F10E04AEC50E00E9436
:103CF000134BF801E05BF54F20833183082F10E070
:103D00004AEC50E00E94134BF801E05BF54F6081F4
:103D1000718128E730E0082F10E04AEC50E00E9463
:103D2000134BF801E85BF54F00811181201B310B2B
:103D30006217730780F5082F10E04AEC50E00E94EC
:103D4000134BF801E05BF54FA081B181179718F193
:103D5000082F10E04AEC50E00E94134BF801E45B9E
:103D6000F54F02E00083082F10E04AEC50E00E947B
:103D7000134BF801E85BF54FA081B1811196082F34
:103D800010E04AEC50E00E94134BF801E65BF54F5F
:103D9000A083B18382C0082F0E94860B7EC0082FAB
:103DA00010E04AEC50E00E94134BF801E65BF54F3F
:103DB000008111810F5F1F4F00831183082F10E0D6
:103DC0004AEC50E00E94134BF801E65BF54F20816E
:103DD0003181082F10E04AEC50E00E94134BF801AB
:103DE000E05BF54F008111812017310708F455C0C1
:103DF0002DEC39E0082F10E04AEC50E00E94134B04
:103E0000F801E05BF54F00811181200F311F082F71
:103E100010E04AEC50E00E94134B200F311FF901D3
:103E20000081033099F5082F66D0012B59F1082F36
:103E300010E04AEC50E00E94134BF801E253F64FB9
:103E400000810D3FD9F4082F10E04AEC50E00E94A9
:103E5000134BF801E45BF54F0AE00083882331F44B
:103E600024EA39E101E00E94442317C08130A9F41B
:103E700024EA39E102E00E9444230FC0082F0E9487
:103E8000860B0BC0082F0E94860B07C0082F0E94CC
:103E9000860B03C0082F0E94860B082F10E04AEC07
:103EA00050E00E94134BF801E85BF54F008111814F
:103EB0000F5F1F4F00831183082F10E04AEC50E082
:103EC0000E94134BF801E85BF54F00811181083720
:103ED00020E0120768F0082F10E04AEC50E00E9442
:103EE000134BF801E85BF54F00E0008300E001832D
:103EF000E4E00C94B34D0E94A44D202F60E080E0DC
:103F000090E0022F10E04AEC50E00E94134BF801C1
:103F1000E05BF54FA081B18112978A179B07C8F427
:103F200070E0EEECF9E0E80FF91F022F10E04AEC28
:103F300050E00E94134BE00FF11F008110E060275A
:103F40007127FB01EC5FF34630E03BBF66910196C1
:103F5000D8CFACECB9E0022F10E04AEC50E00E9460
:103F6000134BF801E05BF54F00811181A00FB11FE9
:103F7000022F10E04AEC50E00E94134BA00FB11F3B
:103F8000FD010081601719F401E010E002C000E0BB
:103F900010E0E4E00C94B34D042D152D78940895B1
:103FA000DF93CF93BF93AF939F938F93FF92EF9243
:103FB000DF92CF92BF92AF929F928F927F926F9239
:103FC0005F924F9240908E034F9240908F034F929A
:103FD000E0919403F09195034DB65EB64282538210
:103FE000F894C7ECD2E00FE30DBF03E00EBF01E091
:103FF0000093A80378940E94A82500270093A803A3
:10400000E0919403F0919503028113811EBF0DBFCF
:104010000F9000928F030F9000928E034F905F904D
:104020006F907F908F909F90AF90BF90CF90DF90D8
:10403000EF90FF908F919F91AF91BF91CF91DF91C2
:104040000895E0E0EBBFE091271AF091281A008173
:10405000118122810093291A10932A1AE091940366
:10406000F0919503EF2B61F0E0E0EBBFE091271AB0
:10407000F091281A0CE410E220E0108301830895E7
:10408000E0E0EBBFE091271AF091281A00EF1FE162
:1040900020E01083018308950A931A930091291A4E
:1040A00010912A1A1F930F93199109910F921F9241
:1040B0002F923F920F931F932F933F934F935F93B2
:1040C0006F937F93EF93FF930FB60F9208B60F9203
:1040D00009B60F920BB60F920E94D01F0E9487283C
:1040E0000F900BBE0F9009BE0F9008BE0F900FBE31
:1040F000FF91EF917F916F915F914F913F912F9140
:104100001F910F913F902F901F900F9008957894DA
:104110000895F89408950091A80303950093A803C7
:10412000013009F008952F913F914DB75EB76C2F84
:104130007D2FF894C7ECD2E00FE30DBF03E00EBF74
:104140007F936F935F934F933F932F9308950091C5
:10415000A8030A950093A80309F008952F913F91B1
:104160004F915F91CF91DF914DBF5EBF3F932F93F2
:104170000895BA92AA928A927A926A925A924A922E
:10418000BA93AA939A938A93A02FB12F422E532EBB
:10419000842E662E772E8F8500911E1A002321F41F
:1041A00005EA10E00E94690B0E941B27A09096036D
:1041B000B09097030BC0AA16BB0621F40AEA10E0E0
:1041C0000E94690BEA2DFB2DA080B1800A2D0B29DE
:1041D00091F741E250E020E030E00A2F1B2F0E94CF
:1041E000BE4D04E6EA2FFB2F00A381860091181A2A
:1041F0001085102B1087858F042D052911F0468618
:1042000057864B845C84428A538A8D859E85808B39
:10421000918B482F592F2DEC30E0042D152D0E9445
:10422000BE4D480E591E07EE400E0FEF501E00E027
:10423000E42DF52D008301830FE1048B0CEC058B3D
:10424000768A678A042D152D0A5010409695879519
:104250009695879596958795081B190B028B138B5E
:1042600004E0028305E0038306E0048307E005839E
:1042700008E0068309E0078300E1008701E1018788
:1042800002E1028703E1038704E1048705E1058772
:1042900004E2068705E2078706E2008B07E2018B4E
:1042A0000FEF400E501EEA2FFB2F428253820A2F3F
:1042B0001B2F0E94112889919991A991B991499038
:1042C0005990699079908990A990B990269608950F
:1042D000BA92AA928A927A926A925A924A92BA931D
:1042E000AA939A938A93A02FB12F422E532E842EF5
:1042F000662E772E8F8500911E1A002321F405EA81
:1043000010E00E94690B0E941B27A0909603B090BA
:1043100097030BC0AA16BB0621F40AEA10E00E941C
:10432000690BEA2DFB2DA080B1800A2D0B2991F796
:1043300041E250E020E030E00A2F1B2F0E94BE4DEA
:1043400004E6EA2FFB2F00A381860091181A10853E
:10435000102B1087858F042D052911F0468657866E
:104360004B845C84428A538A8D859E85808B918B99
:10437000482F592F2DEC30E0042D152D0E94BE4DF5
:10438000480E591E07EE400E0FEF501E00E0E42DC0
:10439000F52D008301830FE1048B0CEC058B768AED
:1043A000678A042D152D0A5010409695879596958D
:1043B000879596958795081B190B028B138B04E044
:1043C000028305E0038306E0048307E0058308E039
:1043D000068309E0078300E1008701E1018702E12C
:1043E000028703E1038704E1048705E1058704E20E
:1043F000068705E2078706E2008B07E2018B298921
:104400000A89228303830FEF400E501EEA2FFB2FF1
:10441000428253820A2F1B2F0E9411288991999161
:10442000A991B99149905990699079908990A990F2
:10443000B99028960895BA93AA932897A02FB12FE0
:104440000C831D830A831B830091940310919503B1
:104450000E831F83F8940D911C9111970883198383
:10446000CD93DC9308811981012B29F0A881B12F0C
:104470001296CD93DC93E0919403F0919503C4835D
:10448000D583E0919403F091950320870E946628DC
:104490002896A991B9910895E0919403F09195031C
:1044A0000387E0919403F09195032683378314608A
:1044B000E0919403F091950310870C946628392FAE
:1044C000482F202F212B21F4009194031091950364
:1044D000E02FF12F20A1243699F480899189028957
:1044E000138901C00197282F292B51F0E02FF12FBC
:1044F00021910E2F1F2F2D3CA9F3082F192F02C039
:1045000000E010E0842F932F08959A938A93202F30
:10451000212B21F40091940310919503E02FF12FAA
:1045200020A1243619F000E010E007C080899189AD
:10453000C6DF801B910B082F192F8991999108953F
:10454000BA93AA939A938A9300911C1A002321F498
:1045500002EA10E00E94690BEEE8F3E08289938999
:10456000A489B5898F5F9F4FAF4FBF4FF894828B5F
:10457000938BA48BB58B00918F03007F21F009E909
:1045800010E00E94690B00918F03002309F47894D6
:104590002091A4033091A503082F192F0E94612CAC
:1045A00011231AF001E0009392030091A603002367
:1045B00039F00A950093A60319F401E000939003E3
:1045C000A091231AB091241A09C01296ED91FC9182
:1045D00013970995EA2FFB2FA081B1810A2F0B2B8E
:1045E000A1F789919991A991B9910895BA93AA9344
:1045F000A02FB12F07C0ED91F12F119706811781E0
:104600000E949E27F8940D911C911197012B99F708
:1046100000918F03007F21F009E910E00E94690BEF
:1046200000918F03002309F47894A991B99108951A
:10463000BA93AA938A93A02FB12F012B21F4A091B2
:104640009403B091950390960C915697043621F0FF
:1046500000E810E00E94690B0E94F426F8948C9107
:1046600000E00C9300918F03007F21F009E910E036
:104670000E94690B00918F03002309F47894082F9E
:104680008991A991B9910895BA93AA938A93802F99
:10469000A22FB32F90960C915697043621F000E884
:1046A00010E00E94690B0E94F426F8940C91082BEC
:1046B0000C9312970C911897087F083059F41B96A9
:1046C0000C911E911A97012329F00A2F1B2F0E948B
:1046D0009E270DC000918F03007F21F009E910E0B3
:1046E0000E94690B00918F03002309F4789489914B
:1046F000A991B9910895AA939A938A93A02F822F92
:10470000932F00911D1A002321F001EA10E00E946E
:10471000690B0E941B27F894813000E0900794F009
:104720000E94572C080F191FE0919403F0919503F4
:1047300022852A2339F4202F312F18E00A2F0E94D6
:104740004C22F894E0919403F0919503828500E067
:10475000028700918F03007F21F009E910E00E9499
:10476000690B00918F03002309F47894082F899135
:104770009991A99108958A93802F00911D1A002381
:1047800021F001EA10E00E94690B0E941B270091B2
:104790008E03039500938E03F894E0919403F091B7
:1047A00095030285082349F4838708E0E091940388
:1047B000F091950300870E94D01FE0919403F0913F
:1047C0009503828500E0028700918E030A9500938D
:1047D0008E0300918F03007F21F009E910E00E9411
:1047E000690B00918F03002309F47894082F8991B5
:1047F0000895BA93AA939A938A93A02FB12F822FE8
:10480000932F00918E03039500938E0300911D1A40
:10481000002321F001EA10E00E94690B0E941B278F
:10482000EA2FFB2F0585063621F002E810E00E94F2
:10483000690BEA2FFB2F0485013021F007E810E017
:104840000E94690BF89406C020E40A2F1B2F0E94D7
:104850001B22F894EA2FFB2F06811781012BA1F36D
:104860000481158122853385020F131FE02FF12F5C
:104870000081E82FF92F0083EA2FFB2F0285138593
:104880000F5F1F4F0287138702852085318502172E
:10489000130718F000E00287038706811781802F35
:1048A000912F0197868397832085318502171307FF
:1048B00000918F0361F0007F21F009E910E00E9470
:1048C000690B00918F03002389F478940FC0007F57
:1048D00021F009E910E00E94690B00918F03002389
:1048E00009F478940A2F1B2F0E94F6220E946B274E
:1048F00089919991A991B99108957B2F6A2FF89484
:10490000009194031091950320E0209390037894F4
:10491000202F212B09F455C0E02FF12F2081318168
:10492000232B09F44EC04185E081F32F2185241704
:1049300009F047C0E02FF12F208102C02E2F3F2F1A
:10494000A22FB32FED91FC915E2F5F2B19F05185B3
:104950005417A1F3F894409198035091990340178C
:10496000510741F4E02FF12F40815181409398038A
:1049700050939903E02FF12F44855585A02FB12F37
:10498000ED91FC91A42FB52FED93FC9344875587AF
:10499000E02FF12F24873587A22FB32FED91FC91C3
:1049A000A02FB12FED93FC93A02FB12F4D914F2B42
:1049B00011F004871587E22FF32F00831183058DF3
:1049C000048F7894A62FB72F08959A938A93F8941A
:1049D00000911A1A10911B1AEEE8F3E0228933892C
:1049E000648975890E94612C01301040B4F5EEE8AD
:1049F000F3E0428953896489758907C0EEE8F3E0E2
:104A0000428B538B648B758B7894E9E1FAE10081DA
:104A100000FF22C0F894008101FFF0CF00810D7FDC
:104A200000837894EEE8F3E0042E152E02891389B2
:104A30002489358900161106B9F3428B538B648B98
:104A4000758B80911A1A90911B1A019680931A1AED
:104A500090931B1A868B978BF8948991999108955E
:104A6000BA93AA939A938A93A02FB12F00E0EA2FCA
:104A7000F12F048302891389248935890056104F48
:104A8000068B178B208931892030304039F00A2F6E
:104A90001B2F5096ED91FC91519709957894EA2F30
:104AA000FB2F808591854AC0F894EA2FFB2F028561
:104AB0001385012B59F0E82FF92F2185EA2FFB2FC1
:104AC0000285F385E02F01852017E8F1E82FF92F03
:104AD000008502FF2EC0EA2FFB2F0289138924894B
:104AE0003589202F312FE82FF92F068117810E9459
:104AF000612C013010404CF4082F192F1FD2F8946C
:104B0000E82FF92F00850023F1F0EA2FFB2F2689EB
:104B10003789E82FF92F068117810E94612C112314
:104B200042F4E82FF92F06811781EA2FFB2F068B1D
:104B3000178B7894E82FF92F80819181082F092B0A
:104B400009F0B2CFF89489919991A991B9910895FA
:104B50006A925A924A92BA93AA939A938A93AEE827
:104B6000B3E000E0EEE8F3E001830C91002321F4D0
:104B700006E710E00E94690BEEE8F3E0068117817A
:104B8000012BD1F01696ED91F12F1797068D178D09
:104B9000012B91F0E68DF12F2081318100E0203052
:104BA000300751F0EA2FFB2F0681F781E02F0281B9
:104BB0001381E22FF32F0995EA2FFB2F018D00239C
:104BC00051F0208D0681F781E02F248F0091900312
:104BD000002309F092DEEA2FFB2F06811781012BBB
:104BE00099F01696ED91F12F17970085002361F447
:104BF000008D118D228D338D0F5F1F4F2F4F3F4F33
:104C0000008F118F228F338FEA2FFB2F02851385A0
:104C1000012B09F456C009C0E82FF92F008111813A
:104C2000EA2FFB2F028713877894F8948285938567
:104C3000082F092B09F44AC0E82FF92F6084662059
:104C400009F444C062FA46F546805780EA2FFB2FEC
:104C50000289138924893589202F312F042D152DA0
:104C60000E94612C013010404CF4082F192F66D19E
:104C7000E82FF92F0085002379F423C0EA2FFB2FBA
:104C800026893789042D152D0E94612C112322F4C9
:104C9000EA2FFB2F468A578A0BEF602200E160164D
:104CA00009F0BACFE82FF92F0481F581E02F0481B4
:104CB000F581E02F0281F381E02F0085002309F0C8
:104CC000ABCFF89403C00A2F1B2FCADEEA2FFB2FAD
:104CD00004810023C1F70091191A00FD76DE00E07F
:104CE000EA2FFB2F038302851385012B09F467C08C
:104CF0001A96ED91FC911B970085002379F01A9686
:104D0000ED91FC911B970481F581E02F0481F581E1
:104D1000E02F02811381EA2FFB2F04C0EA2FFB2F23
:104D200002851385068317831696ED91FC911197E2
:104D300000A1043621F000E810E00E94690BED911B
:104D4000FC9111970289F389E02F00810D3C21F03D
:104D500008E710E00E94690BED91FC911797068D12
:104D6000178D012B91F0E68DF12F2281338100E028
:104D70002030300751F0EA2FFB2F0681F781E02F1A
:104D800002811381E22FF32F09951696ED91FC9184
:104D90001797048DEA2FFB2F008F018FE09194036A
:104DA000F091950304891589268937890F5F1F4F74
:104DB0002F4F3F4F048B158B268B378B0DC000E098
:104DC000018F008F068307830C9378940E94012D36
:104DD00007E710E00E94690B89919991A991B99117
:104DE00049905990699008950E944E2C20911C1A68
:104DF0000050104069F00150104071F00150104017
:104E000089F00150104081F00150104099F00EC01F
:104E1000222381F003EA03C0222361F404EA10E0B4
:104E20000C94690B06EAFBCF07EAF9CF08EA10E019
:104E30000E94690B08959A938A930E944E2C802FAA
:104E4000912F00911C1A002321F000EA10E00E942B
:104E5000690BE82FF92F309689F0319729F03197B7
:104E600029F0319729F006C004EA05C006EA03C01C
:104E700007EA01C008EA10E00E94690B8991999144
:104E800008950E944E2C0050104051F001501040E7
:104E900099F00150104031F00150104039F008C035
:104EA00003EA01C006EA10E00C94690B07EAFBCFA5
:104EB00008EA10E00E94690B089500918F03007FBB
:104EC00021F009E910E00E94690B00918F03002393
:104ED00009F47894089500918E03002321F407E9E2
:104EE00010E00E94690B00918E030A9500938E03D7
:104EF00021F5EEE8F3E00281138124813581012B55
:104F0000022B032BD1F0F8940281012B022B032BEF
:104F100039F001E000830E94D01F00E000938E036F
:104F200000918F03007F21F009E910E00E94690BD6
:104F300000918F03002309F478940895BA93AA93FB
:104F4000A02FB12FE02FF12F04811581012BF1F05B
:104F50000E94572CEA2FFB2F068317831496ED919E
:104F6000FC9115970081118122813381402F412BC3
:104F700021F0E02FF12F22833383E22FF32F0083E0
:104F8000118300E0EA2FFB2F048305830085037063
:104F90000087D1F40091980310919903202F212BC1
:104FA00019F5A0939803B093990300918E03002301
:104FB00001E041F400938E030E94D01F00E00093B3
:104FC0008E0302C00093910300918F03007F21F0B4
:104FD00009E910E00E94690B00918F03002309F496
:104FE0007894A991B99108954185E02FF12F2185F9
:104FF0002417B8F20A171B07C1F2421729F72A2F04
:105000003B2FE22FF32F20813181522F532BE1F2DE
:10501000E22FF32F51854517B9F62017310789F78D
:10502000C0CFBA93AA93A02FB12FE02FF12F4185C3
:1050300000918E03039500938E0306E913E002C0EE
:10504000022F132FE02FF12F20813181522F532B6C
:1050500029F0E22FF32F5185451790F32D933C93C0
:105060001197EA2FFB2F04871587E02FF12FA083DC
:10507000B183F894022F032B79F0E22FF32FA4874A
:10508000B5870185041721F4EA2FFB2F058D01C098
:1050900000E0EA2FFB2F048F00918F03007F21F0A7
:1050A00009E910E00E94690B00918F03002309F4C5
:1050B0007894EA2FFB2F0085002321F4F8940A2F1F
:1050C0001B2F3CDF08DFA991B99108958A93809145
:1050D0008E0300918E03039500938E030E94D01FD0
:1050E00080938E0300918F03007F21F009E910E087
:1050F0000E94690B00918F03002309F47894899131
:10510000089501E000938E0300931E1A0895009104
:105110008E030A9500938E0308959A938A93802FA5
:10512000912F89DE00911D1A002321F001EA10E081
:105130000E94690B00918E03002391F000918F0370
:10514000002321F00AE910E00E94690B78940E9484
:10515000572C282F392F0E94612C11237AF4F7CF76
:10516000F894E0919403F09195038683978304E08B
:10517000E0919403F09195030087A8DF89919991BC
:1051800008959A938A93802F912F0E94572C080F8D
:10519000191FC3DF8991999108959A928A926A9210
:1051A0005A924A92BA93AA939A938A93A02FB12FB4
:1051B000622E442E552E862F972FF8948090211A18
:1051C0009090221A0BC08A169B0621F40CEA10E07C
:1051D0000E94690BE82DF92D82809380082D092902
:1051E00091F700918F03007F21F009E910E00E9400
:1051F000690B00918F03002309F478940E94F42630
:105200004EE050E020E030E00A2F1B2F0E94BE4D00
:10521000EA2FFB2F8483958340865186648606E6B9
:105220000587F8940091211A1091221A02831383A2
:10523000A093211AB093221A00918F03007F21F0CE
:1052400009E910E00E94690B00918F03002309F423
:10525000789489919991A991B991499059906990BF
:105260008990999008954A92BA93AA939A938A93AF
:10527000A02FB12F822F932F44244394E02FF12F9E
:105280000585063621F002E810E00E94690BEA2F3E
:10529000FB2F0485013021F007E810E00E94690B24
:1052A0000E94F42600918E03039500938E03F894D8
:1052B000EA2FFB2F068117812085318502171307FE
:1052C00008F042C0202F312F02851385200F311F97
:1052D000008511852017310710F0201B310BE82FB6
:1052E000F92F4081EA2FFB2F04811581020F131F34
:1052F000E02FF12F4083EA2FFB2F06811781802FAB
:10530000912F019686839783012B00918F0361F083
:10531000007F21F009E910E00E94690B00918F03E2
:10532000002389F478940FC0007F21F009E910E090
:105330000E94690B00918F03002309F478940A2FCF
:105340001B2F0E94F622442400918F03007F21F03E
:1053500009E910E00E94690B00918F03002309F412
:1053600078940E946B27042D89919991A991B99104
:105370004990089520918E03239520938E03E02F6A
:10538000F12F24812A95248311F40E94F6220C9493
:105390006B27BA93AA939A938A93802F912FA09107
:1053A0001F1AB091201A13C0EA2FFB2F048100238B
:1053B00051F0028113810817190729F401E00483D1
:1053C0000A2F1B2FD7DFEA2FFB2FA581B6810A2FCB
:1053D0000B2B51F789919991A991B9910895BA939D
:1053E000AA939A938A93802F912F00911D1A0023DC
:1053F00021F001EA10E00E94690B0E941B27A09196
:105400001F1AB091201A0BC0A817B90721F40FEA90
:1054100010E00E94690BEA2FFB2FA581B6810A2FAD
:105420000B2B91F709EC19E20093251A1093261A19
:1054300048E050E020E030E0082F192F0E94BE4DD8
:1054400009E6E82FF92F0783F89400911F1A1091AD
:10545000201A0583168380931F1A9093201A0091B7
:105460008F03007F21F009E910E00E94690B009191
:105470008F03002309F47894ADCFBA93AA939A933B
:105480008A93A02FB12F00911D1A002321F001EA69
:1054900010E00E94690B0E941B2717960C9113972E
:1054A000093621F005E810E00E94690B00918E0397
:1054B000039500938E030C911497002359F40091E7
:1054C00094031091950312960D931C93139781E00A
:1054D00090E022C012960D911C9113972091940395
:1054E000309195030217130791F020E10A2F1B2F2B
:1054F0000E941B2214960C9114970023B1F700917F
:1055000094031091950312960D931C931397149680
:105510008C91149790E0019614968C930E946B27BF
:10552000082F192F57CFBA93AA93A02FB12F00910C
:105530001D1A002321F001EA10E00E94690B0E946D
:105540001B2717960C911397093621F005E810E0F8
:105550000E94690B0C911297002321F406E910E0D8
:105560000E94690B0D911C91139720919403309127
:1055700095030217130721F00CE910E00E94690B54
:105580000A2F1B2FF7DEA991B99108955B2F4A2F9F
:10559000EAE9F3E002C0E22FF32F20813181232BCF
:1055A00051F0208120173107B1F7A02FB12F0D91B5
:1055B0001C9100831183A42FB52F08955A924A920B
:1055C000BA93AA939A938A93A02FB12F0E94572C33
:1055D000EA2FFB2F24813581200F311F248335834F
:1055E00001E0008700919A0310919B03012B71F455
:1055F00000E00D930C93E0939A03F0939B0308E46F
:105600001BE200939E0310939F0323C08AE993E05B
:1056100040909A0350909B03E42DF52D2481358111
:10562000EA2FFB2F048115810E94612C013010406C
:105630004CF0842D952DE42DF52D40805180042DC6
:10564000052951F74D925C921197E82FF92FA0830D
:10565000B1832091A4033091A503E0919A03F091C6
:105660009B03048115810E94612C112352F4E09167
:105670009A03F0919B03048115810093A403109376
:10568000A50389919991A991B9914990599008954B
:10569000BA93AA93A02FB12F2DC0068717871E9605
:1056A000ED91F12F1F9700811181EA2FFB2F0487C5
:1056B000158720E00685F785E02F208700E0EA2F98
:1056C000FB2F2685F785E22F0483058378940091CC
:1056D0001D1A039500931D1A1E96ED91FC911F97BC
:1056E0000281F381E02F099500911D1A0A9500931C
:1056F0001D1AF894EA2FFB2F04851585012B11F153
:105700000289138924893589202F312F1C96ED9128
:10571000FC911D97048115810E94612C013010407D
:10572000EA2FFB2F048515850CF4B7CF012B51F020
:105730001C96ED91F12F1D9704811581EA2FFB2F07
:10574000068B178BA991B99108957A926A925A9211
:105750004A92BA93AA939A938A93402E512EA22FDB
:10576000B32F842F952F0E94F426F89460909A030B
:1057700070909B030BC06414750421F40BEA10E0D5
:105780000E94690BE62DF72D60807180062D072998
:1057900091F700918F03007F21F009E910E00E944A
:1057A000690B00918F03002309F478944AE050E0DC
:1057B00020E030E0042D152D0E94BE4D05E6E42DBD
:1057C000F52D018786839783068104839583A283C1
:1057D000B38389919991A991B99149905990699010
:1057E00079900895BA93AA93A02FB12F0E94F4261E
:1057F00019960C91053621F001E810E00E94690B22
:10580000F8940E911897002319F00A2F1B2FBEDE73
:1058100016960D911C9113970D931C9315970A2FB3
:105820001B2FCCDE00918F03007F21F009E910E0EF
:105830000E94690B00918F03002309F47894A991C9
:10584000B9910895BA93AA93A02FB12F19960C91EC
:10585000053621F001E810E00E94690B0E94F42651
:105860000E9118970023B9F41496ED91FC911597B9
:1058700031978CF0F8940A2F1B2FA0DE00918F0334
:10588000007F21F009E910E00E94690B00918F036D
:10589000002309F47894A991B991089500911C1AF4
:1058A000002311F400E001C001E010E008954FB7BB
:1058B000F894EEE8F3E002891389248935894FBF13
:1058C0000895021B130B0895BA93AA939A938A938F
:1058D000B12FA02F922FECE1FAE130E03BBF008125
:1058E000039500830E944127EEE8F3E030E03BBFE0
:1058F000008103950083EEE8F3E0018103950183C5
:105900001EB70DB70D5F1F4F0093271A1093281A6B
:105910000E948B20FB2FEA2F09950E94A720EEE81A
:10592000F3E030E03BBF01810A95018300911C1A2E
:10593000102F1A9510931C1A002321F408E910E087
:105940000E94690B00918E03013079F4EEE8F3E0D8
:1059500030E03BBF4281538164817581452B462BEA
:10596000472B19F00E94212007C0EEE8F3E030E059
:105970003BBF00810A9500830E945D278991999120
:10598000A991B99108950E94A02208959A938A93AB
:10599000FA93EA933A922A921A920A927A936A9323
:1059A0005A934A933A932A931A930A938FB79BB7C1
:1059B00003EC1CE20E94642C9BBF8FBF09911991DC
:1059C0002991399149915991699179910990199049
:1059D00029903990E991F99189919991189500E070
:1059E0000093800009E8009381000FE71EE3109305
:1059F00089000093880000916F00026000936F009F
:105A00000895FFCF8A932197802F9E010CE717E01E
:105A1000482F50E0542F40E0550F040F151F0E94EF
:105A2000F923488105EA16E0282F30E0322F20E0E4
:105A3000330FF901E55CF84F20813181020F131F0C
:105A4000282F30E0322F20E0330F020F131FF80110
:105A50004083082F10E0102F00E0110FF801EF5BDA
:105A6000F84F00810A3009F4B7C0082F10E0102F5A
:105A700000E0110FF801EF5BF84F0081002309F0FF
:105A800088C005EA16E0EBE3F7E020813181020FE0
:105A9000131F282F30E0322F20E0330F020F131F87
:105AA000F80100810631C1F4082F10E0102F00E04A
:105AB000110FF801EE5BF84F008103950083082F6A
:105AC00010E0102F00E0110FF801E55CF84F00E046
:105AD000008300E0018380C0082F10E0102F00E059
