:020000020000FC
:100000000C94F8490C9440070C94F2071895189535
:100010001895189518951895189518951895189578
:100020001895189518951895189518951895189568
:100030001895189518951895189518951895189558
:10004000189518950C940B2C1895189518951895CB
:100050001895189518951895189518951895189538
:10006000189518950C94862D0C94162E0C94B92D79
:10007000189518950C946F040C94520518951895C2
:100080001895189518951895189518951895189508
:100090000C94502E0C94DD2E0C94832E18951895EC
:1000A00018951895189518951895189518951895E8
:1000B00018951895189518951895189518951895D8
:1000C0001895189518951895189518950001791D8B
:1000D000781D01781D1D301D01301D01301D013CB2
:1000E0001D013C1D013C1D01421D014E1D07541DFB
:1000F00003481D02361D4D5A1D01661D01601D3449
:100100006C1D01721DFB03E801CA47F6460AFF4653
:100110000A0547320B470A11470A17470A1E470AC2
:1001200029471E3F471434472893470A9E470AA988
:10013000470AB4470ABF47FE029EF946FB000E94E9
:10014000974C28013901CA01DB0182019301AC01FE
:10015000BD010E94074B08011901800191014DEB7F
:1001600057E366E875EB0E94A14B58F480019101BA
:100170004EEB57E366E875E30E94894B10F400E00C
:100180000CC0800191014DEB57E366E875EB0E94CE
:10019000894B10F40FEF01C001E0E8E00C94A64C8D
:1001A0000EBD2DB5322F37FFFCCF2EB5122F08957F
:1001B000402F042FF5DF0895EBEFFEE00081118161
:1001C00008B900919A03007F002321F009E910E0AB
:1001D0000E94C00AF89400919A03039500939A0331
:1001E00005B10E7105B900919A03007F002321F03B
:1001F00009E910E00E94C00A00919A030A95009351
:100200009A0300919A03002309F4789400919A03C9
:10021000007F002321F009E910E00E94C00AF89451
:1002200000919A03039500939A03EBEFFEE001819E
:100230000170017015B1102B15B900919A03007F60
:10024000002321F009E910E00E94C00A00919A03FE
:100250000A9500939A0300919A03002309F4789475
:1002600000919A03007F002321F009E910E00E9429
:10027000C00AF89400919A03039500939A0344E00E
:10028000EBEFFEE0008111810E94194A007E15B15A
:10029000102B15B900919A03007F002321F009E982
:1002A00010E00E94C00A00919A030A9500939A03F5
:1002B00000919A03002309F4789408950E94994CC0
:1002C000249744240CE0401640F45524F201E550F4
:1002D000F14F01E002834394F5CF02E010E00E9469
:1002E0009804802F03E010E00E949804902FEBEF19
:1002F000FEE08083918360DF0FEF5ADF0FEF58DF5E
:100300000FEF56DF0FEF54DF00E152DF0EE450DF56
:100310000AEF10E00E94062808E81CE10E945D2216
:1003200028EE33E001E00E94C02200919A03007F92
:10033000002321F009E910E00E94C00AF89400911E
:100340009A03039500939A030EB10F700EB90091B2
:100350009A03007F002321F009E910E00E94C00AFF
:1003600000919A030A9500939A0300919A0300233F
:1003700009F4789400919A03007F002321F009E9A1
:1003800010E00E94C00AF89400919A03039500932C
:100390009A030EB1006E0EB900919A03007F0023FC
:1003A00021F009E910E00E94C00A00919A030A9521
:1003B00000939A0300919A03002309F4789400E1D2
:1003C000F7DE0EE0F5DE05E510E00E94062808E8FD
:1003D0001CE10E945D222AEF30E001E00E94C02271
:1003E00008E3E6DE44240CE0401620F5042D10E07E
:1003F000000F111F000F111FF801E35AF04F00E02A
:10040000008300E0018300E0028300E00383042D09
:1004100010E0000F111F000F111FF801E357F04FFC
:1004200008E519E320E83FE3008311832283338347
:100430004394D9CF44240CE0401608F07EC0AE01AE
:1004400024E0BA01042D10E00068106048E050E09C
:100450000E940A4AAB010E94F804088119812A818E
:100460003B810E94A10A002339F140E050E060E0A6
:1004700070EC088119812A813B8161DE0130E4F052
:1004800040E050E060E070E4088119812A813B81FE
:1004900056DE00238AF4488159816A817B81042DCC
:1004A00010E0000F111F000F111FF801E35AF04F69
:1004B0004083518362837383AE0124E0BA01042D2B
:1004C00010E00068106048E050E00E940A4A0C5FAB
:1004D0001F4FAB010E94F804088119812A813B81DA
:1004E0000E94A10A002339F148E451EE6AE77FE354
:1004F000088119812A813B8122DE0130E4F04CE53C
:100500005FE862E87FE3088119812A813B8117DE79
:1005100000238AF4488159816A817B81042D10E08F
:10052000000F111F000F111FF801E357F04F408318
:1005300051836283738343947ECF00919A03007F3B
:10054000002321F009E910E00E94C00AF89400910C
:100550009A03039500939A030EB10F700EB90091A0
:100560009A03007F002321F009E910E00E94C00AED
:1005700000919A030A9500939A0300919A0300232D
:1005800009F4789400919A03007F002321F009E98F
:1005900010E00E94C00AF89400919A03039500931A
:1005A0009A030EB1006F0EB900919A03007F0023E9
:1005B00021F009E910E00E94C00A00919A030A950F
:1005C00000939A0300919A03002309F4789400E1C0
:1005D000EFDD0EE8EDDD0AEF10E00E94062808E8E6
:1005E0001CE10E945D2228EE33E001E00E94C0225F
:1005F00000919A03007F002321F009E910E00E9496
:10060000C00AF89400919A03039500939A030EB1DF
:100610000F700EB900919A03007F002321F009E9C1
:1006200010E00E94C00A00919A030A9500939A0371
:1006300000919A03002309F4789400919A03007FB3
:10064000002321F009E910E00E94C00AF89400910B
:100650009A03039500939A030EB1006E0EB90091B0
:100660009A03007F002321F009E910E00E94C00AEC
:1006700000919A030A9500939A0300919A0300232C
:1006800009F4789400E194DD0EEC92DD0AEF10E0BD
:100690000E94062808E81CE10E945D2228EE33E053
:1006A00001E00E94C02244240CE0401608F045CF2F
:1006B00000919A03007F002321F009E910E00E94D5
:1006C000C00AF89400919A03039500939A030EB11F
:1006D0000F700EB900919A03007F002321F009E901
:1006E00010E00E94C00A00919A030A9500939A03B1
:1006F00000919A03002309F4789400919A03007FF3
:10070000002321F009E910E00E94C00AF89400914A
:100710009A03039500939A03042D0295007F1EB15E
:10072000102B1EB900919A03007F002321F009E9E4
:1007300010E00E94C00A00919A030A9500939A0360
:1007400000919A03002309F4789400E131DD0EE072
:100750002FDD05E510E00E94062808E81CE10E9454
:100760005D222AEF30E001E00E94C02208E320DD94
:100770008AD010E0102F00E0C80185D010E0800F73
:10078000911F5524F201E550F14F00E006878C01DE
:1007900020E030E00E94914A40E05FEF6FE777E4AD
:1007A0000E94B94B40E050E068EC71E40E94244B99
:1007B000442D50E0440F551F440F551FFA01E357D5
:1007C000F04F40815181628173810E94244B442DFE
:1007D00050E0440F551F440F551FFA01E35AF04FE4
:1007E00040815181628173810E94074B442D50E00A
:1007F000440F551F440F551FFA01E550F14F428D2C
:10080000538D648D758D0E94074BC801D901552405
:10081000F201E550F14F028110E020E030E00E944B
:10082000914A40E050E060E87FE30E94C84AA80196
:10083000B9018C019D010E94B94B442D50E0440F39
:10084000551F440F551FFA01E550F14F428D538D4E
:10085000648D758D0E94C84A442D50E0440F551F89
:10086000440F551FFA01E550F14F028F138F248F6B
:10087000358F439419CF0FEF0EBD0DB5102F17FF15
:10088000FCCF0EB50895F7DF08950091171520915C
:1008900078003091790010E0000F111FF801E55148
:1008A000F14F20833183009117150395009317159D
:1008B000023018F000E00093171500917C00007ED4
:1008C00000937C000091171510917C00102B109361
:1008D0007C0000917A00006400937A0008959A9356
:1008E0008A93FA93EA933A922A921A920A927A9304
:1008F0006A935A934A933A932A931A930A938FB717
:100900009BB705E414E00E94A92B9BBF8FBF099100
:100910001991299139914991599169917991099048
:10092000199029903990E991F991899199911895A7
:100930000E949C4CC801F999FECF00919A03007F58
:10094000002321F009E910E00E94C00AF894009108
:100950009A03039500939A0392BD81BDF89A009182
:100960009A03007F002321F009E910E00E94C00AE9
:1009700000919A030A9500939A0300919A03002329
:1009800009F4789400B5A02F0A2FE3E00C94AB4C47
:100990000E949C4CC801A22FF999FECF00919A03A6
:1009A000007F002321F009E910E00E94C00AF894BA
:1009B00000919A03039500939A0392BD81BDA0BD57
:1009C000FA9AF99A00919A03007F002321F009E92D
:1009D00010E00E94C00A00919A030A9500939A03BE
:1009E00000919A03002309F47894E3E00C94AB4C53
:1009F0000E94974C2801622EDA0180E090E0772473
:100A00008615970540F48201080F191F91DF0C939A
:100A100011960196F4CFE8E00C94A64C0E949A4CF3
:100A2000C801422EDA01F999FECF00919A03007FA6
:100A3000002321F009E910E00E94C00AF894009117
:100A40009A03039500939A03E9E1F5E1A083B1834A
:100A50004092181592BD81BD0C9100BDE9E1F5E110
:100A6000008111810F5F1F4F0083118300E000930D
:100A70001B15FA9AF99AFB9A00919A03007F0023BA
:100A800021F009E910E00E94C00A00919A030A953A
:100A900000939A0300919A03002309F47894E5E007
:100AA0000C94A94CFA93EA933A932A931A930A93D3
:100AB0002FB73BB7009118150A95009318150091B0
:100AC00018150023B9F001B512B50F5F1F4F12BD05
:100AD00001BDE0911915F0911A15008100BDE9E101
:100AE000F5E1008111810F5F1F4F00831183FA9A96
:100AF000F99A04C0FB9801E000931B153BBF2FBF80
:100B00000991199129913991E991F99118950EEF6F
:100B100001BD0FE002BD0BED00BDFA9AF99AF999FB
:100B2000FECF08E10093600008E1009360000895A3
:100B30000E94994C21972801842DA9E1BDE0082F3E
:100B400010E04BE051E00E940A4AA00FB11F01E003
:100B50000E9400239E0162ED7DE0082F10E04BE033
:100B600051E00E940A4A600F711F8B010E943E23D0
:100B70002881082F10E04BE051E00E940A4AF8015A
:100B8000EF56F24F00811181FD01E00FF11F20832C
:100B9000082F10E04BE051E00E940A4AF801E956A4
:100BA000F24F00810A30B1F2082F10E04BE051E023
:100BB0000E940A4AF801E956F24F0081002309F029
:100BC00079C008810230D1F4082F10E04BE051E0E9
:100BD0000E940A4AF801E856F24F0081039500830B
:100BE000082F10E04BE051E00E940A4AF801EF564E
:100BF000F24F00E010E000831183ACCF082F10E02B
:100C00004BE051E00E940A4AF801E856F24F008199
:100C1000023008F443C0082F10E04BE051E00E947E
:100C20000A4AF801E856F24F00E00083082F10E06E
:100C30004BE051E00E940A4AF801E956F24F01E008
:100C40000083082F10E04BE051E00E940A4AF801AF
:100C5000ED56F24F00E010E000831183082F10E002
:100C60004BE051E00E940A4AF801E756F24F0AEFC2
:100C700010E000831183082F10E04BE051E00E9448
:100C80000A4AF801EF56F24F008111810F5F1F4FA2
:100C900000831183082F0E947D1D5CCF082F10E078
:100CA0004BE051E00E940A4AF801E856F24F00E09A
:100CB000008350CF082F10E04BE051E00E940A4A19
:100CC000F801EF56F24F208131812F5F3F4F082FFF
:100CD00010E04BE051E00E940A4AF801EF56F24F53
:100CE00020833183293700E0300720F0082F0E944D
:100CF000E51530CF082F0E947D1D2CCF00E010E0BD
:100D00001A930A9302E010E01A930A9308E512E09E
:100D10001A930A9302E214E01A930A9368E975E0C1
:100D200040E620E433E000EE13E00E94AD2001E055
:100D300010E01A930A9302E010E01A930A9308E570
:100D400012E01A930A930AE716E01A930A9368E9E5
:100D500075E04FE523E533E001E014E00E94AD20AB
:100D600008959A938A930091D208005021F00A9531
:100D700009F47EC082C000910A220F700093170D03
:100D80000091170D005009F466C0025049F002505E
:100D900009F442C0025009F45BC00650E9F15DC09D
:100DA000E5E1FDE000811181012B49F4ECE0F2E284
:100DB00000810D7F008300E00093970D4EC000E09E
:100DC0000093180D0091180D003128F5E5E1FDE0C4
:100DD00000811181012B09F440C0E3E1FDE00081B5
:100DE0001181C8010196E3E1FDE080839183F80160
:100DF000EB52F34F0081009308220091180D0395E8
:100E00000093180DE5E1FDE00081118101501040D3
:100E100000831183D7CF21C00091970D033041F497
:100E2000EDE0F2E2008100FF18C000910822F8CF47
:100E3000EDE0F2E2008100FF10C000910822009373
:100E40009F0D2FE93DE002ED1DE00E947828F0CFD4
:100E500000910D2202C000910E2200910A220F7013
:100E60000093170DE7E1FDE0008100FF89CF05C089
:100E700028E83CE101E00E94892289919991089536
:100E80009A938A93FA93EA933A922A921A920A923E
:100E90007A936A935A934A933A932A931A930A93AA
:100EA0008FB79BB701EB16E00E94A92B9BBF8FBFAA
:100EB00009911991299139914991599169917991A2
:100EC0000990199029903990E991F9918991999116
:100ED00018959A938A930091D208005021F00A95B0
:100EE00009F47DC07CC0009102220F700093220E95
:100EF0000091220E005009F466C0025049F00250E1
:100F000009F442C0025009F45BC00650E9F15DC02B
:100F1000E0E2FEE000811181012B49F4E4E0F2E21D
:100F200000810D7F008300E00093A20E4EC000E020
:100F30000093230E0091230E003128F5E0E2FEE03D
:100F400000811181012B09F440C0EEE1FEE0008137
:100F50001181C8010196EEE1FEE080839183F801E2
:100F6000E052F24F0081009300220091230E03957E
:100F70000093230EE0E2FEE0008111810150104059
:100F800000831183D7CF21C00091A20E033041F41A
:100F9000E5E0F2E2008100FF18C000910022F8CFE6
:100FA000E5E0F2E2008100FF10C000910022009312
:100FB000AA0E2AEA3EE00DED1EE00E947828F0CF4E
:100FC0000091052202C000910622009102220F70BA
:100FD0000093220EE2E2FEE0008100FF89CF8991BA
:100FE000999108959A938A93FA93EA933A922A925E
:100FF0001A920A927A936A935A934A933A932A934B
:101000001A930A938FB79BB709E617E00E94A92BA2
:101010009BBF8FBF0991199129913991499159919C
:10102000699179910990199029903990E991F991F4
:10103000899199911895089500E0083068F4202F5F
:1010400030E0220F331FF901E551F14F10E010831A
:1010500010E011830395F1CF10E01093171510ECF9
:1010600010937C001FE810937A0008950091D20835
:10107000005019F00A9559F0089502E40093B00069
:1010800001E80093B10003E00093B300089502E487
:101090000093B00001E80093B10007E00093B300B3
:1010A00008950FE50CBD0DB50E7F0DBD089500919F
:1010B000D208005019F00A95F1F008950FEF01B928
:1010C00000E002B900E104B900E005B90FEF07B98B
:1010D00000E008B900E00AB90FEF0BB90EEF0DB947
:1010E00000EF0EB900E000BB00E001BB07E003BB6E
:1010F00003E004BB089500E001B903E002B907EF83
:1011000004B908E005B90FEF07B900E008B902E03B
:101110000AB901EF0BB90EEF0DB900E00EB900E00E
:1011200000BB00E001BB08E003BB00E304BBB9DF88
:101130000895F8940091D208005019F00A9589F0AA
:101140001FC000EC05BF00E00DBB0FEA0093690073
:101150000AEA00936A0003E00DBB00E80093740004
:101160000FC000E005BF00E00DBB0AEA0093690074
:101170000AEA00936A0001E00DBB00E000937400EE
:1011800007E00093750004B70093D30800E004BFA4
:1011900000E000931815089500E001B903E002B9DA
:1011A00000B103700093D208C4DF81DF5FDF44DF4A
:1011B00042DF00917A00006400937A0008950E9453
:1011C0009A4C402ECA01DB0165E97AE0042D10E05B
:1011D000102F00E0110F600F711F42E350E021E07B
:1011E00007EC1AE0E42DF0E0FE2FE0E0FF0F0E0F19
:1011F0001F1F0E941228042D10E0102F00E0110F75
:10120000F801E851F64F00E010E000831183042D4F
:1012100010E0102F00E0110FF801E651F64F00E04A
:1012200010E000831183042D10E0102F00E0110F57
:10123000F801E451F64F00E010E000831183042D23
:1012400010E0102F00E0110FF801EA57F54F00E011
:1012500010E000831183042D10E0102F00E0110F27
:10126000F801E857F54F00E010E000831183042DEA
:1012700010E0102F00E0110FF801E657F54F00E0E5
:1012800010E000831183042D10E0102F00E0110FF7
:10129000F801E457F54F00E00083042D10E0102F13
:1012A00000E0110FF801E357F54F00E00083042D33
:1012B00010E0102F00E0110FF801E251F64F00E0AE
:1012C0000083042D005019F00A9579F15BC0042DBC
:1012D00010E0102F00E0110FF801E257F54F0AEF70
:1012E00010E00083118300E00093C0008C019D0199
:1012F0000E94914AA801B90100E014E224E739E410
:101300000E94B94B40E050E060E07FEB0E94C84A89
:101310000E942B4C1093C5000093C40008E9009371
:10132000C10006E00093C2002DC0042D10E0102F74
:1013300000E0110FF801E257F54F0AEF10E00083CB
:10134000118300E00093C8008C019D010E94914A26
:10135000A801B90100E014E224E739E40E94B94B86
:1013600040E050E060E07FEB0E94C84A0E942B4CB6
:101370001093CD000093CC0008E90093C90006E06B
:101380000093CA00E5E00C94A94CF80101E207BF04
:10139000049108950E94994C00E010E0F6DF402E81
:1013A000552402E010E0F1DFA02FB0E004E010E0EF
:1013B000ECDF802F90E0A895EDEFF1E20081118144
:1013C0000F5F1F4F008311830E94C6270E94342C99
:1013D0000E94CC0809EA1CE10E94342945E050E053
:1013E0002CE23FE205EC1CE10E94EA2A05EC1CE13C
:1013F0000E94672B45E050E022E33FE20FEC1CE146
:101400000E94EA2A0FEC1CE10E94672B0E943E2DED
:101410000091D208005021F00A9509F446C05AC044
:1014200002E010E01A930A9308E512E01A930A9377
:1014300005E717E11A930A9365E273E140E526E6B2
:1014400033E006E41CE10E94FE1F48EC50E021ED71
:101450003AE001EB1CE10E94EA2A01EB1CE10E9448
:10146000672B02E010E01A930A9308E512E01A9342
:101470000A930DEC19E11A930A936CE276E14AE5BE
:1014800027E733E007E61CE10E94FE1F48EC50E02E
:1014900027ED3AE00BEB1CE10E94EA2A0BEB1CE182
:1014A0000E94672B0E947E0615C002E010E01A938E
:1014B0000A9308E512E01A930A9305E717E11A93D5
:1014C0000A936EE571E04AE528E833E008E81CE19C
:1014D0000E94FE1F02E010E01A930A9308E512E052
:1014E0001A930A930DE115E11A930A9363E97AE0DE
:1014F00042E32FE833E005E21CE10E94FE1F01E019
:101500000093DB1C0E94351FE6E00C94A84CF89475
:10151000A895009160000861009360000FE00093BF
:10152000600078940895A895F2DF04EF11E00E941E
:101530000628A895FACF09B102950F7000950F7093
:1015400008950E949B4CA801B9018A019B0100707B
:10155000107020783F77C801D901082F092B0A2B7A
:101560000B2B51F0803000E0900700E8A0070FE758
:10157000B00711F001E001C000E0E4E00C94AA4CD7
:101580002091990323952093990320E020939A03B7
:101590007894202F2093DA1C2091DA1C2223E1F783
:1015A0000895ECE0F2E200810D7F00830895E4E00D
:1015B000F2E200810D7F00830895202F022F10E0BA
:1015C0004BE051E00E940A4AF801E856F24F00E071
:1015D0000083022F10E04BE051E00E940A4AF8011C
:1015E000E956F24F03E00083022F10E04BE051E098
:1015F0000E940A4AF801EF56F24F00E010E0008323
:101600001183022F10E04BE051E00E940A4AF801DA
:10161000E556F24F00E010E00083118308950E9428
:101620009B4C202ED90160E082E090E08A179B0756
:10163000C8F470E0022D10E04BE051E00E940A4A2D
:10164000E5EDFCE0E00FF11FE80FF91F008110E06D
:1016500060277127FB01EE50F64630E03BBF6691F4
:101660000196E4CF062FE4E00C94AA4C202F022F21
:1016700010E04BE051E00E940A4AF801EF56F24FA9
:1016800000E010E000831183022F10E04BE051E0F6
:101690000E940A4AF801ED56F24F00E010E0008384
:1016A0001183022F10E04BE051E00E940A4AF8013A
:1016B000ED5EF24F00E010E000831183022F10E096
:1016C0004BE051E00E940A4AF801EB52F34F02E06E
:1016D0000083022F10E04BE051E00E940A4AF8011B
:1016E000EB52F34F02E00183022F10E04BE051E098
:1016F0000E940A4AF801EB52F34F00E00283022FE6
:1017000010E04BE051E00E940A4AF801EB52F34F1F
:101710000DEF0383022F10E04BE051E00E940A4AD4
:10172000F801EB52F34F00E00483022F10E04BE08E
:1017300051E00E940A4AF801EB52F34F00E00583A2
:1017400008950E949C4CA02F0A2F90DF0A2F10E0D2
:101750004BE051E00E940A4AF801EF5EF24F20810F
:101760003181C90101960A2F10E04BE051E00E943F
:101770000A4AF801EF5EF24F808391830A2F10E04E
:101780004BE051E00E940A4AE5EDFCE0E00FF11F5A
:10179000E20FF31F01E000830A2F10E04BE051E05D
:1017A0000E940A4AF801EF5EF24F20813181C9019F
:1017B00001960A2F10E04BE051E00E940A4AF8011E
:1017C000EF5EF24F808391830A2F10E04BE051E0EF
:1017D0000E940A4AE5EDFCE0E00FF11FE20FF31F63
:1017E00000E000830A2F10E04BE051E00E940A4A1B
:1017F000F801EF5EF24F00811181012F10E0202FE0
:101800000A2F10E04BE051E00E940A4AF801EB5227
:10181000F34F24830A2F10E04BE051E00E940A4A64
:10182000F801EF5EF24F00811181202F0A2F10E0A6
:101830004BE051E00E940A4AF801EB52F34F258336
:101840000A2F10E04BE051E00E940A4AF801EF5ED7
:10185000F24F808191810A2F10E04BE051E00E940D
:101860000A4AF801EF5EF24F208131810A2FD7DE5C
:10187000202F0A2F10E04BE051E00E940A4AE5EDCC
:10188000FCE0E00FF11FE80FF91F20830A2F10E0A2
:101890004BE051E00E940A4AF801EF5EF24F0081EE
:1018A00011810F5F1F4F008311830A2F10E04BE05F
:1018B00051E00E940A4AF801EF5EF24F2081318127
:1018C000C90101960A2F10E04BE051E00E940A4A3C
:1018D000F801EF5EF24F808391830A2F10E04BE016
:1018E00051E00E940A4AE5EDFCE0E00FF11FE20F33
:1018F000F31F03E000830A2F10E04BE051E00E9449
:101900000A4AF801EF5EF24F20813181C901019648
:101910000A2F10E04BE051E00E940A4AF801EF5E06
:10192000F24F808391830A2F10E04BE051E00E9438
:101930000A4AE5EDFCE0E00FF11FE20FF31F00E0C3
:1019400000830A2F10E04BE051E00E940A4AF801A0
:10195000EF5EF24F8081918101970A2F10E04BE0FA
:1019600051E00E940A4AF801EB5EF24F80839183B6
:101970000A2F10E04BE051E00E940A4AF801ED5EA8
:10198000F24F01E010E0008311830A2F16DEAA2334
:10199000B1F4ECE0F2E200810260008304E110E0C7
:1019A0000E9406280A2F10E04BE051E00E940A4AEC
:1019B000F801EB52F34F00810093082217C0A130C9
:1019C000A9F4E4E0F2E200810260008304E110E0A7
:1019D0000E9406280A2F10E04BE051E00E940A4ABC
:1019E000F801EB52F34F008100930022E3E00C94E6
:1019F000AB4C392F282E202F022F10E04BE051E066
:101A00000E940A4AF801EF5EF24F60817181CB01BA
:101A10000196022F10E04BE051E00E940A4AF801C3
:101A2000EF5EF24F80839183022F10E04BE051E094
:101A30000E940A4AE5EDFCE0E00FF11FE60FF71FF8
:101A40000AE00083022F10E04BE051E00E940A4AB6
:101A5000F801EF5EF24F60817181CB010196022F98
:101A600010E04BE051E00E940A4AF801EF5EF24FAD
:101A700080839183022F10E04BE051E00E940A4ADC
:101A8000E5EDFCE0E00FF11FE60FF71F01E000833A
:101A9000022F10E04BE051E00E940A4AF801EF5E8D
:101AA000F24F60817181CB010196022F10E04BE073
:101AB00051E00E940A4AF801EF5EF24F8083918361
:101AC000022F10E04BE051E00E940A4AE5EDFCE0F5
:101AD000E00FF11FE60FF71F00E00083822D932F28
:101AE00008951C01202F022F10E04BE051E00E94CE
:101AF0000A4AF801EF5EF24F60817181CB010196D5
:101B0000022F10E04BE051E00E940A4AF801EF5E1C
:101B1000F24F80839183022F10E04BE051E00E944E
:101B20000A4AE5EDFCE0E00FF11FE60FF71F08E1C0
:101B30000083022F10E04BE051E00E940A4AF801B6
:101B4000EF5EF24F60817181CB010196022F10E0B0
:101B50004BE051E00E940A4AF801EF5EF24F8083A9
:101B60009183022F10E04BE051E00E940A4AE5ED1C
:101B7000FCE0E00FF11FE60FF71F01E00083022FEA
:101B800010E04BE051E00E940A4AF801EF5EF24F8C
:101B900060817181CB010196022F10E04BE051E092
:101BA0000E940A4AF801EF5EF24F8083918330E091
:101BB000F901ED50FB4E3081022F10E04BE051E077
:101BC0000E940A4AE5EDFCE0E00FF11FE60FF71F67
:101BD0003083C1010895392F282E202F022F10E0C5
:101BE0004BE051E00E940A4AF801EF5EF24F60813B
:101BF0007181CB010196022F10E04BE051E00E9471
:101C00000A4AF801EF5EF24F80839183022F10E0C1
:101C10004BE051E00E940A4AE5EDFCE0E00FF11FC5
:101C2000E60FF71F00E10083022F10E04BE051E0C8
:101C30000E940A4AF801EF5EF24F60817181CB0188
:101C40000196022F10E04BE051E00E940A4AF80191
:101C5000EF5EF24F80839183022F10E04BE051E062
:101C60000E940A4AE5EDFCE0E00FF11FE60FF71FC6
:101C700001E00083022F10E04BE051E00E940A4A8D
:101C8000F801EF5EF24F60817181CB010196022F66
:101C900010E04BE051E00E940A4AF801EF5EF24F7B
:101CA00080839183022F10E04BE051E00E940A4AAA
:101CB000E5EDFCE0E00FF11FE60FF71F00E0008309
:101CC000822D932F0895392F282E202F022F10E0D8
:101CD0004BE051E00E940A4AF801EF5EF24F60814A
:101CE0007181CB010196022F10E04BE051E00E9480
:101CF0000A4AF801EF5EF24F80839183022F10E0D1
:101D00004BE051E00E940A4AE5EDFCE0E00FF11FD4
:101D1000E60FF71F0DE00083022F10E04BE051E0CB
:101D20000E940A4AF801EF5EF24F60817181CB0197
:101D30000196022F10E04BE051E00E940A4AF801A0
:101D4000EF5EF24F80839183022F10E04BE051E071
:101D50000E940A4AE5EDFCE0E00FF11FE60FF71FD5
:101D600001E00083022F10E04BE051E00E940A4A9C
:101D7000F801EF5EF24F60817181CB010196022F75
:101D800010E04BE051E00E940A4AF801EF5EF24F8A
:101D900080839183022F10E04BE051E00E940A4AB9
:101DA000E5EDFCE0E00FF11FE60FF71F00E0008318
:101DB000822D932F0895392F282E202F022F10E0E7
:101DC0004BE051E00E940A4AF801EF5EF24F608159
:101DD0007181CB010196022F10E04BE051E00E948F
:101DE0000A4AF801EF5EF24F80839183022F10E0E0
:101DF0004BE051E00E940A4AE5EDFCE0E00FF11FE4
:101E0000E60FF71F0BE10083022F10E04BE051E0DB
:101E10000E940A4AF801EF5EF24F60817181CB01A6
:101E20000196022F10E04BE051E00E940A4AF801AF
:101E3000EF5EF24F80839183022F10E04BE051E080
:101E40000E940A4AE5EDFCE0E00FF11FE60FF71FE4
:101E500001E00083022F10E04BE051E00E940A4AAB
:101E6000F801EF5EF24F60817181CB010196022F84
:101E700010E04BE051E00E940A4AF801EF5EF24F99
:101E800080839183022F10E04BE051E00E940A4AC8
:101E9000E5EDFCE0E00FF11FE60FF71F00E0008327
:101EA000822D932F0895392F282E202F022F10E0F6
:101EB0004BE051E00E940A4AF801EF5EF24F608168
:101EC0007181CB010196022F10E04BE051E00E949E
:101ED0000A4AF801EF5EF24F80839183022F10E0EF
:101EE0004BE051E00E940A4AE5EDFCE0E00FF11FF3
:101EF000E60FF71F01E10083022F10E04BE051E0F5
:101F00000E940A4AF801EF5EF24F60817181CB01B5
:101F10000196022F10E04BE051E00E940A4AF801BE
:101F2000EF5EF24F80839183022F10E04BE051E08F
:101F30000E940A4AE5EDFCE0E00FF11FE60FF71FF3
:101F400000E00083822D932F08959A938A93202F87
:101F500063E070E0022F10E040E550E00E940A4A82
:101F6000F801EF50FC4E0081E02FF0E033966E1741
:101F70007F07ACF5022F10E04BE051E00E940A4AC7
:101F8000F801EF5EF24F20803180C1010196022FEF
:101F900010E04BE051E00E940A4AF801EF5EF24F78
:101FA00080839183EFEEF3E170E0E60FF71F022FDD
:101FB00010E040E550E00E940A4AE00FF11F308136
:101FC000022F10E04BE051E00E940A4AE5EDFCE0F0
:101FD000E00FF11FE20DF31D30836395BACF022F9E
:101FE00010E040E550E00E940A4AF801E151FC4E41
:101FF00000E00083899199910895392F282E202F90
:10200000022F10E04BE051E00E940A4AF801EF5E17
:10201000F24F60817181CB010196022F10E04BE0FD
:1020200051E00E940A4AF801EF5EF24F80839183EB
:10203000022F10E04BE051E00E940A4AE5EDFCE07F
:10204000E00FF11FE60FF71F01EA0083022F10E0F7
:102050004BE051E00E940A4AF801EF5EF24F6081C6
:102060007181CB010196022F10E04BE051E00E94FC
:102070000A4AF801EF5EF24F80839183022F10E04D
:102080004BE051E00E940A4AE5EDFCE0E00FF11F51
:10209000E60FF71F00E00083822D932F0895392F5C
:1020A000282E202F022F10E04BE051E00E940A4A18
:1020B000F801EF5EF24F60817181CB010196022F32
:1020C00010E04BE051E00E940A4AF801EF5EF24F47
:1020D00080839183022F10E04BE051E00E940A4A76
:1020E000E5EDFCE0E00FF11FE60FF71F00EA0083CB
:1020F000022F10E04BE051E00E940A4AF801EF5E27
:10210000F24F60817181CB010196022F10E04BE00C
:1021100051E00E940A4AF801EF5EF24F80839183FA
:10212000022F10E04BE051E00E940A4AE5EDFCE08E
:10213000E00FF11FE60FF71F01E00083022F10E010
:102140004BE051E00E940A4AF801EF5EF24F6081D5
:102150007181CB010196022F10E04BE051E00E940B
:102160000A4AF801EF5EF24F80839183022F10E05C
:102170004BE051E00E940A4AE5EDFCE0E00FF11F60
:10218000E60FF71F00E00083822D932F0895392F6B
:10219000282E202F022F10E04BE051E00E940A4A27
:1021A000F801EF5EF24F60817181CB010196022F41
:1021B00010E04BE051E00E940A4AF801EF5EF24F56
:1021C00080839183022F10E04BE051E00E940A4A85
:1021D000E5EDFCE0E00FF11FE60FF71F05E60083D9
:1021E000022F10E04BE051E00E940A4AF801EF5E36
:1021F000F24F60817181CB010196022F10E04BE01C
:1022000051E00E940A4AF801EF5EF24F8083918309
:10221000022F10E04BE051E00E940A4AE5EDFCE09D
:10222000E00FF11FE60FF71F01E00083022F10E01F
:102230004BE051E00E940A4AF801EF5EF24F6081E4
:102240007181CB010196022F10E04BE051E00E941A
:102250000A4AF801EF5EF24F80839183022F10E06B
:102260004BE051E00E940A4AE5EDFCE0E00FF11F6F
:10227000E60FF71F00E00083822D932F08951C01C5
:10228000202F312F022F10E04BE051E00E940A4A2C
:10229000F801EF5EF24F60817181CB010196022F50
:1022A00010E04BE051E00E940A4AF801EF5EF24F65
:1022B00080839183022F10E04BE051E00E940A4A94
:1022C000E5EDFCE0E00FF11FE60FF71F06E60083E7
:1022D000022F10E04BE051E00E940A4AF801EF5E45
:1022E000F24F60817181CB010196022F10E04BE02B
:1022F00051E00E940A4AF801EF5EF24F8083918319
:10230000022F10E04BE051E00E940A4AE5EDFCE0AC
:10231000E00FF11FE60FF71F01E00083022F10E02E
:102320004BE051E00E940A4AF801EF5EF24F6081F3
:102330007181CB010196022F10E04BE051E00E9429
:102340000A4AF801EF5EF24F80839183022F10E07A
:102350004BE051E00E940A4AE5EDFCE0E00FF11F7E
:10236000E60FF71F3083C1010895392F282E202F43
:10237000022F10E04BE051E00E940A4AF801EF5EA4
:10238000F24F60817181CB010196022F10E04BE08A
:1023900051E00E940A4AF801EF5EF24F8083918378
:1023A000022F10E04BE051E00E940A4AE5EDFCE00C
:1023B000E00FF11FE60FF71F04E60083022F10E085
:1023C0004BE051E00E940A4AF801EF5EF24F608153
:1023D0007181CB010196022F10E04BE051E00E9489
:1023E0000A4AF801EF5EF24F80839183022F10E0DA
:1023F0004BE051E00E940A4AE5EDFCE0E00FF11FDE
:10240000E60FF71F00E00083822D932F08950091BF
:10241000FB0E08B90895102F105019F01A9549F0C5
:10242000089510910822EDE0F2E2208120FDF9CF1D
:10243000089510910022E5E0F2E2208120FDF9CF1D
:1024400008950E949A4C402ECA01DB0160EA7DE0AB
:10245000042D10E04BE051E00E940A4A600F711F0A
:1024600042E350E021E01A01E2EDFDE0042D10E02E
:102470004BE051E00E940A4AE00FF11FA1018F01D9
:102480000E941228042D10E04BE051E00E940A4AFD
:10249000F801EF5EF24F00E010E000831183042D9D
:1024A00010E04BE051E00E940A4AF801ED5EF24F65
:1024B00000E010E000831183042D10E04BE051E0B8
:1024C0000E940A4AF801EB5EF24F00E010E0008340
:1024D0001183042D10E04BE051E00E940A4AF801FC
:1024E000EF56F24F00E010E000831183042D10E05E
:1024F0004BE051E00E940A4AF801ED56F24F00E02D
:1025000010E000831183042D10E04BE051E00E94A5
:102510000A4AF801EB56F24F00E010E00083118305
:10252000042D10E04BE051E00E940A4AF801E95600
:10253000F24F03E00083042D10E04BE051E00E94D5
:102540000A4AF801E856F24F00E00083042D10E03B
:102550004BE051E00E940A4AF801E95EF24F00E0C8
:102560000083042D005019F00A95B9F16BC0042DB9
:1025700010E04BE051E00E940A4AF801E756F24FA2
:102580000AEF10E00083118300E800930B2208E4B7
:1025900018EE21E030E0AC01BD010E94284A009312
:1025A000082208E418EE21E030E0AC01BD010E94F1
:1025B000284A012F10E00093092203E000930B2228
:1025C00001E000930A2201EC00930A2203E0009349
:1025D000092200E000930C2235C0042D10E04BE0EE
:1025E00051E00E940A4AF801E756F24F0AEF10E064
:1025F0000083118300E80093032208E418EE21E031
:1026000030E0AC01BD010E94284A0093002208E49A
:1026100018EE21E030E0AC01BD010E94284A012FF4
:1026200010E00093012203E00093032201E00093F5
:10263000022201EC0093022203E00093012200E059
:1026400000930422E5E00C94A94C0E94984CA0E071
:10265000B5E040E855E260E070E000E0F2DE40E81E
:1026600055E260E070E001E0ECDE20EE33E001E0F6
:102670000E94892221E034E001E00E94892202E0E8
:1026800010E00E9498040093FB0E03E010E00E940B
:1026900098040093FC0E04E010E00E94980400935C
:1026A000FD0E00E00093EF1300E000933F1400E004
:1026B00000938F1400E00093C114552408E05016D5
:1026C00098F500919A03007F002321F009E910E0BA
:1026D0000E94C00AF89400919A03039500939A030C
:1026E0002091FB0E01E010E0452D0E94144A2023AA
:1026F00008B1022B08B900919A03007F002321F052
:1027000009E910E00E94C00A00919A030A9500931B
:102710009A0300919A03002309F4789404E610E0E8
:102720000E9406285394CACF00E717E10E940628AA
:1027300000E00093D40800E00093D4080091D4088E
:10274000043008F03CC200919D0D093010F000E00B
:1027500062DE0091A80E093010F001E05CDEB530B9
:1027600020F4B395B53008F052DE00919A03007F53
:10277000002321F009E910E00E94C00AF8940091BA
:102780009A03039500939A030EB1006F0EB900915E
:102790009A03007F002321F009E910E00E94C00A9B
:1027A00000919A030A9500939A0300919A030023DB
:1027B00009F478944091D40800E110E00E94144A92
:1027C000502E00EF502200919A03007F002321F049
:1027D00009E910E00E94C00AF89400919A03039559
:1027E00000939A03052D00951EB110231EB9009188
:1027F0009A03007F002321F009E910E00E94C00A3B
:1028000000919A030A9500939A0300919A0300237A
:1028100009F478940091FB0E10E04091D4080E94D6
:102820001E4A0170002309F4C1C0E1E1FDE006E0A9
:1028300010E0008311830091FC0E10E03091D40869
:1028400022E0329F402D0E941E4A602E03E060224B
:10285000062D005009F44FC00A9519F00A9551F160
:10286000A1C00A2F005019F0045121F020C000E04F
:102870007CDD98C000918F140023B1F40091F51411
:102880001091D408011781F413E700E0F8DC0091FF
:10289000F51403950093F5140091F514043048F0F5
:1028A00000E00093F5147EC000E071DC7BC000E026
:1028B0006EDC78C00A2F0050D9F00451B1F40091B9
:1028C0008F14002391F40091F5141091D40801178E
:1028D00061F40091F51403950093F5140091F5143B
:1028E000043018F000E00093F51400E0D8DB5AC083
:1028F00000E083DB57C00091EF13013069F40091D1
:10290000F0131091D408011739F400E01EDB00E049
:10291000CADA00E0802F02C001E0802FAA2319F458
:1029200000E049DA3FC0A53019F400E0CCD93AC044
:10293000AA3019F400E0B7DA35C0AF3019F400E07E
:102940004AD930C0A43151F500918F14002309F504
:102950000091F5141091D4080117D9F400E0C1D802
:102960000091F3140E5F0093F3140091F3140F30F1
:10297000C8F000E00093F3140091F5140395009360
:10298000F5140091F514043068F000E00093F5149C
:1029900009C0813039F400E02CD804C0813011F432
:1029A00000E027D800E00E94A10B12C00091F514AE
:1029B0001091D408011761F40091F5140395009368
:1029C000F5140091F514043018F000E00093F514AC
:1029D0000091FB0E10E04091D4084C5F0E941E4A0B
:1029E0000170002309F4C8C0ECE1FEE006E010E04D
:1029F000008311830091FD0E10E03091D40822E095
:102A0000329F402D0E941E4A602E03E06022062D58
:102A1000005009F44FC00A9519F00A9551F1A8C069
:102A20000A2F005019F0045121F020C001E09DDC74
:102A30009FC00091C1140023B1F40091F6141091CD
:102A4000D408011781F413E701E019DC0091F614B2
:102A500003950093F6140091F614043048F000E05A
:102A60000093F61485C001E092DB82C001E08FDBA9
:102A70007FC00A2F0050D9F00451B1F40091C11465
:102A8000002391F40091F6141091D408011761F419
:102A90000091F61403950093F6140091F614043097
:102AA00018F000E00093F61401E0F9DA61C001E0EB
:102AB000A4DA5EC000913F14013089F40091401403
:102AC00010E0E091D408F0E034960E171F0739F4B7
:102AD00001E03BDA01E0E7D900E0902F02C001E01D
:102AE000902FAA2319F401E066D942C0A53019F449
:102AF00001E0E9D83DC0AA3019F401E0D4D938C0CA
:102B0000AF3019F401E067D833C0A43161F500910A
:102B1000C114002311F50091F6141091D408011787
:102B2000E1F401E00E94710D0091F4140E5F009336
:102B3000F4140091F4140F30D8F000E00093F41472
:102B40000091F61403950093F6140091F6140430E6
:102B500078F000E00093F6140BC0913049F401E0E6
:102B60000E94F90C05C0913019F401E00E94F90CA3
:102B700001E00E94A10B12C00091F6141091D4083C
:102B8000011761F40091F61403950093F614009177
:102B9000F614043018F000E00093F61428EE33E049
:102BA00001E00E94C022402E41FA1EF4B53008F028
:102BB000B0E00091D40803950093D408BFCDA3954D
:102BC000A53108F4B5CDA0E0B3CD202F022F10E041
:102BD0004BE051E00E940A4AF801E956F24F00E04A
:102BE000008308950E949A4C402E84E090E0BFEF4D
:102BF000A1E09C01042D1CD7002309F4A0E0EAE128
:102C0000FDE0E80FF91F042D10E04BE051E00E94B9
:102C10000A4AE00FF11F0081E02FF0E032968E0F9C
:102C20009F1FBA95BB2309F4A0E0AA2381F0042DCD
:102C300010E04BE051E00E940A4AF801E556F24FDD
:102C400000811181035010408017910790F2042DEC
:102C5000BCDFE5E00C94A94C0E949B4C00E91AE112
:102C60000E94062803EF11E00E94062821E030E0D0
:102C700003E00E94C022902F90FBEEF400E0B2DF50
:102C80000091D40810E0000F111F000F111FF80170
:102C9000E550F14F00E0038700E004870091D4087D
:102CA00010E0F801E550F14F03810E7F038300E04F
:102CB00000939D0D87C000919D0D039500939D0D80
:102CC0000091D40810E0000F111F000F111FF80130
:102CD000E550F14F058516850F5F1F4F0587168755
:102CE0000091D408202F30E0220F331F220F331F12
:102CF000F901E550F14FA385B4859D012F5F3F4F4A
:102D000010E0000F111F000F111FF801E550F14FE7
:102D100023873487169748F00091D40810E0F80113
:102D2000E550F14F0381016003830091FB0E10E039
:102D30004091D4080E941E4A0170002309F442C049
:102D40000091D40810E0000F111F000F111FF801AF
:102D5000E550F14F038514850770043099F54091D3
:102D6000D40801E010E00E94144A802F00919A03D9
:102D7000007F002321F009E910E00E94C00AF894C6
:102D800000919A03039500939A03082F009518B1B8
:102D9000102318B900919A03007F002321F009E95C
:102DA00010E00E94C00A00919A030A9500939A03CA
:102DB00000919A03002309F4789426E43CE102E0B0
:102DC0000E94892291FBEEF401E00CDF0091D4080F
:102DD00010E0000F111F000F111FF801E550F14F17
:102DE00000E0038F00E0048F0091D40810E0F801A8
:102DF000E550F14F07810E7F078300E00093A80E96
:102E000089C00091A80E03950093A80E0091D408E4
:102E100010E0000F111F000F111FF801E550F14FD6
:102E2000058D168D0F5F1F4F058F168F0091D408EB
:102E3000202F30E0220F331F220F331FF901E550FE
:102E4000F14FA38DB48D9D012F5F3F4F10E0000F18
:102E5000111F000F111FF801E550F14F238F348F20
:102E6000169748F00091D40810E0F801E550F14FB2
:102E70000781016007830091FB0E10E04091D408A8
:102E80004C5F0E941E4A0170002309F443C0009168
:102E9000D40810E0000F111F000F111FF801E550BA
:102EA000F14F038D148D07700430A1F54091D408C3
:102EB0004C5F01E010E00E94144A802F00919A03B9
:102EC000007F002321F009E910E00E94C00AF89475
:102ED00000919A03039500939A03082F009518B167
:102EE000102318B900919A03007F002321F009E90B
:102EF00010E00E94C00A00919A030A9500939A0379
:102F000000919A03002309F4789426E43CE102E05E
:102F10000E94892226E43CE101E00E948922A2CE9F
:102F2000602FE3E2FDE0E20FF31F062F10E04BE01D
:102F300051E00E940A4AE00FF11F008011802280B8
:102F40003380062F10E0000F111F000F111F40915A
:102F5000D40850E0040F151FF801E550F14F03A607
:102F600008950E94974C202EB90129E13DE0260FDB
:102F7000371F022D10E04BE051E00E940A4A200F5B
:102F8000311FEDE1FDE0E60FF71F022D10E04BE0F1
:102F900051E00E940A4AE00FF11FD9014D905D9067
:102FA0006D907C901397022D10E0000F111F000F01
:102FB000111F4091D40850E0040F151F48E350E062
:102FC0000E940A4AD801AA52BE4E4D925D926D925D
:102FD0007C9213974080518062807380022D10E0B4
:102FE000000F111F000F111F4091D40850E0040F73
:102FF000151F48E350E00E940A4AD801A652BE4E6F
:103000004D925D926D927C921397A1E2BDE0A60F66
:10301000B71F022D10E04BE051E00E940A4AA00FBA
:10302000B11F3C90022D10E0000F111F000F111F67
:103030004091D40850E0040F151F4EE050E00E946C
:103040000A4AD801AA5CB04F3C92A2E2BDE0A60FAA
:10305000B71F022D10E04BE051E00E940A4AA00F7A
:10306000B11F3C90022D10E0000F111F000F111F27
:103070004091D40850E0040F151F4EE050E00E942C
:103080000A4AD801AA55B04F3C92E8E00C94A64CED
:103090000E94974CA02FC901E9E1FDE0E80FF91F5C
:1030A0000A2F10E04BE051E00E940A4AE00FF11FA6
:1030B000008110E020E030E00E94914A28013901AF
:1030C0000A2F10E0000F111F000F111F2091D408CC
:1030D00030E0020F131F48E350E00E940A4AF80153
:1030E000EA52FE4E4082518262827382EAE1FDE042
:1030F000E80FF91F0A2F10E04BE051E00E940A4A46
:10310000E00FF11F308120E0EBE1FDE0E80FF91F57
:103110000A2F10E04BE051E00E940A4AE00FF11F35
:10312000008110E0200F311F8901212F220F220B77
:10313000322F0E94854A40E050E060E271E40E9434
:10314000B94B280139010A2F10E0000F111F000FA1
:10315000111F2091D40830E0020F131F48E350E004
:103160000E940A4AF801E652FE4E40825182628273
:103170007382ECE1FDE0E80FF91F0A2F10E04BE04D
:1031800051E00E940A4AE00FF11F60810A2F10E00F
:10319000000F111F000F111F2091D40830E0020F03
:1031A000131F4EE050E00E940A4AF801E550F14F2B
:1031B00063AF0A2F10E0000F111F000F111F2091A5
:1031C000D40830E0020F131F4EE050E00E940A4A7C
:1031D000F801EA55F04F00E00083E8E00C94A64CBB
:1031E0001C01602FC9018C01C8010196E9E1FDE0D5
:1031F000E00FF11F062F10E04BE051E00E940A4A59
:10320000E00FF11F00810337E1F5062F10E042E3E4
:1032100050E00E940A4AF801E157FB4E01E00083AA
:1032200004E0609F302D0091D408300F062F10E08D
:1032300042E350E00E940A4AF801E057FB4E308317
:1032400022E02630F0F4E9E1FDE0E80FF91F062F57
:1032500010E04BE051E00E940A4AE00FF11F70813C
:10326000EFE8F4E130E0E20FF31F062F10E042E355
:1032700050E00E940A4AE00FF11F708301962395E7
:10328000E0CFC1010895602F2090D408E9E1FDE06E
:10329000E20FF31F062F10E04BE051E00E940A4AB4
:1032A000E00FF11F4081062F10E0000F111F000FEB
:1032B000111F3324020D131DF801E550F14F03A532
:1032C000042B03A7EAE1FDE0E20FF31F062F10E055
:1032D0004BE051E00E940A4AE00FF11F7081062F77
:1032E00010E0000F111F000F111F4091D40850E093
:1032F000040F151FF801E550F14F73ABEDE1FDE050
:10330000E20FF31F062F10E04BE051E00E940A4A43
:10331000E00FF11F0081002389F04091D408062FAF
:1033200010E0000F111F000F111F50E0040F151FB8
:10333000F801E550F14F03A9006803AB08950E941E
:103340009B4C602FC901062F10E042E350E00E9421
:103350000A4AF801E157FB4E01E0008304E0609F58
:10336000202D0091D408200F062F10E042E350E0FA
:103370000E940A4AF801E057FB4E2083A2E0B0E029
:10338000AB3200E0B007ECF4E9E1FDE0E80FF91F33
:10339000062F10E04BE051E00E940A4AE00FF11FB7
:1033A0002081EFE8F4E1EA0FFB1F062F10E042E373
:1033B00050E00E940A4AE00FF11F20830196119607
:1033C000DFCFE4E00C94AA4C1C01602FC90130E06F
:1033D0003E3008F05FC0E9E1FDE0E80FF91F062F7D
:1033E00010E04BE051E00E940A4AE00FF11F00811B
:1033F000202F01962E3008F04AC0E9E1FDE0E80FE9
:10340000F91F062F10E04BE051E00E940A4AE00F3E
:10341000F11F7081E6E3FFE0022F10E0E00FF11FE3
:10342000062F10E0000F111F000F111F4091D4084C
:1034300050E0040F151F4EE050E00E940A4AE00FD2
:10344000F11F7083EAE1FDE0E80FF91F062F10E09D
:103450004BE051E00E940A4AE00FF11F7081E6EA5A
:10346000FFE0022F10E0E00FF11F062F10E0000F29
:10347000111F000F111F4091D40850E0040F151FB9
:103480004EE050E00E940A4AE00FF11F708302965E
:1034900033959ECFC1010895602FE9E1FDE0E20F71
:1034A000F31F062F10E04BE051E00E940A4AE00FA4
:1034B000F11F7081062F10E0000F111F000F111F68
:1034C0004091D40850E0040F151FF801E550F14F6A
:1034D00073A7EAE1FDE0E20FF31F062F10E04BE0D7
:1034E00051E00E940A4AE00FF11F7081062F10E0A0
:1034F000000F111F000F111F4091D40850E0040F5E
:10350000151FF801E550F14F73AB08950E94994CD7
:10351000202EE8E1FDE0E20FF31F022D10E04BE06A
:1035200051E00E940A4AE00FF11F008110E0D8012B
:10353000A13000E0B0070CF472C060E070E06A17E0
:103540007B070CF06CC0E9E1FDE070E08901060F3B
:10355000171FE00FF11F022D10E04BE051E00E9419
:103560000A4AE00FF11F0081802F8E3008F055C00D
:10357000EAE1FDE070E08901060F171FE00FF11F7F
:10358000022D10E04BE051E00E940A4AE00FF11FCB
:103590007081E6E3FFE090E0E80FF91F022D10E0F4
:1035A000000F111F000F111F4091D40850E0040FAD
:1035B000151F4EE050E00E940A4AE00FF11F708391
:1035C000EBE1FDE070E08901060F171FE00FF11F2E
:1035D000022D10E04BE051E00E940A4AE00FF11F7B
:1035E00040805180E6EFF0E1082F10E0000F111F3E
:1035F000E00FF11F022D10E0000F111F000F111F2F
:103600004091D40850E0040F151F4CE150E00E9497
:103610000A4AE00FF11F408251826C5F8FCFE6E0D3
:103620000C94A84C0E94994C202EE8E1FDE0E20F9A
:10363000F31F022D10E04BE051E00E940A4AE00F18
:10364000F11F008110E0D801A13000E0B0070CF4B8
:1036500072C060E070E06A177B070CF06CC0E9E1B3
:10366000FDE070E08901060F171FE00FF11F022D2A
:1036700010E04BE051E00E940A4AE00FF11F008188
:10368000802F8E3008F055C0EAE1FDE070E089013E
:10369000060F171FE00FF11F022D10E04BE051E065
:1036A0000E940A4AE00FF11F7081E6E3FFE090E01C
:1036B000E80FF91F022D10E0000F111F000F111F5E
:1036C0004091D40850E0040F151F4EE050E00E94D6
:1036D0000A4AE00FF11F7083EBE1FDE070E0890121
:1036E000060F171FE00FF11F022D10E04BE051E015
:1036F0000E940A4AE00FF11F40805180E6E1F0E1AC
:10370000082F10E0000F111FE00FF11F022D10E035
:10371000000F111F000F111F4091D40850E0040F3B
:10372000151F4CE150E00E940A4AE00FF11F408251
:1037300051826C5F8FCFE6E00C94A84C0E949A4CAB
:10374000402ED90109EA1CE10E948229842D90E0D3
:10375000880F991F880F991F0091D40810E0800FDF
:10376000911FE8E1FDE0EA0FFB1F042D10E04BE0A4
:1037700051E00E940A4AE00FF11F0081043009F075
:1037800052C020E030E0233000E0300724F5E9E1CA
:10379000FDE08D01020F131FE00FF11F042D10E05B
:1037A0004BE051E00E940A4AE00FF11F608170E097
:1037B000E6E9F3E18901000F111FE00FF11F8C0111
:1037C00048E050E00E940A4AE00FF11F60837183D5
:1037D0002F5F3F4FD8CF8C0148E050E00E940A4A4B
:1037E000F801E456FC4E00E0008300E00183ECE1C8
:1037F000FDE0EA0FFB1F042D10E04BE051E00E94BA
:103800000A4AE00FF11F0081FC01EA52FC4E0083DE
:103810008C01000F111FF801E252FC4E00E0008302
:1038200000E0018355C020E030E0243000E03007A4
:1038300044F5042D10E04BE051E00E940A4AE5ED0A
:10384000FCE0E00FF11FEA0FFB1F8901000F111FC1
:10385000E00FF11FEC5BFF4F60817181E6E9F3E15E
:103860008901000F111FE00FF11F8C0148E050E0AB
:103870000E940A4AE00FF11F608371832F5F3F4F60
:10388000D4CFE1E2FDE0EA0FFB1F042D10E04BE096
:1038900051E00E940A4AE00FF11F0081FC01EA5248
:1038A000FC4E0083E2E2FDE0EA0FFB1F042D10E076
:1038B0004BE051E00E940A4AE00FF11F2081318164
:1038C0008C01000F111FF801E252FC4E208331835E
:1038D00004E0409E402D0091D408400F01E010E02C
:1038E0000E94144A1091EE13102B1093EE1309EA64
:1038F0001CE10E94D829E5E00C94A94C0E94914C4F
:10390000A02E4901E8E1FDE0E80DF91D0A2D10E0C7
:103910004BE051E00E940A4AE00FF11F008110E0E5
:10392000680109EA1CE10E94822901E0C01600E05A
:10393000D0060CF476C080E090E08C159D0508F070
:1039400070C0E9E1FDE08401080F191FE00FF11FCD
:103950000A2D10E04BE051E00E940A4AE00FF11FEF
:10396000008110E0D801AE3000E0B00708F057C089
:10397000EAE1FDE08401080F191FE00FF11F0A2D95
:1039800010E04BE051E00E940A4AE00FF11F208155
:10399000E6E3FFE0EA0FFB1F0A2D10E0000F111F06
:1039A000000F111F4091D40850E0040F151F4EE086
:1039B00050E00E940A4AE00FF11F2083EBE1FDE096
:1039C0008401080F191FE00FF11F0A2D10E04BE0D2
:1039D00051E00E940A4AE00FF11F4080518062804E
:1039E0007380E6EDF1E18D01000F111F000F111F33
:1039F000E00FF11F0A2D10E0000F111F000F111F23
:103A00002091D40830E0020F131F48E350E00E94D9
:103A10000A4AE00FF11F4082518262827382069649
:103A20008CCF09EA1CE10E94D829EEE00C94A04C4E
:103A30000E949B4CA02FC901B1E0E9E1FDE0E80F35
:103A4000F91F0A2F10E04BE051E00E940A4AE00FF4
:103A5000F11F0081ECECF0E0FBBFF0E00C94514C66
:103A60009C012E5F3F4F0A2F49DF43C09C012E5F10
:103A70003F4F0A2F63DE3DC09C012E5F3F4F0A2F50
:103A8000D1DD37C09C012E5F3F4F0A2F3FDD31C093
:103A90009C012E5F3F4F0A2FFFDC2BC09C012E5F45
:103AA0003F4F0A2F91DC25C09C012E5F3F4F0A2F0C
:103AB00046DC1FC09C012E5F3F4F0A2FE4DB19C07C
:103AC0009C012E5F3F4F0A2F8BDB13C09C012E5FA2
:103AD0003F4F0A2FDDDA0DC09C012E5F3F4F0A2FAA
:103AE00040DA07C09C012E5F3F4F0A2F19DA01C050
:103AF000B0E00B2FE4E00C94AA4C0E949B4C802F6A
:103B0000082F10E04BE051E00E940A4AF801E95604
:103B1000F24F0081005049F00A9541F00A9509F4EE
:103B200089C0085009F401C1FDC0FFC0082F10E092
:103B30004BE051E00E940A4AF801ED56F24FA08195
:103B4000B181139708F4F1C0082F10E04BE051E069
:103B50000E940A4AF801E55EF24F208130E0322FE0
:103B600020E0082F10E04BE051E00E940A4AF801E3
:103B7000E45EF24F008110E0200F311F082F10E0AB
:103B80004BE051E00E940A4AF801E556F24F2083CB
:103B90003183082F10E04BE051E00E940A4AF801FF
:103BA000E556F24F6081718128E730E0082F10E080
:103BB0004BE051E00E940A4AF801ED56F24F0081B5
:103BC0001181201B310B6217730780F5082F10E05D
:103BD0004BE051E00E940A4AF801E556F24FA081FD
:103BE000B181179718F1082F10E04BE051E00E94C7
:103BF0000A4AF801E956F24F02E00083082F10E06C
:103C00004BE051E00E940A4AF801ED56F24FA081C4
:103C1000B1811196082F10E04BE051E00E940A4A52
:103C2000F801EB56F24FA083B1837FC0082F0E94AA
:103C3000E5157BC0082F10E04BE051E00E940A4AD6
:103C4000F801EB56F24FA081B1811196082F10E0D8
:103C50004BE051E00E940A4AF801EB56F24FA08374
:103C6000B183082F10E04BE051E00E940A4AF801AE
:103C7000E556F24F00811181A017B10708F455C035
:103C800028E13DE0082F10E04BE051E00E940A4A95
:103C9000F801E556F24F00811181200F311F082FE6
:103CA00010E04BE051E00E940A4A200F311FF90159
:103CB0000081033099F5082F63D0012B59F1082FAB
:103CC00010E04BE051E00E940A4AF801E75EF24F33
:103CD00000810D3FD9F4082F10E04BE051E00E9425
:103CE0000A4AF801E956F24F0AE00083882331F4CA
:103CF00027E63CE101E00E94892217C08130A9F447
:103D000027E63CE102E00E9489220FC0082F0E94B2
:103D1000E5150BC0082F0E94E51507C0082F0E946B
:103D2000E51503C0082F0E94E515082F10E04BE0B1
:103D300051E00E940A4AF801ED56F24FA081B1818C
:103D40001196082F10E04BE051E00E940A4AF8015A
:103D5000ED56F24FA083B183A83700E0B00768F0BA
:103D6000082F10E04BE051E00E940A4AF801ED569E
:103D7000F24F00E010E000831183E4E00C94AA4CC1
:103D80000E949B4C202F60E080E090E0022F10E02A
:103D90004BE051E00E940A4AF801E556F24FA0813B
:103DA000B18112978A179B07C8F470E0E9E1FDE042
:103DB000E80FF91F022F10E04BE051E00E940A4A81
:103DC000E00FF11F008110E060277127FB01EE502A
:103DD000F64630E03BBF66910196D8CFA7E1BDE043
:103DE000022F10E04BE051E00E940A4AF801E5562C
:103DF000F24F00811181A00FB11F022F10E04BE0A4
:103E000051E00E940A4AA00FB11FFD010081601716
:103E100019F401E010E002C000E010E0E4E00C94CE
:103E2000AA4C042D152D78940895DF93CF93BF935A
:103E3000AF939F938F93FF92EF92DF92CF92BF92B7
:103E4000AF929F928F927F926F925F924F9240902B
:103E500099034F9240909A034F92E0919F03F09103
:103E6000A0034DB65EB642825382F894C7ECD2E00E
:103E70000FE30DBF03E00EBF01E00093B30378949E
:103E80000E94ED2400270093B303E0919F03F0917B
:103E9000A003028113811EBF0DBF0F9000929A03F1
:103EA0000F90009299034F905F906F907F908F904A
:103EB0009F90AF90BF90CF90DF90EF90FF908F9149
:103EC0009F91AF91BF91CF91DF910895E0E0EBBF5B
:103ED000E091EB1CF091EC1C008111812281009398
:103EE000ED1C1093EE1CE0919F03F091A003EF2BCB
:103EF00061F0E0E0EBBFE091EB1CF091EC1C01E91C
:103F00001FE120E0108301830895E0E0EBBFE09122
:103F1000EB1CF091EC1C05E31FE120E01083018312
:103F200008950A931A930091ED1C1091EE1C1F93B3
:103F30000F93199109910F921F922F923F920F9315
:103F40001F932F933F934F935F936F937F93EF93C1
:103F5000FF930FB60F9208B60F9209B60F920BB6E9
:103F60000F920E94151F0E94CC270F900BBE0F903E
:103F700009BE0F9008BE0F900FBEFF91EF917F9189
:103F80006F915F914F913F912F911F910F913F90B2
:103F90002F901F900F90089578940895F8940895A5
:103FA0000091B30303950093B303013009F0089522
:103FB0002F913F914DB75EB76C2F7D2FF894C7ECD2
:103FC000D2E00FE30DBF03E00EBF7F936F935F93CB
:103FD0004F933F932F9308950091B3030A95009355
:103FE000B30309F008952F913F914F915F91CF91C5
:103FF000DF914DBF5EBF3F932F930895BA92AA926F
:104000008A927A926A925A924A92BA93AA939A930D
:104010008A93A02FB12F422E532E842E662E772EF8
:104020008F850091E21C002321F405EA10E00E9434
:10403000C00A0E946026A090A103B090A2030BC00A
:10404000AA16BB0621F40AEA10E00E94C00AEA2D73
:10405000FB2DA080B1800A2D0B2991F741E250E0A1
:1040600020E030E00A2F1B2F0E94B54C04E6EA2F17
:10407000FB2F00A381860091DC1C1085102B10877C
:10408000858F042D052911F0468657864B845C8464
:10409000428A538A8D859E85808B918B482F592F1C
:1040A0002DEC30E0042D152D0E94B54C480E591E04
:1040B00007EE400E0FEF501E00E0E42DF52D0083BB
:1040C00001830FE1048B01E1058B768A678A042D59
:1040D000152D0A501040969587959695879596953B
:1040E0008795081B190B028B138B04E0028305E0F4
:1040F000038306E0048307E0058308E0068309E004
:10410000078300E1008701E1018702E1028703E103
:10411000038704E1048705E1058704E2068705E2D9
:10412000078706E2008B07E2018B0FEF400E501E5F
:10413000EA2FFB2F428253820A2F1B2F0E94562701
:1041400089919991A991B9914990599069907990E3
:104150008990A990B99026960895BA92AA928A92C7
:104160007A926A925A924A92BA93AA939A938A93AB
:10417000A02FB12F422E532E842E662E772E8F85A0
:104180000091E21C002321F405EA10E00E94C00A1D
:104190000E946026A090A103B090A2030BC0AA16B3
:1041A000BB0621F40AEA10E00E94C00AEA2DFB2DAA
:1041B000A080B1800A2D0B2991F741E250E020E068
:1041C00030E00A2F1B2F0E94B54C04E6EA2FFB2F8C
:1041D00000A381860091DC1C1085102B1087858F31
:1041E000042D052911F0468657864B845C84428A4B
:1041F000538A8D859E85808B918B482F592F2DEC6E
:1042000030E0042D152D0E94B54C480E591E07EEC6
:10421000400E0FEF501E00E0E42DF52D00830183CA
:104220000FE1048B01E1058B768A678A042D152D39
:104230000A501040969587959695879596958795FF
:10424000081B190B028B138B04E0028305E0038328
:1042500006E0048307E0058308E0068309E007839E
:1042600000E1008701E1018702E1028703E10387A2
:1042700004E1048705E1058704E2068705E2078774
:1042800006E2008B07E2018B29890A8922830383D6
:104290000FEF400E501EEA2FFB2F428253820A2F4F
:1042A0001B2F0E94562789919991A991B991499004
:1042B0005990699079908990A990B990289608951D
:1042C000BA93AA932897A02FB12F0C831D830A833A
:1042D0001B8300919F031091A0030E831F83F8940A
:1042E0000D911C91119708831983CD93DC9308815C
:1042F0001981012B29F0A881B12F1296CD93DC935F
:10430000E0919F03F091A003C483D583E0919F03C4
:10431000F091A00320870E94AB272896A991B9911C
:104320000895E0919F03F091A0030387E0919F031C
:10433000F091A003268337831460E0919F03F091EE
:10434000A00310870C94AB27392F482F202F212B47
:1043500021F400919F031091A003E02FF12F20A1E1
:10436000243699F4808991890289138901C00197C3
:10437000282F292B51F0E02FF12F21910E2F1F2FE5
:104380002D3CA9F3082F192F02C000E010E0842F64
:10439000932F08959A938A93202F212B21F4009133
:1043A0009F031091A003E02FF12F20A1243619F0D4
:1043B00000E010E007C080899189C6DF801B910B67
:1043C000082F192F899199910895BA93AA939A93D6
:1043D0008A930091E01C002321F402EA10E00E947D
:1043E000C00AE9E9F3E082899389A489B5898F5FDE
:1043F0009F4FAF4FBF4FF894828B938BA48BB58B9D
:1044000000919A03007F21F009E910E00E94C00AA0
:1044100000919A03002309F478942091AF0330911E
:10442000B003082F192F0E94A62B11231AF001E0C8
:1044300000939D030091B103002339F00A95009386
:10444000B10319F401E000939B03A091E71CB09124
:10445000E81C09C01296ED91FC9113970995EA2F7B
:10446000FB2FA081B1810A2F0B2BA1F78991999184
:10447000A991B9910895BA93AA93A02FB12F07C01B
:10448000ED91F12F1197068117810E94E326F89490
:104490000D911C911197012B99F700919A03007FC0
:1044A00021F009E910E00E94C00A00919A0300235C
:1044B00009F47894A991B9910895BA93AA938A932B
:1044C000A02FB12F012B21F4A0919F03B091A00345
:1044D00090960C915697043621F000E810E00E9467
:1044E000C00A0E943926F8948C9100E00C93009148
:1044F0009A03007F21F009E910E00E94C00A0091B0
:104500009A03002309F47894082F8991A991B9910D
:104510000895BA93AA938A93802FA22FB32F9096CF
:104520000C915697043621F000E810E00E94C00A72
:104530000E943926F8940C91082B0C9312970C9139
:104540001897087F083059F41B960C911E911A9702
:10455000012329F00A2F1B2F0E94E3260DC0009192
:104560009A03007F21F009E910E00E94C00A00913F
:104570009A03002309F478948991A991B991089537
:10458000AA939A938A93A02F822F932F0091E11CD4
:10459000002321F001EA10E00E94C00A0E94602678
:1045A000F894813000E0900794F00E949C2B080F53
:1045B000191FE0919F03F091A00322852A2339F46B
:1045C000202F312F18E00A2F0E949121F894E091BA
:1045D0009F03F091A003828500E0028700919A0377
:1045E000007F21F009E910E00E94C00A00919A03BF
:1045F000002309F47894082F89919991A99108953D
:104600008A93802F0091E11C002321F001EA10E041
:104610000E94C00A0E9460260091990303950093AE
:104620009903F894E0919F03F091A0030285082379
:1046300049F4838708E0E0919F03F091A00300878D
:104640000E94151FE0919F03F091A003828500E076
:104650000287009199030A950093990300919A03A8
:10466000007F21F009E910E00E94C00A00919A033E
:10467000002309F47894082F89910895BA93AA9396
:104680009A938A93A02FB12F822F932F0091990391
:104690000395009399030091E11C002321F001EAA6
:1046A00010E00E94C00A0E946026EA2FFB2F0585B9
:1046B000063621F002E810E00E94C00AEA2FFB2F24
:1046C0000485013021F007E810E00E94C00AF89448
:1046D00006C020E40A2F1B2F0E946021F894EA2FC5
:1046E000FB2F06811781012BA1F3048115812285FF
:1046F0003385020F131FE02FF12F0081E82FF92FD0
:104700000083EA2FFB2F028513850F5F1F4F02875F
:1047100013870285208531850217130718F000E002
:104720000287038706811781802F912F0197868347
:104730009783208531850217130700919A0361F052
:10474000007F21F009E910E00E94C00A00919A035D
:10475000002389F478940FC0007F21F009E910E06C
:104760000E94C00A00919A03002309F478940A2F4A
:104770001B2F0E943B220E94B02689919991A991FA
:10478000B99108957B2F6A2FF89400919F0310919F
:10479000A00320E020939B037894202F212B09F481
:1047A00055C0E02FF12F20813181232B09F44EC019
:1047B0004185E081F32F2185241709F047C0E02FC0
:1047C000F12F208102C02E2F3F2FA22FB32FED916A
:1047D000FC915E2F5F2B19F051855417A1F3F894CB
:1047E0004091A3035091A4034017510741F4E02FD7
:1047F000F12F408151814093A3035093A403E02FF4
:10480000F12F44855585A02FB12FED91FC91A42F58
:10481000B52FED93FC9344875587E02FF12F248724
:104820003587A22FB32FED91FC91A02FB12FED93DF
:10483000FC93A02FB12F4D914F2B11F004871587BA
:10484000E22FF32F00831183058D048F7894A62F18
:10485000B72F08959A938A93F8940091DE1C1091D3
:10486000DF1CE9E9F3E022893389648975890E94B4
:10487000A62B01301040B4F5E9E9F3E042895389F1
:104880006489758907C0E9E9F3E0428B538B648B37
:10489000758B7894EDEDFCE1008100FF22C0F89467
:1048A000008101FFF0CF00810D7F00837894E9E95A
:1048B000F3E0042E152E0289138924893589001608
:1048C0001106B9F3428B538B648B758B8091DE1C80
:1048D0009091DF1C01968093DE1C9093DF1C868BE9
:1048E000978BF894899199910895BA93AA939A9382
:1048F0008A93A02FB12F00E0EA2FF12F04830289C1
:104900001389248935890056104F068B178B20890F
:1049100031892030304039F00A2F1B2F5096ED910D
:10492000FC91519709957894EA2FFB2F808591850A
:104930004AC0F894EA2FFB2F02851385012B59F00A
:10494000E82FF92F2185EA2FFB2F0285F385E02F31
:1049500001852017E8F1E82FF92F008502FF2EC00E
:10496000EA2FFB2F0289138924893589202F312FC3
:10497000E82FF92F068117810E94A62B01301040E5
:104980004CF4082F192F1FD2F894E82FF92F008527
:104990000023F1F0EA2FFB2F26893789E82FF92F22
:1049A000068117810E94A62B112342F4E82FF92FCC
:1049B00006811781EA2FFB2F068B178B7894E82F3F
:1049C000F92F80819181082F092B09F0B2CFF8943B
:1049D00089919991A991B99108956A925A924A92AE
:1049E000BA93AA939A938A93A9E9B3E000E0E9E91C
:1049F000F3E001830C91002321F406E710E00E940C
:104A0000C00AE9E9F3E006811781012BD1F016967F
:104A1000ED91F12F1797068D178D012B91F0E68DF3
:104A2000F12F2081318100E02030300751F0EA2F52
:104A3000FB2F0681F781E02F02811381E22FF32FF4
:104A40000995EA2FFB2F018D002351F0208D06815F
:104A5000F781E02F248F00919B03002309F092DE61
:104A6000EA2FFB2F06811781012B99F01696ED9105
:104A7000F12F17970085002361F4008D118D228D91
:104A8000338D0F5F1F4F2F4F3F4F008F118F228F9E
:104A9000338FEA2FFB2F02851385012B09F456C0B3
:104AA00009C0E82FF92F00811181EA2FFB2F02871F
:104AB00013877894F89482859385082F092B09F43D
:104AC0004AC0E82FF92F6084662009F444C062FAD6
:104AD00046F546805780EA2FFB2F028913892489E7
:104AE0003589202F312F042D152D0E94A62B013042
:104AF00010404CF4082F192F66D1E82FF92F0085AC
:104B0000002379F423C0EA2FFB2F26893789042D4F
:104B1000152D0E94A62B112322F4EA2FFB2F468A83
:104B2000578A0BEF602200E1601609F0BACFE82F38
:104B3000F92F0481F581E02F0481F581E02F0281B6
:104B4000F381E02F0085002309F0ABCFF89403C078
:104B50000A2F1B2FCADEEA2FFB2F04810023C1F787
:104B60000091DD1C00FD76DE00E0EA2FFB2F0383C1
:104B700002851385012B09F467C01A96ED91FC910B
:104B80001B970085002379F01A96ED91FC911B97F5
:104B90000481F581E02F0481F581E02F02811381EA
:104BA000EA2FFB2F04C0EA2FFB2F02851385068313
:104BB00017831696ED91FC91119700A1043621F010
:104BC00000E810E00E94C00AED91FC911197028963
:104BD000F389E02F00810D3C21F008E710E00E94EE
:104BE000C00AED91FC911797068D178D012B91F05E
:104BF000E68DF12F2281338100E02030300751F023
:104C0000EA2FFB2F0681F781E02F02811381E22F2B
:104C1000F32F09951696ED91FC911797048DEA2FC5
:104C2000FB2F008F018FE0919F03F091A003048977
:104C30001589268937890F5F1F4F2F4F3F4F048BF0
:104C4000158B268B378B0DC000E0018F008F0683FC
:104C500007830C9378940E94462C07E710E00E948B
:104C6000C00A89919991A991B991499059906990F7
:104C700008950E94932B2091E01C0050104069F091
:104C80000150104071F00150104089F00150104067
:104C900081F00150104099F00EC0222381F003EA08
:104CA00003C0222361F404EA10E00C94C00A06EA6F
:104CB000FBCF07EAF9CF08EA10E00E94C00A089586
:104CC0009A938A930E94932B802F912F0091E01C3E
:104CD000002321F000EA10E00E94C00AE82FF92F1B
:104CE000309689F0319729F0319729F0319729F0E2
:104CF00006C004EA05C006EA03C007EA01C008EAE4
:104D000010E00E94C00A8991999108950E94932B06
:104D10000050104051F00150104099F001501040E7
:104D200031F00150104039F008C003EA01C006EA32
:104D300010E00C94C00A07EAFBCF08EA10E00E94DA
:104D4000C00A089500919A03007F21F009E910E05C
:104D50000E94C00A00919A03002309F478940895F0
:104D600000919903002321F407E910E00E94C00A92
:104D7000009199030A950093990321F5E9E9F3E07D
:104D80000281138124813581012B022B032BD1F069
:104D9000F8940281012B022B032B39F001E00083F0
:104DA0000E94151F00E00093990300919A03007F71
:104DB00021F009E910E00E94C00A00919A03002343
:104DC00009F478940895BA93AA93A02FB12FE02FF5
:104DD000F12F04811581012BF1F00E949C2BEA2F09
:104DE000FB2F068317831496ED91FC911597008194
:104DF000118122813381402F412B21F0E02FF12FAF
:104E000022833383E22FF32F0083118300E0EA2F04
:104E1000FB2F04830583008503700087D1F4009184
:104E2000A3031091A403202F212B19F5A093A30312
:104E3000B093A40300919903002301E041F400938F
:104E400099030E94151F00E00093990302C000938C
:104E50009C0300919A03007F21F009E910E00E9471
:104E6000C00A00919A03002309F47894A991B9919A
:104E700008954185E02FF12F21852417B8F20A17F4
:104E80001B07C1F2421729F72A2F3B2FE22FF32FDE
:104E900020813181522F532BE1F2E22FF32F5185E4
:104EA0004517B9F62017310789F7C0CFBA93AA93EF
:104EB000A02FB12FE02FF12F418500919903039589
:104EC0000093990301EA13E002C0022F132FE02F91
:104ED000F12F20813181522F532B29F0E22FF32F14
:104EE0005185451790F32D933C931197EA2FFB2F93
:104EF00004871587E02FF12FA083B183F894022F48
:104F0000032B79F0E22FF32FA487B58701850417CF
:104F100021F4EA2FFB2F058D01C000E0EA2FFB2FC3
:104F2000048F00919A03007F21F009E910E00E94AC
:104F3000C00A00919A03002309F47894EA2FFB2F0A
:104F40000085002321F4F8940A2F1B2F3CDF08DF93
:104F5000A991B99108958A93809199030091990339
:104F60000395009399030E94151F80939903009164
:104F70009A03007F21F009E910E00E94C00A009125
:104F80009A03002309F478948991089501E000932D
:104F900099030093E21C0895009199030A950093E8
:104FA000990308959A938A93802F912F89DE009117
:104FB000E11C002321F001EA10E00E94C00A0091E8
:104FC0009903002391F000919A03002321F00AE94C
:104FD00010E00E94C00A78940E949C2B282F392F41
:104FE0000E94A62B11237AF4F7CFF894E0919F0347
:104FF000F091A0038683978304E0E0919F03F091F2
:10500000A0030087A8DF8991999108959A938A93C4
:10501000802F912F0E949C2B080F191FC3DF8991AD
:10502000999108959A928A926A925A924A92BA9360
:10503000AA939A938A93A02FB12F622E442E552EB5
:10504000862F972FF8948090E51C9090E61C0BC05B
:105050008A169B0621F40CEA10E00E94C00AE82D93
:10506000F92D82809380082D092991F700919A03E8
:10507000007F21F009E910E00E94C00A00919A0324
:10508000002309F478940E9439264EE050E020E095
:1050900030E00A2F1B2F0E94B54CEA2FFB2F848390
:1050A000958340865186648606E60587F8940091CC
:1050B000E51C1091E61C02831383A093E51CB093BA
:1050C000E61C00919A03007F21F009E910E00E949C
:1050D000C00A00919A03002309F478948991999168
:1050E000A991B991499059906990899099900895A2
:1050F0004A92BA93AA939A938A93A02FB12F822FA0
:10510000932F44244394E02FF12F0585063621F098
:1051100002E810E00E94C00AEA2FFB2F048501304C
:1051200021F007E810E00E94C00A0E943926009191
:105130009903039500939903F894EA2FFB2F0681B6
:105140001781208531850217130708F042C0202FF0
:10515000312F02851385200F311F008511852017FF
:10516000310710F0201B310BE82FF92F4081EA2F77
:10517000FB2F04811581020F131FE02FF12F4083B5
:10518000EA2FFB2F06811781802F912F01968683AE
:105190009783012B00919A0361F0007F21F009E9C8
:1051A00010E00E94C00A00919A03002389F47894C9
:1051B0000FC0007F21F009E910E00E94C00A0091B1
:1051C0009A03002309F478940A2F1B2F0E943B2294
:1051D000442400919A03007F21F009E910E00E9425
:1051E000C00A00919A03002309F478940E94B02623
:1051F000042D89919991A991B9914990089520918F
:105200009903239520939903E02FF12F24812A9568
:10521000248311F40E943B220C94B026BA93AA93E3
:105220009A938A93802F912FA091E31CB091E41C54
:1052300013C0EA2FFB2F0481002351F00281138158
:105240000817190729F401E004830A2F1B2FD7DF61
:10525000EA2FFB2FA581B6810A2F0B2B51F78991DD
:105260009991A991B9910895BA93AA939A938A931F
:10527000802F912F0091E11C002321F001EA10E022
:105280000E94C00A0E946026A091E31CB091E41C19
:105290000BC0A817B90721F40FEA10E00E94C00A5A
:1052A000EA2FFB2FA581B6810A2F0B2B91F70EE079
:1052B00019E20093E91C1093EA1C48E050E020E05A
:1052C00030E0082F192F0E94B54C09E6E82FF92F7E
:1052D0000783F8940091E31C1091E41C0583168366
:1052E0008093E31C9093E41C00919A03007F21F0CB
:1052F00009E910E00E94C00A00919A03002309F412
:105300007894ADCFBA93AA939A938A93A02FB12F92
:105310000091E11C002321F001EA10E00E94C00A84
:105320000E94602617960C911397093621F005E824
:1053300010E00E94C00A009199030395009399031D
:105340000C911497002359F400919F031091A0032E
:1053500012960D931C93139781E090E022C0129651
:105360000D911C91139720919F033091A003021778
:10537000130791F020E10A2F1B2F0E946021149641
:105380000C9114970023B1F700919F031091A00393
:1053900012960D931C93139714968C91149790E08A
:1053A000019614968C930E94B026082F192F57CF80
:1053B000BA93AA93A02FB12F0091E11C002321F0F2
:1053C00001EA10E00E94C00A0E94602617960C9124
:1053D0001397093621F005E810E00E94C00A0C91ED
:1053E0001297002321F406E910E00E94C00A0D91F3
:1053F0001C91139720919F033091A003021713076C
:1054000021F00CE910E00E94C00A0A2F1B2FF7DEE2
:10541000A991B99108955B2F4A2FE5EAF3E002C004
:10542000E22FF32F20813181232B51F0208120178F
:105430003107B1F7A02FB12F0D911C91008311837B
:10544000A42FB52F08955A924A92BA93AA939A9389
:105450008A93A02FB12F0E949C2BEA2FFB2F24812F
:105460003581200F311F2483358301E000870091AF
:10547000A5031091A603012B71F400E00D930C938A
:10548000E093A503F093A6030DE81AE20093A903A5
:105490001093AA0323C085EA93E04090A50350909F
:1054A000A603E42DF52D24813581EA2FFB2F0481FD
:1054B00015810E94A62B013010404CF0842D952DB3
:1054C000E42DF52D40805180042D052951F74D9292
:1054D0005C921197E82FF92FA083B1832091AF033D
:1054E0003091B003E091A503F091A60304811581EA
:1054F0000E94A62B112352F4E091A503F091A6037C
:10550000048115810093AF031093B00389919991A1
:10551000A991B991499059900895BA93AA93A02F4F
:10552000B12F2DC0068717871E96ED91F12F1F977B
:1055300000811181EA2FFB2F0487158720E0068563
:10554000F785E02F208700E0EA2FFB2F2685F785DF
:10555000E22F0483058378940091E11C0395009366
:10556000E11C1E96ED91FC911F970281F381E02FC3
:1055700009950091E11C0A950093E11CF894EA2F2B
:10558000FB2F04851585012B11F1028913892489CC
:105590003589202F312F1C96ED91FC911D970481A8
:1055A00015810E94A62B01301040EA2FFB2F0485A5
:1055B00015850CF4B7CF012B51F01C96ED91F12F0E
:1055C0001D9704811581EA2FFB2F068B178BA9915C
:1055D000B99108957A926A925A924A92BA93AA938A
:1055E0009A938A93402E512EA22FB32F842F952F5A
:1055F0000E943926F8946090A5037090A6030BC012
:105600006414750421F40BEA10E00E94C00AE62D30
:10561000F72D60807180062D072991F700919A037C
:10562000007F21F009E910E00E94C00A00919A036E
:10563000002309F478944AE050E020E030E0042DA3
:10564000152D0E94B54C05E6E42DF52D01878683C6
:105650009783068104839583A283B383899199916B
:10566000A991B99149905990699079900895BA9308
:10567000AA93A02FB12F0E94392619960C910536B6
:1056800021F001E810E00E94C00AF8940E911897EA
:10569000002319F00A2F1B2FBEDE16960D911C91C8
:1056A00013970D931C9315970A2F1B2FCCDE009197
:1056B0009A03007F21F009E910E00E94C00A0091DE
:1056C0009A03002309F47894A991B9910895BA93A3
:1056D000AA93A02FB12F19960C91053621F001E85D
:1056E00010E00E94C00A0E9439260E9118970023EC
:1056F000B9F41496ED91FC91159731978CF0F894CC
:105700000A2F1B2FA0DE00919A03007F21F009E9E8
:1057100010E00E94C00A00919A03002309F47894D3
:10572000A991B99108950091E01C002311F400E0C3
:1057300001C001E010E008954FB7F894E9E9F3E003
:1057400002891389248935894FBF0895021B130BE1
:105750000895BA93AA939A938A93B12FA02F922F68
:10576000E0EEFCE130E03BBF0081039500830E9446
:105770008626E9E9F3E030E03BBF00810395008332
:10578000E9E9F3E00181039501831EB70DB70D5FD1
:105790001F4F0093EB1C1093EC1C0E94D01FFB2F9B
:1057A000EA2F09950E94EC1FE9E9F3E030E03BBFE6
:1057B00001810A9501830091E01C102F1A95109326
:1057C000E01C002321F408E910E00E94C00A0091C7
:1057D0009903013079F4E9E9F3E030E03BBF42811D
:1057E000538164817581452B462B472B19F00E940C
:1057F000661F07C0E9E9F3E030E03BBF00810A958E
:1058000000830E94A22689919991A991B991089546
:105810000E94E52108959A938A93FA93EA933A9223
:105820002A921A920A927A936A935A934A933A93D3
:105830002A931A930A938FB79BB708E01CE20E9441
:10584000A92B9BBF8FBF099119912991399149913A
:105850005991699179910990199029903990E9911C
:10586000F99189919991189500E00093800009E8D9
:10587000009381000FE71EE31093890000938800D6
:1058800000916F00026000936F000895FFCF0E94A7
:105890009B4C2197802F9E0107EC1AE0482F50E087
:1058A000542F40E0550F040F151F0E943E234881DE
:1058B00000EF19E0282F30E0322F20E0330FF901FC
:1058C000EA57F54F20813181020F131F282F30E056
:1058D000322F20E0330F020F131FF8014083082FEF
:1058E00010E0102F00E0110FF801E457F54F008190
:1058F000005021F00A5009F08FC0AEC000EF19E04F
:10590000282F30E0322F20E0330FF901EA57F54F0E
:1059100020813181020F131F282F30E0322F20E029
:10592000330F020F131FF80100810631C1F4082F55
:1059300010E0102F00E0110FF801E357F54F008140
:1059400003950083082F10E0102F00E0110FF801DD
:10595000EA57F54F00E010E0008311837DC0082F67
:1059600010E0102F00E0110FF801E357F54F008110
:10597000023008F446C000EF19E0282F30E0322F43
:1059800020E0330FF901EA57F54F20813181020FF2
:10599000131F282F30E0322F20E0330F020F131F88
:1059A000F8010081013069F5082F10E0102F00E0A8
:1059B000110FF801E357F54F00E00083082F10E0C6
:1059C000102F00E0110FF801E457F54F01E00083BC
:1059D000082F10E0102F00E0110FF801E857F54FE5
:1059E00000E010E000831183082F10E0102F00E08A
:1059F000110FF801E257F54F0AEF10E00083118311
:105A00002BC0082F10E0102F00E0110FF801E35712
:105A1000F54F00E0008320C0082F10E0102F00E0B9
:105A2000110FF801EA57F54FA081B1811196082FA7
:105A300010E0102F00E0110FF801EA57F54FA08396
:105A4000B183A73900E0B00720F0082F0E94062F8D
:105A500003C0082F0E943B482196E4E00C94AA4C16
:105A60000E949C4CC801A82F40E056E960E070E01D
:105A70000A2F0E94DF080A2F0ADFFDCF00E010E0A6
:105A80001A930A9302E010E01A930A9308E512E0D1
:105A90001A930A9304E31DE11A930A9360E37DE2EB
:105AA00049E724EB33E002EF1CE10E94AD2001E066
:105AB00010E01A930A9302E010E01A930A9308E5A3
:105AC00012E01A930A930CE81FE11A930A9360E319
:105AD0007DE248E72AEC33E003E11DE10E94AD20BE
