:020000021000EC
:06E000000C9486F00C9464
:10E0060000F00C9400F00C9400F00C9400F00C94CA
:10E0160000F00C9400F00C9400F00C9400F00C94BA
:10E0260000F00C9400F00C9400F00C9400F00C94AA
:10E0360000F00C9400F00C9400F00C9400F00C949A
:10E0460000F00C9400F00C9400F00C9400F00C948A
:10E0560000F00C9400F00C9400F00C9400F00C947A
:10E0660000F00C9400F00C9400F00C9400F00C946A
:10E0760000F00C9400F00C9400F00C9400F00C945A
:10E0860000F00C9400F00C9400F00C9400F00C944A
:10E0960000F00C9400F00C9400F00C9400F00C943A
:10E0A60000F00C9400F00C9400F00C9400F00C942A
:10E0B60000F00C9400F00C9400F00C9400F00C941A
:10E0C60000F00C9400F00C9400F00C9400F00C940A
:10E0D60000F00C9400F00C9400F00C9400F0435601
:10E0E600415652424F4F5401001E97030020000133
:10E0F600200001001027E80364000A000100001058
:10E10600000110000100F894EE27EFBBF1E0F5BF27
:10E11600F2E0F5BFE0937400E09375008DE0A2E0B5
:10E12600BB27ED938A95E9F780E090E2A0E0B2E0A4
:10E13600ED930197E9F7E0E0EEBBEFEFEDBFE1E22B
:10E14600EEBFC0E0DAE00C94A9F008956F986799E5
:10E1560002C00C940000E0E8E0936100E0E0E09388
:10E166006100E1B9E2B9E4B9E5B9E7B9E8B9EAB9F4
:10E17600EBB9EDB9EEB9E0BBE1BBE3BBE4BBE093C1
:10E186000101E0930201E0930401E0930501E093AD
:10E196000701E0930801E0930A01E0930B01E4BD57
:10E1A600E5BDE6BDE7BDE8BDE0938000E0938100F4
:10E1B600E0938500E0938400E0938700E093860077
:10E1C600E0938900E0938800E0938B00E0938A0057
:10E1D600E0938D00E0938C00E093B600E093B000EE
:10E1E600E093B100E093B200E093B300E093B40093
:10E1F600E0939000E0939100E0939500E093940003
:10E20600E0939700E0939600E0939900E0939800DE
:10E21600E0939B00E0939A00E0939D00E0939C00BE
:10E22600E093A000E093A100E093A500E093A40092
:10E23600E093A700E093A600E093A900E093A8006E
:10E24600E093AB00E093AA00E093AD00E093AC004E
:10E25600E0932001E0932101E0932501E09324015E
:10E26600E0932701E0932601E0932901E09328013A
:10E27600E0932B01E0932A01E0932D01E0932C011A
:10E28600E0936E00E0936F00E0937000E0937100FE
:10E29600E0937200E0937300E0936900E0936A00F4
:10E2A600EDBBE0936B00E0936C00E0936D00E093B0
:10E2B6006800E093C000E8E1E093C100E6E0E09387
:10E2C600C200E0E0E093C500E9E1E093C400E0E0CD
:10E2D600E093C900E093D100E0933101E0E8E0BFAC
:10E2E600E0E0E0937B00E0937F00E0937A00ECBDF2
:10E2F600E093BC00A8EAB0EF0E94EEF1E03011F422
:10E306000C940000F7CFFFCFAA937FB7F89409804B
:10E31600688167BFE8957FBFE7B7E0FDFDCF22962E
:10E326000895AA938FB7F894E981FA816B817BB738
:10E336006BBF688167BFE8957BBF8FBFE7B7E0FD1E
:10E34600FDCF25960895BA93AA938FB7F894EA81DC
:10E35600FB816C817BB76BBF0880198061E067BF6A
:10E36600E8957BBF8FBF269608950E94A7F3E7B76F
:10E37600E0FDFDCF0E943DF3A3E00E9494F10E94D0
:10E386003DF3A5E00E9494F1E0E0EA93A1E10E944A
:10E3960087F1249608950E9494F39D015E8108E01A
:10E3A6002527E22FE1701E2F36952795103021F094
:10E3B600E1E0F0EA2E273F27015099F7F9010E9484
:10E3C6009BF3279608951A931A2F4AD180E991E074
:10E3D6000197F1F74DC1BA93AA932F970E9494F330
:10E3E600ED89FE89309711F4E4E02FC1E0E0E98B76
:10E3F600EA8BEB8BEC8B0E9444F3A13459F429D1C0
:10E40600E98B27D1EA8B25D1EB8BE0E0EC8BE1E0C1
:10E41600EE8782C0AE85A73509F08AC00E9449F30F
:10E42600A63431F42230E0E03E0710F020FF01C0B0
:10E436003DC00E9454F30E9459F30E9454F3EA87A8
:10E44600FB876C877D8705D14E2F4A930E9462F326
:10E4560000D15E2F5A930E9462F30E9454F30E94E9
:10E46600A2F3DA010E94A6F10E9454F3EE5FFF4F79
:10E476006F4F7F4F0E9469F3E989EF7F21F02330C8
:10E48600E0E03E0708F405C022503040022E032A81
:10E49600D1F6E2E00E946EF341F4AA85BB858C8535
:10E4A6009D8563DF0E947AF337C039C0AE85A534F7
:10E4B60041F42130E0E03E0720F02132E0E03E0763
:10E4C60008F035C000E01AE0422F542FC2D0EE8784
:10E4D6000E9480F31F930F930F5F1F4FEE85AF913E
:10E4E600BF91EC934150403089F7E3E00E946EF310
:10E4F600B1F400E01AE0452FD8010F5F1F4FEC91F1
:10E50600A989BA890E94B8F3E989FA893196E98B13
:10E51600FA8B4150403081F7ADE055DF7DC0A1E276
:10E5260052DFAE85ED89FE890995E1E08EC086C091
:10E53600AE85A23509F046C00E9449F3A63431F4EF
:10E546002230E0E03E0710F020FF01C017C00E9415
:10E5560083F30E9454F30E9459F30E9487F3AE8519
:10E5660032DF0E9487F3AE852EDF22503040022E26
:10E57600032A99F70E947AF3E4E01DC0AE85A5341C
:10E5860001F50E9483F3022E032AA1F0A989BA8914
:10E596000E94ACF3EE870E9480F3AE8514DF0E94E2
:10E5A60054F3EF5FFF4F6F4F7F4F0E9469F3215087
:10E5B6003040E9CFE5E0EE87AF8505DFA88903DFC8
:10E5C6002BC03CC0AE85A33561F50E9483F3E4EE13
:10E5D600F0EE61E070E0EE83FF8368877987E5E11E
:10E5E600EE87DE011696ED91FD916D917D91EF5FBF
:10E5F600FF4F6F4F7F4F7E936E93FE93EE93E150E6
:10E60600F040604070406BBFA691DDDEEE85E150C4
:10E61600EE8739F7E0E0EE87AE85ED89FE8909954C
:10E6260013C0AE85A53451F40E9483F3ADE0CBDE72
:10E63600A6E0ED89FE890995E0E007C00E9483F314
:10E64600AFE3C1DEE4E001C0D6CE0E949BF367963D
:10E656000895E091C000E078E1F3E091C6000895E6
:10E666001A931A2FE091C000E072E1F31093C600EE
:10E6760019910895E881F9816A817B810E94A2F34C
:10E6860008950E942CF3EE87AE850895EFEFFFEF15
:10E69600EF87F88B0E942CF32E2F0E942CF33E2F2F
:10E6A600F0CFE989FA896B897C890895EE0FFF1FFF
:10E6B600661F771FE98BFA8B6B8B7C8B0895A88975
:10E6C600B9890E94CEF1EF87F88B0895E98BFA8B12
:10E6D6006B8B7C8B0895EE870E942CF34E2F0E9445
:10E6E6002CF35E2FEF85F889E417F5070895D9DF37
:10E6F60076956795F795E795E9CFEE85EA93DFCFAF
:10E70600A5E0B0E00C94C9F3CCDFEF5FFF4F6F4F8D
:10E716007F4FDCDF3197604070406BBF06900E86FE
:10E72600ECCF5A934A933A932A931A930A930895ED
:10E736005D814C813B812A811981088108957A93F4
:10E746006A93FA93EA9308959A938A93BA93AA934B
:10E756000895F999FECFFF93FFB7F894A1BDB2BD16
:10E76600F89AE0B5FFBFFF910895F99B02C0A895FE
:10E77600FCCF9FB7F894A1BDB2BDF89A80B5E81753
:10E7860019F0E0BDFA9AF99A9FBF0895109639F0EC
:10E79600A89580EA9FE00197F1F71197C9F70895C8
:00000001FF
