:020000020000FC
:100000000C941C2B0C9445060C943D0718951895E0
:100010001895189518951895189518951895189578
:100020001895189518951895189518951895189568
:100030001895189518951895189518951895189558
:10004000189518950C946E1C189518951895189578
:100050001895189518951895189518951895189538
:10006000189518950C944C1D0C94BE1D0C946E1D87
:10007000189518950C94F4020C947903189518951A
:100080001895189518951895189518951895189508
:100090000C943A1E0C94C01E0C94701E1895189562
:1000A00018951895189518951895189518951895E8
:1000B00018951895189518951895189518951895D8
:1000C00018951895189518951895189503E801DB5B
:1000D000292D290A35290A3829323D290A42290AB7
:1000E00047290A4C290A56291E6A2914602928A979
:1000F000290AB3290ABD290AC7290AD129FE029E65
:100100003029FB0000E018E0000FF8945998209186
:10011000F302222309F47894F894599A2091F30277
:10012000222309F47894939901601A9569F7089548
:1001300018E0F89459982091F302222309F4789456
:1001400007FB3EF4F894A49A2091F302222341F491
:1001500006C0F894A4982091F302222309F478941D
:10016000000FF894599A2091F302222309F478940D
:100170001A95F9F608950091B60408B9F89405B1F6
:100180000E7105B90091F302002309F47894F894F4
:100190000091B704017015B1102B15B90091F3024D
:1001A000002309F47894F8940091B6041091B704F0
:1001B0001695079516950795169507951695079523
:1001C000007E15B1102B15B90091F302002309F43C
:1001D00078940895CA927A926A925A924A92BA93FD
:1001E000AA939A938A932697E8EBF4E00CE011E047
:1001F00011930A95E9F702E010E00E941D03802F99
:1002000003E010E00E941D038093B6040093B7043E
:10021000B2DF0FEF8DDF0FEF8BDF0FEF89DF0FEF17
:1002200087DF00E185DF0EE483DF0AEF10E00E9444
:10023000181A0BEE13E00E94CB1628EE33E001E013
:100240000E94F616F8940EB10F700EB90091F302E9
:10025000002309F47894F8940EB1006E0EB9009161
:10026000F302002309F4789400E162DF0EE060DF1E
:1002700005E510E00E94181A0BEE13E00E94CB1661
:100280002AEF30E001E00E94F61608E351DF86EB2A
:1002900094E00CE048E559E360E87FE30024FC01CA
:1002A000EE59FF4F008201820282038240AB51ABC4
:1002B00062AB73AB04960A9591F70882A6EBB4E0A3
:1002C0000CE00D83CC240DEB17E3280106E815EBB9
:1002D000380188818068880F91E0880F991F880F06
:1002E000991FAE014F5F5F4F24E08C010E943803DD
:1002F00009811A812B813C810E947409002371F1CC
:1003000009811A812B813C8140E050E060E070E47B
:100310000E94FF2BA201B3010E94132DF8F44EEBB3
:1003200075E30E94EA2CD0F009811A812B813C816F
:1003300040E050E060E070EC0E94FF2BA201B301AE
:100340000E94132D58F049815A816B817C81FD01F7
:10035000EE59FF4F4083518362837383AE014F5F39
:100360005F4F24E004968C010E94380309811A81B2
:100370002B813C810E947409002371F109811A814B
:100380002B813C8148E451EE6AE77FEB0E94FF2B12
:10039000A201B3010E94132DF8F44EEB75E30E9405
:1003A000EA2CD0F009811A812B813C814CE55FE871
:1003B00062E87FEB0E94FF2BA201B3010E94132D84
:1003C00058F049815A816B817C81FD01EE59FF4FC4
:1003D00040AB51AB62AB73AB0881039508831496B5
:1003E0000D810A950D8309F074CFF8940EB10F704A
:1003F0000EB90091F302002309F47894F8940EB139
:10040000006F0EB90091F302002309F4789400E123
:100410008FDE0EE88DDE0AEF10E00E94181A0BEE58
:1004200013E00E94CB1628EE33E001E00E94F6169E
:10043000F8940EB10F700EB90091F302002309F485
:100440007894F8940EB1006E0EB90091F302002377
:1004500009F4789400E16CDE0EEC6ADE0AEF10E03D
:100460000E94181A0BEE13E00E94CB1628EE33E020
:1004700001E00E94F616C88208EB14E0380100ED96
:1004800014E028010CE00D83F8940EB10F700EB942
:100490000091F302002309F47894F89408810295FE
:1004A000007F1EB1102B1EB90091F302002309F446
:1004B000789400E13DDE0EE03BDE05E510E00E94B1
:1004C000181A0BEE13E00E94CB162AEF30E001E081
:1004D0000E94F61608E32CDE15DE302F13DEF30142
:1004E000C486D201A85BBF4F132F30E020E00E94EA
:1004F000CF2B40E05FEF6FE777E40E94572D40E09D
:1005000050E068EC71E40E947F2CA801B901FD0164
:1005100000A911A922A933A90E947F2C4D915D91B8
:100520006D917C910E944B2CF2014081518162813E
:1005300073810E944B2CC801D901F301008110E0A6
:1005400020E030E00E94CF2B40E050E060E87FE305
:100550000E94FF2BA801B9018C019D010E94572D1B
:10056000F20140815181628173810E94FF2BF2016F
:10057000008311832283338308810395088304E079
:10058000400E5C1C01E0600E7C1C0D810A950D8301
:1005900009F42BCF79CF0091780010917900209148
:1005A0008C0F32E0239FF001EA55FB4F008311834B
:1005B00000918C0F039500938C0F023018F000E02F
:1005C00000938C0F00917C00007E00937C000091D2
:1005D0008C0F10917C00102B10937C0000917A00FE
:1005E000006400937A0008959A938A93FA93EA93A9
:1005F0003A922A921A920A927A936A935A934A9357
:100600003A932A931A930A938FB79BB70BEC12E095
:100610000E94221C9BBF8FBF09911991299139918A
:10062000499159916991799109901990299039903E
:10063000E991F991899199911895F999FECFF894DA
:1006400012BD01BDF89A0091F302002309F47894D9
:1006500000B50895F999FECFF89412BD01BD20BDF3
:10066000FA9AF99A0091F302002309F47894089514
:100670007B2F0A2E392F682FD801222351F0822F89
:1006800090E08D01DADFFA010193AF011196019735
:10069000C1F7862F932FA02DB72F0895F999FECF7C
:1006A000F8943091F30233953093F30240938E0F18
:1006B00050938F0F20938D0F12BD01BDFA01008161
:1006C00000BD00918E0F10918F0F0F5F1F4F009391
:1006D0008E0F10938F0F00E00093900FFA9AF99A03
:1006E000FB9A0091F3020A950093F30209F47894BF
:1006F0000895FA93EA932A931A930A932FB70091D5
:100700008D0F0A9500938D0F0023C9F001B512B526
:100710000F5F1F4F12BD01BDE0918E0FF0918F0F43
:10072000008100BD00918E0F10918F0F0F5F1F4F42
:1007300000938E0F10938F0FFA9AF99A04C0FB98CA
:1007400001E00093900F2FBF099119912991E99130
:10075000F99118950EEF01BD0FE002BD0BED00BD44
:10076000FA9AF99AF999FECF08E100936000009394
:10077000600008954A92BA93AA9300910A220F70DA
:1007800000937A04AAEFB0E04424439400917A04E1
:10079000002309F4ACC0025051F0025009F453C0D8
:1007A000025009F4A1C0065009F44DC0A2C0009146
:1007B000780410917904012B51F400910C220D7FE3
:1007C00000930C2208E114E00E94E81B92C0B09351
:1007D0007B040091780410917904012B09F489C0FD
:1007E0000091760410917704E0917204F091730403
:1007F000E00FF11F00810093082200917604109110
:1008000077040F5F1F4F00937604109377040091D5
:100810007B04039500937B04009178041091790484
:1008200001501040009378041093790400917B04E8
:10083000003108F05EC0CDCF039500938504B093DE
:100840007E04B0937F0400910D2200FF52C00091FE
:100850000822E0917C04F0917D0420917E04309187
:100860007F04E20FF31F0083009184040A3059F3E0
:10087000002349F5E0917C04F0917D0400917E0411
:1008800010917F04E00FF11F008102300091850478
:1008900099F20230B0938504B0F240928404B09390
:1008A0008004B0938104A0938604B09387040091E0
:1008B0007E040F5F1F4F00937E0410937F0400E0BF
:1008C0000E942314C0CF00917E0410917F040F5F1B
:1008D0001F4F00937E0410937F040937104000E0FF
:1008E00078F30E948C09AFCF00910D2202C00091D5
:1008F0000E2200910A220F7000937A0400FF46CF67
:10090000A991B991499008954A92BA93AA930091F6
:1009100002220F7000939404AAEFB0E044244394A1
:1009200000919404002309F4ACC0025051F002502D
:1009300009F453C0025009F4A1C0065009F44DC097
:10094000A2C00091920410919304012B51F40091E4
:1009500004220D7F0093042201E214E00E94E81BB0
:1009600092C0B09395040091920410919304012BCE
:1009700009F489C0E0918C04F0918D0400919004F9
:1009800010919104E00FF11F00810093002200916B
:100990009004109191040F5F1F4F009390041093E7
:1009A000910400919504039500939504009192049D
:1009B00010919304015010400093920410939304FB
:1009C00000919504003108F05EC0CDCF03950093EF
:1009D0009F04B0939804B09399040091052200FFFE
:1009E00052C000910022E0919604F091970420916A
:1009F000980430919904E20FF31F008300919E0444
:100A00000A3059F3002349F5E0919604F0919704D8
:100A10000091980410919904E00FF11F00810230B9
:100A200000919F0499F20230B0939F04B0F240927B
:100A30009E04B0939A04B0939B04A093A004B09337
:100A4000A104009198040F5F1F4F00939804109326
:100A5000990401E00E942314C0CF009198041091E2
:100A600099040F5F1F4F009398041093990409375E
:100A7000104001E078F30E948C09AFCF009105226D
:100A800002C000910622009102220F70009394048C
:100A900000FF46CFA991B991499008958A9324EF18
:100AA00031E003E00E94F616802F00FB0EF462DEB8
:100AB00081FBAEF729DFF3CF02E010E01A930A932F
:100AC00004E61A930A9302E213E01A930A936EE47F
:100AD00075E04AE524EA32E00EE013E00C94B41528
:100AE000BA93AA9300918603002321F00A9509F492
:100AF000C4C0C8C000910A220F7000937A04AAEF04
:100B0000B0E000917A04002309F4ADC0025051F026
:100B1000025009F453C0025009F4A2C0065009F46F
:100B20004DC0A3C00091780410917904012B51F4B9
:100B300000910C220D7F00930C2208E114E00E942A
:100B4000E81B93C0B0937B04009178041091790462
:100B5000012B09F48AC00091760410917704E0918A
:100B60007204F0917304E00FF11F008100930822DA
:100B700000917604109177040F5F1F4F0093760465
:100B80001093770400917B04039500937B040091FC
:100B90007804109179040150104000937804109368
:100BA000790400917B04003108F05FC0CDCF03953C
:100BB00000938504B0937E04B0937F0400910D22CE
:100BC00000FF53C000910822E0917C04F0917D0465
:100BD00020917E0430917F04E20FF31F0083009187
:100BE00084040A3059F3002351F5E0917C04F0911C
:100BF0007D0400917E0410917F04E00FF11F0081BD
:100C000002300091850499F20230B0938504B0F26D
:100C100001E000938404B0938004B0938104A09316
:100C20008604B093870400917E040F5F1F4F0093EA
:100C30007E0410937F0400E00E942314BFCF009134
:100C40007E0410917F040F5F1F4F00937E0410936A
:100C50007F040937104000E078F30E948C09AECF82
:100C600000910D2202C000910E2200910A220F7005
:100C700000937A0400FD06C044CF2BEE33E001E080
:100C80000E94DF16A991B99108959A938A93FA93D5
:100C9000EA933A922A921A920A927A936A935A9310
:100CA0004A933A932A931A930A938FB79BB700E714
:100CB00015E00E94221C9BBF8FBF099119912991B9
:100CC0003991499159916991799109901990299097
:100CD0003990E991F9918991999118954A92BA932D
:100CE000AA9300918603002309F0C3C00091022259
:100CF0000F7000939404AAEFB0E044244394009151
:100D00009404002309F4ACC0025051F0025009F4DD
:100D100053C0025009F4A1C0065009F44DC0A2C04E
:100D20000091920410919304012B51F4009104223C
:100D30000D7F0093042201E214E00E94E81B92C0A0
:100D4000B09395040091920410919304012B09F43F
:100D500089C0E0918C04F0918D0400919004109171
:100D60009104E00FF11F0081009300220091900494
:100D7000109191040F5F1F4F009390041093910402
:100D800000919504039500939504009192041091AD
:100D90009304015010400093920410939304009127
:100DA0009504003108F05EC0CDCF039500939F04F9
:100DB000B0939804B09399040091052200FF52C0AB
:100DC00000910022E0919604F091970420919804FC
:100DD00030919904E20FF31F008300919E040A30C2
:100DE00059F3002349F5E0919604F091970400919E
:100DF000980410919904E00FF11F008102300091D6
:100E00009F0499F20230B0939F04B0F240929E0486
:100E1000B0939A04B0939B04A093A004B093A10450
:100E2000009198040F5F1F4F00939804109399044A
:100E300001E00E942314C0CF0091980410919904FE
:100E40000F5F1F4F009398041093990409371040C7
:100E500001E078F30E948C09AFCF0091052202C017
:100E600000910622009102220F700093940400FF6B
:100E700046CFA991B991499008959A938A93FA938C
:100E8000EA933A922A921A920A927A936A935A931E
:100E90004A933A932A931A930A938FB79BB70EE615
:100EA00016E007CFE6EAF4E008E020E02193219382
:100EB0000A95E1F720938C0F00EC00937C000FE87B
:100EC00000937A0008951AE1019FEEE3F4E0E00D4B
:100ED000F11D10E012831383148315831683178387
:100EE0001487158716871787108B118B128B138B1E
:100EF0001087002319F00A9551F108950AEF009325
:100F000052041093530402ED1AE000933E04109330
:100F10003F0405EE1BE0009348041093490400E0F1
:100F20000093C00000E412E42FE030E00E943B2B6D
:100F3000402F4A954093C400015010401093C500C3
:100F400008E90093C10006E00093C20008950AEF8B
:100F500000936C0410936D040BE71CE0009358049D
:100F6000109359040EE81DE000936204109363048B
:100F700000E00093C80000E412E42FE030E00E949B
:100F80003B2B402F4A954093CC00015010401093CA
:100F9000CD0008E90093C90006E00093CA00089557
:100FA00000918603002319F00A95D9F008950FEFF8
:100FB00001B900E002B900E104B900E005B90FEFA2
:100FC00007B900E008B90AB90FEF0BB90EEF0DB978
:100FD00000EF0EB900E000BB01BB07E003BB03E07C
:100FE00018C000E001B902B901EF04B900E005B989
:100FF0000FEF07B900E008B902E00AB901EF0BB939
:101000000EEF0DB900E00EB900BB01BB00E103BB60
:1010100000E004BB0895F89400918603002319F0C2
:101020000A9579F01BC000EC05BF00E00DBB0FEA8C
:10103000009369000AEA00936A0003E00DBB00E830
:101040000BC000E005BF0DBB0AEA009369000093E6
:101050006A0001E00DBB00E00093740007E000931C
:10106000750004B700933C0400E004BF00938D0FAB
:10107000089500E004B903B1069506950370009346
:101080008603C9DF8DDF00918603002351F00A95A6
:1010900089F402E40093B00001E80093B10007E096
:1010A00007C002E40093B00001E80093B10003E040
:1010B0000093B30040E056E960E070E000E003DF39
:1010C00040E056E960E070E001E0FDDEEBDE00911B
:1010D0007A00006400937A00089501E00895A895CD
:1010E0000FE1009360000FE000936000A895F89472
:1010F0000091F30203950093F3020E94EB190E9402
:10110000971C0E9439080FEF13E00E94591A02E061
:1011100010E01A930A9300E411E01A930A9302E98B
:101120001FE01A930A936CE27AE24EE621EB32E07A
:1011300007E813E00E94B41548EC50E026EE3EE1CB
:1011400006E014E00E94991B06E014E00E94D21B06
:1011500045E050E028EF3EE10AE214E00E94991BCE
:101160000AE214E00E94D21B02E010E01A930A93F4
:1011700000E411E01A930A9302ED10E11A930A9326
:101180006EE37AE244E628EB32E00BE913E00E94DA
:10119000B41548EC50E021E03FE10FE014E00E947C
:1011A000991B0FE014E00E94D21B45E050E023E1C0
:1011B0003FE103E314E00E94991B03E314E00E9463
:1011C000D21B00918603002321F00A9509F446C042
:1011D0005AC002E010E01A930A9300E911E01A9352
:1011E0000A930AED12E11A930A9366EE7BE040E55A
:1011F0002FEB32E003EC13E00E94B41548EC50E012
:1012000020E839E008E114E00E94991B08E114E0AD
:101210000E94D21B02E010E01A930A9300E911E049
:101220001A930A930AE614E11A930A9364E57FE09D
:101230004AE520ED32E007ED13E00E94B41548ECDA
:1012400050E026E839E001E214E00E94991B01E237
:1012500014E00E94D21B0E945C0515C002E010E061
:101260001A930A9300E911E01A930A930AED12E126
:101270001A930A936AEE70E04AE521EE32E00BEE33
:1012800013E00E94B41502E010E01A930A9308ECF0
:101290001A930A9302E112E11A930A936CE579E03A
:1012A00042E328EE32E00FEA13E00E94B41501E0B9
:1012B0000093FA150C94EB1404E610E00E94181A3F
:1012C000A8950FE1009360000FE000936000A895DF
:1012D00004EF11E00E94181AA895FACF09B10295FF
:1012E0000F7000950F70089500E020783F77422F2F
:1012F000432B29F0003020483F4709F001E00895D2
:1013000000910C220D7F00930C220895009104227D
:101310000D7F009304220895023068F41AE1019FC2
:10132000E2E7F4E0E00DF11D00E0038B028B04879F
:101330000587068B078B0895BD01AC01102FC901ED
:1013400000E023303040A0F02AE1129FF001EE5877
:10135000FB4FA081B1811296029730E0E02FF0E0C0
:101360000D91E027E05EF34A3BBF06910197B1F78C
:10137000CA01DB0108959D011AE1019FA2E7B4E0D3
:10138000A00DB11DFD0100E00487058706870787D2
:1013900004830583ED91FC91119702E00083ED91A8
:1013A000FC9111970183ED91FC91119700E002836C
:1013B000ED91FC9111970DEF0383ED91FC91119745
:1013C00000E00483ED91FC910583D9010895BA935F
:1013D000AA938A93802FCFDF0AE1809FA2E7B4E02F
:1013E000A00DB11D0D911C911197FD01228133813A
:1013F000020F131FF80101E00083FD010281138138
:101400000F5F1F4F0283138300811181228133817B
:10141000020F131FF80100E00083FD010281138118
:101420000F5F1F4F02831383ED91FC91119714837B
:10143000FD010281ED91FC9111970583FD0122814F
:101440003381082F79DF202F0D911C911197FD0119
:1014500042815381040F151FF8012083FD01028191
:1014600013810F5F1F4F028313830081118122813B
:101470003381020F131FF80103E00083FD01028195
:1014800013810F5F1F4F028313830081118122811B
:101490003381020F131FF80100E00083FD01028178
:1014A00013810F5F1F4F0283138301501040068387
:1014B000178301E0048300E00583082F2DDF8823D4
:1014C000A9F408E114E00E94B41B00910C22026010
:1014D00000930C2204E110E00E94181AE0917204BB
:1014E000F091730400810093082216C08130A1F4AA
:1014F00001E214E00E94B41B0091042202600093F8
:10150000042204E110E00E94181AE0918C04F0918A
:101510008D040081009300228991A991B9910895C9
:101520009D011AE1019FE2E7F4E0E00DF11DA081C9
:10153000B18102811381A00FB11F0AE072C03B2F5D
:101540004A2F202F0AE1209FE2E7F4E0E00DF11D91
:10155000A081B18102811381A00FB11F08E10C931A
:10156000028113810F5F1F4F02831383A081B1811A
:10157000A00FB11F01E00C93028113810F5F1F4F79
:1015800002831383B0E02255A22FB54F0C91A081A6
:10159000B1812281A20FB11F0C93028113810F5FD1
:1015A0001F4F02831383A42FB32F08959D011AE1C7
:1015B000019FE2E7F4E0E00DF11DA081B18102811D
:1015C0001381A00FB11F00E12CC09D011AE1019F02
:1015D000E2E7F4E0E00DF11DA081B1810281138109
:1015E000A00FB11F0DE01DC09D011AE1019FE2E7B0
:1015F000F4E0E00DF11DA081B18102811381A00F03
:10160000B11F0BE10EC09D011AE1019FE2E7F4E07A
:10161000E00DF11DA081B18102811381A00FB11FE6
:1016200000EA0C93028113810F5F1F4F0283138323
:10163000A081B181A00FB11F01E00C930281138141
:101640000F5F1F4F02831383A081B181A00FB11FD1
:1016500000E00C93028113810F5F1F4F02831383FD
:10166000D90108959D011AE1019FE2E7F4E0E00D40
:10167000F11DA081B18102811381A00FB11F05E688
:10168000D0CFAD012AE1029FE2E7F4E0E00DF11DC9
:10169000A081B18122813381A20FB31F06E60C9392
:1016A000228133812F5F3F4F22833383A081B18119
:1016B000A20FB31F01E00C93228133812F5F3F4FB4
:1016C00022833383A081B181A20FB31F1C930281B7
:1016D00013810F5F1F4F02831383DA0108951AE10C
:1016E000019FE2E7F4E0E00DF11D10E012831383A7
:1016F0001483158316831783148715871687178716
:10170000108B118B128B138B1087002319F00A9505
:1017100079F108950AEF009386041093870404E298
:101720001EE0009372041093730400E61EE0009321
:101730007C0410937D0400E800930B2208E418EE6B
:1017400021E030E00E943B2B0093082210930922F5
:1017500003E000930B2201E000930A2201EC0093C6
:101760000A2203E00093092200E000930C2208956E
:101770000AEF0093A0041093A10408ED1EE000936B
:101780008C0410938D0404E11FE0009396041093E1
:10179000970400E80093032208E418EE21E030E00B
:1017A0000E943B2B009300221093012203E0009340
:1017B000032201E00093022201EC0093022203E0E5
:1017C0000093012200E0009304220895DA92CA9265
:1017D000BA929A928A927A926A925A924A92BA9358
:1017E000AA939A938A9390E005E0B02E40E855E2E0
:1017F00060E070E000E073DF90938E0490938F04BC
:1018000090939004909391049093920490939304F6
:10181000909398049093990490939A0490939B04C6
:1018200090939C0490939D0490939E0490939F04A6
:10183000909394040AEF0093A0049093A10408ED00
:101840001EE000938C0410938D0404E11FE00093CC
:1018500096041093970400E8009303220DE0009390
:1018600000229093012203E00093032201E0009301
:10187000022201EC0093022203E0009301229093E4
:10188000042202E010E00E941D030093B60403E06E
:1018900010E00E941D030093B70404E010E00E94D2
:1018A0001D030093B804EAEAF9E04F019083EAEFE0
:1018B000F9E03F019083EAE4FAE02F01908392ABD4
:1018C000A0E088E0F8942091B60401E010E04A2FEF
:1018D0000E94332B202308B1022B08B90091F30298
:1018E000002309F4789404E610E00E94181AA395E6
:1018F0008A9541F700E717E10E94181AAEEABAE0AC
:1019000001E1D02ECB2C80E004C09395953108F0F6
:1019100090E080933D041BC0FD01038110913D04C4
:10192000011731F403950093B10A043008F0838362
:1019300028EE33E001E00E94F61601FB1EF4BC1411
:1019400008F0BB2400913D04039500933D040091F1
:101950003D040430D0F600918A04093030F0009143
:10196000082200910D2200FDFACF0091A404093055
:1019700030F0009100220091052200FDFACFBC1446
:1019800030F4B394BC1418F00091B60408B9F8947C
:101990000EB1006F0EB90091F302002309F47894A0
:1019A00040913D04F89400E110E00E94332B007F49
:1019B00000951EB110231EB90091F302002309F413
:1019C00078940091B60410E040913D040E94382BB9
:1019D000017009F408C106E0009374048093750453
:1019E0000091B70410E040913D04440F0E94382B51
:1019F000037009F449C00A9519F00A9531F1F0C055
:101A0000092F992319F0045139F01CC0E091720498
:101A1000F091730404E636C0F2010081002391F4D2
:101A2000FD01028110913D04011761F413E700E00C
:101A300028DE0091B00A03950093B00A043008F440
:101A4000CFC0C7C000E00EDECBC0092F9923A9F09C
:101A5000045181F4F2010081002361F4FD0102814F
:101A600010913D04011731F403950093B00A04303E
:101A700008F0828300E0C7DDB3C0E0917204F0910A
:101A8000730401EA068369C0F4010081013009F0A2
:101A90004CC0018110913D04011709F046C043E09C
:101AA00012C0E42FF0E0E655F64F0081F901008303
:101AB00000917404109175040F5F1F4F009374041C
:101AC000109375044395009174041091750420914E
:101AD000720430917304200F311FF401028110E071
:101AE0000D5F1F4F40178107E4F28083F901D08218
:101AF00000917404109175040F5F1F4F00937404DC
:101B000010937504E0917204F0917304E00FF11FDB
:101B1000808300917404109175040F5F1F4F009330
:101B200074041093750410E001C011E0992319F4B6
:101B300000E05ADD55C0953019F400E046DD50C094
:101B40009A3039F50091740410917504E091720493
:101B5000F0917304E00FF11FD08200917404109192
:101B600075040F5F1F4F0093740410937504E09188
:101B70007204F0917304E00FF11F808300917404EC
:101B8000109175040F5F1F4F009374041093750438
:101B900027C09F3019F400E009DD22C09431E1F440
:101BA000F20100810023C1F4FD01028120913D0476
:101BB000021791F400E0C3DC0C910E5F0C930F3020
:101BC00078F08C930091B00A03950093B00A04302A
:101BD00038F0FD01828304C0112311F000E0A0DC85
:101BE00000E0F5DB0CC0FD01028110913D040117FE
:101BF00031F403950093B00A043008F08283009119
:101C0000B60440913D044C5F10E00E94382B0170F7
:101C100009F482CE06E000938E0480938F04009135
:101C2000B80410E040913D04440F0E94382B03702B
:101C300009F449C00A9519F00A9531F1F7C0092F46
:101C4000992319F0045139F01CC0E0918C04F091F3
:101C50008D0404E636C0F20102A9002391F4FD01CF
:101C6000038110913D04011761F413E701E009DDE0
:101C70000091B10A03950093B10A043008F4D6C06C
:101C8000CEC001E0EFDCD2C0092F9923A9F00451A6
:101C900081F4F20102A9002361F4FD010381109196
:101CA0003D04011731F403950093B10A043008F0A4
:101CB000838301E0A8DCBAC0E0918C04F0918D042C
:101CC00001EA06836DC0F3010081013009F050C0C4
:101CD000218100913D0410E00C5F1F4F2017810708
:101CE00009F046C043E012C0E42FF0E0E650F64FA2
:101CF0000081F901008300918E0410918F040F5F21
:101D00001F4F00938E0410938F04439520918C04F1
:101D100030918D0400918E0410918F04200F311F9B
:101D2000F301028110E00D5F1F4F40178107E4F2BD
:101D30008083F901D08200918E0410918F040F5F8F
:101D40001F4F00938E0410938F04E0918C04F09148
:101D50008D04E00FF11F808300918E0410918F0499
:101D60000F5F1F4F00938E0410938F0410E001C08B
:101D700011E0992319F401E037DC58C0953019F4CB
:101D800001E023DC53C09A3039F5E0918C04F091E6
:101D90008D0400918E0410918F04E00FF11FD0820A
:101DA00000918E0410918F040F5F1F4F00938E04DB
:101DB00010938F04E0918C04F0918D04E00FF11FDB
:101DC000808300918E0410918F040F5F1F4F00934A
:101DD0008E0410938F042AC09F3019F401E0E6DBD3
:101DE00025C09431F9F4F20102A90023D9F4FD01D0
:101DF000038120913D040217A9F401E0A0DB0091CA
:101E0000AF0A0E5F0093AF0A0F3080F0FD018183AF
:101E10000091B10A03950093B10A043038F0FD0136
:101E2000838304C0112311F001E07ADB01E0CFDAF3
:101E30007FCD6A925A924A92BA93AA939A938A93BE
:101E4000502E66246A944424439484E090E00AE18E
:101E5000509EA2E7B4E0A00DB11D9C01052D81D4D8
:101E6000002309F44424FD0102851385080F191F7E
:101E7000F801E181F0E032968E0F9F1F6A9451F0D5
:101E8000442041F0FD010689178903501040801756
:101E9000910718F3052D40DA89919991A991B9918B
:101EA0004990599069900895AA938A9300E91AE19C
:101EB0000E94181AA0E05DC00091A404039500934D
:101EC000A40400913D0414E0019FF001EA54FB4F8B
:101ED000058D168D0F5F1F4F058F168F00913D04E6
:101EE00014E0019FE6EBF4E0E00DF11D038D148D8D
:101EF00098012F5F3F4F238F348F0630104048F0FA
:101F000000913D04F0E0E02FEA54FB4F07810160AF
:101F100007830091B60410E040913D044C5F0E949D
:101F2000382B017009F100913D0414E0019FF0018C
:101F3000EA54FB4F038D07700430B1F440913D0427
:101F4000F8944C5F01E010E00E94332B009518B12B
:101F5000102318B90091F302002309F4789423ECBC
:101F600033E002E00E94DF1623EC33E001E00E9440
:101F7000DF1603EF11E00E94181A21E030E003E0C1
:101F80000E94F616802F00FBBEF400E052DF0091A5
:101F90003D0414E0019FF001EA54FB4FA387A4879E
:101FA00000913D04F0E0E02FEA54FB4F03810E7FE7
:101FB0000383A0938A0456C000918A04039500937A
:101FC0008A0400913D0414E0019FF001EA54FB4FA4
:101FD000058516850F5F1F4F0587168700913D0405
:101FE00014E0019FE6EBF4E0E00DF11D038514859C
:101FF00098012F5F3F4F238734870630104048F009
:1020000000913D04F0E0E02FEA54FB4F03810160B2
:1020100003830091B60410E040913D040E94382BE8
:10202000017001F100913D0414E0019FF001EA54B8
:10203000FB4F038507700430A9F440913D04F894E8
:1020400001E010E00E94332B009518B1102318B95D
:102050000091F302002309F4789423EC33E002E0CA
:102060000E94DF1681FB0EF027CF01E0E2DE009137
:102070003D0414E0019FF001EA54FB4FA38FA48FAD
:1020800000913D04F0E0E02FEA54FB4F07810E7F02
:102090000783A093A40468CF0091B60408B90895FB
:1020A000BA93AA931AE1019FA2E7B4E0A00DB11D73
:1020B0001A96ED91FC91E20FF31F14E0019F90013D
:1020C000408151816281738100913D0410E01001D3
:1020D000200E311E08E3309E302C209E310CA02DA6
:1020E000B32DAF56B84F4D935D936D937C93448160
:1020F00055816681778100913D041901200E311EC2
:1021000008E3309E302C209E310CA02DB32DAB5611
:10211000B84F4D935D936D937C93408500913D0442
:10212000B901600F711F0EE0709F702D609F710DDF
:10213000A02DAF507B4FB72F4C93418500913D04AC
:10214000200F311F0EE0309F302D209F310DE02DEC
:10215000F32FEF59FA4F4083A991B9910895BA939B
:10216000AA939A938A931AE1019FE2E7F4E0E00DC3
:10217000F11DA285B385A20FB31F14E0019FC0011A
:102180000C9110E020E030E00E94CF2B40913D0404
:1021900050E0BC01640F751F48E3749F702D649F6D
:1021A000710DE02DF72FEF56F84F00831183228336
:1021B0003383FD0111810281212F220F220B322F47
:1021C0000E94902B40E060E271E40E94572D409104
:1021D0003D0450E0BC01640F751F48E3749F702DEF
:1021E000649F710DE02DF72FEB56F84F008311839C
:1021F00022833383FD01238100913D0410E0AC0173
:10220000400F511F0EE0509F502D409F510DE02D6B
:10221000F52FEA54FB4F23AF00913D04800F911F2F
:102220000EE0909F902D809F910DE02DF92FEF599A
:10223000FA4F108389919991A991B9910895BD019F
:10224000AC011AE1019FE2E7F4E0E00DF11DA28587
:10225000B385A20FB31F1D911337D9F412E3019F69
:1022600086EB94E0800D911DFC01EC56FA4F11E0D5
:102270001083000F000F10913D04010F018302969F
:1022800004E01D91FC01EC56FA4F108301960A956B
:10229000C1F7CA01DB010895BD01102F00913D0473
:1022A0004AE1149FA2E7B4E0A00DB11D1A96ED918A
:1022B000FC91E20FF31F24E0129F208110E0A001A7
:1022C000400F511FDA01AF51BB4F0C91022B0C9301
:1022D000218100913D04A001400F511FDA01A75157
:1022E000BB4F2C930481002351F000913D04000E5C
:1022F000111EF001EA54FB4F03A9006803ABDB0198
:1023000008955B2F6A2F12E3019FE6EBF4E0E00DE6
:10231000F11DDF01AC56BA4F11E01D93102F110FC4
:10232000110F40913D04140F1C931AE1019FD0013D
:10233000A458BB4F0D911C91020F131FEA56FA4F80
:1023400029E2D8013D918D0131932A95D1F7A62F2D
:10235000B52F0895BA93AA931AE1019FF001EE58A0
:10236000FB4FA285B385A20FB31F2EE014E0019F9F
:10237000A001FD0160816E3038F53181E1EFF4E0BC
:1023800070E0E60FF71F00913D0410E01A01200EE7
:10239000371E0EE0309E302C209E310CE00DF31DD8
:1023A0003083FD013281E1E6F5E0E60FF71F009191
:1023B0003D04BA01600F711F0EE0709F702D609F89
:1023C000710DE00DF71F308313962A9591F6A991B0
:1023D000B9910895BD011AE1019FA2E7B4E0A00DF3
:1023E000B11D1A96ED91FC91E20FF31F14E0019FCD
:1023F000208100913D0410E0A001400F511FDA013F
:10240000AF51BB4F2C93218100913D04000E111E52
:10241000F001EA54FB4F23ABDB0108957A926A92F4
:102420005A924A92BA93AA939A938A93A9011AE16B
:10243000019FE2E7F4E0E00DF11D62857385FB0189
:10244000E40FF51F229130E021303307E4F180E002
:1024500014E0019F100134C08A01080F131FDB0133
:10246000A00FB11FFD0190819E3048F54180E1EF42
:10247000F4E0E90FF31F00913D043101600E731E7B
:102480000EE0709E702C609E710CE00DF71D408276
:10249000FD01A281B381E1EBF6E002E0909FE00D47
:1024A000F11D00913D042101400E531E0CE1509E90
:1024B000502C409E510CE00DF51DA083B1838C5F24
:1024C000821733074CF289919991A991B99149905A
:1024D00059906990799008957A926A925A924A92A4
:1024E000BA93AA939A938A93A9011AE1019FE2E70A
:1024F000F4E0E00DF11D62857385FB01E40FF51F2B
:10250000229130E021303307E4F180E014E0019FB4
:10251000100134C08A01080F131FDB01A00FB11F87
:10252000FD0190819E3048F54180E1EFF4E0E90F34
:10253000F31F00913D043101600E731E0EE0709E8A
:10254000702C609E710CE00DF71D4082FD01A28190
:10255000B381E1EDF5E002E0909FE00DF11D009107
:102560003D042101400E531E0CE1509E502C409E14
:10257000510CE00DF51DA083B1838C5F82173307EA
:102580004CF2A1CFAA939A938A93A02FC9010FEF7F
:1025900013E00E94801A04E0A09F800120913D0476
:1025A00030E0020F131F2AE1A29FE2E7F4E0E00D02
:1025B000F11D62857385680F791FA801440F551FAF
:1025C000440F551F440F551F26EB022E24E0040E26
:1025D000251F122E900125563B4FFB01429144309E
:1025E000AB0101F583E0FA012190AF013324F90139
:1025F000219231929F018A95B1F721EA020E24E0DF
:10260000121EF00130823182FB012381F801EF5666
:10261000F64F2083000F111FF801E756F64F308266
:1026200031821BC084E0FA0101901190AF01F901E1
:10263000019211929F018A95B1F7FB012085F80163
:10264000EF56F64F2083FB0121853285000F111FC5
:10265000F801E756F64F20833183AA0FAA0F0091A5
:102660003D04A00F01E010E04A2F0E94332B10918F
:10267000A909102B1093A9090FEF13E00E94C41AA7
:1026800089919991A99108956A925A924A92BA931E
:10269000AA939A938A93602E29010AE1609EA2E789
:1026A000B4E0A00DB11DFD0102851385040D151DBB
:1026B00001501040F801808190E00FEF13E00E947C
:1026C000801A813000E099070CF446C010E088239E
:1026D00009F442C0FD01A285B385A40DB51D24E017
:1026E000629E1001FD01208130E02E3078F561817D
:1026F000E1EFF4E0E20FF91F40913D042101440EA7
:10270000591E4EE0549E502C449E510CE00DF51D78
:102710006083FD014281538164817581E1E9F7E0C5
:10272000220F331F220F331FE20FF31F20913D04AE
:102730002101420E591E28E3529E502C429E510CFC
:10274000E00DF51D40835183628373830A5F1F4F41
:1027500016960817190730F20FEF13E00E94C41AFB
:102760009BCBBA93AA938A9381E01AE1019FE2E797
:10277000F4E0E00DF11DA285B385A20FB31FFD01AA
:102780001081105809F440C0145309F445C01A953B
:1027900009F446C01B5409F450C01A9509F44DC001
:1027A0001D5188F0135080F01350B0F0C9F01A9505
:1027B000F9F0175009F11350B9F0125049F01D54B7
:1027C000F9F01A9529F13AC02E5F3F4F5DDF36C010
:1027D0002E5F3F4FD7DE32C02E5F3F4F7DDE2EC0D3
:1027E0002E5F3F4F1BDE2AC02E5F3F4FF3DD26C01A
:1027F0002E5F3F4FAFDD22C02E5F3F4F82DD1EC0F8
:102800002E5F3F4F49DD1AC02E5F3F4F18DD16C0C7
:102810002E5F3F4FA4DC12C02E5F3F4F41DC0EC045
:10282000448514E0019F00913D0410E0000E111E4C
:10283000F001EA54FB4F43A701C080E0082F8991C3
:10284000A991B9910895BA93AA939A938A93202F44
:102850000AE1209FA2E7B4E0A00DB11DFD010289AD
:10286000002309F486C00A9531F00A9541F1085019
:1028700009F47FC07BC086859785039708F479C0EB
:102880000285F385E02F528110E00381402FFD0186
:10289000068B578B08E766857785061B170B401755
:1028A000510708F063C0CA01079708F45FC002E04F
:1028B000028B868597850196808B918B5AC0008903
:1028C00011890F5F1F4F008B118B468957890417A1
:1028D000150708F44EC002851385040F151F01501B
:1028E0001040F8010081033009F040C040E080E072
:1028F00090E0FD010285138506883EEF030E3FEF51
:10290000531F30E00BC0F80161918F014627E42F7F
:10291000F0E0E05EF34A3BBF4691019680159507D3
:1029200090F3FD010285138566897789060F171FCD
:1029300002501040F80100814017C1F4FD010285EA
:10294000F385E02F00810D3F89F4FD010AE0028B41
:10295000222321F427ED33E001E005C0213049F4C2
:1029600027ED33E002E00E94DF1603C0022F0E9431
:102970008C09FD01068517850F5F1F4F0687178796
:10298000083720E0104010F02687278753CC042D0D
:10299000152D78940895DF93CF93BF93AF939F93B2
:1029A0008F93FF92EF92DF92CF92BF92AF929F925E
:1029B0008F927F926F925F924F924090F2024F926D
:1029C0004090F3024F92E091F802F091F9024DB677
:1029D0005EB642825382F894C3E6D2E003EA0DBFAA
:1029E00002E00EBF01E000930C0378940E940318EC
:1029F000002700930C03E091F802F091F9020281A4
:102A000013811EBF0DBF0F900092F3020F90009232
:102A1000F2024F905F906F907F908F909F90AF9059
:102A2000BF90CF90DF90EF90FF908F919F91AF91EB
:102A3000BF91CF91DF910895E0E0EBBFE0910216E6
:102A4000F0910316008111812281009304161093E6
:102A50000516E091F802F091F902EF2B61F0E0E049
:102A6000EBBFE0910216F091031607E415E120E0B8
:102A7000108301830895E0E0EBBFE0910216F0912E
:102A800003160BEE14E120E01083018308950A93EE
:102A90001A9300910416109105161F930F93199124
:102AA00009910F921F922F923F920F931F932F9392
:102AB0003F934F935F936F937F93EF93FF930FB683
:102AC0000F9208B60F9209B60F920BB60F920E94A2
:102AD000CB140E94EF190F900BBE0F9009BE0F9000
:102AE00008BE0F900FBEFF91EF917F916F915F91A4
:102AF0004F913F912F911F910F913F902F901F90D9
:102B00000F90089578940895F894089500910C0317
:102B1000039500930C03013009F008952F913F9124
:102B20004DB75EB76C2F7D2FF894C3E6D2E003EA71
:102B30000DBF02E00EBF7F936F935F934F933F9360
:102B40002F93089500910C030A9500930C0309F04C
:102B500008952F913F914F915F91CF91DF914DBF9C
:102B60005EBF3F932F9308958A927A926A925A9207
:102B70004A92BA93AA939A938A93A02FB12F622E66
:102B8000732E842E862F972F4D8444E150E020E051
:102B900030E00E94072EEA2FFB2F81860091FB1563
:102BA0001085102B1087418A062D072911F06686A3
:102BB0007786E985FA852B853C85E20FF31F7997A7
:102BC00000E00083018304E1048B07EC058B968B06
:102BD000878B0E2F1F2F0A5010403695279536955C
:102BE000279536952795021B130B028B138B04E058
:102BF000028305E0038306E0048307E0058308E021
:102C0000068309E0078300E1008701E1018702E113
:102C1000028703E1038704E1048705E1058704E2F5
:102C2000068705E2078706E2008B07E2018B3197F2
:102C30001296ED93FC9313970A2F1B2F0E94901965
:102C400089919991A991B9914990599069907990F8
:102C5000899026960895BA93AA932897A02FB12F0A
:102C60000C831D830A831B830091F8021091F902E3
:102C70000E831F83F8940D911C911197088319837B
:102C8000CD93DC9308811981012B29F0A881B12F04
:102C90001296CD93DC93E091F802F091F902C4838F
:102CA000D583E091F802F091F90220870E94D819AB
:102CB0002896A991B9910895E091F802F091F9024E
:102CC0000387E091F802F091F902268337831460BC
:102CD000E091F802F091F90210870C94D819BA9398
:102CE000AA93E2EFF2E042895389648975894F5FC4
:102CF0005F4F6F4F7F4FF894428B538B648B758B74
:102D00000091F302002309F4789420910803309194
:102D10000903042F152F0E941F1C11231AF001E034
:102D20000093F60200910A03002339F00A950093FC
:102D30000A0319F401E00093F402A091FE15B0918A
:102D4000FF1509C01296ED91FC9113970995EA2F92
:102D5000FB2FA081B1810A2F0B2BA1F7A991B9916B
:102D60000895BA93AA93A02FB12F07C0ED91F12F28
:102D70001197068117810E942519F8940D911C91D5
:102D80001197012B99F70091F302002309F478942D
:102D9000A991B9910895202F212B21F40091F802D7
:102DA0001091F902F894E02FF12F228530E032875C
:102DB0000091F302002309F47894022F0895F89407
:102DC000E22FF32F1285102B12870085087F083021
:102DD00039F40385012321F0022F132F0C942519B8
:102DE0000091F302002309F478940895AA939A932A
:102DF0008A93A02F822F932FF894213000E0900720
:102E000094F00E94151C202F312F280F391FE091BC
:102E1000F802F091F90202850A2329F418E00A2F3A
:102E20000E945C16F894E091F802F091F902028594
:102E300010E012871091F302112309F4789489911C
:102E40009991A99108957B2F6A2FF8940091F80227
:102E50001091F90220E02093F4027894202F212B86
:102E600009F455C0E02FF12F20813181232B09F483
:102E70004EC04185E081F32F2185241709F047C01A
:102E8000E02FF12F208102C02E2F3F2FA22FB32F32
:102E9000ED91FC915E2F5F2B19F051855417A1F332
:102EA000F8944091FC025091FD024017510741F403
:102EB000E02FF12F408151814093FC025093FD029D
:102EC000E02FF12F44855585A02FB12FED91FC9176
:102ED000A42FB52FED93FC9344875587E02FF12F56
:102EE00024873587A22FB32FED91FC91A02FB12F0E
:102EF000ED93FC93A02FB12F4D914F2B11F0048730
:102F00001587E22FF32F008311830189008B7894BA
:102F1000A62FB72F0895BA93AA939A938A93A02FB6
:102F2000B12F00E0EA2FF12F04830289138924894D
:102F300035890056104F068B178B20893189203038
:102F4000304039F00A2F1B2F5096ED91FC9151978C
:102F500009957894EA2FFB2F808591854AC0F894D3
:102F6000EA2FFB2F02851385012B59F0E82FF92F4B
:102F70002185EA2FFB2F0285F385E02F018520179D
:102F8000E8F1E82FF92F008502FF2EC0EA2FFB2F72
:102F90000289138924893589202F312FE82FF92FB1
:102FA000068117810E941F1C013010404CF4082F2D
:102FB000192F4BD1F894E82FF92F00850023F1F059
:102FC000EA2FFB2F26893789E82FF92F06811781F1
:102FD0000E941F1C112342F4E82FF92F068117814C
:102FE000EA2FFB2F068B178B7894E82FF92F80811F
:102FF0009181082F092B09F0B2CFF894899199910A
:10300000A991B99108956A925A924A92BA93AA9351
:103010009A938A93A2EFB2E000E0E2EFF2E001833C
:1030200006811781012BD1F01696ED91F12F17979C
:1030300002891389012B91F0E289F12F20813181DE
:1030400000E02030300751F0EA2FFB2F0681F78196
:10305000E02F02811381E22FF32F0995EA2FFB2F36
:10306000018D002351F0208D0681F781E02F208B08
:103070000091F402002309F0E6DEEA2FFB2F02851F
:103080001385012B09F456C009C0E82FF92F0081E0
:103090001181EA2FFB2F028713877894F894828599
:1030A0009385082F092B09F44AC0E82FF92F608473
:1030B000662009F444C062FA46F546805780EA2F3C
:1030C000FB2F0289138924893589202F312F042D64
:1030D000152D0E941F1C013010404CF4082F192F91
:1030E000B4D0E82FF92F0085002379F423C0EA2F0C
:1030F000FB2F26893789042D152D0E941F1C1123B3
:1031000022F4EA2FFB2F468A578A0BEF602200E158
:10311000601609F0BACFE82FF92F0481F581E02F6E
:103120000481F581E02F0281F381E02F00850023E7
:1031300009F0ABCFF89403C00A2F1B2FECDEEA2F67
:10314000FB2F04810023C1F700E003830285138570
:10315000012B09F440C01A96ED91FC911B97008554
:10316000002379F01A96ED91FC911B970481F5816B
:10317000E02F0481F581E02F02811381EA2FFB2FDC
:1031800004C0EA2FFB2F028513850683178316964A
:10319000ED91FC91179702891389012B91F0E28937
:1031A000F12F2281338100E02030300751F0EA2FE7
:1031B000FB2F0681F781E02F02811381E22FF32F8D
:1031C00009951696ED91FC9117970089EA2FFB2F30
:1031D000008F018F09C000E0018F008F06830783F5
:1031E0000C9378940E94A91C89919991A991B99105
:1031F00049905990699008950091F302002309F4D1
:10320000789408950091F2020A950093F202E1F495
:10321000E2EFF2E00281138124813581012B022B40
:10322000032B91F0F8940281012B022B032B39F030
:1032300001E000830E94CB1400E00093F2020091B1
:10324000F302002309F478940895BA93AA93A02F67
:10325000B12FE02FF12F04811581012BF1F00E9495
:10326000151CEA2FFB2F068317831496ED91FC9112
:1032700015970081118122813381402F412B21F04C
:10328000E02FF12F22833383E22FF32F008311836A
:1032900000E0EA2FFB2F048305830085037000877D
:1032A000D1F40091FC021091FD02202F212BD9F4C2
:1032B000A093FC02B093FD020091F202002301E012
:1032C00041F40093F2020E94CB1400E00093F2025A
:1032D00002C00093F5020091F302002309F47894F0
:1032E000A991B99108954185E02FF12F21852417E7
:1032F000F8F20A171B0701F3421769F72A2F3B2F31
:10330000E22FF32F20813181522F532B21F3E22F13
:10331000F32F51854517F9F62017310789F7C8CFE4
:10332000BA93AA93E02FF12F41852091F2022395C1
:103330002093F2022AEF32E002C02A2F3B2FE22F25
:10334000F32FA081B1815A2F5B2B29F0EA2FFB2F9D
:103350005185451790F3E02FF12FA083B183248787
:103360003587E22FF32F00831183F8942A2F2B2B1C
:1033700079F0EA2FFB2F048715872185241721F484
:10338000E02FF12F218901C020E0E02FF12F208BC9
:103390002091F302222309F47894E02FF12F208565
:1033A000222311F4F89451DF2DDFA991B9910895EA
:1033B0008A938091F2020091F20203950093F20247
:1033C0000E94CB148093F2020091F302002309F4CF
:1033D00078948991089501E00093F2020895009194
:1033E000F2020A950093F20208959A938A93802F2D
:1033F000912F0091F202002351F078940E94151C45
:10340000282F392F0E941F1C11237AF4F7CFF8942C
:10341000E091F802F091F9028683178304E0E091CD
:10342000F802F091F9020087C3DF8991999108951C
:103430009A938A93802F912F0E94151C080F191FB1
:10344000D4DF8991999108952091F20223952093D8
:10345000F202E02FF12F24812A95248311F40E9497
:10346000B1160C940219BA93AA939A938A93802F57
:10347000912FA091FC15B091FD1513C0EA2FFB2FE1
:103480000481002351F0028113810817190729F4E0
:1034900001E004830A2F1B2FD7DFEA2FFB2FA58122
:1034A000B6810A2F0B2B51F789919991A991B99166
:1034B0000895BA93AA93A02FB12F03E31AE10093C2
:1034C00000161093011647E050E020E030E00A2F8C
:1034D0001B2F0E94072EF8940091FC151091FD15EA
:1034E00015960D931C931697A093FC15B093FD159C
:1034F0000091F302002309F47894A991B9910895F9
:10350000BA93AA939A938A93A02FB12F0091F202B3
:1035100003950093F20214960C911497002359F42A
:103520000091F8021091F90212960D931C931397D3
:1035300081E090E022C012960D911C91139720918A
:10354000F8023091F9020217130791F020E10A2FD7
:103550001B2F0E942B1614960C9114970023B1F781
:103560000091F8021091F90212960D931C93139793
:1035700014968C91149790E0019614968C930E9467
:103580000219082F192F90CF5FCF5B2F4A2FEEEF34
:10359000F2E002C0E22FF32F20813181232B51F082
:1035A000208120173107B1F7A02FB12F0D911C9169
:1035B00000831183A42FB52F08955A924A92BA938B
:1035C000AA939A938A93A02FB12F0E94151CEA2FD9
:1035D000FB2F24813581200F311F2483358301E0A7
:1035E00000870091FE021091FF02012B71F400E0B0
:1035F0000D930C93E093FE02F093FF0207E41BE1AE
:10360000009302031093030323C08EEF92E04090D7
:10361000FE025090FF02E42DF52D24813581EA2F22
:10362000FB2F048115810E941F1C013010404CF0BB
:10363000842D952DE42DF52D40805180042D0529F4
:1036400051F74D925C921197E82FF92FA083B18327
:103650002091080330910903E091FE02F091FF02EE
:10366000048115810E941F1C112352F4E091FE0277
:10367000F091FF0204811581009308031093090360
:1036800089919991A991B991499059900895BA93C6
:10369000AA93A02FB12F23C0068717871E96ED91FE
:1036A000F12F1F9700811181EA2FFB2F04871587C7
:1036B00020E00685F785E02F208700E0EA2FFB2F2A
:1036C0002685F785E22F0483058378941E96ED9175
:1036D000FC911F970281F381E02F0995F894EA2F5E
:1036E000FB2F04851585012B09F102891389248993
:1036F0003589202F312F1C96ED91FC911D97048167
:1037000015810E941F1C01301040EA2FFB2F0485F9
:10371000158514F2012B51F01C96ED91F12F1D9798
:1037200004811581EA2FFB2F068B178BA991B99184
:1037300008955A924A92BA93AA939A938A93A02F81
:10374000B12F822F932F442E552E49E050E020E0D8
:1037500030E00E94072EEA2FFB2F468257824482D8
:103760005582828393838CCFBA93AA93A02FB12FD3
:10377000F89418960C911897002311F00A2F05DF82
:1037800016960D911C9113970D931C9315970A2F64
:103790001B2F13DF0091F302002309F47894A99101
:1037A000B99108959A938A93E02FF12F20852223CF
:1037B00061F484819581813090403CF0F894FDDE85
:1037C0000091F302002309F4789489919991089566
:1037D000BA93AA93A02FB12FF89418960C9118972A
:1037E0000023D9F000E018960C9314970E94151C42
:1037F0002D913C91201B310B3C932E9314970A2F53
:103800001B2FC3DE0091FE021091FF02012B29F451
:1038100000E000930203009303030091F3020023EE
:1038200009F47894A991B99108954FB7F894E2EF0B
:10383000F2E002891389248935894FBF0895021B5C
:10384000130B0895BA93AA939A938A93B12FA02F3A
:10385000922FE2EFF2E030E03BBF0081039500835E
:10386000E2EFF2E00181039501831EB70DB70D5F12
:103870001F4F00930216109303160E948615FB2F0C
:10388000EA2F09950E94A215E2EFF2E030E03BBF7B
:1038900001810A9501830091F202013079F4E2EF8F
:1038A000F2E030E03BBF4281538164817581452B5A
:1038B000462B472B19F00E941C1507C0E2EFF2E0DF
:1038C00030E03BBF00810A9500830E94FC1889917B
:1038D0009991A991B99108950C946F169A938A932E
:1038E000FA93EA933A922A921A920A927A936A93F4
:1038F0005A934A933A932A931A930A938FB79BB792
:103900000CE61CE10E94221C9BBF8FBF09911991FC
:103910002991399149915991699179910990199019
:1039200029903990E991F99189919991189500E040
:103930000093800009E8009381000FE71EE31093D5
:1039400089000093880000916F00026000936F006F
:103950000895FFCF20E02D9301501040E1F7089526
:103960003BBF26912D93EF5FFF4F3F4F015010401B
:10397000B9F7089540E25DE560E0FA01362F3BBFFC
:1039800007911691FA01EE5FFF4F3F4F3BBFA791A2
:10399000B691FA01362FEC5FFF4F3F4F3BBF0790C8
:1039A00017902690202D2129222921F0F001322D77
:1039B000D7DF01C0CFDF495F5F4F6F4F1DE520E0CC
:1039C0004E3251076207C8F208954A92BA93AA93F9
:1039D0000091C0000091C000AAEFB0E044244394DD
:1039E00009C000915104039500935104B0934A0417
:1039F000B0934B040091C00007FF4AC00091C6007D
:103A0000E0914804F091490420914A0430914B041C
:103A1000E20FF31F0083009150040A3059F3002392
:103A200019F5E0914804F091490400914A0410917D
:103A30004B04E00FF11F0081063199F210915104FF
:103A4000123078F0013069F4B09351044092500480
:103A5000B0934C04B0934D04A0935204B09353041C
:103A6000C9CFB0935104C6CF00914A0410914B04C2
:103A70000F5F1F4F00934A0410934B040739104007
:103A800000E018F00E94D51EB5CF0E94502AB2CF98
:103A9000A991B991499008959A938A93FA93EA93D8
:103AA0003A922A921A920A927A936A935A934A9372
:103AB0003A932A931A930A938FB79BB705EE1CE1AA
:103AC000EDC00091C1000F7B0093C100729806E029
:103AD00014E00E94E81B00E00C94D51E9A938A9390
:103AE000FA93EA933A922A921A920A927A936A93F2
:103AF0005A934A933A932A931A930A938FB79BB790
:103B000001E61DE1CBC00091440410914504012B56
:103B100001F10091440401501040009344041093BB
:103B200045040091420410914304E0913E04F09159
:103B30003F04E00FF11F00810093C6000091420492
:103B4000109143040F5F1F4F0093420410934304EE
:103B500008950FEF00934404009345040091C100C1
:103B60000F7D0093C1000091C00000640093C0006D
:103B70000091C10000640093C10008959A938A9354
:103B8000FA93EA933A922A921A920A927A936A9351
:103B90005A934A933A932A931A930A938FB79BB7EF
:103BA00003E81DE17BC04A92BA93AA930091C80032
:103BB0000091C800AAEFB0E04424439409C00091EA
:103BC0006B04039500936B04B0936404B093650495
:103BD0000091C80007FF4AC00091CE00E091620446
:103BE000F09163042091640430916504E20FF31FA7
:103BF000008300916A040A3059F3002319F5E0911B
:103C00006204F09163040091640410916504E00F74
:103C1000F11F0081063199F210916B04123078F097
:103C2000013069F4B0936B0440926A04B093660467
:103C3000B0936704A0936C04B0936D04C9CFB093A4
:103C40006B04C6CF00916404109165040F5F1F4F91
:103C500000936404109365040739104001E018F0E4
:103C60000E94D51EB5CF0E94502AB2CFA991B9911A
:103C7000499008959A938A93FA93EA933A922A92F2
:103C80001A920A927A936A935A934A933A932A938E
:103C90001A930A938FB79BB703ED1DE10E94221C74
:103CA0009BBF8FBF099119912991399149915991E0
:103CB000699179910990199029903990E991F99138
:103CC0008991999118950091C9000F7B0093C900C3
:103CD00073980FE014E00E94E81B01E00C94D51EDD
:103CE0009A938A93FA93EA933A922A921A920A92B0
:103CF0007A936A935A934A933A932A931A930A931C
:103D00008FB79BB703E61EE1C9CF00915E04109107
:103D10005F04012B01F100915E04015010400093FB
:103D20005E0410935F04E0915804F09159040091EF
:103D30005C0410915D04E00FF11F00810093CE0040
:103D400000915C0410915D040F5F1F4F00935C04B1
:103D500010935D0408950FEF00935E0400935F04D9
:103D60000091C9000F7D0093C9000091C800006454
:103D70000093C8000091C90000640093C900089531
:103D80009A938A93FA93EA933A922A921A920A920F
:103D90007A936A935A934A933A932A931A930A937B
:103DA0008FB79BB705E81EE179CF2FB7F8940230A3
:103DB00058F41AE1019FEEE3F4E0E00DF11D00E09C
:103DC000038B028B048705872FBF08950091C100E4
:103DD0000F7D0093C100F89472980091F3020023C4
:103DE00009F4789406E014E00E94E81B00E0DDCFBF
:103DF0000091C10000620093C1000AE214E00C943B
:103E0000E81B0091C9000F7D0093C900F8947398D6
:103E10000091F302002309F478940FE014E00E946B
:103E2000E81B01E0C2CF0091C90000620093C90005
:103E300003E314E00C94E81BBD01AC01102FC90191
:103E400000E025303040A0F02AE1129FF001E25C52
:103E5000FB4FA081B1811496049730E0E02FF0E091
:103E60000D91E027E05EF34A3BBF06910197B1F761
:103E7000CA01DB010895BA93AA931AE1019FAEE348
:103E8000B4E0A00DB11DFD0100E0048705870687A1
:103E9000078704830583ED91FC91119706E1008368
:103EA000ED91FC9111970183ED91FC9111970283A3
:103EB000ED91FC91199601E00383ED91FC911B9724
:103EC0000281ED91FC9119960483ED91FC911B9771
:103ED0000381ED91FC911197058300918603005FAA
:103EE000ED91FC91119706830E946E09ED91FC9172
:103EF00011970783ED91FC91119700E00087ED91F8
:103F0000FC9111970187ED91FC910287A991B991DC
:103F10000895BA93AA938A93802FADDF0AE1809F18
:103F2000AEE3B4E0A00DB11D0D911C911197FD0100
:103F300022813381020F131FF80100E00083FD018D
:103F4000028113810F5F1F4F028313830081118150
:103F500022813381020F131FF80100E00083FD016D
:103F6000028113810F5F1F4F028313830081118130
:103F700022813381020F131FF80100E00083FD014D
:103F8000028113810F5F1F4F028313832185022F4C
:103F9000039501870081118142815381040F151F10
:103FA000F8012083FD01028113810F5F1F4F0283FF
:103FB00013830250ED91FC9111970087FD0102815E
:103FC000138102501040ED91FC91119711872AE066
:103FD00030E0082F31DFED91FC9111970287FD0150
:103FE00022813381082F28DF202F0D911C911197FA
:103FF000FD0142815381040F151FF8012083FD014B
:10400000028113810F5F1F4F02831383008111818F
:1040100022813381020F131FF80104E00083FD01A8
:10402000028113810F5F1F4F02831383068317835F
:1040300000E004830583882371F406E014E00E9405
:10404000B41BF894729A0091F302002309F4789457
:104050000AE214E00FC0813079F40FE014E00E940E
:10406000B41BF894739A0091F302002309F4789436
:1040700003E314E00E94B41B8991A991B9910895BA
:104080005A924A92BA93AA939A938A931AE1019FF9
:10409000002D2EE3022E24E0000E121EF00101E09E
:1040A000018F0081118122813381020F131FF801DA
:1040B00009ED0083F001028113810F5F1F4F02831E
:1040C00013830081118122813381020F131FF801B4
:1040D00004E00083F001028113810F5F1F4F028310
:1040E000138398010E5F1F4F0283138340913C049A
:1040F0004295407F0081118162817381060F171FF5
:10410000F8014083F001028113810F5F1F4F02838A
:104110001383E4ECF4E080ED94E00CE01191D00125
:104120004D915C91D00112966D917C91460F571F75
:10413000DA011C93D00112964D915C914F5F5F4F55
:104140005C934E93DC014D915D916D917D91CD011C
:10415000D0012D903C90D00112964D905C90240C93
:10416000351CD1014D935D936D937C93D0011296D4
:104170004D915C914C5F5F4F5C934E930A9571F645
:10418000F001421B425000811181020F131FF80100
:104190004083F00182819381821B930B02970081FF
:1041A0001181020F131FF801D0C5BA933A2E592F6F
:1041B000282E1AE1019FEEE3F4E0E00DF11D01E08D
:1041C000018FA081B18102811381A00FB11F0FEC7B
:1041D0000C93028113810F5F1F4F02831383A08111
:1041E000B181A00FB11F04E00C93028113810F5F16
:1041F0001F4F02831383B8010E5F1F4F0283138387
:1042000008EB14E04CE0D8012D918D01A081B18123
:1042100002801380A00DB11D2C93228133812F5F6A
:104220003F4F228333834A9571F70281061B025068
:10423000A081B181A60FB71F0C9382819381861B49
:10424000970B029700811181060F171FF8019183C8
:10425000822D952FA32DB9910895AD011AE1019FEB
:10426000F001E25CFB4FA285B385A20FB31FE8EB20
:10427000F4E00CE01D9111930A95E1F7DA0108953D
:104280007B2F2A2E592F682F1AE1019FEEE3F4E0CD
:10429000E00DF11D01E0018FA081B1810281138148
:1042A000A00FB11F0BEB0C93028113810F5F1F4F07
:1042B00002831383A081B181A00FB11F04E00C938E
:1042C000028113810F5F1F4F0283138398012E5FBA
:1042D0003F4F228333832091B604A081B181428174
:1042E000A40FB31F2C93228133812F5F3F4F228372
:1042F00033832091B704A081B1814281A40FB31F01
:104300002C93228133812F5F3F4F22833383201BE5
:104310002250A081B181A00FB11F2C938281938183
:10432000801B910B029720813181200F311FF901F1
:104330009183862F952FA22DB72F0895BA93AA9314
:104340009A938A93C9011AE1019FAEE3B4E0A00DEC
:10435000B11DFD0102851385080F191FF801208189
:1043600031812093B6043093B704208102E010E03D
:104370000E942A03FD0102851385080F191FF80109
:10438000218103E010E00E942A030E94BB003CC38D
:104390005A924A92BA93AA939A938A931AE1019FE6
:1043A000AEE3B4E0A00DB11DFD0101E0018F00817D
:1043B000118142815381040F151FF80106E7008324
:1043C000FD01028113810F5F1F4F02831383008160
:1043D000118142815381040F151FF80104E000830D
:1043E000FD01028113810F5F1F4F02831383A80118
:1043F0004E5F5F4F4283538342855385420F531F65
:10440000FA0160814D915C911197FD01028013804A
:10441000400D511DFA016083FD01428153814F5FC0
:104420005F4F4283538380E090E04EE01C01220CFA
:10443000331C61ED75E0620D731D02841384020E5E
:10444000131EF00100805CE1059E600D711DFB01F3
:1044500000801180FD016081718142805380640D74
:10446000751DFB0100821182FD01628173816E5F07
:104470007F4F6283738361EB76E0620D731D02846C
:104480001384020E131EF0015081ECE15E9F600D5B
:10449000711DFB0100801180FD016081718122800E
:1044A0003380620D731DFB0100821182FD01628168
:1044B00073816E5F7F4F6283738301964A9509F023
:1044C000B5CF2281201B2250ED91FC911197E00F76
:1044D000F11F2083FD0182819381801B910B029744
:1044E000ED91FC91E00FF11F30C4BA93AA939A9317
:1044F0008A931AE1019FEEE3F4E0E00DF11D01E083
:10450000018FA081B18102811381A00FB11F0CE93D
:104510000C93028113810F5F1F4F02831383A081CD
:10452000B181A00FB11F04E00C93028113810F5FD2
:104530001F4F02831383A8014E5F5F4F4283538353
:104540004091F20243954093F20280E090E044E013
:104550001C01220C331C61E579E0620D731DA285FC
:10456000B385A20FB31F0C9058E0059E600D711D1E
:10457000DB016D91A081B18102801380A00DB11D7E
:104580006C93628173816F5F7F4F6283738361E598
:1045900079E0620D731DA285B385A20FB31F5C91F4
:1045A000A8E05A9F600D711DDB0111966C91A081EE
:1045B000B18102801380A00DB11D6C936281738163
:1045C0006F5F7F4F6283738301964A9509F6A285D8
:1045D000B385A20FB31FAC91B0E0AF56B64F4C916C
:1045E000A081B1816281A60FB71F4C934281538194
:1045F0004F5F5F4F42835383A285B385A20FB31FE2
:104600004C9152E0459FD001A756B64F4D91A081E5
:10461000B18162817381A60FB71F4C934281538190
:104620004F5F5F4F42835383A285B385A20FB31FB1
:104630002C9132E0239FD001A756B64F11962C91B2
:10464000A081B1814281A40FB51F2C9322813381B7
:104650002F5F3F4F22833383201B2250A081B181E3
:10466000A00FB11F2C9382819381801B910B029725
:1046700020813181200F311FF90191830E9402199D
:10468000C3C1BA933A2E792F282E212F1AE1019F08
:10469000EEE3F4E0E00DF11D01E0018FA081B181B6
:1046A00002811381A00FB11F09E80C9302811381CD
:1046B0000F5F1F4F02831383A081B181A00FB11F31
:1046C00004E00C93028113810F5F1F4F0283138359
:1046D000A8010E5F1F4F028313830AE41AE032E33E
:1046E000239F000D111D6CE2D8012D918D01A08139
:1046F000B18102801380A00DB11D2C9322813381E2
:104700002F5F3F4F228333836A9571F70281041B29
:104710000250A081B181A40FB51F0C9382819381B7
:10472000841B950B029700811181040F151FF8015E
:104730009183822D972FA32DB9910895BA93AA93AF
:104740009A938A931AE1019FEEE3F4E0E00DF11DE4
:1047500001E0018FA081B18102811381A00FB11FFF
:1047600005E70C93028113810F5F1F4F02831383B0
:10477000A081B181A00FB11F04E00C9302811381CD
:104780000F5F1F4F0283138318010E5F1F4F0283B9
:104790001383A285B385A20FB31F0C91A081B181B1
:1047A0004281A40FB11F0C93028113810F5F1F4F31
:1047B00002831383A285B385A20FB31FAC91B0E02F
:1047C000A754BB4F0C9110913C041295107F012B04
:1047D000A081B18142815381A40FB51F0C93028146
:1047E00013810F5F1F4F02831383A285B385A20F2E
:1047F000B31F0C9114E0019FD001AF53BB4F0D913B
:10480000A081B18142815381A40FB51F0C93028115
:1048100013810F5F1F4F02831383A285B385A20FFD
:10482000B31F0C9114E0019FD001AF53BB4F119601
:104830000C91A081B18142815381A40FB51F0C93CB
:10484000028113810F5F1F4F02831383A285B385FB
:10485000A20FB31F0C9114E0019FD001AD53BB4FC9
:104860000D91A081B18142815381A40FB51F0C939A
:10487000028113810F5F1F4F02831383A285B385CB
:10488000A20FB31F0C9114E0019FD001AD53BB4F99
:1048900011960C91A081B18142815381A40FB51F63
:1048A0000C93028113810F5F1F4F02831383A28534
:1048B000B385A20FB31FAC91B0E0AF51BB4F0C91C9
:1048C000A081B1814281A40FB11F0C930281138199
:1048D0000F5F1F4F02831383A285B385A20FB31FFF
:1048E000AC91B0E0A751BB4F0C91A081B181428146
:1048F000A40FB11F0C93028113810F5F1F4F02831E
:104900001383A285B385A20FB31FAC91B0E0A7516A
:10491000BB4F0C910F770C9380E090E00EE041EFDD
:1049200054E0480F591FA285B385A20FB31F1C91F5
:104930006EE0169F400D511DDA011C91A081B181DE
:1049400042815381A40FB51F1C93428153814F5F55
:104950005F4F4283538341E655E0480F591FA285BC
:10496000B385A20FB31F1C91169F400D511DDA0194
:104970001C91A081B18142815381A40FB51F1C936A
:10498000428153814F5F5F4F4283538341E957E038
:10499000BC01660F771F660F771F460F571FA28552
:1049A000B385A20FB31F1C9168E3169F400D511DE4
:1049B000DA014D915D916D917C91A081B181028070
:1049C0001380A00DB11D4D935D936D937C93428137
:1049D00053814C5F5F4F4283538301960A9509F0E0
:1049E0009ECF028102190250A081B181A20DB31D98
:1049F0000C9382819381821993090297008111811E
:104A0000020D131DF801918389919991A991B99192
:104A10000895BA933A2E792F282EC9011AE1019FE1
:104A2000EEE3F4E0E00DF11DA285B3859D01280FB2
:104A3000391FF9010081043010F400E001C000E5E5
:104A400010E046EB54E0400F511F8A010C501B4F01
:104A5000F8016081662311F561E06083F90120812E
:104A6000F80121830196FD01E80FF91F2081F8016B
:104A7000228323E0A80FB91F119630E008C06D9182
:104A8000FA01E20FF31FEC50FB4F60832395F8010E
:104A9000E281F0E033962E173F078CF34ACE7B2F4E
:104AA0002A2E592F682F1AE1019FEEE3F4E0E00D62
:104AB000F11D01E0018FA081B18102811381A00F5E
:104AC000B11F07E50C93028113810F5F1F4F028313
:104AD0001383A081B181A00FB11F04E00C93028168
:104AE00013810F5F1F4F0283138398012E5F3F4F87
:104AF000228333832091B604A081B1814281A40F27
:104B0000B31F2C93228133812F5F3F4F2283338346
:104B10002091B704A081B1814281A40FB31F2C93CF
:104B2000228133812F5F3F4F228333832091B8044A
:104B3000E2CBBA93AA931AE1019FAEE3B4E0A00DD1
:104B4000B11D1A96ED91FC91E20FF31F2081209385
:104B5000B60401810093B70402810093B80402E017
:104B600010E00E942A032091B70403E010E00E94A5
:104B70002A032091B80404E010E00E942A030E9456
:104B80004C10A991B9910895BA933A2E592F282E15
:104B90001AE1019FEEE3F4E0E00DF11D01E0018F69
:104BA000A081B18102811381A00FB11F03E40C9396
:104BB000028113810F5F1F4F02831383A081B18194
:104BC000A00FB11F04E00C93028113810F5F1F4FF0
:104BD0000283138398010E5F1F4F0283138306EA3B
:104BE00014E043E0D8016D91A081B181028013806F
:104BF000A00DB11D6C93628173816F5F7F4F6283E3
:104C00007383D80111967D918D01A081B1810280BD
:104C10001380A00DB11D7C93628173816F5F7F4F04
:104C2000628373834A95F1F60281021B0250A081D0
:104C3000B181A20FB31F0C9382819381821B930BCE
:104C4000029700811181020F131F00CB5A924A92E2
:104C5000BA93AA939A938A931AE1019FAEE3B4E0C0
:104C6000A00DB11DFD0101E0018FED91FD910D91B0
:104C70001C911397E00FF11F09E30083FD010281EE
:104C800013810F5F1F4F02831383ED91FD910D91EF
:104C90001397E00FF11F04E00083FD0102811381EF
:104CA0000F5F1F4F0283138328010E5F1F4F028384
:104CB000138302851385020F131FF80120810D91C4
:104CC0001C911197FD0142815381040F151FF801BA
:104CD0002083FD01028113810F5F1F4F0283138325
:104CE00008E0209FC001408151810281400F511F87
:104CF00024E080010E943803FD01028113810C5FD2
:104D00001F4F0283138340815181400F511F24E0C4
:104D100004968C010E943803FD01028113810C5F0F
:104D20001F4F0283138304190250ED91FC911197D8
:104D3000E40DF51D0083FD0182819381841995099D
:104D40000297ED91FC91E40DF51D91838991999164
:104D5000A991B9914990599008959A928A925A923C
:104D60004A92BA93AA939A938A9349011AE1019FAE
:104D70000EE3402E04E0400C011D502EE42DF02FD8
:104D800042855385480D591DFA012081203800F1D4
:104D9000009186030130E1F408E115E0622F70E034
:104DA0006F70660F660F060F171F01801280238039
:104DB0003480F8010082118222823382FA01058058
:104DC000168027803084F80100AA11AA22AA33AAEB
:104DD00008E0209FD0014F5F5F4F24E080010E94D8
:104DE0004E030E94151CC80101E010E00E94181A31
:104DF0000E94151C081B190B0432104020F400916E
:104E0000900F002389F3F20142855385480D591D07
:104E10004B5F5F4F24E014968D010E944E030E9469
:104E2000151CC80101E010E00E94181A0E94151C10
:104E3000081B190B0432104020F40091900F00233E
:104E400089F389919991A991B99149905990899043
:104E500099900895F999FECF0FEF01BD0FE002BDC3
:104E60000FEF00BDFA9AF99A08E102C000936000C2
:104E7000F999FCCF08E0009360000895BD01AC01F2
:104E80001AE1019FEEE3F4E0E00DF11D01E0018F76
:104E9000A081B18102811381A00FB11F07E70C939C
:104EA000028113810F5F1F4F02831383A081B181A1
:104EB000A00FB11F07E00C93028113810F5F1F4FFA
:104EC0000283138398012E5F3F4F22833383A08197
:104ED000B181A20FB31F20E02C93228133812F5F79
:104EE0003F4F22833383A081B181A20FB31F20E003
:104EF0002C93228133812F5F3F4F22833383A08104
:104F0000B181A20FB31F20E02C93228133812F5F48
:104F10003F4F22833383A081B181A20FB31F20E0D2
:104F20002C93228133812F5F3F4F22833383A081D3
:104F3000B181A20FB31F20E02C93228133812F5F18
:104F40003F4F22833383A081B181A20FB31F20E0A2
:104F50002C93228133812F5F3F4F22833383209113
:104F60008603222311F02A9589F5A081B18122813F
:104F7000A20FB31F20E02C93228133812F5F3F4F7C
:104F800022833383A081B181A20FB31F20E02C9331
:104F9000228133812F5F3F4F22833383A081B181F0
:104FA000A20FB31F20E02C93228133812F5F3F4F4C
:104FB00022833383A081B181A20FB31F20E02C9301
:104FC000228133812F5F3F4F228333832281201B35
:104FD0002250A081B181A00FB11F2C9382819381B7
:104FE000801B910B029720813181200F311FF90125
:104FF0009183CA01DB0108955A924A92BA93AA9307
:105000009A938A931AE1019FAEE3B4E0A00DB11D1B
:10501000FD0111E0118FED91FD912D913C911397C0
:10502000E20FF31F19EE1083FD01228133812F5F00
:105030003F4F22833383ED91FD912D911397E20F22
:10504000F31F13E01083FD01228133812F5F3F4F57
:105050002283338329012E5F3F4F228333832081B4
:10506000318142815381240F351FF9010083FD01F5
:10507000028113810F5F1F4F0283138320918603E8
:10508000205F0081118142815381040F151FF801B7
:105090002083FD01028113810F5F1F4F0283138361
:1050A000C8010F5F1F4F028313830E946E09ED91A9
:1050B000FC911197E80FF91F00830D911C91119736
:1050C000FD0122813381020F131FF8010AE20083E0
:1050D000FD01028113810F5F1F4F02831383008143
:1050E000118122813381020F131FF80101E0008337
:1050F000FD01028113810F5F1F4F02831383008123
:10510000118122813381020F131FF80102E0008315
:10511000FD01028113810F5F1F4F02831383008102
:10512000118122813381020F131FF80106E90083E8
:10513000FD01028113810F5F1F4F028313830081E2
:10514000118122813381020F131FF80100E00083D7
:10515000FD01028113810F5F1F4F028313830081C2
:10516000118122813381020F131FF80103E10083B3
:10517000FD01028113810F5F1F4F028313830081A2
:10518000118122813381020F131FF80101E0008396
:10519000FD01028113810F5F1F4F02831383209152
:1051A0003C040081118142815381040F151FF801D5
:1051B0002083FD01028113810F5F1F4F0283138340
:1051C0000081118122813381020F131FF80101E058
:1051D0000083FD01028113810F5F1F4F0283138340
:1051E00004190250ED91FC911197E40DF51D008317
:1051F000FD0182819381841995090297ED91FC91BB
:10520000E40DF51D918300E000933C049FCD9A923C
:105210008A927A926A925A924A92BA93AA939A93EB
:105220008A93402EC901552453940AE1409E0EE30F
:10523000802E04E0800C011D902EE82DF02FA28519
:10524000B385A80FB91FFD01608071808301ECEC6C
:10525000F0E0FBBFF0E00C94CB2D042DCDDEB1C00F
:1052600004969C01042D0ADEACC00E94AA03A9C0CA
:1052700004969C01042DEEDDA4C004969C01042D2F
:105280006CDD9FC004969C01042DE0DC9AC004965E
:105290009C01042D79DC95C000918603002309F060
:1052A00090C004969C01042D44DC8BC000918603C1
:1052B000002309F086C004969C01042DF0DB81C018
:1052C00000918603002309F07CC004969C01042D04
:1052D000A0DB77C000918603002309F072C0FD01B6
:1052E0000481002319F00A9579F16BC03C0105E0B7
:1052F000600E00E0701E9301042D20DAAAE4BAE0EB
:105300000C91013029F410E0042DBBD900E00C937E
:10531000FD0102A9013029F48201B3D9FD0100E0A9
:1053200002AB0091A90910E0F40122853385280F12
:10533000391FF90145810E94382B017009F441C0E1
:105340009301042DD2D83DC005969C01042D20D890
:1053500038C0009186030130A1F504969C01042D0C
:105360000E949E212EC000918603013051F50496C3
:105370009C01042D0E94402124C00091860301302D
:1053800001F504969C01042D0E942D211AC0009164
:1053900086030130B1F404969C01042D0E94D520AF
:1053A00010C000918603013061F404969C01042D25
:1053B0000E94402006C004E6601600E0700608F473
:1053C0005524052D89919991A991B99149905990A8
:1053D000699079908990999008954A92BA93AA9386
:1053E0009A938A93402E0AE1409EAEE3B4E0A00D6A
:1053F000B11DFD0100E0018F0BE0028300E003839B
:1054000087E090E09C01042D02DF302FFD01028532
:105410001385080F191FF8012281F381E22F3496BA
:105420008E0F9F1F332341F0FD0106891789045019
:1054300010408017910730F3FD01018D0023042DEA
:1054400019F00E94891F02C00E94D51E899199916E
:10545000A991B9914990089524EF31E001E00E94AB
:10546000F6160023C9F30FEF13E00E94801A00E044
:10547000B4DF0FEF13E00E94C41AEECF24EF31E047
:1054800001E00E94F6160023C9F30FEF13E00E941B
:10549000801A01E0A2DF0FEF13E00E94C41AEECFE2
:1054A000BA93AA939A938A93802F0AE1809FAEE3DE
:1054B000B4E0A00DB11DFD010289002309F4ABC0C9
:1054C0000A9539F00A9509F44BC0085009F4A3C0B5
:1054D0009FC0068517850630104008F49CC00285E1
:1054E000F385E02F04811581FD01068B178B60E0A9
:1054F000428553858A0126E030E0F80101908F0152
:105500006025E62FF0E0E05EF34A3BBF66912A9506
:10551000A1F7FA010681601709F07AC0008110E056
:10552000E0918603F0E070960E171F0709F070C037
:10553000FD012689378906E946855785041B150B29
:105540002017310708F064C02730304008F460C0ED
:1055500002E0028B868597850196808B918B5BC0DC
:10556000008911890F5F1F4F008B118B26893789A6
:105570000217130708F44FC0190102851385020FA3
:10558000131F01501040F8010081043009F040C0A1
:105590000EEF200E0FEF301E0024FD016285738593
:1055A000022D032981F08B01A10130E0F801219146
:1055B0008F010226E02DF0E0E05EF34A3BBF06904B
:1055C0004150504099F7620D731DFB010081001698
:1055D000F9F40E946E09202FFD010285F385E02F6A
:1055E0003181321711F03F3F99F403810093910FFD
:1055F000FD010AE0028B882319F427E833E004C098
:10560000813049F42BE933E001E00E94DF1603C04A
:10561000082F0E94D51EFD01068517850F5F1F4FBD
:1056200006871787063920E0104010F02687278765
:10563000EBC900008895FECF0CE80093740003EAE4
:105640000DBF02E00EBFC4E6D2E00E946D08002349
:1056500011F00E94BA1C0E946F080E94192B0C9432
:10566000192B000F111F4A95E2F70895159507951C
:105670004A95E2F70895002411241001E0E2201574
:10568000300571F4E051312F202F1FEF0FEF0894F8
:10569000301106C0E850322F212F102F0FEF089441
:1056A000001F111F221F331FEA9572F0001C111CEE
:1056B000221C331C041615062606370688F3041A26
:1056C000150A260A370AECCFA001B1010095109502
:1056D000209530950895222342F0323030F03A95EB
:1056E000EE0F001F111F221FC2F7E03821F400FF48
:1056F00008940EF488940F4F1F4F2F4F3F4F3230B6
:1057000038F4332319F427FD31E002C027FF30E0DD
:105710003F3F29F0220F000C379527950895C4C00C
:10572000032E00203AF430952095109501951F4FD7
:105730002F4F3F4FE0E03E17A1F42E0739F51E072B
:1057400041F50E0769F0202F00E036E82AF03A957F
:10575000000F111F221FDAF7220F000C3795279533
:105760000895EEE932F0EA95000F111F221F331F52
:10577000D2F70038012F122F232F3E2F11F400FFF4
:1057800008940F4F1F4F2F4F3F4FE6CF36E922F3BC
:10579000DECF212F102F00E03EE8F2F2D8CF002418
:1057A000C9CF3E2E312A302A79F4362E330C372ECB
:1057B000331C19F09B018A010895362A352A342AB0
:1057C000C9F73723089574C0F1E0E6951FC0EE23B2
:1057D00039F4E62FEE0FF72FFF1F11F0FF3F09F00E
:1057E0000895EE2339F7732772F308953E2E352A74
:1057F000342A11F40895DECFF1E0E6950FC0F901E7
:10580000EE0FFF1F71F2FF3F11F3E7950F01FB0150
:10581000EE0FFF1F59F3FF3F71F3E795202D032E85
:10582000312D172EBF01F0E0E0E0E894401751075A
:105830006207730721F41024E2F400242FC058F00B
:10584000F9019B01BF01F8018A01AF01E0E0F0E03E
:10585000302C012C132C731B39F066955795479506
:10586000F795E0407395C9F7E7FBEE0FE0E01024F1
:105870006AF0EF0F041F151F261F60F42795179578
:105880000795E79508F46894339525CFEF0B040B43
:10589000150B260B20CFE0E87E27B1CF302D3078D6
:1058A00022271127002708953FE7302920E8F9CF64
:1058B0003FEF2FEFF6CF31E0269529C02223C1F725
:1058C000660F771F29F07F3F79F7662389F7ECCFC2
:1058D000652B642B69F3E8CFE22FE12BE02B59F71E
:1058E000660F771F7F3F21F3D9CFF62FF42BF52BCF
:1058F000A9F271E0669511C06623D1F6D5CF032ECB
:105900000726220F331F41F33F3FC1F22795660F51
:10591000771F59F37F3F81F36795E0E0F0E0E8946B
:105920003F57E040370FEF1F12F021F0BDCF393E57
:10593000D8F26894302C049FF001059F7727F00D72
:10594000711D149F2224F00D711D221C069F00273B
:10595000700D211C001F249F4427700D211C041F63
:10596000159F700D211C041F169F1127200C011D6F
:10597000111F259F200C011D141F269F000D111DB6
:105980005EF433951695079527947795F795E795E7
:1059900033953130BCF314C0112322F0332349F482
:1059A00033950EC0339561F4032C7ECF3A95313098
:1059B00038F0EE0FFF1F771F221C001F111FB2F7D8
:1059C000E894FE2B09F06894212F102F022DE72F69
:1059D000032C8BCEF901EE0FFF1FFF3F11F4EE23D6
:1059E000A1F4FB01EE0FFF1FFF3F11F4EE2369F45A
:1059F000E32FE7276AF4F52BF42BF02BF12BF22B96
:105A0000E32FEE0FFE2B11F073170895889408957D
:105A10000417150726073707C1F337FF0895EE1F50
:105A2000E095E6950895F901EE0FFF1FFF3F11F491
:105A3000EE2351F4FB01EE0FFF1FFF3F11F4EE23A5
:105A400019F4D6DF18F308940895E22FE12BE02B28
:105A500051F0E0E0269502C03150E040000F111FE8
:105A6000221FD2F72DC0660F771F19F07F3F31F04C
:105A700015CFE62FE42BE52B31F010CF662319F478
:105A80000DCF222309F014CF660F771F7F3FD9F384
:105A90000BCFF62FF42BF52BD9F3F0E0669502C06F
:105AA0007150F040440F551F661FD2F710C0032EEF
:105AB0000726220F331F49F23F3F19F32795E0E0F5
:105AC000660F771F31F37F3FC9F26795F0E0E894E6
:105AD000371BEF0B3158EF4F2AF0EE23C9F63F3F4B
