:020000021000EC
:10E000000C94F4F618951895189518951895189578
:10E010001895189518951895189518951895189598
:10E020001895189518951895189518951895189588
:10E030001895189518951895189518951895189578
:10E040001895189518951895189518951895189568
:10E05000189518950C9483F6189518951895189599
:10E06000189518950C94BDF30C945BF40C9498F4EB
:10E070001895189518951895189518951895189538
:10E080001895189518951895189518951895189528
:10E090001895189518951895189518951895189518
:10E0A0001895189518951895189518951895189508
:10E0B00018951895189518951895189518951895F8
:10E0C00018951895189518951895189518951895E8
:10E0D00018951895189518951895189518951895D8
:10E0E00018951895550214020000001400000290C3
:10E0F000F001F894402F01E010E00E9408F7109121
:10E100002402102B109324027894089512E0019FAA
:10E11000F001EC5EFD4F208331830895E4E1F2E0ED
:10E1200008E020E0219321930A95E1F7209324024F
:10E130000895BA93AA939A938A93F894909124029B
:10E1400000E000932402789480E0A4E1B2E0482F3C
:10E1500001E010E00E9408F7192F102329F0082F82
:10E16000ED91FC911197099583951296883028F7C7
:10E17000EECF9A938A93F8942BBFC80123E00E94B4
:10E1800051F121E18C010E9451F100E00BBF789424
:10E19000899199910895DA92CA92BA92AA929A9222
:10E1A0008A925A924A92BA93AA939A938A9328018E
:10E1B0006A015B01F8942BBFC80188249924672B5E
:10E1C00081F0DA019C01FD01008111810E9457F16B
:10E1D00002E0800E00E0901E029612968A149B04C4
:10E1E00088F3C20125E082010E9451F121E1820100
:10E1F0000E9451F188249924D60105C002E0800EC6
:10E20000951E029612968A149B0488F420E08C01D5
:10E210000E9460F14C9150E04017550729F4FD0130
:10E2200021812117550751F3789400E002C07894BA
:10E2300001E089919991A991B9914990599089905A
:10E240009990A990B990C990D99008957A926A92BC
:10E250005A924A92BA93AA939A938A933B012BBFFC
:10E26000C80144245524672B89F0DA0120E08C0191
:10E270000E9460F10C93FD01118302E0400E00E06A
:10E28000501E029612964614570480F300E00BBF0E
:10E2900089919991A991B9914990599069907990F2
:10E2A00008951FD0F12FE02F27BFE8951AC019D08D
:10E2B000F32FE22F112E002E21E027BFE89511C089
:10E2C00010D0F12FE02F20FD27BFD895002DE3952A
:10E2D000D895102D089505D0002E29E027BFE89588
:10E2E00000C0022E27B720FDFCCF202D089500E0AE
:10E2F00001B902B904B905B907B908B90AB900EFFB
:10E300000BB90EE00DB900E00EB900BB01BB03BBB9
:10E3100004BB0895F89400E00DBB009369000093DE
:10E320006A000DBB05BF00937400009375000FBF1A
:10E3300005BF15B7012F016005BF126015BF089515
:10E3400000E004B9E7DFD3CFF999FECF0FEF1FE06C
:10E3500012BD01BDF89A00B50895F999FECF1F705E
:10E3600012BD01BD20BDFA9AF99AF999FECF089520
:10E3700008E00093600008950CB102950F700095BD
:10E380000F7008959A938A932297A89504B704B7BB
:10E39000077F04BF0091600008610093600000E007
:10E3A0000093600062E070E0AE0110E020E030E039
:10E3B0000E9426F1F999FECF0FEF1FE012BD01BDBB
:10E3C000F89A20B50CB102950F7000950F700F30C0
:10E3D00029F12A3A29F1088119810F3F4FEF1F4F88
:10E3E00049F12B3B81F480E090E0F999FECF192FA1
:10E3F0001F7012BD81BD40BDFA9AF99AF999FECFFE
:10E400000196903190F3E0912502F0912602099552
:10E4100000E010E022968991999108952A3A51F4EA
:10E42000F999FECF0FEF12BD01BD00BDFA9AF99A1E
:10E43000F999FECF0E94A0F10E948EF00E94D4F6BE
:10E440000E940BF628EB31EF07E00E9486F07894EB
:10E450000E9499F0D8CF0C014FEF6FEF522F532B42
:10E4600099F0C90170E031E0F80121918F01622734
:10E47000E0E9FEEEE60FF71F3BBF26914227642F2F
:10E48000F3954691019781F7142F062FC001089547
:10E490008A93022E80E0FB012081318125303040BB
:10E4A00091F421E08A932A9331E0FA01718162812B
:10E4B0004D5F5F4F202D0E94E0F2002329F00E9463
:10E4C00074F6802F01C083E0082F89910895BA93D4
:10E4D000AA938A93FA01DB0180E04D915C91119738
:10E4E0004630504000F17181628153810480402D9B
:10E4F0003581052AC1F049375807A8F4042E000CCD
:10E50000301589F45A934A9331E03696AF010E9450
:10E51000E0F2002321F00E9474F6802F05C005E090
:10E520000D938C9301C083E0082F8991A991B99133
:10E5300008954A92BA93AA939A938A93DB0144244A
:10E540006D917C9111976530704089F5FA01718168
:10E550006281848190E0882351F18E3740F54D929D
:10E560004C92119733E031934D915C914F5F5F4F27
:10E570005C934E93382F330F31934D915C914F5FE5
:10E580005F4F5C934E934A928A9330E0AF010E94B2
:10E59000E0F2002319F00E9474F60AC0880F991F58
:10E5A0000D911C91080F191F1C930E9302C003E0DC
:10E5B000402E042D89919991A991B991499008957E
:10E5C000AA929A928A927A926A925A924A92BA93AA
:10E5D000AA939A938A93A32EDA01CB010B851C850B
:10E5E000600F711F615070404B01E0E0F2E005E008
:10E5F000208131818217930758F042815381481757
:10E60000590730F06217730718F04617570770F470
:10E6100034960A9569F701E0A3C0009128020C9393
:10E6200000912702FD010183129601968816990632
:10E6300008F495C0803305E7900751F4AA2069F3E8
:10E640003C91FD0101810093270230932802ECCF19
:10E650008C0108511947003820E01040B8F4082F09
:10E66000085112E0019F09E212E0000D111DAA20DD
:10E6700029F4F80120812C930181D4CF2C91F80149
:10E680002083FD012181F8012183CECF80300DE769
:10E690009007C9F4AA20E9F03C91FD0121812130C5
:10E6A000304011F6F8940E94A4F10F3F29F02FEFAB
:10E6B0000FEF1FE00E94ADF1789427E01AEF02E01F
:10E6C0000E94E6F6B1CF883E00E89007E9F5AA205F
:10E6D00019F42C93FD01D8CF3C91FD01218121300B
:10E6E00000E0300711F550902702F8940E94A4F141
:10E6F0000A3A29F02AEA0FEF1FE00E94ADF1789460
:10E7000000E0152D20E030E00E94B9F060E071E0FB
:10E7100049E252E000E0152D20E030E00E94CBF00D
:10E72000002309F081CF05E01BC02230304009F002
:10E730007BCF60E071E049E252E01091270220E0D7
:10E7400030E00E9426F170CF803D04E8900709F088
:10E7500062CFAA2009F068CF2C9304E663CF00E0D3
:10E7600089919991A991B99149905990699079901D
:10E7700089909990A990229608959A938A93FA93F2
:10E78000EA933A922A921A920A927A936A935A9345
:10E790004A933A932A931A930A938FB79BB710918F
:10E7A000C000012F0C71F9F113FB7EF420914A0493
:10E7B00030914B042F3F3F4F41F0EAE4F4E02081D9
:10E7C00031812F5F3F4F2083318312FB7EF42091F4
:10E7D0004E0430914F042F3F3F4F41F0EEE4F4E000
:10E7E000208131812F5F3F4F2083318314FB7EF4E2
:10E7F00000914C0410914D040F3F1F4F41F0ECE489
:10E80000F4E0008111810F5F1F4F0083118300919D
:10E81000C60000E0009343040093440400934504C1
:10E820000093460435C00091C60020914304309106
:10E83000440428313140C8F000E0009343040093C1
:10E840004404009345040093460400914804109149
:10E8500049040F3F1F4FE1F0E8E4F4E0008111812B
:10E860000F5F1F4F0083118313C020914304309129
:10E870004404F901E75DFC4F0283E3E4F4E0008126
:10E8800011810F5F1F4F0083118301E00E9479F017
:10E890009BBF8FBF09911991299139914991599144
:10E8A000699179910990199029903990E991F9919C
:10E8B000899199911895FA93EA934A933A932A93F6
:10E8C0001A930A934FB70091430410914404209186
:10E8D0004504309146042017310758F00091C100DB
:10E8E0000F7D0093C1000091C10000640093C1003E
:10E8F00016C0E0914504F0914604E75DFC4F12819B
:10E900000091C00000640093C0001093C600E5E4CD
:10E91000F4E0008111810F5F1F4F008311834FBF0F
:10E9200009911991299139914991E991F991189594
:10E930009A938A93FA93EA933A922A921A920A92B3
:10E940007A936A935A934A933A932A931A930A931F
:10E950008FB79BB70091C1000F7B0093C10000E00F
:10E960000093430400934404009345040093460439
:10E97000EAE5F4E0008111810F5F1F4F00831183EE
:10E9800003E00E9479F084CF6A925A924A92BA9335
:10E99000AA939A938A93229748835983C801522E47
:10E9A000DB016C90062D035039F0035009F456C07A
:10E9B0000A5009F44DC058C0BE01AD01082F0E9495
:10E9C00099F2402E4420A9F000E00883098300E872
:10E9D000602A6C92088119810F5F1F4F0883198389
:10E9E000A00FB11F4C92088119810F5F1F4F088340
:10E9F0001983FC015282DC01A65EBE4F0881198199
:10EA00000F5F1F4F0D931C9311972D913C91119700
:10EA10008C010E5F1F4F0E942BF22D913C9111979C
:10EA2000F9013196ED93FC931197FC01E20FF31F6E
:10EA300002832D913C911197F9013196ED93FC934E
:10EA4000820F931FFC011283442089F401E010C05F
:10EA5000BE01AD01082F0E9467F2B3CFBE01AD0128
:10EA6000082F0E9448F2ADCF44244394ADCF00E07C
:10EA7000229689919991A991B9914990599069905B
:10EA800008957A926A924A92BA93AA939A938A9331
:10EA9000D801F8014280E65EFE4F608071800DEF84
:10EAA000600E0FEF701E8A2F912F03960E94BCF10B
:10EAB000065FFD010183401611F04420E1F4BC0122
:10EAC000A301242D8D0160DF4420A9F0FD01E15D4B
:10EAD000FE4F208131812F5F3F4F208331830130F2
:10EAE00041F0A35DBE4F0D911C910F5F1F4F1C9312
:10EAF0000E9301E001C000E089919991A991B9912B
:10EB00004990699079900895BA93AA939A938A93B9
:10EB1000C801F801E55DFE4F008111810F5F1F4FB5
:10EB200000831183DC01A65EBE4F0D911C911197ED
:10EB3000012B31F1ED91FC911197349740F4FD01D7
:10EB4000058516850F3F1F4FD9F0895D11C02D91A6
:10EB50003C9111978C010E5F1F4F0E942BF2012BED
:10EB600089F0FD01078510890F3F1F4F49F0875D30
:10EB70009E4FFC01008111810F5F1F4F00831183A5
:10EB800000E002C08C017DDF89919991A991B99132
:10EB900008950A9529F0025051F1025031F008957C
:10EBA00025E014E000E00C94E6F600912903002330
:10EBB00029F40091C1000F760093C10009E213E02F
:10EBC000A3DF0130A1F400912903002309F4729A14
:10EBD00000E00093450400934604009129030023BC
:10EBE000C9F40091C10000620093C100089500E0E3
:10EBF00000934304009344040093450400934604A7
:10EC000000912903002331F40091C10000690093B1
:10EC1000C10072980895BA93AA930E94BCF1E9E2E8
:10EC2000F3E010E01083065F0183A3E4B4E01D93DA
:10EC30001C93A5E4B4E01D931C9303E0A7E4B4E0A7
:10EC40000C93A8E4B4E01D931C93AAE4B4E01D93D4
:10EC50001C93ACE4B4E01D931C93AEE4B4E01D93AC
:10EC60001C93A0E5B4E01D931C93A2E5B4E01D93B2
:10EC70001C93A4E5B4E01D931C93A6E5B4E01D939A
:10EC80001C93A8E5B4E01D931C93AAE5B4E01D9382
:10EC90001C93A3E4B4E01D931C930091C100006990
:10ECA0000093C100729829EC35EF01E00E9486F0D4
:10ECB00029EC35EF05E00E9486F029EC35EF03E002
:10ECC0000E9486F002E00093C00000E00093C500BF
:10ECD00003E30093C40006E00093C20008E9009338
:10ECE000C100A991B9910895002329F00A9529F04E
:10ECF000065029F006C000E0089502E0089506E0FD
:10ED0000089504E008959A938A93FA93EA933A92C5
:10ED10002A921A920A927A936A935A934A933A934E
:10ED20002A931A930A938FB79BB700E00E9479F059
:10ED30009BBF8FBF0991199129913991499159919F
:10ED4000699179910990199029903990E991F991F7
:10ED5000899199911895BA93AA938A93ECE5F4E076
:10ED600000811181228133810F5F1F4F2F4F3F4F51
:10ED70000083118322833383A0E6B4E083E0FD01A6
:10ED80000181002351F000810A950C9331F4028136
:10ED90000E9479F000E0FD01018313968A9579F7CE
:10EDA0008991A991B99108952BEA36EF00E00E946C
:10EDB00086F002E004BD03E005BD09EF07BD00E0F9
:10EDC00006BD02E005BB00936E00089533E0039F8B
:10EDD000ECE5F4E0E00DF11D1483268301E00583EA
:10EDE000089500008895FECF08EA0DBF04E00EBF2D
:10EDF000CDE0D5E00E940BF7002311F00E941DF733
:10EE00000E94C2F10E94F1F60C94F1F6000F111F5E
:10EE10004A95E2F7089501E0089520E008D0E9F767
:10EE200008953BBF27913BB702D0D9F708952D93A2
:10EE300001501040202F212B089544EE50EE61E048
:10EE4000FA01362F6BBF07911691FA01EE5FFF4F63
:10EE50003F4F3BBFA791B691FA01362FEC5FFF4FB2
:10EE60003F4F3BBF079017902690202D2129222944
:10EE700021F0F001322DD5DF01C0CFDF495F5F4FB8
:10EE80006F4F10EE21E0423F51076207C8F208952C
:10EE900000C1814001C0804101C0804100C181406A
:10EEA00001C0804100C1814000C1814001C080415A
:10EEB00001C0804100C1814000C1814001C080414A
:10EEC00000C1814001C0804101C0804100C181403A
:10EED00001C0804100C1814000C1814001C080412A
:10EEE00000C1814001C0804101C0804100C181401A
:10EEF00000C1814001C0804101C0804100C181400A
:10EF000001C0804100C1814000C1814001C08041F9
:10EF100001C0804100C1814000C1814001C08041E9
:10EF200000C1814001C0804101C0804100C18140D9
:10EF300000C1814001C0804101C0804100C18140C9
:10EF400001C0804100C1814000C1814001C08041B9
:10EF500000C1814001C0804101C0804100C18140A9
:10EF600001C0804100C1814000C1814001C0804199
:10EF700001C0804100C1814000C1814001C0804189
:10EF800000C1814001C0804101C0804100C1814079
:10EF900000C0C101C30302C2C60607C705C5C40439
:10EFA000CC0C0DCD0FCFCE0E0ACACB0BC90908C8A9
:10EFB000D81819D91BDBDA1A1EDEDF1FDD1D1CDC99
:10EFC00014D4D515D71716D6D21213D311D1D01009
:10EFD000F03031F133F3F23236F6F737F53534F4F9
:10EFE0003CFCFD3DFF3F3EFEFA3A3BFB39F9F83869
:10EFF00028E8E929EB2B2AEAEE2E2FEF2DEDEC2C59
:10F00000E42425E527E7E62622E2E323E12120E0C8
:10F01000A06061A163A3A26266A6A767A56564A4B8
:10F020006CACAD6DAF6F6EAEAA6A6BAB69A9A86828
:10F0300078B8B979BB7B7ABABE7E7FBF7DBDBC7C18
:10F04000B47475B577B7B67672B2B373B17170B088
:10F050005090915193535292965657975595945478
:10F060009C5C5D9D5F9F9E5E5A9A9B5B99595898E8
:10F07000884849894B8B8A4A4E8E8F4F8D4D4C8CD8
:10F080004484854587474686824243834181804048
:10F090003075307518799779007D007DE880E880BB
:04F0A000D084D084C4
:040000031000EDE814
:00000001FF
